Frame 1: 82 bytes on wire (656 bits), 82 bytes captured (656 bits) on interface 0
    Interface id: 0 (unknown)
        Interface name: unknown
    Encapsulation type: USB packets with Linux header and padding (115)
    Arrival Time: Jul  8, 2018 11:53:36.526924000 EDT
    [Time shift for this packet: 0.000000000 seconds]
    Epoch Time: 1531065216.526924000 seconds
    [Time delta from previous captured frame: 0.000000000 seconds]
    [Time delta from previous displayed frame: 0.000000000 seconds]
    [Time since reference or first frame: 0.000000000 seconds]
    Frame Number: 1
    Frame Length: 82 bytes (656 bits)
    Capture Length: 82 bytes (656 bits)
    [Frame is marked: False]
    [Frame is ignored: False]
    [Protocols in frame: usb]
USB URB
    [Source: 3.2.0]
    [Destination: host]
    URB id: 0xffff9d196b447f00
    URB type: URB_COMPLETE ('C')
    URB transfer type: URB_CONTROL (0x02)
    Endpoint: 0x80, Direction: IN
        1... .... = Direction: IN (1)
        .... 0000 = Endpoint number: 0
    Device: 2
    URB bus id: 3
    Device setup request: not relevant ('-')
    Data: present (0)
    URB sec: 1531065216
    URB usec: 526924
    URB status: Success (0)
    URB length [bytes]: 18
    Data length [bytes]: 18
    Unused Setup Header
    Interval: 0
    Start frame: 0
    Copy of Transfer Flags: 0x00000200
    Number of ISO descriptors: 0
CONTROL response data: 12010002000000404d0b2f11000100000101

0000  00 7f 44 6b 19 9d ff ff 43 02 80 02 03 00 2d 00   ..Dk....C.....-.
0010  80 33 42 5b 00 00 00 00 4c 0a 08 00 00 00 00 00   .3B[....L.......
0020  12 00 00 00 12 00 00 00 00 00 00 00 00 00 00 00   ................
0030  00 00 00 00 00 00 00 00 00 02 00 00 00 00 00 00   ................
0040  12 01 00 02 00 00 00 40 4d 0b 2f 11 00 01 00 00   .......@M./.....
0050  01 01                                             ..

Frame 2: 66 bytes on wire (528 bits), 66 bytes captured (528 bits) on interface 0
    Interface id: 0 (unknown)
        Interface name: unknown
    Encapsulation type: USB packets with Linux header and padding (115)
    Arrival Time: Jul  8, 2018 11:54:31.472687000 EDT
    [Time shift for this packet: 0.000000000 seconds]
    Epoch Time: 1531065271.472687000 seconds
    [Time delta from previous captured frame: 54.945763000 seconds]
    [Time delta from previous displayed frame: 54.945763000 seconds]
    [Time since reference or first frame: 54.945763000 seconds]
    Frame Number: 2
    Frame Length: 66 bytes (528 bits)
    Capture Length: 66 bytes (528 bits)
    [Frame is marked: False]
    [Frame is ignored: False]
    [Protocols in frame: usb]
USB URB
    [Source: host]
    [Destination: 3.2.1]
    URB id: 0xffff9d1952563d80
    URB type: URB_SUBMIT ('S')
    URB transfer type: URB_BULK (0x03)
    Endpoint: 0x01, Direction: OUT
        0... .... = Direction: OUT (0)
        .... 0001 = Endpoint number: 1
    Device: 2
    URB bus id: 3
    Device setup request: not relevant ('-')
    Data: present (0)
    URB sec: 1531065271
    URB usec: 472687
    URB status: Operation now in progress (-EINPROGRESS) (-115)
    URB length [bytes]: 2
    Data length [bytes]: 2
    [bInterfaceClass: Unknown (0xffff)]
    Unused Setup Header
    Interval: 0
    Start frame: 0
    Copy of Transfer Flags: 0x00000000
    Number of ISO descriptors: 0
Leftover Capture Data: 1b05

0000  80 3d 56 52 19 9d ff ff 53 03 01 02 03 00 2d 00   .=VR....S.....-.
0010  b7 33 42 5b 00 00 00 00 6f 36 07 00 8d ff ff ff   .3B[....o6......
0020  02 00 00 00 02 00 00 00 00 00 00 00 00 00 00 00   ................
0030  00 00 00 00 00 00 00 00 00 00 00 00 00 00 00 00   ................
0040  1b 05                                             ..

Frame 3: 66 bytes on wire (528 bits), 66 bytes captured (528 bits) on interface 0
    Interface id: 0 (unknown)
        Interface name: unknown
    Encapsulation type: USB packets with Linux header and padding (115)
    Arrival Time: Jul  8, 2018 11:54:31.557902000 EDT
    [Time shift for this packet: 0.000000000 seconds]
    Epoch Time: 1531065271.557902000 seconds
    [Time delta from previous captured frame: 0.085215000 seconds]
    [Time delta from previous displayed frame: 0.085215000 seconds]
    [Time since reference or first frame: 55.030978000 seconds]
    Frame Number: 3
    Frame Length: 66 bytes (528 bits)
    Capture Length: 66 bytes (528 bits)
    [Frame is marked: False]
    [Frame is ignored: False]
    [Protocols in frame: usb]
USB URB
    [Source: 3.2.2]
    [Destination: host]
    URB id: 0xffff9d1952563840
    URB type: URB_COMPLETE ('C')
    URB transfer type: URB_BULK (0x03)
    Endpoint: 0x82, Direction: IN
        1... .... = Direction: IN (1)
        .... 0010 = Endpoint number: 2
    Device: 2
    URB bus id: 3
    Device setup request: not relevant ('-')
    Data: present (0)
    URB sec: 1531065271
    URB usec: 557902
    URB status: Remote I/O error (-EREMOTEIO) (-121)
    URB length [bytes]: 2
    Data length [bytes]: 2
    [bInterfaceClass: Unknown (0xffff)]
    Unused Setup Header
    Interval: 0
    Start frame: 0
    Copy of Transfer Flags: 0x00000201
    Number of ISO descriptors: 0
Leftover Capture Data: 3003

0000  40 38 56 52 19 9d ff ff 43 03 82 02 03 00 2d 00   @8VR....C.....-.
0010  b7 33 42 5b 00 00 00 00 4e 83 08 00 87 ff ff ff   .3B[....N.......
0020  02 00 00 00 02 00 00 00 00 00 00 00 00 00 00 00   ................
0030  00 00 00 00 00 00 00 00 01 02 00 00 00 00 00 00   ................
0040  30 03                                             0.

Frame 4: 67 bytes on wire (536 bits), 67 bytes captured (536 bits) on interface 0
    Interface id: 0 (unknown)
        Interface name: unknown
    Encapsulation type: USB packets with Linux header and padding (115)
    Arrival Time: Jul  8, 2018 11:54:33.875938000 EDT
    [Time shift for this packet: 0.000000000 seconds]
    Epoch Time: 1531065273.875938000 seconds
    [Time delta from previous captured frame: 2.318036000 seconds]
    [Time delta from previous displayed frame: 2.318036000 seconds]
    [Time since reference or first frame: 57.349014000 seconds]
    Frame Number: 4
    Frame Length: 67 bytes (536 bits)
    Capture Length: 67 bytes (536 bits)
    [Frame is marked: False]
    [Frame is ignored: False]
    [Protocols in frame: usb]
USB URB
    [Source: host]
    [Destination: 3.2.1]
    URB id: 0xffff9d19b3c36d80
    URB type: URB_SUBMIT ('S')
    URB transfer type: URB_BULK (0x03)
    Endpoint: 0x01, Direction: OUT
        0... .... = Direction: OUT (0)
        .... 0001 = Endpoint number: 1
    Device: 2
    URB bus id: 3
    Device setup request: not relevant ('-')
    Data: present (0)
    URB sec: 1531065273
    URB usec: 875938
    URB status: Operation now in progress (-EINPROGRESS) (-115)
    URB length [bytes]: 3
    Data length [bytes]: 3
    [bInterfaceClass: Unknown (0xffff)]
    Unused Setup Header
    Interval: 0
    Start frame: 0
    Copy of Transfer Flags: 0x00000000
    Number of ISO descriptors: 0
Leftover Capture Data: 464703

0000  80 6d c3 b3 19 9d ff ff 53 03 01 02 03 00 2d 00   .m......S.....-.
0010  b9 33 42 5b 00 00 00 00 a2 5d 0d 00 8d ff ff ff   .3B[.....]......
0020  03 00 00 00 03 00 00 00 00 00 00 00 00 00 00 00   ................
0030  00 00 00 00 00 00 00 00 00 00 00 00 00 00 00 00   ................
0040  46 47 03                                          FG.

Frame 5: 82 bytes on wire (656 bits), 82 bytes captured (656 bits) on interface 0
    Interface id: 0 (unknown)
        Interface name: unknown
    Encapsulation type: USB packets with Linux header and padding (115)
    Arrival Time: Jul  8, 2018 11:54:34.017806000 EDT
    [Time shift for this packet: 0.000000000 seconds]
    Epoch Time: 1531065274.017806000 seconds
    [Time delta from previous captured frame: 0.141868000 seconds]
    [Time delta from previous displayed frame: 0.141868000 seconds]
    [Time since reference or first frame: 57.490882000 seconds]
    Frame Number: 5
    Frame Length: 82 bytes (656 bits)
    Capture Length: 82 bytes (656 bits)
    [Frame is marked: False]
    [Frame is ignored: False]
    [Protocols in frame: usb]
USB URB
    [Source: 3.2.2]
    [Destination: host]
    URB id: 0xffff9d19b3c36240
    URB type: URB_COMPLETE ('C')
    URB transfer type: URB_BULK (0x03)
    Endpoint: 0x82, Direction: IN
        1... .... = Direction: IN (1)
        .... 0010 = Endpoint number: 2
    Device: 2
    URB bus id: 3
    Device setup request: not relevant ('-')
    Data: present (0)
    URB sec: 1531065274
    URB usec: 17806
    URB status: Remote I/O error (-EREMOTEIO) (-121)
    URB length [bytes]: 18
    Data length [bytes]: 18
    [bInterfaceClass: Unknown (0xffff)]
    Unused Setup Header
    Interval: 0
    Start frame: 0
    Copy of Transfer Flags: 0x00000201
    Number of ISO descriptors: 0
Leftover Capture Data: 43414d454f20332056312e35302020202003

0000  40 62 c3 b3 19 9d ff ff 43 03 82 02 03 00 2d 00   @b......C.....-.
0010  ba 33 42 5b 00 00 00 00 8e 45 00 00 87 ff ff ff   .3B[.....E......
0020  12 00 00 00 12 00 00 00 00 00 00 00 00 00 00 00   ................
0030  00 00 00 00 00 00 00 00 01 02 00 00 00 00 00 00   ................
0040  43 41 4d 45 4f 20 33 20 56 31 2e 35 30 20 20 20   CAMEO 3 V1.50   
0050  20 03                                              .

Frame 6: 66 bytes on wire (528 bits), 66 bytes captured (528 bits) on interface 0
    Interface id: 0 (unknown)
        Interface name: unknown
    Encapsulation type: USB packets with Linux header and padding (115)
    Arrival Time: Jul  8, 2018 11:54:34.250882000 EDT
    [Time shift for this packet: 0.000000000 seconds]
    Epoch Time: 1531065274.250882000 seconds
    [Time delta from previous captured frame: 0.233076000 seconds]
    [Time delta from previous displayed frame: 0.233076000 seconds]
    [Time since reference or first frame: 57.723958000 seconds]
    Frame Number: 6
    Frame Length: 66 bytes (528 bits)
    Capture Length: 66 bytes (528 bits)
    [Frame is marked: False]
    [Frame is ignored: False]
    [Protocols in frame: usb]
USB URB
    [Source: host]
    [Destination: 3.2.1]
    URB id: 0xffff9d19b3c366c0
    URB type: URB_SUBMIT ('S')
    URB transfer type: URB_BULK (0x03)
    Endpoint: 0x01, Direction: OUT
        0... .... = Direction: OUT (0)
        .... 0001 = Endpoint number: 1
    Device: 2
    URB bus id: 3
    Device setup request: not relevant ('-')
    Data: present (0)
    URB sec: 1531065274
    URB usec: 250882
    URB status: Operation now in progress (-EINPROGRESS) (-115)
    URB length [bytes]: 2
    Data length [bytes]: 2
    [bInterfaceClass: Unknown (0xffff)]
    Unused Setup Header
    Interval: 0
    Start frame: 0
    Copy of Transfer Flags: 0x00000000
    Number of ISO descriptors: 0
Leftover Capture Data: 1b05

0000  c0 66 c3 b3 19 9d ff ff 53 03 01 02 03 00 2d 00   .f......S.....-.
0010  ba 33 42 5b 00 00 00 00 02 d4 03 00 8d ff ff ff   .3B[............
0020  02 00 00 00 02 00 00 00 00 00 00 00 00 00 00 00   ................
0030  00 00 00 00 00 00 00 00 00 00 00 00 00 00 00 00   ................
0040  1b 05                                             ..

Frame 7: 66 bytes on wire (528 bits), 66 bytes captured (528 bits) on interface 0
    Interface id: 0 (unknown)
        Interface name: unknown
    Encapsulation type: USB packets with Linux header and padding (115)
    Arrival Time: Jul  8, 2018 11:54:34.345744000 EDT
    [Time shift for this packet: 0.000000000 seconds]
    Epoch Time: 1531065274.345744000 seconds
    [Time delta from previous captured frame: 0.094862000 seconds]
    [Time delta from previous displayed frame: 0.094862000 seconds]
    [Time since reference or first frame: 57.818820000 seconds]
    Frame Number: 7
    Frame Length: 66 bytes (528 bits)
    Capture Length: 66 bytes (528 bits)
    [Frame is marked: False]
    [Frame is ignored: False]
    [Protocols in frame: usb]
USB URB
    [Source: 3.2.2]
    [Destination: host]
    URB id: 0xffff9d19b3c36900
    URB type: URB_COMPLETE ('C')
    URB transfer type: URB_BULK (0x03)
    Endpoint: 0x82, Direction: IN
        1... .... = Direction: IN (1)
        .... 0010 = Endpoint number: 2
    Device: 2
    URB bus id: 3
    Device setup request: not relevant ('-')
    Data: present (0)
    URB sec: 1531065274
    URB usec: 345744
    URB status: Remote I/O error (-EREMOTEIO) (-121)
    URB length [bytes]: 2
    Data length [bytes]: 2
    [bInterfaceClass: Unknown (0xffff)]
    Unused Setup Header
    Interval: 0
    Start frame: 0
    Copy of Transfer Flags: 0x00000201
    Number of ISO descriptors: 0
Leftover Capture Data: 3003

0000  00 69 c3 b3 19 9d ff ff 43 03 82 02 03 00 2d 00   .i......C.....-.
0010  ba 33 42 5b 00 00 00 00 90 46 05 00 87 ff ff ff   .3B[.....F......
0020  02 00 00 00 02 00 00 00 00 00 00 00 00 00 00 00   ................
0030  00 00 00 00 00 00 00 00 01 02 00 00 00 00 00 00   ................
0040  30 03                                             0.

Frame 8: 67 bytes on wire (536 bits), 67 bytes captured (536 bits) on interface 0
    Interface id: 0 (unknown)
        Interface name: unknown
    Encapsulation type: USB packets with Linux header and padding (115)
    Arrival Time: Jul  8, 2018 11:54:34.444930000 EDT
    [Time shift for this packet: 0.000000000 seconds]
    Epoch Time: 1531065274.444930000 seconds
    [Time delta from previous captured frame: 0.099186000 seconds]
    [Time delta from previous displayed frame: 0.099186000 seconds]
    [Time since reference or first frame: 57.918006000 seconds]
    Frame Number: 8
    Frame Length: 67 bytes (536 bits)
    Capture Length: 67 bytes (536 bits)
    [Frame is marked: False]
    [Frame is ignored: False]
    [Protocols in frame: usb]
USB URB
    [Source: host]
    [Destination: 3.2.1]
    URB id: 0xffff9d196fe45240
    URB type: URB_SUBMIT ('S')
    URB transfer type: URB_BULK (0x03)
    Endpoint: 0x01, Direction: OUT
        0... .... = Direction: OUT (0)
        .... 0001 = Endpoint number: 1
    Device: 2
    URB bus id: 3
    Device setup request: not relevant ('-')
    Data: present (0)
    URB sec: 1531065274
    URB usec: 444930
    URB status: Operation now in progress (-EINPROGRESS) (-115)
    URB length [bytes]: 3
    Data length [bytes]: 3
    [bInterfaceClass: Unknown (0xffff)]
    Unused Setup Header
    Interval: 0
    Start frame: 0
    Copy of Transfer Flags: 0x00000000
    Number of ISO descriptors: 0
Leftover Capture Data: 464703

0000  40 52 e4 6f 19 9d ff ff 53 03 01 02 03 00 2d 00   @R.o....S.....-.
0010  ba 33 42 5b 00 00 00 00 02 ca 06 00 8d ff ff ff   .3B[............
0020  03 00 00 00 03 00 00 00 00 00 00 00 00 00 00 00   ................
0030  00 00 00 00 00 00 00 00 00 00 00 00 00 00 00 00   ................
0040  46 47 03                                          FG.

Frame 9: 82 bytes on wire (656 bits), 82 bytes captured (656 bits) on interface 0
    Interface id: 0 (unknown)
        Interface name: unknown
    Encapsulation type: USB packets with Linux header and padding (115)
    Arrival Time: Jul  8, 2018 11:54:34.591858000 EDT
    [Time shift for this packet: 0.000000000 seconds]
    Epoch Time: 1531065274.591858000 seconds
    [Time delta from previous captured frame: 0.146928000 seconds]
    [Time delta from previous displayed frame: 0.146928000 seconds]
    [Time since reference or first frame: 58.064934000 seconds]
    Frame Number: 9
    Frame Length: 82 bytes (656 bits)
    Capture Length: 82 bytes (656 bits)
    [Frame is marked: False]
    [Frame is ignored: False]
    [Protocols in frame: usb]
USB URB
    [Source: 3.2.2]
    [Destination: host]
    URB id: 0xffff9d196fe45540
    URB type: URB_COMPLETE ('C')
    URB transfer type: URB_BULK (0x03)
    Endpoint: 0x82, Direction: IN
        1... .... = Direction: IN (1)
        .... 0010 = Endpoint number: 2
    Device: 2
    URB bus id: 3
    Device setup request: not relevant ('-')
    Data: present (0)
    URB sec: 1531065274
    URB usec: 591858
    URB status: Remote I/O error (-EREMOTEIO) (-121)
    URB length [bytes]: 18
    Data length [bytes]: 18
    [bInterfaceClass: Unknown (0xffff)]
    Unused Setup Header
    Interval: 0
    Start frame: 0
    Copy of Transfer Flags: 0x00000201
    Number of ISO descriptors: 0
Leftover Capture Data: 43414d454f20332056312e35302020202003

0000  40 55 e4 6f 19 9d ff ff 43 03 82 02 03 00 2d 00   @U.o....C.....-.
0010  ba 33 42 5b 00 00 00 00 f2 07 09 00 87 ff ff ff   .3B[............
0020  12 00 00 00 12 00 00 00 00 00 00 00 00 00 00 00   ................
0030  00 00 00 00 00 00 00 00 01 02 00 00 00 00 00 00   ................
0040  43 41 4d 45 4f 20 33 20 56 31 2e 35 30 20 20 20   CAMEO 3 V1.50   
0050  20 03                                              .

Frame 10: 66 bytes on wire (528 bits), 66 bytes captured (528 bits) on interface 0
    Interface id: 0 (unknown)
        Interface name: unknown
    Encapsulation type: USB packets with Linux header and padding (115)
    Arrival Time: Jul  8, 2018 11:54:35.142152000 EDT
    [Time shift for this packet: 0.000000000 seconds]
    Epoch Time: 1531065275.142152000 seconds
    [Time delta from previous captured frame: 0.550294000 seconds]
    [Time delta from previous displayed frame: 0.550294000 seconds]
    [Time since reference or first frame: 58.615228000 seconds]
    Frame Number: 10
    Frame Length: 66 bytes (528 bits)
    Capture Length: 66 bytes (528 bits)
    [Frame is marked: False]
    [Frame is ignored: False]
    [Protocols in frame: usb]
USB URB
    [Source: host]
    [Destination: 3.2.1]
    URB id: 0xffff9d1952563600
    URB type: URB_SUBMIT ('S')
    URB transfer type: URB_BULK (0x03)
    Endpoint: 0x01, Direction: OUT
        0... .... = Direction: OUT (0)
        .... 0001 = Endpoint number: 1
    Device: 2
    URB bus id: 3
    Device setup request: not relevant ('-')
    Data: present (0)
    URB sec: 1531065275
    URB usec: 142152
    URB status: Operation now in progress (-EINPROGRESS) (-115)
    URB length [bytes]: 2
    Data length [bytes]: 2
    [bInterfaceClass: Unknown (0xffff)]
    Unused Setup Header
    Interval: 0
    Start frame: 0
    Copy of Transfer Flags: 0x00000000
    Number of ISO descriptors: 0
Leftover Capture Data: 1b05

0000  00 36 56 52 19 9d ff ff 53 03 01 02 03 00 2d 00   .6VR....S.....-.
0010  bb 33 42 5b 00 00 00 00 48 2b 02 00 8d ff ff ff   .3B[....H+......
0020  02 00 00 00 02 00 00 00 00 00 00 00 00 00 00 00   ................
0030  00 00 00 00 00 00 00 00 00 00 00 00 00 00 00 00   ................
0040  1b 05                                             ..

Frame 11: 66 bytes on wire (528 bits), 66 bytes captured (528 bits) on interface 0
    Interface id: 0 (unknown)
        Interface name: unknown
    Encapsulation type: USB packets with Linux header and padding (115)
    Arrival Time: Jul  8, 2018 11:54:35.247751000 EDT
    [Time shift for this packet: 0.000000000 seconds]
    Epoch Time: 1531065275.247751000 seconds
    [Time delta from previous captured frame: 0.105599000 seconds]
    [Time delta from previous displayed frame: 0.105599000 seconds]
    [Time since reference or first frame: 58.720827000 seconds]
    Frame Number: 11
    Frame Length: 66 bytes (528 bits)
    Capture Length: 66 bytes (528 bits)
    [Frame is marked: False]
    [Frame is ignored: False]
    [Protocols in frame: usb]
USB URB
    [Source: 3.2.2]
    [Destination: host]
    URB id: 0xffff9d1952563000
    URB type: URB_COMPLETE ('C')
    URB transfer type: URB_BULK (0x03)
    Endpoint: 0x82, Direction: IN
        1... .... = Direction: IN (1)
        .... 0010 = Endpoint number: 2
    Device: 2
    URB bus id: 3
    Device setup request: not relevant ('-')
    Data: present (0)
    URB sec: 1531065275
    URB usec: 247751
    URB status: Remote I/O error (-EREMOTEIO) (-121)
    URB length [bytes]: 2
    Data length [bytes]: 2
    [bInterfaceClass: Unknown (0xffff)]
    Unused Setup Header
    Interval: 0
    Start frame: 0
    Copy of Transfer Flags: 0x00000201
    Number of ISO descriptors: 0
Leftover Capture Data: 3003

0000  00 30 56 52 19 9d ff ff 43 03 82 02 03 00 2d 00   .0VR....C.....-.
0010  bb 33 42 5b 00 00 00 00 c7 c7 03 00 87 ff ff ff   .3B[............
0020  02 00 00 00 02 00 00 00 00 00 00 00 00 00 00 00   ................
0030  00 00 00 00 00 00 00 00 01 02 00 00 00 00 00 00   ................
0040  30 03                                             0.

Frame 12: 66 bytes on wire (528 bits), 66 bytes captured (528 bits) on interface 0
    Interface id: 0 (unknown)
        Interface name: unknown
    Encapsulation type: USB packets with Linux header and padding (115)
    Arrival Time: Jul  8, 2018 11:54:35.738156000 EDT
    [Time shift for this packet: 0.000000000 seconds]
    Epoch Time: 1531065275.738156000 seconds
    [Time delta from previous captured frame: 0.490405000 seconds]
    [Time delta from previous displayed frame: 0.490405000 seconds]
    [Time since reference or first frame: 59.211232000 seconds]
    Frame Number: 12
    Frame Length: 66 bytes (528 bits)
    Capture Length: 66 bytes (528 bits)
    [Frame is marked: False]
    [Frame is ignored: False]
    [Protocols in frame: usb]
USB URB
    [Source: host]
    [Destination: 3.2.1]
    URB id: 0xffff9d1952563000
    URB type: URB_SUBMIT ('S')
    URB transfer type: URB_BULK (0x03)
    Endpoint: 0x01, Direction: OUT
        0... .... = Direction: OUT (0)
        .... 0001 = Endpoint number: 1
    Device: 2
    URB bus id: 3
    Device setup request: not relevant ('-')
    Data: present (0)
    URB sec: 1531065275
    URB usec: 738156
    URB status: Operation now in progress (-EINPROGRESS) (-115)
    URB length [bytes]: 2
    Data length [bytes]: 2
    [bInterfaceClass: Unknown (0xffff)]
    Unused Setup Header
    Interval: 0
    Start frame: 0
    Copy of Transfer Flags: 0x00000000
    Number of ISO descriptors: 0
Leftover Capture Data: 1b05

0000  00 30 56 52 19 9d ff ff 53 03 01 02 03 00 2d 00   .0VR....S.....-.
0010  bb 33 42 5b 00 00 00 00 6c 43 0b 00 8d ff ff ff   .3B[....lC......
0020  02 00 00 00 02 00 00 00 00 00 00 00 00 00 00 00   ................
0030  00 00 00 00 00 00 00 00 00 00 00 00 00 00 00 00   ................
0040  1b 05                                             ..

Frame 13: 66 bytes on wire (528 bits), 66 bytes captured (528 bits) on interface 0
    Interface id: 0 (unknown)
        Interface name: unknown
    Encapsulation type: USB packets with Linux header and padding (115)
    Arrival Time: Jul  8, 2018 11:54:35.821796000 EDT
    [Time shift for this packet: 0.000000000 seconds]
    Epoch Time: 1531065275.821796000 seconds
    [Time delta from previous captured frame: 0.083640000 seconds]
    [Time delta from previous displayed frame: 0.083640000 seconds]
    [Time since reference or first frame: 59.294872000 seconds]
    Frame Number: 13
    Frame Length: 66 bytes (528 bits)
    Capture Length: 66 bytes (528 bits)
    [Frame is marked: False]
    [Frame is ignored: False]
    [Protocols in frame: usb]
USB URB
    [Source: 3.2.2]
    [Destination: host]
    URB id: 0xffff9d1952563600
    URB type: URB_COMPLETE ('C')
    URB transfer type: URB_BULK (0x03)
    Endpoint: 0x82, Direction: IN
        1... .... = Direction: IN (1)
        .... 0010 = Endpoint number: 2
    Device: 2
    URB bus id: 3
    Device setup request: not relevant ('-')
    Data: present (0)
    URB sec: 1531065275
    URB usec: 821796
    URB status: Remote I/O error (-EREMOTEIO) (-121)
    URB length [bytes]: 2
    Data length [bytes]: 2
    [bInterfaceClass: Unknown (0xffff)]
    Unused Setup Header
    Interval: 0
    Start frame: 0
    Copy of Transfer Flags: 0x00000201
    Number of ISO descriptors: 0
Leftover Capture Data: 3003

0000  00 36 56 52 19 9d ff ff 43 03 82 02 03 00 2d 00   .6VR....C.....-.
0010  bb 33 42 5b 00 00 00 00 24 8a 0c 00 87 ff ff ff   .3B[....$.......
0020  02 00 00 00 02 00 00 00 00 00 00 00 00 00 00 00   ................
0030  00 00 00 00 00 00 00 00 01 02 00 00 00 00 00 00   ................
0040  30 03                                             0.

Frame 14: 66 bytes on wire (528 bits), 66 bytes captured (528 bits) on interface 0
    Interface id: 0 (unknown)
        Interface name: unknown
    Encapsulation type: USB packets with Linux header and padding (115)
    Arrival Time: Jul  8, 2018 11:54:36.005600000 EDT
    [Time shift for this packet: 0.000000000 seconds]
    Epoch Time: 1531065276.005600000 seconds
    [Time delta from previous captured frame: 0.183804000 seconds]
    [Time delta from previous displayed frame: 0.183804000 seconds]
    [Time since reference or first frame: 59.478676000 seconds]
    Frame Number: 14
    Frame Length: 66 bytes (528 bits)
    Capture Length: 66 bytes (528 bits)
    [Frame is marked: False]
    [Frame is ignored: False]
    [Protocols in frame: usb]
USB URB
    [Source: host]
    [Destination: 3.2.1]
    URB id: 0xffff9d1952563600
    URB type: URB_SUBMIT ('S')
    URB transfer type: URB_BULK (0x03)
    Endpoint: 0x01, Direction: OUT
        0... .... = Direction: OUT (0)
        .... 0001 = Endpoint number: 1
    Device: 2
    URB bus id: 3
    Device setup request: not relevant ('-')
    Data: present (0)
    URB sec: 1531065276
    URB usec: 5600
    URB status: Operation now in progress (-EINPROGRESS) (-115)
    URB length [bytes]: 2
    Data length [bytes]: 2
    [bInterfaceClass: Unknown (0xffff)]
    Unused Setup Header
    Interval: 0
    Start frame: 0
    Copy of Transfer Flags: 0x00000000
    Number of ISO descriptors: 0
Leftover Capture Data: 5b03

0000  00 36 56 52 19 9d ff ff 53 03 01 02 03 00 2d 00   .6VR....S.....-.
0010  bc 33 42 5b 00 00 00 00 e0 15 00 00 8d ff ff ff   .3B[............
0020  02 00 00 00 02 00 00 00 00 00 00 00 00 00 00 00   ................
0030  00 00 00 00 00 00 00 00 00 00 00 00 00 00 00 00   ................
0040  5b 03                                             [.

Frame 15: 78 bytes on wire (624 bits), 78 bytes captured (624 bits) on interface 0
    Interface id: 0 (unknown)
        Interface name: unknown
    Encapsulation type: USB packets with Linux header and padding (115)
    Arrival Time: Jul  8, 2018 11:54:36.149913000 EDT
    [Time shift for this packet: 0.000000000 seconds]
    Epoch Time: 1531065276.149913000 seconds
    [Time delta from previous captured frame: 0.144313000 seconds]
    [Time delta from previous displayed frame: 0.144313000 seconds]
    [Time since reference or first frame: 59.622989000 seconds]
    Frame Number: 15
    Frame Length: 78 bytes (624 bits)
    Capture Length: 78 bytes (624 bits)
    [Frame is marked: False]
    [Frame is ignored: False]
    [Protocols in frame: usb]
USB URB
    [Source: 3.2.2]
    [Destination: host]
    URB id: 0xffff9d1952563000
    URB type: URB_COMPLETE ('C')
    URB transfer type: URB_BULK (0x03)
    Endpoint: 0x82, Direction: IN
        1... .... = Direction: IN (1)
        .... 0010 = Endpoint number: 2
    Device: 2
    URB bus id: 3
    Device setup request: not relevant ('-')
    Data: present (0)
    URB sec: 1531065276
    URB usec: 149913
    URB status: Remote I/O error (-EREMOTEIO) (-121)
    URB length [bytes]: 14
    Data length [bytes]: 14
    [bInterfaceClass: Unknown (0xffff)]
    Unused Setup Header
    Interval: 0
    Start frame: 0
    Copy of Transfer Flags: 0x00000201
    Number of ISO descriptors: 0
Leftover Capture Data: 2020202020302c20202020203003

0000  00 30 56 52 19 9d ff ff 43 03 82 02 03 00 2d 00   .0VR....C.....-.
0010  bc 33 42 5b 00 00 00 00 99 49 02 00 87 ff ff ff   .3B[.....I......
0020  0e 00 00 00 0e 00 00 00 00 00 00 00 00 00 00 00   ................
0030  00 00 00 00 00 00 00 00 01 02 00 00 00 00 00 00   ................
0040  20 20 20 20 20 30 2c 20 20 20 20 20 30 03              0,     0.

Frame 16: 66 bytes on wire (528 bits), 66 bytes captured (528 bits) on interface 0
    Interface id: 0 (unknown)
        Interface name: unknown
    Encapsulation type: USB packets with Linux header and padding (115)
    Arrival Time: Jul  8, 2018 11:54:36.180132000 EDT
    [Time shift for this packet: 0.000000000 seconds]
    Epoch Time: 1531065276.180132000 seconds
    [Time delta from previous captured frame: 0.030219000 seconds]
    [Time delta from previous displayed frame: 0.030219000 seconds]
    [Time since reference or first frame: 59.653208000 seconds]
    Frame Number: 16
    Frame Length: 66 bytes (528 bits)
    Capture Length: 66 bytes (528 bits)
    [Frame is marked: False]
    [Frame is ignored: False]
    [Protocols in frame: usb]
USB URB
    [Source: host]
    [Destination: 3.2.1]
    URB id: 0xffff9d1952563000
    URB type: URB_SUBMIT ('S')
    URB transfer type: URB_BULK (0x03)
    Endpoint: 0x01, Direction: OUT
        0... .... = Direction: OUT (0)
        .... 0001 = Endpoint number: 1
    Device: 2
    URB bus id: 3
    Device setup request: not relevant ('-')
    Data: present (0)
    URB sec: 1531065276
    URB usec: 180132
    URB status: Operation now in progress (-EINPROGRESS) (-115)
    URB length [bytes]: 2
    Data length [bytes]: 2
    [bInterfaceClass: Unknown (0xffff)]
    Unused Setup Header
    Interval: 0
    Start frame: 0
    Copy of Transfer Flags: 0x00000000
    Number of ISO descriptors: 0
Leftover Capture Data: 5503

0000  00 30 56 52 19 9d ff ff 53 03 01 02 03 00 2d 00   .0VR....S.....-.
0010  bc 33 42 5b 00 00 00 00 a4 bf 02 00 8d ff ff ff   .3B[............
0020  02 00 00 00 02 00 00 00 00 00 00 00 00 00 00 00   ................
0030  00 00 00 00 00 00 00 00 00 00 00 00 00 00 00 00   ................
0040  55 03                                             U.

Frame 17: 78 bytes on wire (624 bits), 78 bytes captured (624 bits) on interface 0
    Interface id: 0 (unknown)
        Interface name: unknown
    Encapsulation type: USB packets with Linux header and padding (115)
    Arrival Time: Jul  8, 2018 11:54:36.313844000 EDT
    [Time shift for this packet: 0.000000000 seconds]
    Epoch Time: 1531065276.313844000 seconds
    [Time delta from previous captured frame: 0.133712000 seconds]
    [Time delta from previous displayed frame: 0.133712000 seconds]
    [Time since reference or first frame: 59.786920000 seconds]
    Frame Number: 17
    Frame Length: 78 bytes (624 bits)
    Capture Length: 78 bytes (624 bits)
    [Frame is marked: False]
    [Frame is ignored: False]
    [Protocols in frame: usb]
USB URB
    [Source: 3.2.2]
    [Destination: host]
    URB id: 0xffff9d1952563000
    URB type: URB_COMPLETE ('C')
    URB transfer type: URB_BULK (0x03)
    Endpoint: 0x82, Direction: IN
        1... .... = Direction: IN (1)
        .... 0010 = Endpoint number: 2
    Device: 2
    URB bus id: 3
    Device setup request: not relevant ('-')
    Data: present (0)
    URB sec: 1531065276
    URB usec: 313844
    URB status: Remote I/O error (-EREMOTEIO) (-121)
    URB length [bytes]: 14
    Data length [bytes]: 14
    [bInterfaceClass: Unknown (0xffff)]
    Unused Setup Header
    Interval: 0
    Start frame: 0
    Copy of Transfer Flags: 0x00000201
    Number of ISO descriptors: 0
Leftover Capture Data: 2031323230302c20203631303003

0000  00 30 56 52 19 9d ff ff 43 03 82 02 03 00 2d 00   .0VR....C.....-.
0010  bc 33 42 5b 00 00 00 00 f4 c9 04 00 87 ff ff ff   .3B[............
0020  0e 00 00 00 0e 00 00 00 00 00 00 00 00 00 00 00   ................
0030  00 00 00 00 00 00 00 00 01 02 00 00 00 00 00 00   ................
0040  20 31 32 32 30 30 2c 20 20 36 31 30 30 03          12200,  6100.

Frame 18: 68 bytes on wire (544 bits), 68 bytes captured (544 bits) on interface 0
    Interface id: 0 (unknown)
        Interface name: unknown
    Encapsulation type: USB packets with Linux header and padding (115)
    Arrival Time: Jul  8, 2018 11:54:36.443284000 EDT
    [Time shift for this packet: 0.000000000 seconds]
    Epoch Time: 1531065276.443284000 seconds
    [Time delta from previous captured frame: 0.129440000 seconds]
    [Time delta from previous displayed frame: 0.129440000 seconds]
    [Time since reference or first frame: 59.916360000 seconds]
    Frame Number: 18
    Frame Length: 68 bytes (544 bits)
    Capture Length: 68 bytes (544 bits)
    [Frame is marked: False]
    [Frame is ignored: False]
    [Protocols in frame: usb]
USB URB
    [Source: host]
    [Destination: 3.2.1]
    URB id: 0xffff9d19b3c36780
    URB type: URB_SUBMIT ('S')
    URB transfer type: URB_BULK (0x03)
    Endpoint: 0x01, Direction: OUT
        0... .... = Direction: OUT (0)
        .... 0001 = Endpoint number: 1
    Device: 2
    URB bus id: 3
    Device setup request: not relevant ('-')
    Data: present (0)
    URB sec: 1531065276
    URB usec: 443284
    URB status: Operation now in progress (-EINPROGRESS) (-115)
    URB length [bytes]: 4
    Data length [bytes]: 4
    [bInterfaceClass: Unknown (0xffff)]
    Unused Setup Header
    Interval: 0
    Start frame: 0
    Copy of Transfer Flags: 0x00000000
    Number of ISO descriptors: 0
Leftover Capture Data: 46513003

0000  80 67 c3 b3 19 9d ff ff 53 03 01 02 03 00 2d 00   .g......S.....-.
0010  bc 33 42 5b 00 00 00 00 94 c3 06 00 8d ff ff ff   .3B[............
0020  04 00 00 00 04 00 00 00 00 00 00 00 00 00 00 00   ................
0030  00 00 00 00 00 00 00 00 00 00 00 00 00 00 00 00   ................
0040  46 51 30 03                                       FQ0.

Frame 19: 70 bytes on wire (560 bits), 70 bytes captured (560 bits) on interface 0
    Interface id: 0 (unknown)
        Interface name: unknown
    Encapsulation type: USB packets with Linux header and padding (115)
    Arrival Time: Jul  8, 2018 11:54:36.559762000 EDT
    [Time shift for this packet: 0.000000000 seconds]
    Epoch Time: 1531065276.559762000 seconds
    [Time delta from previous captured frame: 0.116478000 seconds]
    [Time delta from previous displayed frame: 0.116478000 seconds]
    [Time since reference or first frame: 60.032838000 seconds]
    Frame Number: 19
    Frame Length: 70 bytes (560 bits)
    Capture Length: 70 bytes (560 bits)
    [Frame is marked: False]
    [Frame is ignored: False]
    [Protocols in frame: usb]
USB URB
    [Source: 3.2.2]
    [Destination: host]
    URB id: 0xffff9d19b3c36480
    URB type: URB_COMPLETE ('C')
    URB transfer type: URB_BULK (0x03)
    Endpoint: 0x82, Direction: IN
        1... .... = Direction: IN (1)
        .... 0010 = Endpoint number: 2
    Device: 2
    URB bus id: 3
    Device setup request: not relevant ('-')
    Data: present (0)
    URB sec: 1531065276
    URB usec: 559762
    URB status: Remote I/O error (-EREMOTEIO) (-121)
    URB length [bytes]: 6
    Data length [bytes]: 6
    [bInterfaceClass: Unknown (0xffff)]
    Unused Setup Header
    Interval: 0
    Start frame: 0
    Copy of Transfer Flags: 0x00000201
    Number of ISO descriptors: 0
Leftover Capture Data: 202020203503

0000  80 64 c3 b3 19 9d ff ff 43 03 82 02 03 00 2d 00   .d......C.....-.
0010  bc 33 42 5b 00 00 00 00 92 8a 08 00 87 ff ff ff   .3B[............
0020  06 00 00 00 06 00 00 00 00 00 00 00 00 00 00 00   ................
0030  00 00 00 00 00 00 00 00 01 02 00 00 00 00 00 00   ................
0040  20 20 20 20 35 03                                     5.

Frame 20: 68 bytes on wire (544 bits), 68 bytes captured (544 bits) on interface 0
    Interface id: 0 (unknown)
        Interface name: unknown
    Encapsulation type: USB packets with Linux header and padding (115)
    Arrival Time: Jul  8, 2018 11:54:36.575819000 EDT
    [Time shift for this packet: 0.000000000 seconds]
    Epoch Time: 1531065276.575819000 seconds
    [Time delta from previous captured frame: 0.016057000 seconds]
    [Time delta from previous displayed frame: 0.016057000 seconds]
    [Time since reference or first frame: 60.048895000 seconds]
    Frame Number: 20
    Frame Length: 68 bytes (544 bits)
    Capture Length: 68 bytes (544 bits)
    [Frame is marked: False]
    [Frame is ignored: False]
    [Protocols in frame: usb]
USB URB
    [Source: host]
    [Destination: 3.2.1]
    URB id: 0xffff9d19b3c36b40
    URB type: URB_SUBMIT ('S')
    URB transfer type: URB_BULK (0x03)
    Endpoint: 0x01, Direction: OUT
        0... .... = Direction: OUT (0)
        .... 0001 = Endpoint number: 1
    Device: 2
    URB bus id: 3
    Device setup request: not relevant ('-')
    Data: present (0)
    URB sec: 1531065276
    URB usec: 575819
    URB status: Operation now in progress (-EINPROGRESS) (-115)
    URB length [bytes]: 4
    Data length [bytes]: 4
    [bInterfaceClass: Unknown (0xffff)]
    Unused Setup Header
    Interval: 0
    Start frame: 0
    Copy of Transfer Flags: 0x00000000
    Number of ISO descriptors: 0
Leftover Capture Data: 46513203

0000  40 6b c3 b3 19 9d ff ff 53 03 01 02 03 00 2d 00   @k......S.....-.
0010  bc 33 42 5b 00 00 00 00 4b c9 08 00 8d ff ff ff   .3B[....K.......
0020  04 00 00 00 04 00 00 00 00 00 00 00 00 00 00 00   ................
0030  00 00 00 00 00 00 00 00 00 00 00 00 00 00 00 00   ................
0040  46 51 32 03                                       FQ2.

Frame 21: 70 bytes on wire (560 bits), 70 bytes captured (560 bits) on interface 0
    Interface id: 0 (unknown)
        Interface name: unknown
    Encapsulation type: USB packets with Linux header and padding (115)
    Arrival Time: Jul  8, 2018 11:54:36.749798000 EDT
    [Time shift for this packet: 0.000000000 seconds]
    Epoch Time: 1531065276.749798000 seconds
    [Time delta from previous captured frame: 0.173979000 seconds]
    [Time delta from previous displayed frame: 0.173979000 seconds]
    [Time since reference or first frame: 60.222874000 seconds]
    Frame Number: 21
    Frame Length: 70 bytes (560 bits)
    Capture Length: 70 bytes (560 bits)
    [Frame is marked: False]
    [Frame is ignored: False]
    [Protocols in frame: usb]
USB URB
    [Source: 3.2.2]
    [Destination: host]
    URB id: 0xffff9d1952563000
    URB type: URB_COMPLETE ('C')
    URB transfer type: URB_BULK (0x03)
    Endpoint: 0x82, Direction: IN
        1... .... = Direction: IN (1)
        .... 0010 = Endpoint number: 2
    Device: 2
    URB bus id: 3
    Device setup request: not relevant ('-')
    Data: present (0)
    URB sec: 1531065276
    URB usec: 749798
    URB status: Remote I/O error (-EREMOTEIO) (-121)
    URB length [bytes]: 6
    Data length [bytes]: 6
    [bInterfaceClass: Unknown (0xffff)]
    Unused Setup Header
    Interval: 0
    Start frame: 0
    Copy of Transfer Flags: 0x00000201
    Number of ISO descriptors: 0
Leftover Capture Data: 202020313803

0000  00 30 56 52 19 9d ff ff 43 03 82 02 03 00 2d 00   .0VR....C.....-.
0010  bc 33 42 5b 00 00 00 00 e6 70 0b 00 87 ff ff ff   .3B[.....p......
0020  06 00 00 00 06 00 00 00 00 00 00 00 00 00 00 00   ................
0030  00 00 00 00 00 00 00 00 01 02 00 00 00 00 00 00   ................
0040  20 20 20 31 38 03                                    18.

Frame 22: 69 bytes on wire (552 bits), 69 bytes captured (552 bits) on interface 0
    Interface id: 0 (unknown)
        Interface name: unknown
    Encapsulation type: USB packets with Linux header and padding (115)
    Arrival Time: Jul  8, 2018 11:54:36.787556000 EDT
    [Time shift for this packet: 0.000000000 seconds]
    Epoch Time: 1531065276.787556000 seconds
    [Time delta from previous captured frame: 0.037758000 seconds]
    [Time delta from previous displayed frame: 0.037758000 seconds]
    [Time since reference or first frame: 60.260632000 seconds]
    Frame Number: 22
    Frame Length: 69 bytes (552 bits)
    Capture Length: 69 bytes (552 bits)
    [Frame is marked: False]
    [Frame is ignored: False]
    [Protocols in frame: usb]
USB URB
    [Source: host]
    [Destination: 3.2.1]
    URB id: 0xffff9d19b3c36600
    URB type: URB_SUBMIT ('S')
    URB transfer type: URB_BULK (0x03)
    Endpoint: 0x01, Direction: OUT
        0... .... = Direction: OUT (0)
        .... 0001 = Endpoint number: 1
    Device: 2
    URB bus id: 3
    Device setup request: not relevant ('-')
    Data: present (0)
    URB sec: 1531065276
    URB usec: 787556
    URB status: Operation now in progress (-EINPROGRESS) (-115)
    URB length [bytes]: 5
    Data length [bytes]: 5
    [bInterfaceClass: Unknown (0xffff)]
    Unused Setup Header
    Interval: 0
    Start frame: 0
    Copy of Transfer Flags: 0x00000000
    Number of ISO descriptors: 0
Leftover Capture Data: 5442373103

0000  00 66 c3 b3 19 9d ff ff 53 03 01 02 03 00 2d 00   .f......S.....-.
0010  bc 33 42 5b 00 00 00 00 64 04 0c 00 8d ff ff ff   .3B[....d.......
0020  05 00 00 00 05 00 00 00 00 00 00 00 00 00 00 00   ................
0030  00 00 00 00 00 00 00 00 00 00 00 00 00 00 00 00   ................
0040  54 42 37 31 03                                    TB71.

Frame 23: 76 bytes on wire (608 bits), 76 bytes captured (608 bits) on interface 0
    Interface id: 0 (unknown)
        Interface name: unknown
    Encapsulation type: USB packets with Linux header and padding (115)
    Arrival Time: Jul  8, 2018 11:54:36.887884000 EDT
    [Time shift for this packet: 0.000000000 seconds]
    Epoch Time: 1531065276.887884000 seconds
    [Time delta from previous captured frame: 0.100328000 seconds]
    [Time delta from previous displayed frame: 0.100328000 seconds]
    [Time since reference or first frame: 60.360960000 seconds]
    Frame Number: 23
    Frame Length: 76 bytes (608 bits)
    Capture Length: 76 bytes (608 bits)
    [Frame is marked: False]
    [Frame is ignored: False]
    [Protocols in frame: usb]
USB URB
    [Source: 3.2.2]
    [Destination: host]
    URB id: 0xffff9d1952563000
    URB type: URB_COMPLETE ('C')
    URB transfer type: URB_BULK (0x03)
    Endpoint: 0x82, Direction: IN
        1... .... = Direction: IN (1)
        .... 0010 = Endpoint number: 2
    Device: 2
    URB bus id: 3
    Device setup request: not relevant ('-')
    Data: present (0)
    URB sec: 1531065276
    URB usec: 887884
    URB status: Remote I/O error (-EREMOTEIO) (-121)
    URB length [bytes]: 12
    Data length [bytes]: 12
    [bInterfaceClass: Unknown (0xffff)]
    Unused Setup Header
    Interval: 0
    Start frame: 0
    Copy of Transfer Flags: 0x00000201
    Number of ISO descriptors: 0
Leftover Capture Data: 20202020302c202020203003

0000  00 30 56 52 19 9d ff ff 43 03 82 02 03 00 2d 00   .0VR....C.....-.
0010  bc 33 42 5b 00 00 00 00 4c 8c 0d 00 87 ff ff ff   .3B[....L.......
0020  0c 00 00 00 0c 00 00 00 00 00 00 00 00 00 00 00   ................
0030  00 00 00 00 00 00 00 00 01 02 00 00 00 00 00 00   ................
0040  20 20 20 20 30 2c 20 20 20 20 30 03                   0,    0.

Frame 24: 67 bytes on wire (536 bits), 67 bytes captured (536 bits) on interface 0
    Interface id: 0 (unknown)
        Interface name: unknown
    Encapsulation type: USB packets with Linux header and padding (115)
    Arrival Time: Jul  8, 2018 11:54:36.903342000 EDT
    [Time shift for this packet: 0.000000000 seconds]
    Epoch Time: 1531065276.903342000 seconds
    [Time delta from previous captured frame: 0.015458000 seconds]
    [Time delta from previous displayed frame: 0.015458000 seconds]
    [Time since reference or first frame: 60.376418000 seconds]
    Frame Number: 24
    Frame Length: 67 bytes (536 bits)
    Capture Length: 67 bytes (536 bits)
    [Frame is marked: False]
    [Frame is ignored: False]
    [Protocols in frame: usb]
USB URB
    [Source: host]
    [Destination: 3.2.1]
    URB id: 0xffff9d1952563000
    URB type: URB_SUBMIT ('S')
    URB transfer type: URB_BULK (0x03)
    Endpoint: 0x01, Direction: OUT
        0... .... = Direction: OUT (0)
        .... 0001 = Endpoint number: 1
    Device: 2
    URB bus id: 3
    Device setup request: not relevant ('-')
    Data: present (0)
    URB sec: 1531065276
    URB usec: 903342
    URB status: Operation now in progress (-EINPROGRESS) (-115)
    URB length [bytes]: 3
    Data length [bytes]: 3
    [bInterfaceClass: Unknown (0xffff)]
    Unused Setup Header
    Interval: 0
    Start frame: 0
    Copy of Transfer Flags: 0x00000000
    Number of ISO descriptors: 0
Leftover Capture Data: 464103

0000  00 30 56 52 19 9d ff ff 53 03 01 02 03 00 2d 00   .0VR....S.....-.
0010  bc 33 42 5b 00 00 00 00 ae c8 0d 00 8d ff ff ff   .3B[............
0020  03 00 00 00 03 00 00 00 00 00 00 00 00 00 00 00   ................
0030  00 00 00 00 00 00 00 00 00 00 00 00 00 00 00 00   ................
0040  46 41 03                                          FA.

Frame 25: 76 bytes on wire (608 bits), 76 bytes captured (608 bits) on interface 0
    Interface id: 0 (unknown)
        Interface name: unknown
    Encapsulation type: USB packets with Linux header and padding (115)
    Arrival Time: Jul  8, 2018 11:54:37.051775000 EDT
    [Time shift for this packet: 0.000000000 seconds]
    Epoch Time: 1531065277.051775000 seconds
    [Time delta from previous captured frame: 0.148433000 seconds]
    [Time delta from previous displayed frame: 0.148433000 seconds]
    [Time since reference or first frame: 60.524851000 seconds]
    Frame Number: 25
    Frame Length: 76 bytes (608 bits)
    Capture Length: 76 bytes (608 bits)
    [Frame is marked: False]
    [Frame is ignored: False]
    [Protocols in frame: usb]
USB URB
    [Source: 3.2.2]
    [Destination: host]
    URB id: 0xffff9d196fe45480
    URB type: URB_COMPLETE ('C')
    URB transfer type: URB_BULK (0x03)
    Endpoint: 0x82, Direction: IN
        1... .... = Direction: IN (1)
        .... 0010 = Endpoint number: 2
    Device: 2
    URB bus id: 3
    Device setup request: not relevant ('-')
    Data: present (0)
    URB sec: 1531065277
    URB usec: 51775
    URB status: Remote I/O error (-EREMOTEIO) (-121)
    URB length [bytes]: 12
    Data length [bytes]: 12
    [bInterfaceClass: Unknown (0xffff)]
    Unused Setup Header
    Interval: 0
    Start frame: 0
    Copy of Transfer Flags: 0x00000201
    Number of ISO descriptors: 0
Leftover Capture Data: 20202020302c202020203003

0000  80 54 e4 6f 19 9d ff ff 43 03 82 02 03 00 2d 00   .T.o....C.....-.
0010  bd 33 42 5b 00 00 00 00 3f ca 00 00 87 ff ff ff   .3B[....?.......
0020  0c 00 00 00 0c 00 00 00 00 00 00 00 00 00 00 00   ................
0030  00 00 00 00 00 00 00 00 01 02 00 00 00 00 00 00   ................
0040  20 20 20 20 30 2c 20 20 20 20 30 03                   0,    0.

Frame 26: 66 bytes on wire (528 bits), 66 bytes captured (528 bits) on interface 0
    Interface id: 0 (unknown)
        Interface name: unknown
    Encapsulation type: USB packets with Linux header and padding (115)
    Arrival Time: Jul  8, 2018 11:54:37.241574000 EDT
    [Time shift for this packet: 0.000000000 seconds]
    Epoch Time: 1531065277.241574000 seconds
    [Time delta from previous captured frame: 0.189799000 seconds]
    [Time delta from previous displayed frame: 0.189799000 seconds]
    [Time since reference or first frame: 60.714650000 seconds]
    Frame Number: 26
    Frame Length: 66 bytes (528 bits)
    Capture Length: 66 bytes (528 bits)
    [Frame is marked: False]
    [Frame is ignored: False]
    [Protocols in frame: usb]
USB URB
    [Source: host]
    [Destination: 3.2.1]
    URB id: 0xffff9d19b3c36180
    URB type: URB_SUBMIT ('S')
    URB transfer type: URB_BULK (0x03)
    Endpoint: 0x01, Direction: OUT
        0... .... = Direction: OUT (0)
        .... 0001 = Endpoint number: 1
    Device: 2
    URB bus id: 3
    Device setup request: not relevant ('-')
    Data: present (0)
    URB sec: 1531065277
    URB usec: 241574
    URB status: Operation now in progress (-EINPROGRESS) (-115)
    URB length [bytes]: 2
    Data length [bytes]: 2
    [bInterfaceClass: Unknown (0xffff)]
    Unused Setup Header
    Interval: 0
    Start frame: 0
    Copy of Transfer Flags: 0x00000000
    Number of ISO descriptors: 0
Leftover Capture Data: 1b05

0000  80 61 c3 b3 19 9d ff ff 53 03 01 02 03 00 2d 00   .a......S.....-.
0010  bd 33 42 5b 00 00 00 00 a6 af 03 00 8d ff ff ff   .3B[............
0020  02 00 00 00 02 00 00 00 00 00 00 00 00 00 00 00   ................
0030  00 00 00 00 00 00 00 00 00 00 00 00 00 00 00 00   ................
0040  1b 05                                             ..

Frame 27: 66 bytes on wire (528 bits), 66 bytes captured (528 bits) on interface 0
    Interface id: 0 (unknown)
        Interface name: unknown
    Encapsulation type: USB packets with Linux header and padding (115)
    Arrival Time: Jul  8, 2018 11:54:37.379752000 EDT
    [Time shift for this packet: 0.000000000 seconds]
    Epoch Time: 1531065277.379752000 seconds
    [Time delta from previous captured frame: 0.138178000 seconds]
    [Time delta from previous displayed frame: 0.138178000 seconds]
    [Time since reference or first frame: 60.852828000 seconds]
    Frame Number: 27
    Frame Length: 66 bytes (528 bits)
    Capture Length: 66 bytes (528 bits)
    [Frame is marked: False]
    [Frame is ignored: False]
    [Protocols in frame: usb]
USB URB
    [Source: 3.2.2]
    [Destination: host]
    URB id: 0xffff9d19b3c360c0
    URB type: URB_COMPLETE ('C')
    URB transfer type: URB_BULK (0x03)
    Endpoint: 0x82, Direction: IN
        1... .... = Direction: IN (1)
        .... 0010 = Endpoint number: 2
    Device: 2
    URB bus id: 3
    Device setup request: not relevant ('-')
    Data: present (0)
    URB sec: 1531065277
    URB usec: 379752
    URB status: Remote I/O error (-EREMOTEIO) (-121)
    URB length [bytes]: 2
    Data length [bytes]: 2
    [bInterfaceClass: Unknown (0xffff)]
    Unused Setup Header
    Interval: 0
    Start frame: 0
    Copy of Transfer Flags: 0x00000201
    Number of ISO descriptors: 0
Leftover Capture Data: 3003

0000  c0 60 c3 b3 19 9d ff ff 43 03 82 02 03 00 2d 00   .`......C.....-.
0010  bd 33 42 5b 00 00 00 00 68 cb 05 00 87 ff ff ff   .3B[....h.......
0020  02 00 00 00 02 00 00 00 00 00 00 00 00 00 00 00   ................
0030  00 00 00 00 00 00 00 00 01 02 00 00 00 00 00 00   ................
0040  30 03                                             0.

Frame 28: 66 bytes on wire (528 bits), 66 bytes captured (528 bits) on interface 0
    Interface id: 0 (unknown)
        Interface name: unknown
    Encapsulation type: USB packets with Linux header and padding (115)
    Arrival Time: Jul  8, 2018 11:54:37.678531000 EDT
    [Time shift for this packet: 0.000000000 seconds]
    Epoch Time: 1531065277.678531000 seconds
    [Time delta from previous captured frame: 0.298779000 seconds]
    [Time delta from previous displayed frame: 0.298779000 seconds]
    [Time since reference or first frame: 61.151607000 seconds]
    Frame Number: 28
    Frame Length: 66 bytes (528 bits)
    Capture Length: 66 bytes (528 bits)
    [Frame is marked: False]
    [Frame is ignored: False]
    [Protocols in frame: usb]
USB URB
    [Source: host]
    [Destination: 3.2.1]
    URB id: 0xffff9d196b447000
    URB type: URB_SUBMIT ('S')
    URB transfer type: URB_BULK (0x03)
    Endpoint: 0x01, Direction: OUT
        0... .... = Direction: OUT (0)
        .... 0001 = Endpoint number: 1
    Device: 2
    URB bus id: 3
    Device setup request: not relevant ('-')
    Data: present (0)
    URB sec: 1531065277
    URB usec: 678531
    URB status: Operation now in progress (-EINPROGRESS) (-115)
    URB length [bytes]: 2
    Data length [bytes]: 2
    [bInterfaceClass: Unknown (0xffff)]
    Unused Setup Header
    Interval: 0
    Start frame: 0
    Copy of Transfer Flags: 0x00000000
    Number of ISO descriptors: 0
Leftover Capture Data: 1b05

0000  00 70 44 6b 19 9d ff ff 53 03 01 02 03 00 2d 00   .pDk....S.....-.
0010  bd 33 42 5b 00 00 00 00 83 5a 0a 00 8d ff ff ff   .3B[.....Z......
0020  02 00 00 00 02 00 00 00 00 00 00 00 00 00 00 00   ................
0030  00 00 00 00 00 00 00 00 00 00 00 00 00 00 00 00   ................
0040  1b 05                                             ..

Frame 29: 66 bytes on wire (528 bits), 66 bytes captured (528 bits) on interface 0
    Interface id: 0 (unknown)
        Interface name: unknown
    Encapsulation type: USB packets with Linux header and padding (115)
    Arrival Time: Jul  8, 2018 11:54:37.789740000 EDT
    [Time shift for this packet: 0.000000000 seconds]
    Epoch Time: 1531065277.789740000 seconds
    [Time delta from previous captured frame: 0.111209000 seconds]
    [Time delta from previous displayed frame: 0.111209000 seconds]
    [Time since reference or first frame: 61.262816000 seconds]
    Frame Number: 29
    Frame Length: 66 bytes (528 bits)
    Capture Length: 66 bytes (528 bits)
    [Frame is marked: False]
    [Frame is ignored: False]
    [Protocols in frame: usb]
USB URB
    [Source: 3.2.2]
    [Destination: host]
    URB id: 0xffff9d196b447c00
    URB type: URB_COMPLETE ('C')
    URB transfer type: URB_BULK (0x03)
    Endpoint: 0x82, Direction: IN
        1... .... = Direction: IN (1)
        .... 0010 = Endpoint number: 2
    Device: 2
    URB bus id: 3
    Device setup request: not relevant ('-')
    Data: present (0)
    URB sec: 1531065277
    URB usec: 789740
    URB status: Remote I/O error (-EREMOTEIO) (-121)
    URB length [bytes]: 2
    Data length [bytes]: 2
    [bInterfaceClass: Unknown (0xffff)]
    Unused Setup Header
    Interval: 0
    Start frame: 0
    Copy of Transfer Flags: 0x00000201
    Number of ISO descriptors: 0
Leftover Capture Data: 3003

0000  00 7c 44 6b 19 9d ff ff 43 03 82 02 03 00 2d 00   .|Dk....C.....-.
0010  bd 33 42 5b 00 00 00 00 ec 0c 0c 00 87 ff ff ff   .3B[............
0020  02 00 00 00 02 00 00 00 00 00 00 00 00 00 00 00   ................
0030  00 00 00 00 00 00 00 00 01 02 00 00 00 00 00 00   ................
0040  30 03                                             0.

Frame 30: 66 bytes on wire (528 bits), 66 bytes captured (528 bits) on interface 0
    Interface id: 0 (unknown)
        Interface name: unknown
    Encapsulation type: USB packets with Linux header and padding (115)
    Arrival Time: Jul  8, 2018 11:54:38.450995000 EDT
    [Time shift for this packet: 0.000000000 seconds]
    Epoch Time: 1531065278.450995000 seconds
    [Time delta from previous captured frame: 0.661255000 seconds]
    [Time delta from previous displayed frame: 0.661255000 seconds]
    [Time since reference or first frame: 61.924071000 seconds]
    Frame Number: 30
    Frame Length: 66 bytes (528 bits)
    Capture Length: 66 bytes (528 bits)
    [Frame is marked: False]
    [Frame is ignored: False]
    [Protocols in frame: usb]
USB URB
    [Source: host]
    [Destination: 3.2.1]
    URB id: 0xffff9d19b3c36c00
    URB type: URB_SUBMIT ('S')
    URB transfer type: URB_BULK (0x03)
    Endpoint: 0x01, Direction: OUT
        0... .... = Direction: OUT (0)
        .... 0001 = Endpoint number: 1
    Device: 2
    URB bus id: 3
    Device setup request: not relevant ('-')
    Data: present (0)
    URB sec: 1531065278
    URB usec: 450995
    URB status: Operation now in progress (-EINPROGRESS) (-115)
    URB length [bytes]: 2
    Data length [bytes]: 2
    [bInterfaceClass: Unknown (0xffff)]
    Unused Setup Header
    Interval: 0
    Start frame: 0
    Copy of Transfer Flags: 0x00000000
    Number of ISO descriptors: 0
Leftover Capture Data: 1b05

0000  00 6c c3 b3 19 9d ff ff 53 03 01 02 03 00 2d 00   .l......S.....-.
0010  be 33 42 5b 00 00 00 00 b3 e1 06 00 8d ff ff ff   .3B[............
0020  02 00 00 00 02 00 00 00 00 00 00 00 00 00 00 00   ................
0030  00 00 00 00 00 00 00 00 00 00 00 00 00 00 00 00   ................
0040  1b 05                                             ..

Frame 31: 66 bytes on wire (528 bits), 66 bytes captured (528 bits) on interface 0
    Interface id: 0 (unknown)
        Interface name: unknown
    Encapsulation type: USB packets with Linux header and padding (115)
    Arrival Time: Jul  8, 2018 11:54:38.609739000 EDT
    [Time shift for this packet: 0.000000000 seconds]
    Epoch Time: 1531065278.609739000 seconds
    [Time delta from previous captured frame: 0.158744000 seconds]
    [Time delta from previous displayed frame: 0.158744000 seconds]
    [Time since reference or first frame: 62.082815000 seconds]
    Frame Number: 31
    Frame Length: 66 bytes (528 bits)
    Capture Length: 66 bytes (528 bits)
    [Frame is marked: False]
    [Frame is ignored: False]
    [Protocols in frame: usb]
USB URB
    [Source: 3.2.2]
    [Destination: host]
    URB id: 0xffff9d1952563000
    URB type: URB_COMPLETE ('C')
    URB transfer type: URB_BULK (0x03)
    Endpoint: 0x82, Direction: IN
        1... .... = Direction: IN (1)
        .... 0010 = Endpoint number: 2
    Device: 2
    URB bus id: 3
    Device setup request: not relevant ('-')
    Data: present (0)
    URB sec: 1531065278
    URB usec: 609739
    URB status: Remote I/O error (-EREMOTEIO) (-121)
    URB length [bytes]: 2
    Data length [bytes]: 2
    [bInterfaceClass: Unknown (0xffff)]
    Unused Setup Header
    Interval: 0
    Start frame: 0
    Copy of Transfer Flags: 0x00000201
    Number of ISO descriptors: 0
Leftover Capture Data: 3003

0000  00 30 56 52 19 9d ff ff 43 03 82 02 03 00 2d 00   .0VR....C.....-.
0010  be 33 42 5b 00 00 00 00 cb 4d 09 00 87 ff ff ff   .3B[.....M......
0020  02 00 00 00 02 00 00 00 00 00 00 00 00 00 00 00   ................
0030  00 00 00 00 00 00 00 00 01 02 00 00 00 00 00 00   ................
0040  30 03                                             0.

Frame 32: 66 bytes on wire (528 bits), 66 bytes captured (528 bits) on interface 0
    Interface id: 0 (unknown)
        Interface name: unknown
    Encapsulation type: USB packets with Linux header and padding (115)
    Arrival Time: Jul  8, 2018 11:54:38.749369000 EDT
    [Time shift for this packet: 0.000000000 seconds]
    Epoch Time: 1531065278.749369000 seconds
    [Time delta from previous captured frame: 0.139630000 seconds]
    [Time delta from previous displayed frame: 0.139630000 seconds]
    [Time since reference or first frame: 62.222445000 seconds]
    Frame Number: 32
    Frame Length: 66 bytes (528 bits)
    Capture Length: 66 bytes (528 bits)
    [Frame is marked: False]
    [Frame is ignored: False]
    [Protocols in frame: usb]
USB URB
    [Source: host]
    [Destination: 3.2.1]
    URB id: 0xffff9d1952563240
    URB type: URB_SUBMIT ('S')
    URB transfer type: URB_BULK (0x03)
    Endpoint: 0x01, Direction: OUT
        0... .... = Direction: OUT (0)
        .... 0001 = Endpoint number: 1
    Device: 2
    URB bus id: 3
    Device setup request: not relevant ('-')
    Data: present (0)
    URB sec: 1531065278
    URB usec: 749369
    URB status: Operation now in progress (-EINPROGRESS) (-115)
    URB length [bytes]: 2
    Data length [bytes]: 2
    [bInterfaceClass: Unknown (0xffff)]
    Unused Setup Header
    Interval: 0
    Start frame: 0
    Copy of Transfer Flags: 0x00000000
    Number of ISO descriptors: 0
Leftover Capture Data: 1b05

0000  40 32 56 52 19 9d ff ff 53 03 01 02 03 00 2d 00   @2VR....S.....-.
0010  be 33 42 5b 00 00 00 00 39 6f 0b 00 8d ff ff ff   .3B[....9o......
0020  02 00 00 00 02 00 00 00 00 00 00 00 00 00 00 00   ................
0030  00 00 00 00 00 00 00 00 00 00 00 00 00 00 00 00   ................
0040  1b 05                                             ..

Frame 33: 66 bytes on wire (528 bits), 66 bytes captured (528 bits) on interface 0
    Interface id: 0 (unknown)
        Interface name: unknown
    Encapsulation type: USB packets with Linux header and padding (115)
    Arrival Time: Jul  8, 2018 11:54:38.855729000 EDT
    [Time shift for this packet: 0.000000000 seconds]
    Epoch Time: 1531065278.855729000 seconds
    [Time delta from previous captured frame: 0.106360000 seconds]
    [Time delta from previous displayed frame: 0.106360000 seconds]
    [Time since reference or first frame: 62.328805000 seconds]
    Frame Number: 33
    Frame Length: 66 bytes (528 bits)
    Capture Length: 66 bytes (528 bits)
    [Frame is marked: False]
    [Frame is ignored: False]
    [Protocols in frame: usb]
USB URB
    [Source: 3.2.2]
    [Destination: host]
    URB id: 0xffff9d1952563600
    URB type: URB_COMPLETE ('C')
    URB transfer type: URB_BULK (0x03)
    Endpoint: 0x82, Direction: IN
        1... .... = Direction: IN (1)
        .... 0010 = Endpoint number: 2
    Device: 2
    URB bus id: 3
    Device setup request: not relevant ('-')
    Data: present (0)
    URB sec: 1531065278
    URB usec: 855729
    URB status: Remote I/O error (-EREMOTEIO) (-121)
    URB length [bytes]: 2
    Data length [bytes]: 2
    [bInterfaceClass: Unknown (0xffff)]
    Unused Setup Header
    Interval: 0
    Start frame: 0
    Copy of Transfer Flags: 0x00000201
    Number of ISO descriptors: 0
Leftover Capture Data: 3003

0000  00 36 56 52 19 9d ff ff 43 03 82 02 03 00 2d 00   .6VR....C.....-.
0010  be 33 42 5b 00 00 00 00 b1 0e 0d 00 87 ff ff ff   .3B[............
0020  02 00 00 00 02 00 00 00 00 00 00 00 00 00 00 00   ................
0030  00 00 00 00 00 00 00 00 01 02 00 00 00 00 00 00   ................
0040  30 03                                             0.

Frame 34: 66 bytes on wire (528 bits), 66 bytes captured (528 bits) on interface 0
    Interface id: 0 (unknown)
        Interface name: unknown
    Encapsulation type: USB packets with Linux header and padding (115)
    Arrival Time: Jul  8, 2018 11:54:39.420605000 EDT
    [Time shift for this packet: 0.000000000 seconds]
    Epoch Time: 1531065279.420605000 seconds
    [Time delta from previous captured frame: 0.564876000 seconds]
    [Time delta from previous displayed frame: 0.564876000 seconds]
    [Time since reference or first frame: 62.893681000 seconds]
    Frame Number: 34
    Frame Length: 66 bytes (528 bits)
    Capture Length: 66 bytes (528 bits)
    [Frame is marked: False]
    [Frame is ignored: False]
    [Protocols in frame: usb]
USB URB
    [Source: host]
    [Destination: 3.2.1]
    URB id: 0xffff9d196fe45480
    URB type: URB_SUBMIT ('S')
    URB transfer type: URB_BULK (0x03)
    Endpoint: 0x01, Direction: OUT
        0... .... = Direction: OUT (0)
        .... 0001 = Endpoint number: 1
    Device: 2
    URB bus id: 3
    Device setup request: not relevant ('-')
    Data: present (0)
    URB sec: 1531065279
    URB usec: 420605
    URB status: Operation now in progress (-EINPROGRESS) (-115)
    URB length [bytes]: 2
    Data length [bytes]: 2
    [bInterfaceClass: Unknown (0xffff)]
    Unused Setup Header
    Interval: 0
    Start frame: 0
    Copy of Transfer Flags: 0x00000000
    Number of ISO descriptors: 0
Leftover Capture Data: 1b05

0000  80 54 e4 6f 19 9d ff ff 53 03 01 02 03 00 2d 00   .T.o....S.....-.
0010  bf 33 42 5b 00 00 00 00 fd 6a 06 00 8d ff ff ff   .3B[.....j......
0020  02 00 00 00 02 00 00 00 00 00 00 00 00 00 00 00   ................
0030  00 00 00 00 00 00 00 00 00 00 00 00 00 00 00 00   ................
0040  1b 05                                             ..

Frame 35: 66 bytes on wire (528 bits), 66 bytes captured (528 bits) on interface 0
    Interface id: 0 (unknown)
        Interface name: unknown
    Encapsulation type: USB packets with Linux header and padding (115)
    Arrival Time: Jul  8, 2018 11:54:39.511863000 EDT
    [Time shift for this packet: 0.000000000 seconds]
    Epoch Time: 1531065279.511863000 seconds
    [Time delta from previous captured frame: 0.091258000 seconds]
    [Time delta from previous displayed frame: 0.091258000 seconds]
    [Time since reference or first frame: 62.984939000 seconds]
    Frame Number: 35
    Frame Length: 66 bytes (528 bits)
    Capture Length: 66 bytes (528 bits)
    [Frame is marked: False]
    [Frame is ignored: False]
    [Protocols in frame: usb]
USB URB
    [Source: 3.2.2]
    [Destination: host]
    URB id: 0xffff9d1952563600
    URB type: URB_COMPLETE ('C')
    URB transfer type: URB_BULK (0x03)
    Endpoint: 0x82, Direction: IN
        1... .... = Direction: IN (1)
        .... 0010 = Endpoint number: 2
    Device: 2
    URB bus id: 3
    Device setup request: not relevant ('-')
    Data: present (0)
    URB sec: 1531065279
    URB usec: 511863
    URB status: Remote I/O error (-EREMOTEIO) (-121)
    URB length [bytes]: 2
    Data length [bytes]: 2
    [bInterfaceClass: Unknown (0xffff)]
    Unused Setup Header
    Interval: 0
    Start frame: 0
    Copy of Transfer Flags: 0x00000201
    Number of ISO descriptors: 0
Leftover Capture Data: 3003

0000  00 36 56 52 19 9d ff ff 43 03 82 02 03 00 2d 00   .6VR....C.....-.
0010  bf 33 42 5b 00 00 00 00 77 cf 07 00 87 ff ff ff   .3B[....w.......
0020  02 00 00 00 02 00 00 00 00 00 00 00 00 00 00 00   ................
0030  00 00 00 00 00 00 00 00 01 02 00 00 00 00 00 00   ................
0040  30 03                                             0.

Frame 36: 66 bytes on wire (528 bits), 66 bytes captured (528 bits) on interface 0
    Interface id: 0 (unknown)
        Interface name: unknown
    Encapsulation type: USB packets with Linux header and padding (115)
    Arrival Time: Jul  8, 2018 11:54:39.932271000 EDT
    [Time shift for this packet: 0.000000000 seconds]
    Epoch Time: 1531065279.932271000 seconds
    [Time delta from previous captured frame: 0.420408000 seconds]
    [Time delta from previous displayed frame: 0.420408000 seconds]
    [Time since reference or first frame: 63.405347000 seconds]
    Frame Number: 36
    Frame Length: 66 bytes (528 bits)
    Capture Length: 66 bytes (528 bits)
    [Frame is marked: False]
    [Frame is ignored: False]
    [Protocols in frame: usb]
USB URB
    [Source: host]
    [Destination: 3.2.1]
    URB id: 0xffff9d19b3c36cc0
    URB type: URB_SUBMIT ('S')
    URB transfer type: URB_BULK (0x03)
    Endpoint: 0x01, Direction: OUT
        0... .... = Direction: OUT (0)
        .... 0001 = Endpoint number: 1
    Device: 2
    URB bus id: 3
    Device setup request: not relevant ('-')
    Data: present (0)
    URB sec: 1531065279
    URB usec: 932271
    URB status: Operation now in progress (-EINPROGRESS) (-115)
    URB length [bytes]: 2
    Data length [bytes]: 2
    [bInterfaceClass: Unknown (0xffff)]
    Unused Setup Header
    Interval: 0
    Start frame: 0
    Copy of Transfer Flags: 0x00000000
    Number of ISO descriptors: 0
Leftover Capture Data: 1b05

0000  c0 6c c3 b3 19 9d ff ff 53 03 01 02 03 00 2d 00   .l......S.....-.
0010  bf 33 42 5b 00 00 00 00 af 39 0e 00 8d ff ff ff   .3B[.....9......
0020  02 00 00 00 02 00 00 00 00 00 00 00 00 00 00 00   ................
0030  00 00 00 00 00 00 00 00 00 00 00 00 00 00 00 00   ................
0040  1b 05                                             ..

Frame 37: 66 bytes on wire (528 bits), 66 bytes captured (528 bits) on interface 0
    Interface id: 0 (unknown)
        Interface name: unknown
    Encapsulation type: USB packets with Linux header and padding (115)
    Arrival Time: Jul  8, 2018 11:54:40.085740000 EDT
    [Time shift for this packet: 0.000000000 seconds]
    Epoch Time: 1531065280.085740000 seconds
    [Time delta from previous captured frame: 0.153469000 seconds]
    [Time delta from previous displayed frame: 0.153469000 seconds]
    [Time since reference or first frame: 63.558816000 seconds]
    Frame Number: 37
    Frame Length: 66 bytes (528 bits)
    Capture Length: 66 bytes (528 bits)
    [Frame is marked: False]
    [Frame is ignored: False]
    [Protocols in frame: usb]
USB URB
    [Source: 3.2.2]
    [Destination: host]
    URB id: 0xffff9d196fe45cc0
    URB type: URB_COMPLETE ('C')
    URB transfer type: URB_BULK (0x03)
    Endpoint: 0x82, Direction: IN
        1... .... = Direction: IN (1)
        .... 0010 = Endpoint number: 2
    Device: 2
    URB bus id: 3
    Device setup request: not relevant ('-')
    Data: present (0)
    URB sec: 1531065280
    URB usec: 85740
    URB status: Remote I/O error (-EREMOTEIO) (-121)
    URB length [bytes]: 2
    Data length [bytes]: 2
    [bInterfaceClass: Unknown (0xffff)]
    Unused Setup Header
    Interval: 0
    Start frame: 0
    Copy of Transfer Flags: 0x00000201
    Number of ISO descriptors: 0
Leftover Capture Data: 3003

0000  c0 5c e4 6f 19 9d ff ff 43 03 82 02 03 00 2d 00   .\.o....C.....-.
0010  c0 33 42 5b 00 00 00 00 ec 4e 01 00 87 ff ff ff   .3B[.....N......
0020  02 00 00 00 02 00 00 00 00 00 00 00 00 00 00 00   ................
0030  00 00 00 00 00 00 00 00 01 02 00 00 00 00 00 00   ................
0040  30 03                                             0.

Frame 38: 66 bytes on wire (528 bits), 66 bytes captured (528 bits) on interface 0
    Interface id: 0 (unknown)
        Interface name: unknown
    Encapsulation type: USB packets with Linux header and padding (115)
    Arrival Time: Jul  8, 2018 11:54:40.483867000 EDT
    [Time shift for this packet: 0.000000000 seconds]
    Epoch Time: 1531065280.483867000 seconds
    [Time delta from previous captured frame: 0.398127000 seconds]
    [Time delta from previous displayed frame: 0.398127000 seconds]
    [Time since reference or first frame: 63.956943000 seconds]
    Frame Number: 38
    Frame Length: 66 bytes (528 bits)
    Capture Length: 66 bytes (528 bits)
    [Frame is marked: False]
    [Frame is ignored: False]
    [Protocols in frame: usb]
USB URB
    [Source: host]
    [Destination: 3.2.1]
    URB id: 0xffff9d196fe45cc0
    URB type: URB_SUBMIT ('S')
    URB transfer type: URB_BULK (0x03)
    Endpoint: 0x01, Direction: OUT
        0... .... = Direction: OUT (0)
        .... 0001 = Endpoint number: 1
    Device: 2
    URB bus id: 3
    Device setup request: not relevant ('-')
    Data: present (0)
    URB sec: 1531065280
    URB usec: 483867
    URB status: Operation now in progress (-EINPROGRESS) (-115)
    URB length [bytes]: 2
    Data length [bytes]: 2
    [bInterfaceClass: Unknown (0xffff)]
    Unused Setup Header
    Interval: 0
    Start frame: 0
    Copy of Transfer Flags: 0x00000000
    Number of ISO descriptors: 0
Leftover Capture Data: 1b05

0000  c0 5c e4 6f 19 9d ff ff 53 03 01 02 03 00 2d 00   .\.o....S.....-.
0010  c0 33 42 5b 00 00 00 00 1b 62 07 00 8d ff ff ff   .3B[.....b......
0020  02 00 00 00 02 00 00 00 00 00 00 00 00 00 00 00   ................
0030  00 00 00 00 00 00 00 00 00 00 00 00 00 00 00 00   ................
0040  1b 05                                             ..

Frame 39: 66 bytes on wire (528 bits), 66 bytes captured (528 bits) on interface 0
    Interface id: 0 (unknown)
        Interface name: unknown
    Encapsulation type: USB packets with Linux header and padding (115)
    Arrival Time: Jul  8, 2018 11:54:40.577724000 EDT
    [Time shift for this packet: 0.000000000 seconds]
    Epoch Time: 1531065280.577724000 seconds
    [Time delta from previous captured frame: 0.093857000 seconds]
    [Time delta from previous displayed frame: 0.093857000 seconds]
    [Time since reference or first frame: 64.050800000 seconds]
    Frame Number: 39
    Frame Length: 66 bytes (528 bits)
    Capture Length: 66 bytes (528 bits)
    [Frame is marked: False]
    [Frame is ignored: False]
    [Protocols in frame: usb]
USB URB
    [Source: 3.2.2]
    [Destination: host]
    URB id: 0xffff9d1952563240
    URB type: URB_COMPLETE ('C')
    URB transfer type: URB_BULK (0x03)
    Endpoint: 0x82, Direction: IN
        1... .... = Direction: IN (1)
        .... 0010 = Endpoint number: 2
    Device: 2
    URB bus id: 3
    Device setup request: not relevant ('-')
    Data: present (0)
    URB sec: 1531065280
    URB usec: 577724
    URB status: Remote I/O error (-EREMOTEIO) (-121)
    URB length [bytes]: 2
    Data length [bytes]: 2
    [bInterfaceClass: Unknown (0xffff)]
    Unused Setup Header
    Interval: 0
    Start frame: 0
    Copy of Transfer Flags: 0x00000201
    Number of ISO descriptors: 0
Leftover Capture Data: 3003

0000  40 32 56 52 19 9d ff ff 43 03 82 02 03 00 2d 00   @2VR....C.....-.
0010  c0 33 42 5b 00 00 00 00 bc d0 08 00 87 ff ff ff   .3B[............
0020  02 00 00 00 02 00 00 00 00 00 00 00 00 00 00 00   ................
0030  00 00 00 00 00 00 00 00 01 02 00 00 00 00 00 00   ................
0040  30 03                                             0.

Frame 40: 66 bytes on wire (528 bits), 66 bytes captured (528 bits) on interface 0
    Interface id: 0 (unknown)
        Interface name: unknown
    Encapsulation type: USB packets with Linux header and padding (115)
    Arrival Time: Jul  8, 2018 11:54:40.996038000 EDT
    [Time shift for this packet: 0.000000000 seconds]
    Epoch Time: 1531065280.996038000 seconds
    [Time delta from previous captured frame: 0.418314000 seconds]
    [Time delta from previous displayed frame: 0.418314000 seconds]
    [Time since reference or first frame: 64.469114000 seconds]
    Frame Number: 40
    Frame Length: 66 bytes (528 bits)
    Capture Length: 66 bytes (528 bits)
    [Frame is marked: False]
    [Frame is ignored: False]
    [Protocols in frame: usb]
USB URB
    [Source: host]
    [Destination: 3.2.1]
    URB id: 0xffff9d19b3c363c0
    URB type: URB_SUBMIT ('S')
    URB transfer type: URB_BULK (0x03)
    Endpoint: 0x01, Direction: OUT
        0... .... = Direction: OUT (0)
        .... 0001 = Endpoint number: 1
    Device: 2
    URB bus id: 3
    Device setup request: not relevant ('-')
    Data: present (0)
    URB sec: 1531065280
    URB usec: 996038
    URB status: Operation now in progress (-EINPROGRESS) (-115)
    URB length [bytes]: 2
    Data length [bytes]: 2
    [bInterfaceClass: Unknown (0xffff)]
    Unused Setup Header
    Interval: 0
    Start frame: 0
    Copy of Transfer Flags: 0x00000000
    Number of ISO descriptors: 0
Leftover Capture Data: 1b05

0000  c0 63 c3 b3 19 9d ff ff 53 03 01 02 03 00 2d 00   .c......S.....-.
0010  c0 33 42 5b 00 00 00 00 c6 32 0f 00 8d ff ff ff   .3B[.....2......
0020  02 00 00 00 02 00 00 00 00 00 00 00 00 00 00 00   ................
0030  00 00 00 00 00 00 00 00 00 00 00 00 00 00 00 00   ................
0040  1b 05                                             ..

Frame 41: 66 bytes on wire (528 bits), 66 bytes captured (528 bits) on interface 0
    Interface id: 0 (unknown)
        Interface name: unknown
    Encapsulation type: USB packets with Linux header and padding (115)
    Arrival Time: Jul  8, 2018 11:54:41.151743000 EDT
    [Time shift for this packet: 0.000000000 seconds]
    Epoch Time: 1531065281.151743000 seconds
    [Time delta from previous captured frame: 0.155705000 seconds]
    [Time delta from previous displayed frame: 0.155705000 seconds]
    [Time since reference or first frame: 64.624819000 seconds]
    Frame Number: 41
    Frame Length: 66 bytes (528 bits)
    Capture Length: 66 bytes (528 bits)
    [Frame is marked: False]
    [Frame is ignored: False]
    [Protocols in frame: usb]
USB URB
    [Source: 3.2.2]
    [Destination: host]
    URB id: 0xffff9d196b447c00
    URB type: URB_COMPLETE ('C')
    URB transfer type: URB_BULK (0x03)
    Endpoint: 0x82, Direction: IN
        1... .... = Direction: IN (1)
        .... 0010 = Endpoint number: 2
    Device: 2
    URB bus id: 3
    Device setup request: not relevant ('-')
    Data: present (0)
    URB sec: 1531065281
    URB usec: 151743
    URB status: Remote I/O error (-EREMOTEIO) (-121)
    URB length [bytes]: 2
    Data length [bytes]: 2
    [bInterfaceClass: Unknown (0xffff)]
    Unused Setup Header
    Interval: 0
    Start frame: 0
    Copy of Transfer Flags: 0x00000201
    Number of ISO descriptors: 0
Leftover Capture Data: 3003

0000  00 7c 44 6b 19 9d ff ff 43 03 82 02 03 00 2d 00   .|Dk....C.....-.
0010  c1 33 42 5b 00 00 00 00 bf 50 02 00 87 ff ff ff   .3B[.....P......
0020  02 00 00 00 02 00 00 00 00 00 00 00 00 00 00 00   ................
0030  00 00 00 00 00 00 00 00 01 02 00 00 00 00 00 00   ................
0040  30 03                                             0.

Frame 42: 66 bytes on wire (528 bits), 66 bytes captured (528 bits) on interface 0
    Interface id: 0 (unknown)
        Interface name: unknown
    Encapsulation type: USB packets with Linux header and padding (115)
    Arrival Time: Jul  8, 2018 11:54:41.567416000 EDT
    [Time shift for this packet: 0.000000000 seconds]
    Epoch Time: 1531065281.567416000 seconds
    [Time delta from previous captured frame: 0.415673000 seconds]
    [Time delta from previous displayed frame: 0.415673000 seconds]
    [Time since reference or first frame: 65.040492000 seconds]
    Frame Number: 42
    Frame Length: 66 bytes (528 bits)
    Capture Length: 66 bytes (528 bits)
    [Frame is marked: False]
    [Frame is ignored: False]
    [Protocols in frame: usb]
USB URB
    [Source: host]
    [Destination: 3.2.1]
    URB id: 0xffff9d19b3c36f00
    URB type: URB_SUBMIT ('S')
    URB transfer type: URB_BULK (0x03)
    Endpoint: 0x01, Direction: OUT
        0... .... = Direction: OUT (0)
        .... 0001 = Endpoint number: 1
    Device: 2
    URB bus id: 3
    Device setup request: not relevant ('-')
    Data: present (0)
    URB sec: 1531065281
    URB usec: 567416
    URB status: Operation now in progress (-EINPROGRESS) (-115)
    URB length [bytes]: 2
    Data length [bytes]: 2
    [bInterfaceClass: Unknown (0xffff)]
    Unused Setup Header
    Interval: 0
    Start frame: 0
    Copy of Transfer Flags: 0x00000000
    Number of ISO descriptors: 0
Leftover Capture Data: 1b05

0000  00 6f c3 b3 19 9d ff ff 53 03 01 02 03 00 2d 00   .o......S.....-.
0010  c1 33 42 5b 00 00 00 00 78 a8 08 00 8d ff ff ff   .3B[....x.......
0020  02 00 00 00 02 00 00 00 00 00 00 00 00 00 00 00   ................
0030  00 00 00 00 00 00 00 00 00 00 00 00 00 00 00 00   ................
0040  1b 05                                             ..

Frame 43: 66 bytes on wire (528 bits), 66 bytes captured (528 bits) on interface 0
    Interface id: 0 (unknown)
        Interface name: unknown
    Encapsulation type: USB packets with Linux header and padding (115)
    Arrival Time: Jul  8, 2018 11:54:41.725712000 EDT
    [Time shift for this packet: 0.000000000 seconds]
    Epoch Time: 1531065281.725712000 seconds
    [Time delta from previous captured frame: 0.158296000 seconds]
    [Time delta from previous displayed frame: 0.158296000 seconds]
    [Time since reference or first frame: 65.198788000 seconds]
    Frame Number: 43
    Frame Length: 66 bytes (528 bits)
    Capture Length: 66 bytes (528 bits)
    [Frame is marked: False]
    [Frame is ignored: False]
    [Protocols in frame: usb]
USB URB
    [Source: 3.2.2]
    [Destination: host]
    URB id: 0xffff9d196fe45cc0
    URB type: URB_COMPLETE ('C')
    URB transfer type: URB_BULK (0x03)
    Endpoint: 0x82, Direction: IN
        1... .... = Direction: IN (1)
        .... 0010 = Endpoint number: 2
    Device: 2
    URB bus id: 3
    Device setup request: not relevant ('-')
    Data: present (0)
    URB sec: 1531065281
    URB usec: 725712
    URB status: Remote I/O error (-EREMOTEIO) (-121)
    URB length [bytes]: 2
    Data length [bytes]: 2
    [bInterfaceClass: Unknown (0xffff)]
    Unused Setup Header
    Interval: 0
    Start frame: 0
    Copy of Transfer Flags: 0x00000201
    Number of ISO descriptors: 0
Leftover Capture Data: 3003

0000  c0 5c e4 6f 19 9d ff ff 43 03 82 02 03 00 2d 00   .\.o....C.....-.
0010  c1 33 42 5b 00 00 00 00 d0 12 0b 00 87 ff ff ff   .3B[............
0020  02 00 00 00 02 00 00 00 00 00 00 00 00 00 00 00   ................
0030  00 00 00 00 00 00 00 00 01 02 00 00 00 00 00 00   ................
0040  30 03                                             0.

Frame 44: 66 bytes on wire (528 bits), 66 bytes captured (528 bits) on interface 0
    Interface id: 0 (unknown)
        Interface name: unknown
    Encapsulation type: USB packets with Linux header and padding (115)
    Arrival Time: Jul  8, 2018 11:54:42.038082000 EDT
    [Time shift for this packet: 0.000000000 seconds]
    Epoch Time: 1531065282.038082000 seconds
    [Time delta from previous captured frame: 0.312370000 seconds]
    [Time delta from previous displayed frame: 0.312370000 seconds]
    [Time since reference or first frame: 65.511158000 seconds]
    Frame Number: 44
    Frame Length: 66 bytes (528 bits)
    Capture Length: 66 bytes (528 bits)
    [Frame is marked: False]
    [Frame is ignored: False]
    [Protocols in frame: usb]
USB URB
    [Source: host]
    [Destination: 3.2.1]
    URB id: 0xffff9d19b3c36840
    URB type: URB_SUBMIT ('S')
    URB transfer type: URB_BULK (0x03)
    Endpoint: 0x01, Direction: OUT
        0... .... = Direction: OUT (0)
        .... 0001 = Endpoint number: 1
    Device: 2
    URB bus id: 3
    Device setup request: not relevant ('-')
    Data: present (0)
    URB sec: 1531065282
    URB usec: 38082
    URB status: Operation now in progress (-EINPROGRESS) (-115)
    URB length [bytes]: 2
    Data length [bytes]: 2
    [bInterfaceClass: Unknown (0xffff)]
    Unused Setup Header
    Interval: 0
    Start frame: 0
    Copy of Transfer Flags: 0x00000000
    Number of ISO descriptors: 0
Leftover Capture Data: 1b05

0000  40 68 c3 b3 19 9d ff ff 53 03 01 02 03 00 2d 00   @h......S.....-.
0010  c2 33 42 5b 00 00 00 00 c2 94 00 00 8d ff ff ff   .3B[............
0020  02 00 00 00 02 00 00 00 00 00 00 00 00 00 00 00   ................
0030  00 00 00 00 00 00 00 00 00 00 00 00 00 00 00 00   ................
0040  1b 05                                             ..

Frame 45: 66 bytes on wire (528 bits), 66 bytes captured (528 bits) on interface 0
    Interface id: 0 (unknown)
        Interface name: unknown
    Encapsulation type: USB packets with Linux header and padding (115)
    Arrival Time: Jul  8, 2018 11:54:42.135716000 EDT
    [Time shift for this packet: 0.000000000 seconds]
    Epoch Time: 1531065282.135716000 seconds
    [Time delta from previous captured frame: 0.097634000 seconds]
    [Time delta from previous displayed frame: 0.097634000 seconds]
    [Time since reference or first frame: 65.608792000 seconds]
    Frame Number: 45
    Frame Length: 66 bytes (528 bits)
    Capture Length: 66 bytes (528 bits)
    [Frame is marked: False]
    [Frame is ignored: False]
    [Protocols in frame: usb]
USB URB
    [Source: 3.2.2]
    [Destination: host]
    URB id: 0xffff9d1952563000
    URB type: URB_COMPLETE ('C')
    URB transfer type: URB_BULK (0x03)
    Endpoint: 0x82, Direction: IN
        1... .... = Direction: IN (1)
        .... 0010 = Endpoint number: 2
    Device: 2
    URB bus id: 3
    Device setup request: not relevant ('-')
    Data: present (0)
    URB sec: 1531065282
    URB usec: 135716
    URB status: Remote I/O error (-EREMOTEIO) (-121)
    URB length [bytes]: 2
    Data length [bytes]: 2
    [bInterfaceClass: Unknown (0xffff)]
    Unused Setup Header
    Interval: 0
    Start frame: 0
    Copy of Transfer Flags: 0x00000201
    Number of ISO descriptors: 0
Leftover Capture Data: 3003

0000  00 30 56 52 19 9d ff ff 43 03 82 02 03 00 2d 00   .0VR....C.....-.
0010  c2 33 42 5b 00 00 00 00 24 12 02 00 87 ff ff ff   .3B[....$.......
0020  02 00 00 00 02 00 00 00 00 00 00 00 00 00 00 00   ................
0030  00 00 00 00 00 00 00 00 01 02 00 00 00 00 00 00   ................
0040  30 03                                             0.

Frame 46: 66 bytes on wire (528 bits), 66 bytes captured (528 bits) on interface 0
    Interface id: 0 (unknown)
        Interface name: unknown
    Encapsulation type: USB packets with Linux header and padding (115)
    Arrival Time: Jul  8, 2018 11:54:42.608950000 EDT
    [Time shift for this packet: 0.000000000 seconds]
    Epoch Time: 1531065282.608950000 seconds
    [Time delta from previous captured frame: 0.473234000 seconds]
    [Time delta from previous displayed frame: 0.473234000 seconds]
    [Time since reference or first frame: 66.082026000 seconds]
    Frame Number: 46
    Frame Length: 66 bytes (528 bits)
    Capture Length: 66 bytes (528 bits)
    [Frame is marked: False]
    [Frame is ignored: False]
    [Protocols in frame: usb]
USB URB
    [Source: host]
    [Destination: 3.2.1]
    URB id: 0xffff9d196fe45cc0
    URB type: URB_SUBMIT ('S')
    URB transfer type: URB_BULK (0x03)
    Endpoint: 0x01, Direction: OUT
        0... .... = Direction: OUT (0)
        .... 0001 = Endpoint number: 1
    Device: 2
    URB bus id: 3
    Device setup request: not relevant ('-')
    Data: present (0)
    URB sec: 1531065282
    URB usec: 608950
    URB status: Operation now in progress (-EINPROGRESS) (-115)
    URB length [bytes]: 2
    Data length [bytes]: 2
    [bInterfaceClass: Unknown (0xffff)]
    Unused Setup Header
    Interval: 0
    Start frame: 0
    Copy of Transfer Flags: 0x00000000
    Number of ISO descriptors: 0
Leftover Capture Data: 1b05

0000  c0 5c e4 6f 19 9d ff ff 53 03 01 02 03 00 2d 00   .\.o....S.....-.
0010  c2 33 42 5b 00 00 00 00 b6 4a 09 00 8d ff ff ff   .3B[.....J......
0020  02 00 00 00 02 00 00 00 00 00 00 00 00 00 00 00   ................
0030  00 00 00 00 00 00 00 00 00 00 00 00 00 00 00 00   ................
0040  1b 05                                             ..

Frame 47: 66 bytes on wire (528 bits), 66 bytes captured (528 bits) on interface 0
    Interface id: 0 (unknown)
        Interface name: unknown
    Encapsulation type: USB packets with Linux header and padding (115)
    Arrival Time: Jul  8, 2018 11:54:42.709710000 EDT
    [Time shift for this packet: 0.000000000 seconds]
    Epoch Time: 1531065282.709710000 seconds
    [Time delta from previous captured frame: 0.100760000 seconds]
    [Time delta from previous displayed frame: 0.100760000 seconds]
    [Time since reference or first frame: 66.182786000 seconds]
    Frame Number: 47
    Frame Length: 66 bytes (528 bits)
    Capture Length: 66 bytes (528 bits)
    [Frame is marked: False]
    [Frame is ignored: False]
    [Protocols in frame: usb]
USB URB
    [Source: 3.2.2]
    [Destination: host]
    URB id: 0xffff9d19b3c36a80
    URB type: URB_COMPLETE ('C')
    URB transfer type: URB_BULK (0x03)
    Endpoint: 0x82, Direction: IN
        1... .... = Direction: IN (1)
        .... 0010 = Endpoint number: 2
    Device: 2
    URB bus id: 3
    Device setup request: not relevant ('-')
    Data: present (0)
    URB sec: 1531065282
    URB usec: 709710
    URB status: Remote I/O error (-EREMOTEIO) (-121)
    URB length [bytes]: 2
    Data length [bytes]: 2
    [bInterfaceClass: Unknown (0xffff)]
    Unused Setup Header
    Interval: 0
    Start frame: 0
    Copy of Transfer Flags: 0x00000201
    Number of ISO descriptors: 0
Leftover Capture Data: 3003

0000  80 6a c3 b3 19 9d ff ff 43 03 82 02 03 00 2d 00   .j......C.....-.
0010  c2 33 42 5b 00 00 00 00 4e d4 0a 00 87 ff ff ff   .3B[....N.......
0020  02 00 00 00 02 00 00 00 00 00 00 00 00 00 00 00   ................
0030  00 00 00 00 00 00 00 00 01 02 00 00 00 00 00 00   ................
0040  30 03                                             0.

Frame 48: 66 bytes on wire (528 bits), 66 bytes captured (528 bits) on interface 0
    Interface id: 0 (unknown)
        Interface name: unknown
    Encapsulation type: USB packets with Linux header and padding (115)
    Arrival Time: Jul  8, 2018 11:54:43.221205000 EDT
    [Time shift for this packet: 0.000000000 seconds]
    Epoch Time: 1531065283.221205000 seconds
    [Time delta from previous captured frame: 0.511495000 seconds]
    [Time delta from previous displayed frame: 0.511495000 seconds]
    [Time since reference or first frame: 66.694281000 seconds]
    Frame Number: 48
    Frame Length: 66 bytes (528 bits)
    Capture Length: 66 bytes (528 bits)
    [Frame is marked: False]
    [Frame is ignored: False]
    [Protocols in frame: usb]
USB URB
    [Source: host]
    [Destination: 3.2.1]
    URB id: 0xffff9d19b3c36840
    URB type: URB_SUBMIT ('S')
    URB transfer type: URB_BULK (0x03)
    Endpoint: 0x01, Direction: OUT
        0... .... = Direction: OUT (0)
        .... 0001 = Endpoint number: 1
    Device: 2
    URB bus id: 3
    Device setup request: not relevant ('-')
    Data: present (0)
    URB sec: 1531065283
    URB usec: 221205
    URB status: Operation now in progress (-EINPROGRESS) (-115)
    URB length [bytes]: 2
    Data length [bytes]: 2
    [bInterfaceClass: Unknown (0xffff)]
    Unused Setup Header
    Interval: 0
    Start frame: 0
    Copy of Transfer Flags: 0x00000000
    Number of ISO descriptors: 0
Leftover Capture Data: 1b05

0000  40 68 c3 b3 19 9d ff ff 53 03 01 02 03 00 2d 00   @h......S.....-.
0010  c3 33 42 5b 00 00 00 00 15 60 03 00 8d ff ff ff   .3B[.....`......
0020  02 00 00 00 02 00 00 00 00 00 00 00 00 00 00 00   ................
0030  00 00 00 00 00 00 00 00 00 00 00 00 00 00 00 00   ................
0040  1b 05                                             ..

Frame 49: 66 bytes on wire (528 bits), 66 bytes captured (528 bits) on interface 0
    Interface id: 0 (unknown)
        Interface name: unknown
    Encapsulation type: USB packets with Linux header and padding (115)
    Arrival Time: Jul  8, 2018 11:54:43.365845000 EDT
    [Time shift for this packet: 0.000000000 seconds]
    Epoch Time: 1531065283.365845000 seconds
    [Time delta from previous captured frame: 0.144640000 seconds]
    [Time delta from previous displayed frame: 0.144640000 seconds]
    [Time since reference or first frame: 66.838921000 seconds]
    Frame Number: 49
    Frame Length: 66 bytes (528 bits)
    Capture Length: 66 bytes (528 bits)
    [Frame is marked: False]
    [Frame is ignored: False]
    [Protocols in frame: usb]
USB URB
    [Source: 3.2.2]
    [Destination: host]
    URB id: 0xffff9d19b3c36a80
    URB type: URB_COMPLETE ('C')
    URB transfer type: URB_BULK (0x03)
    Endpoint: 0x82, Direction: IN
        1... .... = Direction: IN (1)
        .... 0010 = Endpoint number: 2
    Device: 2
    URB bus id: 3
    Device setup request: not relevant ('-')
    Data: present (0)
    URB sec: 1531065283
    URB usec: 365845
    URB status: Remote I/O error (-EREMOTEIO) (-121)
    URB length [bytes]: 2
    Data length [bytes]: 2
    [bInterfaceClass: Unknown (0xffff)]
    Unused Setup Header
    Interval: 0
    Start frame: 0
    Copy of Transfer Flags: 0x00000201
    Number of ISO descriptors: 0
Leftover Capture Data: 3003

0000  80 6a c3 b3 19 9d ff ff 43 03 82 02 03 00 2d 00   .j......C.....-.
0010  c3 33 42 5b 00 00 00 00 15 95 05 00 87 ff ff ff   .3B[............
0020  02 00 00 00 02 00 00 00 00 00 00 00 00 00 00 00   ................
0030  00 00 00 00 00 00 00 00 01 02 00 00 00 00 00 00   ................
0040  30 03                                             0.

Frame 50: 66 bytes on wire (528 bits), 66 bytes captured (528 bits) on interface 0
    Interface id: 0 (unknown)
        Interface name: unknown
    Encapsulation type: USB packets with Linux header and padding (115)
    Arrival Time: Jul  8, 2018 11:54:43.770947000 EDT
    [Time shift for this packet: 0.000000000 seconds]
    Epoch Time: 1531065283.770947000 seconds
    [Time delta from previous captured frame: 0.405102000 seconds]
    [Time delta from previous displayed frame: 0.405102000 seconds]
    [Time since reference or first frame: 67.244023000 seconds]
    Frame Number: 50
    Frame Length: 66 bytes (528 bits)
    Capture Length: 66 bytes (528 bits)
    [Frame is marked: False]
    [Frame is ignored: False]
    [Protocols in frame: usb]
USB URB
    [Source: host]
    [Destination: 3.2.1]
    URB id: 0xffff9d196fe45cc0
    URB type: URB_SUBMIT ('S')
    URB transfer type: URB_BULK (0x03)
    Endpoint: 0x01, Direction: OUT
        0... .... = Direction: OUT (0)
        .... 0001 = Endpoint number: 1
    Device: 2
    URB bus id: 3
    Device setup request: not relevant ('-')
    Data: present (0)
    URB sec: 1531065283
    URB usec: 770947
    URB status: Operation now in progress (-EINPROGRESS) (-115)
    URB length [bytes]: 2
    Data length [bytes]: 2
    [bInterfaceClass: Unknown (0xffff)]
    Unused Setup Header
    Interval: 0
    Start frame: 0
    Copy of Transfer Flags: 0x00000000
    Number of ISO descriptors: 0
Leftover Capture Data: 1b05

0000  c0 5c e4 6f 19 9d ff ff 53 03 01 02 03 00 2d 00   .\.o....S.....-.
0010  c3 33 42 5b 00 00 00 00 83 c3 0b 00 8d ff ff ff   .3B[............
0020  02 00 00 00 02 00 00 00 00 00 00 00 00 00 00 00   ................
0030  00 00 00 00 00 00 00 00 00 00 00 00 00 00 00 00   ................
0040  1b 05                                             ..

Frame 51: 66 bytes on wire (528 bits), 66 bytes captured (528 bits) on interface 0
    Interface id: 0 (unknown)
        Interface name: unknown
    Encapsulation type: USB packets with Linux header and padding (115)
    Arrival Time: Jul  8, 2018 11:54:43.857703000 EDT
    [Time shift for this packet: 0.000000000 seconds]
    Epoch Time: 1531065283.857703000 seconds
    [Time delta from previous captured frame: 0.086756000 seconds]
    [Time delta from previous displayed frame: 0.086756000 seconds]
    [Time since reference or first frame: 67.330779000 seconds]
    Frame Number: 51
    Frame Length: 66 bytes (528 bits)
    Capture Length: 66 bytes (528 bits)
    [Frame is marked: False]
    [Frame is ignored: False]
    [Protocols in frame: usb]
USB URB
    [Source: 3.2.2]
    [Destination: host]
    URB id: 0xffff9d1952563840
    URB type: URB_COMPLETE ('C')
    URB transfer type: URB_BULK (0x03)
    Endpoint: 0x82, Direction: IN
        1... .... = Direction: IN (1)
        .... 0010 = Endpoint number: 2
    Device: 2
    URB bus id: 3
    Device setup request: not relevant ('-')
    Data: present (0)
    URB sec: 1531065283
    URB usec: 857703
    URB status: Remote I/O error (-EREMOTEIO) (-121)
    URB length [bytes]: 2
    Data length [bytes]: 2
    [bInterfaceClass: Unknown (0xffff)]
    Unused Setup Header
    Interval: 0
    Start frame: 0
    Copy of Transfer Flags: 0x00000201
    Number of ISO descriptors: 0
Leftover Capture Data: 3003

0000  40 38 56 52 19 9d ff ff 43 03 82 02 03 00 2d 00   @8VR....C.....-.
0010  c3 33 42 5b 00 00 00 00 67 16 0d 00 87 ff ff ff   .3B[....g.......
0020  02 00 00 00 02 00 00 00 00 00 00 00 00 00 00 00   ................
0030  00 00 00 00 00 00 00 00 01 02 00 00 00 00 00 00   ................
0040  30 03                                             0.

Frame 52: 66 bytes on wire (528 bits), 66 bytes captured (528 bits) on interface 0
    Interface id: 0 (unknown)
        Interface name: unknown
    Encapsulation type: USB packets with Linux header and padding (115)
    Arrival Time: Jul  8, 2018 11:54:44.440607000 EDT
    [Time shift for this packet: 0.000000000 seconds]
    Epoch Time: 1531065284.440607000 seconds
    [Time delta from previous captured frame: 0.582904000 seconds]
    [Time delta from previous displayed frame: 0.582904000 seconds]
    [Time since reference or first frame: 67.913683000 seconds]
    Frame Number: 52
    Frame Length: 66 bytes (528 bits)
    Capture Length: 66 bytes (528 bits)
    [Frame is marked: False]
    [Frame is ignored: False]
    [Protocols in frame: usb]
USB URB
    [Source: host]
    [Destination: 3.2.1]
    URB id: 0xffff9d1952563d80
    URB type: URB_SUBMIT ('S')
    URB transfer type: URB_BULK (0x03)
    Endpoint: 0x01, Direction: OUT
        0... .... = Direction: OUT (0)
        .... 0001 = Endpoint number: 1
    Device: 2
    URB bus id: 3
    Device setup request: not relevant ('-')
    Data: present (0)
    URB sec: 1531065284
    URB usec: 440607
    URB status: Operation now in progress (-EINPROGRESS) (-115)
    URB length [bytes]: 2
    Data length [bytes]: 2
    [bInterfaceClass: Unknown (0xffff)]
    Unused Setup Header
    Interval: 0
    Start frame: 0
    Copy of Transfer Flags: 0x00000000
    Number of ISO descriptors: 0
Leftover Capture Data: 1b05

0000  80 3d 56 52 19 9d ff ff 53 03 01 02 03 00 2d 00   .=VR....S.....-.
0010  c4 33 42 5b 00 00 00 00 1f b9 06 00 8d ff ff ff   .3B[............
0020  02 00 00 00 02 00 00 00 00 00 00 00 00 00 00 00   ................
0030  00 00 00 00 00 00 00 00 00 00 00 00 00 00 00 00   ................
0040  1b 05                                             ..

Frame 53: 66 bytes on wire (528 bits), 66 bytes captured (528 bits) on interface 0
    Interface id: 0 (unknown)
        Interface name: unknown
    Encapsulation type: USB packets with Linux header and padding (115)
    Arrival Time: Jul  8, 2018 11:54:44.595737000 EDT
    [Time shift for this packet: 0.000000000 seconds]
    Epoch Time: 1531065284.595737000 seconds
    [Time delta from previous captured frame: 0.155130000 seconds]
    [Time delta from previous displayed frame: 0.155130000 seconds]
    [Time since reference or first frame: 68.068813000 seconds]
    Frame Number: 53
    Frame Length: 66 bytes (528 bits)
    Capture Length: 66 bytes (528 bits)
    [Frame is marked: False]
    [Frame is ignored: False]
    [Protocols in frame: usb]
USB URB
    [Source: 3.2.2]
    [Destination: host]
    URB id: 0xffff9d19b3c36f00
    URB type: URB_COMPLETE ('C')
    URB transfer type: URB_BULK (0x03)
    Endpoint: 0x82, Direction: IN
        1... .... = Direction: IN (1)
        .... 0010 = Endpoint number: 2
    Device: 2
    URB bus id: 3
    Device setup request: not relevant ('-')
    Data: present (0)
    URB sec: 1531065284
    URB usec: 595737
    URB status: Remote I/O error (-EREMOTEIO) (-121)
    URB length [bytes]: 2
    Data length [bytes]: 2
    [bInterfaceClass: Unknown (0xffff)]
    Unused Setup Header
    Interval: 0
    Start frame: 0
    Copy of Transfer Flags: 0x00000201
    Number of ISO descriptors: 0
Leftover Capture Data: 3003

0000  00 6f c3 b3 19 9d ff ff 43 03 82 02 03 00 2d 00   .o......C.....-.
0010  c4 33 42 5b 00 00 00 00 19 17 09 00 87 ff ff ff   .3B[............
0020  02 00 00 00 02 00 00 00 00 00 00 00 00 00 00 00   ................
0030  00 00 00 00 00 00 00 00 01 02 00 00 00 00 00 00   ................
0040  30 03                                             0.

Frame 54: 66 bytes on wire (528 bits), 66 bytes captured (528 bits) on interface 0
    Interface id: 0 (unknown)
        Interface name: unknown
    Encapsulation type: USB packets with Linux header and padding (115)
    Arrival Time: Jul  8, 2018 11:54:44.850778000 EDT
    [Time shift for this packet: 0.000000000 seconds]
    Epoch Time: 1531065284.850778000 seconds
    [Time delta from previous captured frame: 0.255041000 seconds]
    [Time delta from previous displayed frame: 0.255041000 seconds]
    [Time since reference or first frame: 68.323854000 seconds]
    Frame Number: 54
    Frame Length: 66 bytes (528 bits)
    Capture Length: 66 bytes (528 bits)
    [Frame is marked: False]
    [Frame is ignored: False]
    [Protocols in frame: usb]
USB URB
    [Source: host]
    [Destination: 3.2.1]
    URB id: 0xffff9d19b3c36cc0
    URB type: URB_SUBMIT ('S')
    URB transfer type: URB_BULK (0x03)
    Endpoint: 0x01, Direction: OUT
        0... .... = Direction: OUT (0)
        .... 0001 = Endpoint number: 1
    Device: 2
    URB bus id: 3
    Device setup request: not relevant ('-')
    Data: present (0)
    URB sec: 1531065284
    URB usec: 850778
    URB status: Operation now in progress (-EINPROGRESS) (-115)
    URB length [bytes]: 2
    Data length [bytes]: 2
    [bInterfaceClass: Unknown (0xffff)]
    Unused Setup Header
    Interval: 0
    Start frame: 0
    Copy of Transfer Flags: 0x00000000
    Number of ISO descriptors: 0
Leftover Capture Data: 1b05

0000  c0 6c c3 b3 19 9d ff ff 53 03 01 02 03 00 2d 00   .l......S.....-.
0010  c4 33 42 5b 00 00 00 00 5a fb 0c 00 8d ff ff ff   .3B[....Z.......
0020  02 00 00 00 02 00 00 00 00 00 00 00 00 00 00 00   ................
0030  00 00 00 00 00 00 00 00 00 00 00 00 00 00 00 00   ................
0040  1b 05                                             ..

Frame 55: 66 bytes on wire (528 bits), 66 bytes captured (528 bits) on interface 0
    Interface id: 0 (unknown)
        Interface name: unknown
    Encapsulation type: USB packets with Linux header and padding (115)
    Arrival Time: Jul  8, 2018 11:54:45.005745000 EDT
    [Time shift for this packet: 0.000000000 seconds]
    Epoch Time: 1531065285.005745000 seconds
    [Time delta from previous captured frame: 0.154967000 seconds]
    [Time delta from previous displayed frame: 0.154967000 seconds]
    [Time since reference or first frame: 68.478821000 seconds]
    Frame Number: 55
    Frame Length: 66 bytes (528 bits)
    Capture Length: 66 bytes (528 bits)
    [Frame is marked: False]
