Frame 1: 64 bytes on wire (512 bits), 64 bytes captured (512 bits) on interface 0
    Interface id: 0 (unknown)
        Interface name: unknown
    Encapsulation type: USB packets with Linux header and padding (115)
    Arrival Time: Jul  1, 2018 15:33:44.861933000 EDT
    [Time shift for this packet: 0.000000000 seconds]
    Epoch Time: 1530473624.861933000 seconds
    [Time delta from previous captured frame: 0.000000000 seconds]
    [Time delta from previous displayed frame: 0.000000000 seconds]
    [Time since reference or first frame: 0.000000000 seconds]
    Frame Number: 1
    Frame Length: 64 bytes (512 bits)
    Capture Length: 64 bytes (512 bits)
    [Frame is marked: False]
    [Frame is ignored: False]
    [Protocols in frame: usb]
USB URB
    [Source: host]
    [Destination: 3.2.0]
    URB id: 0xffff89fb745266c0
    URB type: URB_SUBMIT ('S')
    URB transfer type: URB_CONTROL (0x02)
    Endpoint: 0x80, Direction: IN
        1... .... = Direction: IN (1)
        .... 0000 = Endpoint number: 0
    Device: 2
    URB bus id: 3
    Device setup request: relevant (0)
    Data: not present ('<')
    URB sec: 1530473624
    URB usec: 861933
    URB status: Operation now in progress (-EINPROGRESS) (-115)
    URB length [bytes]: 40
    Data length [bytes]: 0
    [Response in: 2]
    Interval: 0
    Start frame: 0
    Copy of Transfer Flags: 0x00000200
    Number of ISO descriptors: 0
URB setup
    bmRequestType: 0x80
        1... .... = Direction: Device-to-host
        .00. .... = Type: Standard (0x0)
        ...0 0000 = Recipient: Device (0x00)
    bRequest: GET DESCRIPTOR (6)
    Descriptor Index: 0x00
    bDescriptorType: 0x01
    Language Id: no language specified (0x0000)
    wLength: 40

0000  c0 66 52 74 fb 89 ff ff 53 02 80 02 03 00 00 3c   .fRt....S......<
0010  98 2c 39 5b 00 00 00 00 ed 26 0d 00 8d ff ff ff   .,9[.....&......
0020  28 00 00 00 00 00 00 00 80 06 00 01 00 00 28 00   (.............(.
0030  00 00 00 00 00 00 00 00 00 02 00 00 00 00 00 00   ................

Frame 2: 82 bytes on wire (656 bits), 82 bytes captured (656 bits) on interface 0
    Interface id: 0 (unknown)
        Interface name: unknown
    Encapsulation type: USB packets with Linux header and padding (115)
    Arrival Time: Jul  1, 2018 15:33:44.864903000 EDT
    [Time shift for this packet: 0.000000000 seconds]
    Epoch Time: 1530473624.864903000 seconds
    [Time delta from previous captured frame: 0.002970000 seconds]
    [Time delta from previous displayed frame: 0.002970000 seconds]
    [Time since reference or first frame: 0.002970000 seconds]
    Frame Number: 2
    Frame Length: 82 bytes (656 bits)
    Capture Length: 82 bytes (656 bits)
    [Frame is marked: False]
    [Frame is ignored: False]
    [Protocols in frame: usb]
USB URB
    [Source: 3.2.0]
    [Destination: host]
    URB id: 0xffff89fb745266c0
    URB type: URB_COMPLETE ('C')
    URB transfer type: URB_CONTROL (0x02)
    Endpoint: 0x80, Direction: IN
        1... .... = Direction: IN (1)
        .... 0000 = Endpoint number: 0
    Device: 2
    URB bus id: 3
    Device setup request: not relevant ('-')
    Data: present (0)
    URB sec: 1530473624
    URB usec: 864903
    URB status: Success (0)
    URB length [bytes]: 18
    Data length [bytes]: 18
    [Request in: 1]
    [Time from request: 0.002970000 seconds]
    Unused Setup Header
    Interval: 0
    Start frame: 0
    Copy of Transfer Flags: 0x00000200
    Number of ISO descriptors: 0
DEVICE DESCRIPTOR
    bLength: 18
    bDescriptorType: 0x01 (DEVICE)
    bcdUSB: 0x0200
    bDeviceClass: Device (0x00)
    bDeviceSubClass: 0
    bDeviceProtocol: 0 (Use class code info from Interface Descriptors)
    bMaxPacketSize0: 64
    idVendor: Graphtec America, Inc. (0x0b4d)
    idProduct: Unknown (0x112f)
    bcdDevice: 0x0100
    iManufacturer: 0
    iProduct: 0
    iSerialNumber: 1
    bNumConfigurations: 1

0000  c0 66 52 74 fb 89 ff ff 43 02 80 02 03 00 2d 00   .fRt....C.....-.
0010  98 2c 39 5b 00 00 00 00 87 32 0d 00 00 00 00 00   .,9[.....2......
0020  12 00 00 00 12 00 00 00 00 00 00 00 00 00 00 00   ................
0030  00 00 00 00 00 00 00 00 00 02 00 00 00 00 00 00   ................
0040  12 01 00 02 00 00 00 40 4d 0b 2f 11 00 01 00 00   .......@M./.....
0050  01 01                                             ..

Frame 3: 65 bytes on wire (520 bits), 65 bytes captured (520 bits) on interface 0
    Interface id: 0 (unknown)
        Interface name: unknown
    Encapsulation type: USB packets with Linux header and padding (115)
    Arrival Time: Jul  1, 2018 15:33:52.110229000 EDT
    [Time shift for this packet: 0.000000000 seconds]
    Epoch Time: 1530473632.110229000 seconds
    [Time delta from previous captured frame: 7.245326000 seconds]
    [Time delta from previous displayed frame: 7.245326000 seconds]
    [Time since reference or first frame: 7.248296000 seconds]
    Frame Number: 3
    Frame Length: 65 bytes (520 bits)
    Capture Length: 65 bytes (520 bits)
    [Frame is marked: False]
    [Frame is ignored: False]
    [Protocols in frame: usb]
USB URB
    [Source: 3.1.1]
    [Destination: host]
    URB id: 0xffff89fd49658d80
    URB type: URB_COMPLETE ('C')
    URB transfer type: URB_INTERRUPT (0x01)
    Endpoint: 0x81, Direction: IN
        1... .... = Direction: IN (1)
        .... 0001 = Endpoint number: 1
    Device: 1
    URB bus id: 3
    Device setup request: not relevant ('-')
    Data: present (0)
    URB sec: 1530473632
    URB usec: 110229
    URB status: Success (0)
    URB length [bytes]: 1
    Data length [bytes]: 1
    [bInterfaceClass: Unknown (0xffff)]
    Unused Setup Header
    Interval: 2048
    Start frame: 0
    Copy of Transfer Flags: 0x00000200
    Number of ISO descriptors: 0
Leftover Capture Data: 02

0000  80 8d 65 49 fd 89 ff ff 43 01 81 01 03 00 2d 00   ..eI....C.....-.
0010  a0 2c 39 5b 00 00 00 00 95 ae 01 00 00 00 00 00   .,9[............
0020  01 00 00 00 01 00 00 00 00 00 00 00 00 00 00 00   ................
0030  00 08 00 00 00 00 00 00 00 02 00 00 00 00 00 00   ................
0040  02                                                .

Packet comments
    POWER ON

        [Expert Info (Comment/Comment): POWER ON
]
            [POWER ON
]
            [Severity level: Comment]
            [Group: Comment]
Frame 4: 64 bytes on wire (512 bits), 64 bytes captured (512 bits) on interface 0
    Interface id: 0 (unknown)
        Interface name: unknown
    Encapsulation type: USB packets with Linux header and padding (115)
    Arrival Time: Jul  1, 2018 15:33:52.110262000 EDT
    [Time shift for this packet: 0.000000000 seconds]
    Epoch Time: 1530473632.110262000 seconds
    [Time delta from previous captured frame: 0.000033000 seconds]
    [Time delta from previous displayed frame: 0.000033000 seconds]
    [Time since reference or first frame: 7.248329000 seconds]
    Frame Number: 4
    Frame Length: 64 bytes (512 bits)
    Capture Length: 64 bytes (512 bits)
    [Frame is marked: False]
    [Frame is ignored: False]
    [Protocols in frame: usb]
USB URB
    [Source: host]
    [Destination: 3.1.1]
    URB id: 0xffff89fd49658d80
    URB type: URB_SUBMIT ('S')
    URB transfer type: URB_INTERRUPT (0x01)
    Endpoint: 0x81, Direction: IN
        1... .... = Direction: IN (1)
        .... 0001 = Endpoint number: 1
    Device: 1
    URB bus id: 3
    Device setup request: not relevant ('-')
    Data: not present ('<')
    URB sec: 1530473632
    URB usec: 110262
    URB status: Operation now in progress (-EINPROGRESS) (-115)
    URB length [bytes]: 4
    Data length [bytes]: 0
    [Response in: 19]
    [bInterfaceClass: Unknown (0xffff)]
    Unused Setup Header
    Interval: 2048
    Start frame: 0
    Copy of Transfer Flags: 0x00000200
    Number of ISO descriptors: 0

0000  80 8d 65 49 fd 89 ff ff 53 01 81 01 03 00 2d 3c   ..eI....S.....-<
0010  a0 2c 39 5b 00 00 00 00 b6 ae 01 00 8d ff ff ff   .,9[............
0020  04 00 00 00 00 00 00 00 00 00 00 00 00 00 00 00   ................
0030  00 08 00 00 00 00 00 00 00 02 00 00 00 00 00 00   ................

Frame 5: 64 bytes on wire (512 bits), 64 bytes captured (512 bits) on interface 0
    Interface id: 0 (unknown)
        Interface name: unknown
    Encapsulation type: USB packets with Linux header and padding (115)
    Arrival Time: Jul  1, 2018 15:33:52.110298000 EDT
    [Time shift for this packet: 0.000000000 seconds]
    Epoch Time: 1530473632.110298000 seconds
    [Time delta from previous captured frame: 0.000036000 seconds]
    [Time delta from previous displayed frame: 0.000036000 seconds]
    [Time since reference or first frame: 7.248365000 seconds]
    Frame Number: 5
    Frame Length: 64 bytes (512 bits)
    Capture Length: 64 bytes (512 bits)
    [Frame is marked: False]
    [Frame is ignored: False]
    [Protocols in frame: usb:usbhub]
USB URB
    [Source: host]
    [Destination: 3.1.0]
    URB id: 0xffff89fbe8d2e540
    URB type: URB_SUBMIT ('S')
    URB transfer type: URB_CONTROL (0x02)
    Endpoint: 0x80, Direction: IN
        1... .... = Direction: IN (1)
        .... 0000 = Endpoint number: 0
    Device: 1
    URB bus id: 3
    Device setup request: relevant (0)
    Data: not present ('<')
    URB sec: 1530473632
    URB usec: 110298
    URB status: Operation now in progress (-EINPROGRESS) (-115)
    URB length [bytes]: 4
    Data length [bytes]: 0
    [Response in: 6]
    Interval: 0
    Start frame: 0
    Copy of Transfer Flags: 0x00000200
    Number of ISO descriptors: 0
    [bInterfaceClass: Unknown (0xffff)]
URB setup
    bmRequestType: 0xa3
        1... .... = Direction: Device-to-host
        .01. .... = Type: Class (0x1)
        ...0 0011 = Recipient: Other (0x03)
bRequest: GET_STATUS (0x00)
wValue: 0x0000
    (zero): 0
wIndex: 1
    Port: 1
wLength: 4

0000  40 e5 d2 e8 fb 89 ff ff 53 02 80 01 03 00 00 3c   @.......S......<
0010  a0 2c 39 5b 00 00 00 00 da ae 01 00 8d ff ff ff   .,9[............
0020  04 00 00 00 00 00 00 00 a3 00 00 00 01 00 04 00   ................
0030  00 00 00 00 00 00 00 00 00 02 00 00 00 00 00 00   ................

Frame 6: 68 bytes on wire (544 bits), 68 bytes captured (544 bits) on interface 0
    Interface id: 0 (unknown)
        Interface name: unknown
    Encapsulation type: USB packets with Linux header and padding (115)
    Arrival Time: Jul  1, 2018 15:33:52.110319000 EDT
    [Time shift for this packet: 0.000000000 seconds]
    Epoch Time: 1530473632.110319000 seconds
    [Time delta from previous captured frame: 0.000021000 seconds]
    [Time delta from previous displayed frame: 0.000021000 seconds]
    [Time since reference or first frame: 7.248386000 seconds]
    Frame Number: 6
    Frame Length: 68 bytes (544 bits)
    Capture Length: 68 bytes (544 bits)
    [Frame is marked: False]
    [Frame is ignored: False]
    [Protocols in frame: usb:usbhub]
USB URB
    [Source: 3.1.0]
    [Destination: host]
    URB id: 0xffff89fbe8d2e540
    URB type: URB_COMPLETE ('C')
    URB transfer type: URB_CONTROL (0x02)
    Endpoint: 0x80, Direction: IN
        1... .... = Direction: IN (1)
        .... 0000 = Endpoint number: 0
    Device: 1
    URB bus id: 3
    Device setup request: not relevant ('-')
    Data: present (0)
    URB sec: 1530473632
    URB usec: 110319
    URB status: Success (0)
    URB length [bytes]: 4
    Data length [bytes]: 4
    [Request in: 5]
    [Time from request: 0.000021000 seconds]
    Unused Setup Header
    Interval: 0
    Start frame: 0
    Copy of Transfer Flags: 0x00000200
    Number of ISO descriptors: 0
    [bInterfaceClass: Unknown (0xffff)]
Port Status: 0x0100, PORT_POWER
    .... .... .... ...0 = PORT_CONNECTION: False
    .... .... .... ..0. = PORT_ENABLE: False
    .... .... .... .0.. = PORT_SUSPEND: False
    .... .... .... 0... = PORT_OVER_CURRENT: False
    .... .... ...0 .... = PORT_RESET: False
    .... ...1 .... .... = PORT_POWER: True
    .... ..0. .... .... = PORT_LOW_SPEED: False
    .... .0.. .... .... = PORT_HIGH_SPEED: False
    .... 0... .... .... = PORT_TEST: False
    ...0 .... .... .... = PORT_INDICATOR: Default colors
Port Change: 0x0001, C_PORT_CONNECTION
    .... .... .... ...1 = C_PORT_CONNECTION: True
    .... .... .... ..0. = C_PORT_ENABLE: False
    .... .... .... .0.. = C_PORT_SUSPEND: False
    .... .... .... 0... = C_PORT_OVER_CURRENT: False
    .... .... ...0 .... = C_PORT_RESET: False

0000  40 e5 d2 e8 fb 89 ff ff 43 02 80 01 03 00 2d 00   @.......C.....-.
0010  a0 2c 39 5b 00 00 00 00 ef ae 01 00 00 00 00 00   .,9[............
0020  04 00 00 00 04 00 00 00 00 00 00 00 00 00 00 00   ................
0030  00 00 00 00 00 00 00 00 00 02 00 00 00 00 00 00   ................
0040  00 01 01 00                                       ....

Frame 7: 64 bytes on wire (512 bits), 64 bytes captured (512 bits) on interface 0
    Interface id: 0 (unknown)
        Interface name: unknown
    Encapsulation type: USB packets with Linux header and padding (115)
    Arrival Time: Jul  1, 2018 15:33:52.110329000 EDT
    [Time shift for this packet: 0.000000000 seconds]
    Epoch Time: 1530473632.110329000 seconds
    [Time delta from previous captured frame: 0.000010000 seconds]
    [Time delta from previous displayed frame: 0.000010000 seconds]
    [Time since reference or first frame: 7.248396000 seconds]
    Frame Number: 7
    Frame Length: 64 bytes (512 bits)
    Capture Length: 64 bytes (512 bits)
    [Frame is marked: False]
    [Frame is ignored: False]
    [Protocols in frame: usb:usbhub]
USB URB
    [Source: host]
    [Destination: 3.1.0]
    URB id: 0xffff89fbe8d2e540
    URB type: URB_SUBMIT ('S')
    URB transfer type: URB_CONTROL (0x02)
    Endpoint: 0x00, Direction: OUT
        0... .... = Direction: OUT (0)
        .... 0000 = Endpoint number: 0
    Device: 1
    URB bus id: 3
    Device setup request: relevant (0)
    Data: present (0)
    URB sec: 1530473632
    URB usec: 110329
    URB status: Operation now in progress (-EINPROGRESS) (-115)
    URB length [bytes]: 0
    Data length [bytes]: 0
    [Response in: 8]
    Interval: 0
    Start frame: 0
    Copy of Transfer Flags: 0x00000000
    Number of ISO descriptors: 0
    [bInterfaceClass: Unknown (0xffff)]
URB setup
    bmRequestType: 0x23
        0... .... = Direction: Host-to-device
        .01. .... = Type: Class (0x1)
        ...0 0011 = Recipient: Other (0x03)
bRequest: CLEAR_FEATURE (0x01)
wValue: 0x0010
    PortFeatureSelector: C_PORT_CONNECTION (16)
wIndex: 1
    Port: 1
    PortSelector: 0
wLength: 0
    (zero): 0

0000  40 e5 d2 e8 fb 89 ff ff 53 02 00 01 03 00 00 00   @.......S.......
0010  a0 2c 39 5b 00 00 00 00 f9 ae 01 00 8d ff ff ff   .,9[............
0020  00 00 00 00 00 00 00 00 23 01 10 00 01 00 00 00   ........#.......
0030  00 00 00 00 00 00 00 00 00 00 00 00 00 00 00 00   ................

Frame 8: 64 bytes on wire (512 bits), 64 bytes captured (512 bits) on interface 0
    Interface id: 0 (unknown)
        Interface name: unknown
    Encapsulation type: USB packets with Linux header and padding (115)
    Arrival Time: Jul  1, 2018 15:33:52.110340000 EDT
    [Time shift for this packet: 0.000000000 seconds]
    Epoch Time: 1530473632.110340000 seconds
    [Time delta from previous captured frame: 0.000011000 seconds]
    [Time delta from previous displayed frame: 0.000011000 seconds]
    [Time since reference or first frame: 7.248407000 seconds]
    Frame Number: 8
    Frame Length: 64 bytes (512 bits)
    Capture Length: 64 bytes (512 bits)
    [Frame is marked: False]
    [Frame is ignored: False]
    [Protocols in frame: usb]
USB URB
    [Source: 3.1.0]
    [Destination: host]
    URB id: 0xffff89fbe8d2e540
    URB type: URB_COMPLETE ('C')
    URB transfer type: URB_CONTROL (0x02)
    Endpoint: 0x00, Direction: OUT
        0... .... = Direction: OUT (0)
        .... 0000 = Endpoint number: 0
    Device: 1
    URB bus id: 3
    Device setup request: not relevant ('-')
    Data: not present ('>')
    URB sec: 1530473632
    URB usec: 110340
    URB status: Success (0)
    URB length [bytes]: 0
    Data length [bytes]: 0
    [Request in: 7]
    [Time from request: 0.000011000 seconds]
    Unused Setup Header
    Interval: 0
    Start frame: 0
    Copy of Transfer Flags: 0x00000000
    Number of ISO descriptors: 0
    [bInterfaceClass: Unknown (0xffff)]

0000  40 e5 d2 e8 fb 89 ff ff 43 02 00 01 03 00 2d 3e   @.......C.....->
0010  a0 2c 39 5b 00 00 00 00 04 af 01 00 00 00 00 00   .,9[............
0020  00 00 00 00 00 00 00 00 00 00 00 00 00 00 00 00   ................
0030  00 00 00 00 00 00 00 00 00 00 00 00 00 00 00 00   ................

Frame 9: 64 bytes on wire (512 bits), 64 bytes captured (512 bits) on interface 0
    Interface id: 0 (unknown)
        Interface name: unknown
    Encapsulation type: USB packets with Linux header and padding (115)
    Arrival Time: Jul  1, 2018 15:33:52.113486000 EDT
    [Time shift for this packet: 0.000000000 seconds]
    Epoch Time: 1530473632.113486000 seconds
    [Time delta from previous captured frame: 0.003146000 seconds]
    [Time delta from previous displayed frame: 0.003146000 seconds]
    [Time since reference or first frame: 7.251553000 seconds]
    Frame Number: 9
    Frame Length: 64 bytes (512 bits)
    Capture Length: 64 bytes (512 bits)
    [Frame is marked: False]
    [Frame is ignored: False]
    [Protocols in frame: usb:usbhub]
USB URB
    [Source: host]
    [Destination: 3.1.0]
    URB id: 0xffff89fbe8d2e540
    URB type: URB_SUBMIT ('S')
    URB transfer type: URB_CONTROL (0x02)
    Endpoint: 0x80, Direction: IN
        1... .... = Direction: IN (1)
        .... 0000 = Endpoint number: 0
    Device: 1
    URB bus id: 3
    Device setup request: relevant (0)
    Data: not present ('<')
    URB sec: 1530473632
    URB usec: 113486
    URB status: Operation now in progress (-EINPROGRESS) (-115)
    URB length [bytes]: 4
    Data length [bytes]: 0
    [Response in: 10]
    Interval: 0
    Start frame: 0
    Copy of Transfer Flags: 0x00000200
    Number of ISO descriptors: 0
    [bInterfaceClass: Unknown (0xffff)]
URB setup
    bmRequestType: 0xa3
        1... .... = Direction: Device-to-host
        .01. .... = Type: Class (0x1)
        ...0 0011 = Recipient: Other (0x03)
bRequest: GET_STATUS (0x00)
wValue: 0x0000
    (zero): 0
wIndex: 1
    Port: 1
wLength: 4

0000  40 e5 d2 e8 fb 89 ff ff 53 02 80 01 03 00 00 3c   @.......S......<
0010  a0 2c 39 5b 00 00 00 00 4e bb 01 00 8d ff ff ff   .,9[....N.......
0020  04 00 00 00 00 00 00 00 a3 00 00 00 01 00 04 00   ................
0030  00 00 00 00 00 00 00 00 00 02 00 00 00 00 00 00   ................

Frame 10: 68 bytes on wire (544 bits), 68 bytes captured (544 bits) on interface 0
    Interface id: 0 (unknown)
        Interface name: unknown
    Encapsulation type: USB packets with Linux header and padding (115)
    Arrival Time: Jul  1, 2018 15:33:52.113519000 EDT
    [Time shift for this packet: 0.000000000 seconds]
    Epoch Time: 1530473632.113519000 seconds
    [Time delta from previous captured frame: 0.000033000 seconds]
    [Time delta from previous displayed frame: 0.000033000 seconds]
    [Time since reference or first frame: 7.251586000 seconds]
    Frame Number: 10
    Frame Length: 68 bytes (544 bits)
    Capture Length: 68 bytes (544 bits)
    [Frame is marked: False]
    [Frame is ignored: False]
    [Protocols in frame: usb:usbhub]
USB URB
    [Source: 3.1.0]
    [Destination: host]
    URB id: 0xffff89fbe8d2e540
    URB type: URB_COMPLETE ('C')
    URB transfer type: URB_CONTROL (0x02)
    Endpoint: 0x80, Direction: IN
        1... .... = Direction: IN (1)
        .... 0000 = Endpoint number: 0
    Device: 1
    URB bus id: 3
    Device setup request: not relevant ('-')
    Data: present (0)
    URB sec: 1530473632
    URB usec: 113519
    URB status: Success (0)
    URB length [bytes]: 4
    Data length [bytes]: 4
    [Request in: 9]
    [Time from request: 0.000033000 seconds]
    Unused Setup Header
    Interval: 0
    Start frame: 0
    Copy of Transfer Flags: 0x00000200
    Number of ISO descriptors: 0
    [bInterfaceClass: Unknown (0xffff)]
Port Status: 0x0100, PORT_POWER
    .... .... .... ...0 = PORT_CONNECTION: False
    .... .... .... ..0. = PORT_ENABLE: False
    .... .... .... .0.. = PORT_SUSPEND: False
    .... .... .... 0... = PORT_OVER_CURRENT: False
    .... .... ...0 .... = PORT_RESET: False
    .... ...1 .... .... = PORT_POWER: True
    .... ..0. .... .... = PORT_LOW_SPEED: False
    .... .0.. .... .... = PORT_HIGH_SPEED: False
    .... 0... .... .... = PORT_TEST: False
    ...0 .... .... .... = PORT_INDICATOR: Default colors
Port Change: 0x0000
    .... .... .... ...0 = C_PORT_CONNECTION: False
    .... .... .... ..0. = C_PORT_ENABLE: False
    .... .... .... .0.. = C_PORT_SUSPEND: False
    .... .... .... 0... = C_PORT_OVER_CURRENT: False
    .... .... ...0 .... = C_PORT_RESET: False

0000  40 e5 d2 e8 fb 89 ff ff 43 02 80 01 03 00 2d 00   @.......C.....-.
0010  a0 2c 39 5b 00 00 00 00 6f bb 01 00 00 00 00 00   .,9[....o.......
0020  04 00 00 00 04 00 00 00 00 00 00 00 00 00 00 00   ................
0030  00 00 00 00 00 00 00 00 00 02 00 00 00 00 00 00   ................
0040  00 01 00 00                                       ....

Frame 11: 64 bytes on wire (512 bits), 64 bytes captured (512 bits) on interface 0
    Interface id: 0 (unknown)
        Interface name: unknown
    Encapsulation type: USB packets with Linux header and padding (115)
    Arrival Time: Jul  1, 2018 15:33:52.146165000 EDT
    [Time shift for this packet: 0.000000000 seconds]
    Epoch Time: 1530473632.146165000 seconds
    [Time delta from previous captured frame: 0.032646000 seconds]
    [Time delta from previous displayed frame: 0.032646000 seconds]
    [Time since reference or first frame: 7.284232000 seconds]
    Frame Number: 11
    Frame Length: 64 bytes (512 bits)
    Capture Length: 64 bytes (512 bits)
    [Frame is marked: False]
    [Frame is ignored: False]
    [Protocols in frame: usb:usbhub]
USB URB
    [Source: host]
    [Destination: 3.1.0]
    URB id: 0xffff89fbe8d2ea80
    URB type: URB_SUBMIT ('S')
    URB transfer type: URB_CONTROL (0x02)
    Endpoint: 0x80, Direction: IN
        1... .... = Direction: IN (1)
        .... 0000 = Endpoint number: 0
    Device: 1
    URB bus id: 3
    Device setup request: relevant (0)
    Data: not present ('<')
    URB sec: 1530473632
    URB usec: 146165
    URB status: Operation now in progress (-EINPROGRESS) (-115)
    URB length [bytes]: 4
    Data length [bytes]: 0
    [Response in: 12]
    Interval: 0
    Start frame: 0
    Copy of Transfer Flags: 0x00000200
    Number of ISO descriptors: 0
    [bInterfaceClass: Unknown (0xffff)]
URB setup
    bmRequestType: 0xa3
        1... .... = Direction: Device-to-host
        .01. .... = Type: Class (0x1)
        ...0 0011 = Recipient: Other (0x03)
bRequest: GET_STATUS (0x00)
wValue: 0x0000
    (zero): 0
wIndex: 1
    Port: 1
wLength: 4

0000  80 ea d2 e8 fb 89 ff ff 53 02 80 01 03 00 00 3c   ........S......<
0010  a0 2c 39 5b 00 00 00 00 f5 3a 02 00 8d ff ff ff   .,9[.....:......
0020  04 00 00 00 00 00 00 00 a3 00 00 00 01 00 04 00   ................
0030  00 00 00 00 00 00 00 00 00 02 00 00 00 00 00 00   ................

Frame 12: 68 bytes on wire (544 bits), 68 bytes captured (544 bits) on interface 0
    Interface id: 0 (unknown)
        Interface name: unknown
    Encapsulation type: USB packets with Linux header and padding (115)
    Arrival Time: Jul  1, 2018 15:33:52.146182000 EDT
    [Time shift for this packet: 0.000000000 seconds]
    Epoch Time: 1530473632.146182000 seconds
    [Time delta from previous captured frame: 0.000017000 seconds]
    [Time delta from previous displayed frame: 0.000017000 seconds]
    [Time since reference or first frame: 7.284249000 seconds]
    Frame Number: 12
    Frame Length: 68 bytes (544 bits)
    Capture Length: 68 bytes (544 bits)
    [Frame is marked: False]
    [Frame is ignored: False]
    [Protocols in frame: usb:usbhub]
USB URB
    [Source: 3.1.0]
    [Destination: host]
    URB id: 0xffff89fbe8d2ea80
    URB type: URB_COMPLETE ('C')
    URB transfer type: URB_CONTROL (0x02)
    Endpoint: 0x80, Direction: IN
        1... .... = Direction: IN (1)
        .... 0000 = Endpoint number: 0
    Device: 1
    URB bus id: 3
    Device setup request: not relevant ('-')
    Data: present (0)
    URB sec: 1530473632
    URB usec: 146182
    URB status: Success (0)
    URB length [bytes]: 4
    Data length [bytes]: 4
    [Request in: 11]
    [Time from request: 0.000017000 seconds]
    Unused Setup Header
    Interval: 0
    Start frame: 0
    Copy of Transfer Flags: 0x00000200
    Number of ISO descriptors: 0
    [bInterfaceClass: Unknown (0xffff)]
Port Status: 0x0100, PORT_POWER
    .... .... .... ...0 = PORT_CONNECTION: False
    .... .... .... ..0. = PORT_ENABLE: False
    .... .... .... .0.. = PORT_SUSPEND: False
    .... .... .... 0... = PORT_OVER_CURRENT: False
    .... .... ...0 .... = PORT_RESET: False
    .... ...1 .... .... = PORT_POWER: True
    .... ..0. .... .... = PORT_LOW_SPEED: False
    .... .0.. .... .... = PORT_HIGH_SPEED: False
    .... 0... .... .... = PORT_TEST: False
    ...0 .... .... .... = PORT_INDICATOR: Default colors
Port Change: 0x0000
    .... .... .... ...0 = C_PORT_CONNECTION: False
    .... .... .... ..0. = C_PORT_ENABLE: False
    .... .... .... .0.. = C_PORT_SUSPEND: False
    .... .... .... 0... = C_PORT_OVER_CURRENT: False
    .... .... ...0 .... = C_PORT_RESET: False

0000  80 ea d2 e8 fb 89 ff ff 43 02 80 01 03 00 2d 00   ........C.....-.
0010  a0 2c 39 5b 00 00 00 00 06 3b 02 00 00 00 00 00   .,9[.....;......
0020  04 00 00 00 04 00 00 00 00 00 00 00 00 00 00 00   ................
0030  00 00 00 00 00 00 00 00 00 02 00 00 00 00 00 00   ................
0040  00 01 00 00                                       ....

Frame 13: 64 bytes on wire (512 bits), 64 bytes captured (512 bits) on interface 0
    Interface id: 0 (unknown)
        Interface name: unknown
    Encapsulation type: USB packets with Linux header and padding (115)
    Arrival Time: Jul  1, 2018 15:33:52.182267000 EDT
    [Time shift for this packet: 0.000000000 seconds]
    Epoch Time: 1530473632.182267000 seconds
    [Time delta from previous captured frame: 0.036085000 seconds]
    [Time delta from previous displayed frame: 0.036085000 seconds]
    [Time since reference or first frame: 7.320334000 seconds]
    Frame Number: 13
    Frame Length: 64 bytes (512 bits)
    Capture Length: 64 bytes (512 bits)
    [Frame is marked: False]
    [Frame is ignored: False]
    [Protocols in frame: usb:usbhub]
USB URB
    [Source: host]
    [Destination: 3.1.0]
    URB id: 0xffff89fbe8d2ea80
    URB type: URB_SUBMIT ('S')
    URB transfer type: URB_CONTROL (0x02)
    Endpoint: 0x80, Direction: IN
        1... .... = Direction: IN (1)
        .... 0000 = Endpoint number: 0
    Device: 1
    URB bus id: 3
    Device setup request: relevant (0)
    Data: not present ('<')
    URB sec: 1530473632
    URB usec: 182267
    URB status: Operation now in progress (-EINPROGRESS) (-115)
    URB length [bytes]: 4
    Data length [bytes]: 0
    [Response in: 14]
    Interval: 0
    Start frame: 0
    Copy of Transfer Flags: 0x00000200
    Number of ISO descriptors: 0
    [bInterfaceClass: Unknown (0xffff)]
URB setup
    bmRequestType: 0xa3
        1... .... = Direction: Device-to-host
        .01. .... = Type: Class (0x1)
        ...0 0011 = Recipient: Other (0x03)
bRequest: GET_STATUS (0x00)
wValue: 0x0000
    (zero): 0
wIndex: 1
    Port: 1
wLength: 4

0000  80 ea d2 e8 fb 89 ff ff 53 02 80 01 03 00 00 3c   ........S......<
0010  a0 2c 39 5b 00 00 00 00 fb c7 02 00 8d ff ff ff   .,9[............
0020  04 00 00 00 00 00 00 00 a3 00 00 00 01 00 04 00   ................
0030  00 00 00 00 00 00 00 00 00 02 00 00 00 00 00 00   ................

Frame 14: 68 bytes on wire (544 bits), 68 bytes captured (544 bits) on interface 0
    Interface id: 0 (unknown)
        Interface name: unknown
    Encapsulation type: USB packets with Linux header and padding (115)
    Arrival Time: Jul  1, 2018 15:33:52.182296000 EDT
    [Time shift for this packet: 0.000000000 seconds]
    Epoch Time: 1530473632.182296000 seconds
    [Time delta from previous captured frame: 0.000029000 seconds]
    [Time delta from previous displayed frame: 0.000029000 seconds]
    [Time since reference or first frame: 7.320363000 seconds]
    Frame Number: 14
    Frame Length: 68 bytes (544 bits)
    Capture Length: 68 bytes (544 bits)
    [Frame is marked: False]
    [Frame is ignored: False]
    [Protocols in frame: usb:usbhub]
USB URB
    [Source: 3.1.0]
    [Destination: host]
    URB id: 0xffff89fbe8d2ea80
    URB type: URB_COMPLETE ('C')
    URB transfer type: URB_CONTROL (0x02)
    Endpoint: 0x80, Direction: IN
        1... .... = Direction: IN (1)
        .... 0000 = Endpoint number: 0
    Device: 1
    URB bus id: 3
    Device setup request: not relevant ('-')
    Data: present (0)
    URB sec: 1530473632
    URB usec: 182296
    URB status: Success (0)
    URB length [bytes]: 4
    Data length [bytes]: 4
    [Request in: 13]
    [Time from request: 0.000029000 seconds]
    Unused Setup Header
    Interval: 0
    Start frame: 0
    Copy of Transfer Flags: 0x00000200
    Number of ISO descriptors: 0
    [bInterfaceClass: Unknown (0xffff)]
Port Status: 0x0100, PORT_POWER
    .... .... .... ...0 = PORT_CONNECTION: False
    .... .... .... ..0. = PORT_ENABLE: False
    .... .... .... .0.. = PORT_SUSPEND: False
    .... .... .... 0... = PORT_OVER_CURRENT: False
    .... .... ...0 .... = PORT_RESET: False
    .... ...1 .... .... = PORT_POWER: True
    .... ..0. .... .... = PORT_LOW_SPEED: False
    .... .0.. .... .... = PORT_HIGH_SPEED: False
    .... 0... .... .... = PORT_TEST: False
    ...0 .... .... .... = PORT_INDICATOR: Default colors
Port Change: 0x0000
    .... .... .... ...0 = C_PORT_CONNECTION: False
    .... .... .... ..0. = C_PORT_ENABLE: False
    .... .... .... .0.. = C_PORT_SUSPEND: False
    .... .... .... 0... = C_PORT_OVER_CURRENT: False
    .... .... ...0 .... = C_PORT_RESET: False

0000  80 ea d2 e8 fb 89 ff ff 43 02 80 01 03 00 2d 00   ........C.....-.
0010  a0 2c 39 5b 00 00 00 00 18 c8 02 00 00 00 00 00   .,9[............
0020  04 00 00 00 04 00 00 00 00 00 00 00 00 00 00 00   ................
0030  00 00 00 00 00 00 00 00 00 02 00 00 00 00 00 00   ................
0040  00 01 00 00                                       ....

Frame 15: 64 bytes on wire (512 bits), 64 bytes captured (512 bits) on interface 0
    Interface id: 0 (unknown)
        Interface name: unknown
    Encapsulation type: USB packets with Linux header and padding (115)
    Arrival Time: Jul  1, 2018 15:33:52.218294000 EDT
    [Time shift for this packet: 0.000000000 seconds]
    Epoch Time: 1530473632.218294000 seconds
    [Time delta from previous captured frame: 0.035998000 seconds]
    [Time delta from previous displayed frame: 0.035998000 seconds]
    [Time since reference or first frame: 7.356361000 seconds]
    Frame Number: 15
    Frame Length: 64 bytes (512 bits)
    Capture Length: 64 bytes (512 bits)
    [Frame is marked: False]
    [Frame is ignored: False]
    [Protocols in frame: usb:usbhub]
USB URB
    [Source: host]
    [Destination: 3.1.0]
    URB id: 0xffff89fbe8d2ea80
    URB type: URB_SUBMIT ('S')
    URB transfer type: URB_CONTROL (0x02)
    Endpoint: 0x80, Direction: IN
        1... .... = Direction: IN (1)
        .... 0000 = Endpoint number: 0
    Device: 1
    URB bus id: 3
    Device setup request: relevant (0)
    Data: not present ('<')
    URB sec: 1530473632
    URB usec: 218294
    URB status: Operation now in progress (-EINPROGRESS) (-115)
    URB length [bytes]: 4
    Data length [bytes]: 0
    [Response in: 16]
    Interval: 0
    Start frame: 0
    Copy of Transfer Flags: 0x00000200
    Number of ISO descriptors: 0
    [bInterfaceClass: Unknown (0xffff)]
URB setup
    bmRequestType: 0xa3
        1... .... = Direction: Device-to-host
        .01. .... = Type: Class (0x1)
        ...0 0011 = Recipient: Other (0x03)
bRequest: GET_STATUS (0x00)
wValue: 0x0000
    (zero): 0
wIndex: 1
    Port: 1
wLength: 4

0000  80 ea d2 e8 fb 89 ff ff 53 02 80 01 03 00 00 3c   ........S......<
0010  a0 2c 39 5b 00 00 00 00 b6 54 03 00 8d ff ff ff   .,9[.....T......
0020  04 00 00 00 00 00 00 00 a3 00 00 00 01 00 04 00   ................
0030  00 00 00 00 00 00 00 00 00 02 00 00 00 00 00 00   ................

Frame 16: 68 bytes on wire (544 bits), 68 bytes captured (544 bits) on interface 0
    Interface id: 0 (unknown)
        Interface name: unknown
    Encapsulation type: USB packets with Linux header and padding (115)
    Arrival Time: Jul  1, 2018 15:33:52.218332000 EDT
    [Time shift for this packet: 0.000000000 seconds]
    Epoch Time: 1530473632.218332000 seconds
    [Time delta from previous captured frame: 0.000038000 seconds]
    [Time delta from previous displayed frame: 0.000038000 seconds]
    [Time since reference or first frame: 7.356399000 seconds]
    Frame Number: 16
    Frame Length: 68 bytes (544 bits)
    Capture Length: 68 bytes (544 bits)
    [Frame is marked: False]
    [Frame is ignored: False]
    [Protocols in frame: usb:usbhub]
USB URB
    [Source: 3.1.0]
    [Destination: host]
    URB id: 0xffff89fbe8d2ea80
    URB type: URB_COMPLETE ('C')
    URB transfer type: URB_CONTROL (0x02)
    Endpoint: 0x80, Direction: IN
        1... .... = Direction: IN (1)
        .... 0000 = Endpoint number: 0
    Device: 1
    URB bus id: 3
    Device setup request: not relevant ('-')
    Data: present (0)
    URB sec: 1530473632
    URB usec: 218332
    URB status: Success (0)
    URB length [bytes]: 4
    Data length [bytes]: 4
    [Request in: 15]
    [Time from request: 0.000038000 seconds]
    Unused Setup Header
    Interval: 0
    Start frame: 0
    Copy of Transfer Flags: 0x00000200
    Number of ISO descriptors: 0
    [bInterfaceClass: Unknown (0xffff)]
Port Status: 0x0100, PORT_POWER
    .... .... .... ...0 = PORT_CONNECTION: False
    .... .... .... ..0. = PORT_ENABLE: False
    .... .... .... .0.. = PORT_SUSPEND: False
    .... .... .... 0... = PORT_OVER_CURRENT: False
    .... .... ...0 .... = PORT_RESET: False
    .... ...1 .... .... = PORT_POWER: True
    .... ..0. .... .... = PORT_LOW_SPEED: False
    .... .0.. .... .... = PORT_HIGH_SPEED: False
    .... 0... .... .... = PORT_TEST: False
    ...0 .... .... .... = PORT_INDICATOR: Default colors
Port Change: 0x0000
    .... .... .... ...0 = C_PORT_CONNECTION: False
    .... .... .... ..0. = C_PORT_ENABLE: False
    .... .... .... .0.. = C_PORT_SUSPEND: False
    .... .... .... 0... = C_PORT_OVER_CURRENT: False
    .... .... ...0 .... = C_PORT_RESET: False

0000  80 ea d2 e8 fb 89 ff ff 43 02 80 01 03 00 2d 00   ........C.....-.
0010  a0 2c 39 5b 00 00 00 00 dc 54 03 00 00 00 00 00   .,9[.....T......
0020  04 00 00 00 04 00 00 00 00 00 00 00 00 00 00 00   ................
0030  00 00 00 00 00 00 00 00 00 02 00 00 00 00 00 00   ................
0040  00 01 00 00                                       ....

Frame 17: 64 bytes on wire (512 bits), 64 bytes captured (512 bits) on interface 0
    Interface id: 0 (unknown)
        Interface name: unknown
    Encapsulation type: USB packets with Linux header and padding (115)
    Arrival Time: Jul  1, 2018 15:33:52.254282000 EDT
    [Time shift for this packet: 0.000000000 seconds]
    Epoch Time: 1530473632.254282000 seconds
    [Time delta from previous captured frame: 0.035950000 seconds]
    [Time delta from previous displayed frame: 0.035950000 seconds]
    [Time since reference or first frame: 7.392349000 seconds]
    Frame Number: 17
    Frame Length: 64 bytes (512 bits)
    Capture Length: 64 bytes (512 bits)
    [Frame is marked: False]
    [Frame is ignored: False]
    [Protocols in frame: usb:usbhub]
USB URB
    [Source: host]
    [Destination: 3.1.0]
    URB id: 0xffff89fbe8d2ea80
    URB type: URB_SUBMIT ('S')
    URB transfer type: URB_CONTROL (0x02)
    Endpoint: 0x80, Direction: IN
        1... .... = Direction: IN (1)
        .... 0000 = Endpoint number: 0
    Device: 1
    URB bus id: 3
    Device setup request: relevant (0)
    Data: not present ('<')
    URB sec: 1530473632
    URB usec: 254282
    URB status: Operation now in progress (-EINPROGRESS) (-115)
    URB length [bytes]: 4
    Data length [bytes]: 0
    [Response in: 18]
    Interval: 0
    Start frame: 0
    Copy of Transfer Flags: 0x00000200
    Number of ISO descriptors: 0
    [bInterfaceClass: Unknown (0xffff)]
URB setup
    bmRequestType: 0xa3
        1... .... = Direction: Device-to-host
        .01. .... = Type: Class (0x1)
        ...0 0011 = Recipient: Other (0x03)
bRequest: GET_STATUS (0x00)
wValue: 0x0000
    (zero): 0
wIndex: 1
    Port: 1
wLength: 4

0000  80 ea d2 e8 fb 89 ff ff 53 02 80 01 03 00 00 3c   ........S......<
0010  a0 2c 39 5b 00 00 00 00 4a e1 03 00 8d ff ff ff   .,9[....J.......
0020  04 00 00 00 00 00 00 00 a3 00 00 00 01 00 04 00   ................
0030  00 00 00 00 00 00 00 00 00 02 00 00 00 00 00 00   ................

Frame 18: 68 bytes on wire (544 bits), 68 bytes captured (544 bits) on interface 0
    Interface id: 0 (unknown)
        Interface name: unknown
    Encapsulation type: USB packets with Linux header and padding (115)
    Arrival Time: Jul  1, 2018 15:33:52.254324000 EDT
    [Time shift for this packet: 0.000000000 seconds]
    Epoch Time: 1530473632.254324000 seconds
    [Time delta from previous captured frame: 0.000042000 seconds]
    [Time delta from previous displayed frame: 0.000042000 seconds]
    [Time since reference or first frame: 7.392391000 seconds]
    Frame Number: 18
    Frame Length: 68 bytes (544 bits)
    Capture Length: 68 bytes (544 bits)
    [Frame is marked: False]
    [Frame is ignored: False]
    [Protocols in frame: usb:usbhub]
USB URB
    [Source: 3.1.0]
    [Destination: host]
    URB id: 0xffff89fbe8d2ea80
    URB type: URB_COMPLETE ('C')
    URB transfer type: URB_CONTROL (0x02)
    Endpoint: 0x80, Direction: IN
        1... .... = Direction: IN (1)
        .... 0000 = Endpoint number: 0
    Device: 1
    URB bus id: 3
    Device setup request: not relevant ('-')
    Data: present (0)
    URB sec: 1530473632
    URB usec: 254324
    URB status: Success (0)
    URB length [bytes]: 4
    Data length [bytes]: 4
    [Request in: 17]
    [Time from request: 0.000042000 seconds]
    Unused Setup Header
    Interval: 0
    Start frame: 0
    Copy of Transfer Flags: 0x00000200
    Number of ISO descriptors: 0
    [bInterfaceClass: Unknown (0xffff)]
Port Status: 0x0100, PORT_POWER
    .... .... .... ...0 = PORT_CONNECTION: False
    .... .... .... ..0. = PORT_ENABLE: False
    .... .... .... .0.. = PORT_SUSPEND: False
    .... .... .... 0... = PORT_OVER_CURRENT: False
    .... .... ...0 .... = PORT_RESET: False
    .... ...1 .... .... = PORT_POWER: True
    .... ..0. .... .... = PORT_LOW_SPEED: False
    .... .0.. .... .... = PORT_HIGH_SPEED: False
    .... 0... .... .... = PORT_TEST: False
    ...0 .... .... .... = PORT_INDICATOR: Default colors
Port Change: 0x0000
    .... .... .... ...0 = C_PORT_CONNECTION: False
    .... .... .... ..0. = C_PORT_ENABLE: False
    .... .... .... .0.. = C_PORT_SUSPEND: False
    .... .... .... 0... = C_PORT_OVER_CURRENT: False
    .... .... ...0 .... = C_PORT_RESET: False

0000  80 ea d2 e8 fb 89 ff ff 43 02 80 01 03 00 2d 00   ........C.....-.
0010  a0 2c 39 5b 00 00 00 00 74 e1 03 00 00 00 00 00   .,9[....t.......
0020  04 00 00 00 04 00 00 00 00 00 00 00 00 00 00 00   ................
0030  00 00 00 00 00 00 00 00 00 02 00 00 00 00 00 00   ................
0040  00 01 00 00                                       ....

Packet comments
    POWER ON COMPLETE
        [Expert Info (Comment/Comment): POWER ON COMPLETE]
            [POWER ON COMPLETE]
            [Severity level: Comment]
            [Group: Comment]
Frame 19: 64 bytes on wire (512 bits), 64 bytes captured (512 bits) on interface 0
    Interface id: 0 (unknown)
        Interface name: unknown
    Encapsulation type: USB packets with Linux header and padding (115)
    Arrival Time: Jul  1, 2018 15:33:52.254385000 EDT
    [Time shift for this packet: 0.000000000 seconds]
    Epoch Time: 1530473632.254385000 seconds
    [Time delta from previous captured frame: 0.000061000 seconds]
    [Time delta from previous displayed frame: 0.000061000 seconds]
    [Time since reference or first frame: 7.392452000 seconds]
    Frame Number: 19
    Frame Length: 64 bytes (512 bits)
    Capture Length: 64 bytes (512 bits)
    [Frame is marked: False]
    [Frame is ignored: False]
    [Protocols in frame: usb]
USB URB
    [Source: 3.1.1]
    [Destination: host]
    URB id: 0xffff89fd49658d80
    URB type: URB_COMPLETE ('C')
    URB transfer type: URB_INTERRUPT (0x01)
    Endpoint: 0x81, Direction: IN
        1... .... = Direction: IN (1)
        .... 0001 = Endpoint number: 1
    Device: 1
    URB bus id: 3
    Device setup request: not relevant ('-')
    Data: present (0)
    URB sec: 1530473632
    URB usec: 254385
    URB status: No such file or directory (-ENOENT) (-2)
    URB length [bytes]: 0
    Data length [bytes]: 0
    [Request in: 4]
    [Time from request: 0.144123000 seconds]
    [bInterfaceClass: Unknown (0xffff)]
    Unused Setup Header
    Interval: 2048
    Start frame: 0
    Copy of Transfer Flags: 0x00000200
    Number of ISO descriptors: 0

0000  80 8d 65 49 fd 89 ff ff 43 01 81 01 03 00 2d 00   ..eI....C.....-.
0010  a0 2c 39 5b 00 00 00 00 b1 e1 03 00 fe ff ff ff   .,9[............
0020  00 00 00 00 00 00 00 00 00 00 00 00 00 00 00 00   ................
0030  00 08 00 00 00 00 00 00 00 02 00 00 00 00 00 00   ................

Packet comments
    Power On AGAIN?

        [Expert Info (Comment/Comment): Power On AGAIN?
]
            [Power On AGAIN?
]
            [Severity level: Comment]
            [Group: Comment]
Frame 20: 64 bytes on wire (512 bits), 64 bytes captured (512 bits) on interface 0
    Interface id: 0 (unknown)
        Interface name: unknown
    Encapsulation type: USB packets with Linux header and padding (115)
    Arrival Time: Jul  1, 2018 15:36:23.416666000 EDT
    [Time shift for this packet: 0.000000000 seconds]
    Epoch Time: 1530473783.416666000 seconds
    [Time delta from previous captured frame: 151.162281000 seconds]
    [Time delta from previous displayed frame: 151.162281000 seconds]
    [Time since reference or first frame: 158.554733000 seconds]
    Frame Number: 20
    Frame Length: 64 bytes (512 bits)
    Capture Length: 64 bytes (512 bits)
    [Frame is marked: False]
    [Frame is ignored: False]
    [Protocols in frame: usb:usbhub]
USB URB
    [Source: host]
    [Destination: 3.1.0]
    URB id: 0xffff89fbe8d2e600
    URB type: URB_SUBMIT ('S')
    URB transfer type: URB_CONTROL (0x02)
    Endpoint: 0x80, Direction: IN
        1... .... = Direction: IN (1)
        .... 0000 = Endpoint number: 0
    Device: 1
    URB bus id: 3
    Device setup request: relevant (0)
    Data: not present ('<')
    URB sec: 1530473783
    URB usec: 416666
    URB status: Operation now in progress (-EINPROGRESS) (-115)
    URB length [bytes]: 4
    Data length [bytes]: 0
    [Response in: 21]
    Interval: 0
    Start frame: 0
    Copy of Transfer Flags: 0x00000200
    Number of ISO descriptors: 0
    [bInterfaceClass: Unknown (0xffff)]
URB setup
    bmRequestType: 0xa3
        1... .... = Direction: Device-to-host
        .01. .... = Type: Class (0x1)
        ...0 0011 = Recipient: Other (0x03)
bRequest: GET_STATUS (0x00)
wValue: 0x0000
    (zero): 0
wIndex: 1
    Port: 1
wLength: 4

0000  00 e6 d2 e8 fb 89 ff ff 53 02 80 01 03 00 00 3c   ........S......<
0010  37 2d 39 5b 00 00 00 00 9a 5b 06 00 8d ff ff ff   7-9[.....[......
0020  04 00 00 00 00 00 00 00 a3 00 00 00 01 00 04 00   ................
0030  00 00 00 00 00 00 00 00 00 02 00 00 00 00 00 00   ................

Frame 21: 68 bytes on wire (544 bits), 68 bytes captured (544 bits) on interface 0
    Interface id: 0 (unknown)
        Interface name: unknown
    Encapsulation type: USB packets with Linux header and padding (115)
    Arrival Time: Jul  1, 2018 15:36:23.416708000 EDT
    [Time shift for this packet: 0.000000000 seconds]
    Epoch Time: 1530473783.416708000 seconds
    [Time delta from previous captured frame: 0.000042000 seconds]
    [Time delta from previous displayed frame: 0.000042000 seconds]
    [Time since reference or first frame: 158.554775000 seconds]
    Frame Number: 21
    Frame Length: 68 bytes (544 bits)
    Capture Length: 68 bytes (544 bits)
    [Frame is marked: False]
    [Frame is ignored: False]
    [Protocols in frame: usb:usbhub]
USB URB
    [Source: 3.1.0]
    [Destination: host]
    URB id: 0xffff89fbe8d2e600
    URB type: URB_COMPLETE ('C')
    URB transfer type: URB_CONTROL (0x02)
    Endpoint: 0x80, Direction: IN
        1... .... = Direction: IN (1)
        .... 0000 = Endpoint number: 0
    Device: 1
    URB bus id: 3
    Device setup request: not relevant ('-')
    Data: present (0)
    URB sec: 1530473783
    URB usec: 416708
    URB status: Success (0)
    URB length [bytes]: 4
    Data length [bytes]: 4
    [Request in: 20]
    [Time from request: 0.000042000 seconds]
    Unused Setup Header
    Interval: 0
    Start frame: 0
    Copy of Transfer Flags: 0x00000200
    Number of ISO descriptors: 0
    [bInterfaceClass: Unknown (0xffff)]
Port Status: 0x0101, PORT_CONNECTION, PORT_POWER
    .... .... .... ...1 = PORT_CONNECTION: True
    .... .... .... ..0. = PORT_ENABLE: False
    .... .... .... .0.. = PORT_SUSPEND: False
    .... .... .... 0... = PORT_OVER_CURRENT: False
    .... .... ...0 .... = PORT_RESET: False
    .... ...1 .... .... = PORT_POWER: True
    .... ..0. .... .... = PORT_LOW_SPEED: False
    .... .0.. .... .... = PORT_HIGH_SPEED: False
    .... 0... .... .... = PORT_TEST: False
    ...0 .... .... .... = PORT_INDICATOR: Default colors
Port Change: 0x0001, C_PORT_CONNECTION
    .... .... .... ...1 = C_PORT_CONNECTION: True
    .... .... .... ..0. = C_PORT_ENABLE: False
    .... .... .... .0.. = C_PORT_SUSPEND: False
    .... .... .... 0... = C_PORT_OVER_CURRENT: False
    .... .... ...0 .... = C_PORT_RESET: False

0000  00 e6 d2 e8 fb 89 ff ff 43 02 80 01 03 00 2d 00   ........C.....-.
0010  37 2d 39 5b 00 00 00 00 c4 5b 06 00 00 00 00 00   7-9[.....[......
0020  04 00 00 00 04 00 00 00 00 00 00 00 00 00 00 00   ................
0030  00 00 00 00 00 00 00 00 00 02 00 00 00 00 00 00   ................
0040  01 01 01 00                                       ....

Frame 22: 64 bytes on wire (512 bits), 64 bytes captured (512 bits) on interface 0
    Interface id: 0 (unknown)
        Interface name: unknown
    Encapsulation type: USB packets with Linux header and padding (115)
    Arrival Time: Jul  1, 2018 15:36:23.416722000 EDT
    [Time shift for this packet: 0.000000000 seconds]
    Epoch Time: 1530473783.416722000 seconds
    [Time delta from previous captured frame: 0.000014000 seconds]
    [Time delta from previous displayed frame: 0.000014000 seconds]
    [Time since reference or first frame: 158.554789000 seconds]
    Frame Number: 22
    Frame Length: 64 bytes (512 bits)
    Capture Length: 64 bytes (512 bits)
    [Frame is marked: False]
    [Frame is ignored: False]
    [Protocols in frame: usb:usbhub]
USB URB
    [Source: host]
    [Destination: 3.1.0]
    URB id: 0xffff89fbe8d2e600
    URB type: URB_SUBMIT ('S')
    URB transfer type: URB_CONTROL (0x02)
    Endpoint: 0x00, Direction: OUT
        0... .... = Direction: OUT (0)
        .... 0000 = Endpoint number: 0
    Device: 1
    URB bus id: 3
    Device setup request: relevant (0)
    Data: present (0)
    URB sec: 1530473783
    URB usec: 416722
    URB status: Operation now in progress (-EINPROGRESS) (-115)
    URB length [bytes]: 0
    Data length [bytes]: 0
    [Response in: 23]
    Interval: 0
    Start frame: 0
    Copy of Transfer Flags: 0x00000000
    Number of ISO descriptors: 0
    [bInterfaceClass: Unknown (0xffff)]
URB setup
    bmRequestType: 0x23
        0... .... = Direction: Host-to-device
        .01. .... = Type: Class (0x1)
        ...0 0011 = Recipient: Other (0x03)
bRequest: CLEAR_FEATURE (0x01)
wValue: 0x0010
    PortFeatureSelector: C_PORT_CONNECTION (16)
wIndex: 1
    Port: 1
    PortSelector: 0
wLength: 0
    (zero): 0

0000  00 e6 d2 e8 fb 89 ff ff 53 02 00 01 03 00 00 00   ........S.......
0010  37 2d 39 5b 00 00 00 00 d2 5b 06 00 8d ff ff ff   7-9[.....[......
0020  00 00 00 00 00 00 00 00 23 01 10 00 01 00 00 00   ........#.......
0030  00 00 00 00 00 00 00 00 00 00 00 00 00 00 00 00   ................

Frame 23: 64 bytes on wire (512 bits), 64 bytes captured (512 bits) on interface 0
    Interface id: 0 (unknown)
        Interface name: unknown
    Encapsulation type: USB packets with Linux header and padding (115)
    Arrival Time: Jul  1, 2018 15:36:23.416736000 EDT
    [Time shift for this packet: 0.000000000 seconds]
    Epoch Time: 1530473783.416736000 seconds
    [Time delta from previous captured frame: 0.000014000 seconds]
    [Time delta from previous displayed frame: 0.000014000 seconds]
    [Time since reference or first frame: 158.554803000 seconds]
    Frame Number: 23
    Frame Length: 64 bytes (512 bits)
    Capture Length: 64 bytes (512 bits)
    [Frame is marked: False]
    [Frame is ignored: False]
    [Protocols in frame: usb]
USB URB
    [Source: 3.1.0]
    [Destination: host]
    URB id: 0xffff89fbe8d2e600
    URB type: URB_COMPLETE ('C')
    URB transfer type: URB_CONTROL (0x02)
    Endpoint: 0x00, Direction: OUT
        0... .... = Direction: OUT (0)
        .... 0000 = Endpoint number: 0
    Device: 1
    URB bus id: 3
    Device setup request: not relevant ('-')
    Data: not present ('>')
    URB sec: 1530473783
    URB usec: 416736
    URB status: Success (0)
    URB length [bytes]: 0
    Data length [bytes]: 0
    [Request in: 22]
    [Time from request: 0.000014000 seconds]
    Unused Setup Header
    Interval: 0
    Start frame: 0
    Copy of Transfer Flags: 0x00000000
    Number of ISO descriptors: 0
    [bInterfaceClass: Unknown (0xffff)]

0000  00 e6 d2 e8 fb 89 ff ff 43 02 00 01 03 00 2d 3e   ........C.....->
0010  37 2d 39 5b 00 00 00 00 e0 5b 06 00 00 00 00 00   7-9[.....[......
0020  00 00 00 00 00 00 00 00 00 00 00 00 00 00 00 00   ................
0030  00 00 00 00 00 00 00 00 00 00 00 00 00 00 00 00   ................

Frame 24: 64 bytes on wire (512 bits), 64 bytes captured (512 bits) on interface 0
    Interface id: 0 (unknown)
        Interface name: unknown
    Encapsulation type: USB packets with Linux header and padding (115)
    Arrival Time: Jul  1, 2018 15:36:23.416742000 EDT
    [Time shift for this packet: 0.000000000 seconds]
    Epoch Time: 1530473783.416742000 seconds
    [Time delta from previous captured frame: 0.000006000 seconds]
    [Time delta from previous displayed frame: 0.000006000 seconds]
    [Time since reference or first frame: 158.554809000 seconds]
    Frame Number: 24
    Frame Length: 64 bytes (512 bits)
    Capture Length: 64 bytes (512 bits)
    [Frame is marked: False]
    [Frame is ignored: False]
    [Protocols in frame: usb:usbhub]
USB URB
    [Source: host]
    [Destination: 3.1.0]
    URB id: 0xffff89fbe8d2e600
    URB type: URB_SUBMIT ('S')
    URB transfer type: URB_CONTROL (0x02)
    Endpoint: 0x80, Direction: IN
        1... .... = Direction: IN (1)
        .... 0000 = Endpoint number: 0
    Device: 1
    URB bus id: 3
    Device setup request: relevant (0)
    Data: not present ('<')
    URB sec: 1530473783
    URB usec: 416742
    URB status: Operation now in progress (-EINPROGRESS) (-115)
    URB length [bytes]: 4
    Data length [bytes]: 0
    [Response in: 25]
    Interval: 0
    Start frame: 0
    Copy of Transfer Flags: 0x00000200
    Number of ISO descriptors: 0
    [bInterfaceClass: Unknown (0xffff)]
URB setup
    bmRequestType: 0xa3
        1... .... = Direction: Device-to-host
        .01. .... = Type: Class (0x1)
        ...0 0011 = Recipient: Other (0x03)
bRequest: GET_STATUS (0x00)
wValue: 0x0000
    (zero): 0
wIndex: 2
    Port: 2
wLength: 4

0000  00 e6 d2 e8 fb 89 ff ff 53 02 80 01 03 00 00 3c   ........S......<
0010  37 2d 39 5b 00 00 00 00 e6 5b 06 00 8d ff ff ff   7-9[.....[......
0020  04 00 00 00 00 00 00 00 a3 00 00 00 02 00 04 00   ................
0030  00 00 00 00 00 00 00 00 00 02 00 00 00 00 00 00   ................

Frame 25: 68 bytes on wire (544 bits), 68 bytes captured (544 bits) on interface 0
    Interface id: 0 (unknown)
        Interface name: unknown
    Encapsulation type: USB packets with Linux header and padding (115)
    Arrival Time: Jul  1, 2018 15:36:23.416750000 EDT
    [Time shift for this packet: 0.000000000 seconds]
    Epoch Time: 1530473783.416750000 seconds
    [Time delta from previous captured frame: 0.000008000 seconds]
    [Time delta from previous displayed frame: 0.000008000 seconds]
    [Time since reference or first frame: 158.554817000 seconds]
    Frame Number: 25
    Frame Length: 68 bytes (544 bits)
    Capture Length: 68 bytes (544 bits)
    [Frame is marked: False]
    [Frame is ignored: False]
    [Protocols in frame: usb:usbhub]
USB URB
    [Source: 3.1.0]
    [Destination: host]
    URB id: 0xffff89fbe8d2e600
    URB type: URB_COMPLETE ('C')
    URB transfer type: URB_CONTROL (0x02)
    Endpoint: 0x80, Direction: IN
        1... .... = Direction: IN (1)
        .... 0000 = Endpoint number: 0
    Device: 1
    URB bus id: 3
    Device setup request: not relevant ('-')
    Data: present (0)
    URB sec: 1530473783
    URB usec: 416750
    URB status: Success (0)
    URB length [bytes]: 4
    Data length [bytes]: 4
    [Request in: 24]
    [Time from request: 0.000008000 seconds]
    Unused Setup Header
    Interval: 0
    Start frame: 0
    Copy of Transfer Flags: 0x00000200
    Number of ISO descriptors: 0
    [bInterfaceClass: Unknown (0xffff)]
Port Status: 0x0100, PORT_POWER
    .... .... .... ...0 = PORT_CONNECTION: False
    .... .... .... ..0. = PORT_ENABLE: False
    .... .... .... .0.. = PORT_SUSPEND: False
    .... .... .... 0... = PORT_OVER_CURRENT: False
    .... .... ...0 .... = PORT_RESET: False
    .... ...1 .... .... = PORT_POWER: True
    .... ..0. .... .... = PORT_LOW_SPEED: False
    .... .0.. .... .... = PORT_HIGH_SPEED: False
    .... 0... .... .... = PORT_TEST: False
    ...0 .... .... .... = PORT_INDICATOR: Default colors
Port Change: 0x0000
    .... .... .... ...0 = C_PORT_CONNECTION: False
    .... .... .... ..0. = C_PORT_ENABLE: False
    .... .... .... .0.. = C_PORT_SUSPEND: False
    .... .... .... 0... = C_PORT_OVER_CURRENT: False
    .... .... ...0 .... = C_PORT_RESET: False

0000  00 e6 d2 e8 fb 89 ff ff 43 02 80 01 03 00 2d 00   ........C.....-.
0010  37 2d 39 5b 00 00 00 00 ee 5b 06 00 00 00 00 00   7-9[.....[......
0020  04 00 00 00 04 00 00 00 00 00 00 00 00 00 00 00   ................
0030  00 00 00 00 00 00 00 00 00 02 00 00 00 00 00 00   ................
0040  00 01 00 00                                       ....

Frame 26: 64 bytes on wire (512 bits), 64 bytes captured (512 bits) on interface 0
    Interface id: 0 (unknown)
        Interface name: unknown
    Encapsulation type: USB packets with Linux header and padding (115)
    Arrival Time: Jul  1, 2018 15:36:23.522255000 EDT
    [Time shift for this packet: 0.000000000 seconds]
    Epoch Time: 1530473783.522255000 seconds
    [Time delta from previous captured frame: 0.105505000 seconds]
    [Time delta from previous displayed frame: 0.105505000 seconds]
    [Time since reference or first frame: 158.660322000 seconds]
    Frame Number: 26
    Frame Length: 64 bytes (512 bits)
    Capture Length: 64 bytes (512 bits)
    [Frame is marked: False]
    [Frame is ignored: False]
    [Protocols in frame: usb]
USB URB
    [Source: host]
    [Destination: 3.1.1]
    URB id: 0xffff89fd49658d80
    URB type: URB_SUBMIT ('S')
    URB transfer type: URB_INTERRUPT (0x01)
    Endpoint: 0x81, Direction: IN
        1... .... = Direction: IN (1)
        .... 0001 = Endpoint number: 1
    Device: 1
    URB bus id: 3
    Device setup request: not relevant ('-')
    Data: not present ('<')
    URB sec: 1530473783
    URB usec: 522255
    URB status: Operation now in progress (-EINPROGRESS) (-115)
    URB length [bytes]: 4
    Data length [bytes]: 0
    [bInterfaceClass: Unknown (0xffff)]
    Unused Setup Header
    Interval: 2048
    Start frame: 0
    Copy of Transfer Flags: 0x00000200
    Number of ISO descriptors: 0

0000  80 8d 65 49 fd 89 ff ff 53 01 81 01 03 00 2d 3c   ..eI....S.....-<
0010  37 2d 39 5b 00 00 00 00 0f f8 07 00 8d ff ff ff   7-9[............
0020  04 00 00 00 00 00 00 00 00 00 00 00 00 00 00 00   ................
0030  00 08 00 00 00 00 00 00 00 02 00 00 00 00 00 00   ................

Frame 27: 64 bytes on wire (512 bits), 64 bytes captured (512 bits) on interface 0
    Interface id: 0 (unknown)
        Interface name: unknown
    Encapsulation type: USB packets with Linux header and padding (115)
    Arrival Time: Jul  1, 2018 15:36:23.522294000 EDT
    [Time shift for this packet: 0.000000000 seconds]
    Epoch Time: 1530473783.522294000 seconds
    [Time delta from previous captured frame: 0.000039000 seconds]
    [Time delta from previous displayed frame: 0.000039000 seconds]
    [Time since reference or first frame: 158.660361000 seconds]
    Frame Number: 27
    Frame Length: 64 bytes (512 bits)
    Capture Length: 64 bytes (512 bits)
    [Frame is marked: False]
    [Frame is ignored: False]
    [Protocols in frame: usb:usbhub]
USB URB
    [Source: host]
    [Destination: 3.1.0]
    URB id: 0xffff89fbe8d2e600
    URB type: URB_SUBMIT ('S')
    URB transfer type: URB_CONTROL (0x02)
    Endpoint: 0x80, Direction: IN
        1... .... = Direction: IN (1)
        .... 0000 = Endpoint number: 0
    Device: 1
    URB bus id: 3
    Device setup request: relevant (0)
    Data: not present ('<')
    URB sec: 1530473783
    URB usec: 522294
    URB status: Operation now in progress (-EINPROGRESS) (-115)
    URB length [bytes]: 4
    Data length [bytes]: 0
    [Response in: 28]
    Interval: 0
    Start frame: 0
    Copy of Transfer Flags: 0x00000200
    Number of ISO descriptors: 0
    [bInterfaceClass: Unknown (0xffff)]
URB setup
    bmRequestType: 0xa3
        1... .... = Direction: Device-to-host
        .01. .... = Type: Class (0x1)
        ...0 0011 = Recipient: Other (0x03)
bRequest: GET_STATUS (0x00)
wValue: 0x0000
    (zero): 0
wIndex: 1
    Port: 1
wLength: 4

0000  00 e6 d2 e8 fb 89 ff ff 53 02 80 01 03 00 00 3c   ........S......<
0010  37 2d 39 5b 00 00 00 00 36 f8 07 00 8d ff ff ff   7-9[....6.......
0020  04 00 00 00 00 00 00 00 a3 00 00 00 01 00 04 00   ................
0030  00 00 00 00 00 00 00 00 00 02 00 00 00 00 00 00   ................

Frame 28: 68 bytes on wire (544 bits), 68 bytes captured (544 bits) on interface 0
    Interface id: 0 (unknown)
        Interface name: unknown
    Encapsulation type: USB packets with Linux header and padding (115)
    Arrival Time: Jul  1, 2018 15:36:23.522321000 EDT
    [Time shift for this packet: 0.000000000 seconds]
    Epoch Time: 1530473783.522321000 seconds
    [Time delta from previous captured frame: 0.000027000 seconds]
    [Time delta from previous displayed frame: 0.000027000 seconds]
    [Time since reference or first frame: 158.660388000 seconds]
    Frame Number: 28
    Frame Length: 68 bytes (544 bits)
    Capture Length: 68 bytes (544 bits)
    [Frame is marked: False]
    [Frame is ignored: False]
    [Protocols in frame: usb:usbhub]
USB URB
    [Source: 3.1.0]
    [Destination: host]
    URB id: 0xffff89fbe8d2e600
    URB type: URB_COMPLETE ('C')
    URB transfer type: URB_CONTROL (0x02)
    Endpoint: 0x80, Direction: IN
        1... .... = Direction: IN (1)
        .... 0000 = Endpoint number: 0
    Device: 1
    URB bus id: 3
    Device setup request: not relevant ('-')
    Data: present (0)
    URB sec: 1530473783
    URB usec: 522321
    URB status: Success (0)
    URB length [bytes]: 4
    Data length [bytes]: 4
    [Request in: 27]
    [Time from request: 0.000027000 seconds]
    Unused Setup Header
    Interval: 0
    Start frame: 0
    Copy of Transfer Flags: 0x00000200
    Number of ISO descriptors: 0
    [bInterfaceClass: Unknown (0xffff)]
Port Status: 0x0101, PORT_CONNECTION, PORT_POWER
    .... .... .... ...1 = PORT_CONNECTION: True
    .... .... .... ..0. = PORT_ENABLE: False
    .... .... .... .0.. = PORT_SUSPEND: False
    .... .... .... 0... = PORT_OVER_CURRENT: False
    .... .... ...0 .... = PORT_RESET: False
    .... ...1 .... .... = PORT_POWER: True
    .... ..0. .... .... = PORT_LOW_SPEED: False
    .... .0.. .... .... = PORT_HIGH_SPEED: False
    .... 0... .... .... = PORT_TEST: False
    ...0 .... .... .... = PORT_INDICATOR: Default colors
Port Change: 0x0000
    .... .... .... ...0 = C_PORT_CONNECTION: False
    .... .... .... ..0. = C_PORT_ENABLE: False
    .... .... .... .0.. = C_PORT_SUSPEND: False
    .... .... .... 0... = C_PORT_OVER_CURRENT: False
    .... .... ...0 .... = C_PORT_RESET: False

0000  00 e6 d2 e8 fb 89 ff ff 43 02 80 01 03 00 2d 00   ........C.....-.
0010  37 2d 39 5b 00 00 00 00 51 f8 07 00 00 00 00 00   7-9[....Q.......
0020  04 00 00 00 04 00 00 00 00 00 00 00 00 00 00 00   ................
0030  00 00 00 00 00 00 00 00 00 02 00 00 00 00 00 00   ................
0040  01 01 00 00                                       ....

Frame 29: 64 bytes on wire (512 bits), 64 bytes captured (512 bits) on interface 0
    Interface id: 0 (unknown)
        Interface name: unknown
    Encapsulation type: USB packets with Linux header and padding (115)
    Arrival Time: Jul  1, 2018 15:36:23.522562000 EDT
    [Time shift for this packet: 0.000000000 seconds]
    Epoch Time: 1530473783.522562000 seconds
    [Time delta from previous captured frame: 0.000241000 seconds]
    [Time delta from previous displayed frame: 0.000241000 seconds]
    [Time since reference or first frame: 158.660629000 seconds]
    Frame Number: 29
    Frame Length: 64 bytes (512 bits)
    Capture Length: 64 bytes (512 bits)
    [Frame is marked: False]
    [Frame is ignored: False]
    [Protocols in frame: usb:usbhub]
USB URB
    [Source: host]
    [Destination: 3.1.0]
    URB id: 0xffff89fbe8d2e600
    URB type: URB_SUBMIT ('S')
    URB transfer type: URB_CONTROL (0x02)
    Endpoint: 0x00, Direction: OUT
        0... .... = Direction: OUT (0)
        .... 0000 = Endpoint number: 0
    Device: 1
    URB bus id: 3
    Device setup request: relevant (0)
    Data: present (0)
    URB sec: 1530473783
    URB usec: 522562
    URB status: Operation now in progress (-EINPROGRESS) (-115)
    URB length [bytes]: 0
    Data length [bytes]: 0
    [Response in: 30]
    Interval: 0
    Start frame: 0
    Copy of Transfer Flags: 0x00000000
    Number of ISO descriptors: 0
    [bInterfaceClass: Unknown (0xffff)]
URB setup
    bmRequestType: 0x23
        0... .... = Direction: Host-to-device
        .01. .... = Type: Class (0x1)
        ...0 0011 = Recipient: Other (0x03)
bRequest: SET_FEATURE (0x03)
wValue: 0x0004
    PortFeatureSelector: PORT_RESET (4)
wIndex: 1
    Port: 1
    PortSelector: 0
wLength: 0
    (zero): 0

0000  00 e6 d2 e8 fb 89 ff ff 53 02 00 01 03 00 00 00   ........S.......
0010  37 2d 39 5b 00 00 00 00 42 f9 07 00 8d ff ff ff   7-9[....B.......
0020  00 00 00 00 00 00 00 00 23 03 04 00 01 00 00 00   ........#.......
0030  00 00 00 00 00 00 00 00 00 00 00 00 00 00 00 00   ................

Frame 30: 64 bytes on wire (512 bits), 64 bytes captured (512 bits) on interface 0
    Interface id: 0 (unknown)
        Interface name: unknown
    Encapsulation type: USB packets with Linux header and padding (115)
    Arrival Time: Jul  1, 2018 15:36:23.522591000 EDT
    [Time shift for this packet: 0.000000000 seconds]
    Epoch Time: 1530473783.522591000 seconds
    [Time delta from previous captured frame: 0.000029000 seconds]
    [Time delta from previous displayed frame: 0.000029000 seconds]
    [Time since reference or first frame: 158.660658000 seconds]
    Frame Number: 30
    Frame Length: 64 bytes (512 bits)
    Capture Length: 64 bytes (512 bits)
    [Frame is marked: False]
    [Frame is ignored: False]
    [Protocols in frame: usb]
USB URB
    [Source: 3.1.0]
    [Destination: host]
    URB id: 0xffff89fbe8d2e600
    URB type: URB_COMPLETE ('C')
    URB transfer type: URB_CONTROL (0x02)
    Endpoint: 0x00, Direction: OUT
        0... .... = Direction: OUT (0)
        .... 0000 = Endpoint number: 0
    Device: 1
    URB bus id: 3
    Device setup request: not relevant ('-')
    Data: not present ('>')
    URB sec: 1530473783
    URB usec: 522591
    URB status: Success (0)
    URB length [bytes]: 0
    Data length [bytes]: 0
    [Request in: 29]
    [Time from request: 0.000029000 seconds]
    Unused Setup Header
    Interval: 0
    Start frame: 0
    Copy of Transfer Flags: 0x00000000
    Number of ISO descriptors: 0
    [bInterfaceClass: Unknown (0xffff)]

0000  00 e6 d2 e8 fb 89 ff ff 43 02 00 01 03 00 2d 3e   ........C.....->
0010  37 2d 39 5b 00 00 00 00 5f f9 07 00 00 00 00 00   7-9[...._.......
0020  00 00 00 00 00 00 00 00 00 00 00 00 00 00 00 00   ................
0030  00 00 00 00 00 00 00 00 00 00 00 00 00 00 00 00   ................

Frame 31: 64 bytes on wire (512 bits), 64 bytes captured (512 bits) on interface 0
    Interface id: 0 (unknown)
        Interface name: unknown
    Encapsulation type: USB packets with Linux header and padding (115)
    Arrival Time: Jul  1, 2018 15:36:23.590262000 EDT
    [Time shift for this packet: 0.000000000 seconds]
    Epoch Time: 1530473783.590262000 seconds
    [Time delta from previous captured frame: 0.067671000 seconds]
    [Time delta from previous displayed frame: 0.067671000 seconds]
    [Time since reference or first frame: 158.728329000 seconds]
    Frame Number: 31
    Frame Length: 64 bytes (512 bits)
    Capture Length: 64 bytes (512 bits)
    [Frame is marked: False]
    [Frame is ignored: False]
    [Protocols in frame: usb:usbhub]
USB URB
    [Source: host]
    [Destination: 3.1.0]
    URB id: 0xffff89fbe8d2e600
    URB type: URB_SUBMIT ('S')
    URB transfer type: URB_CONTROL (0x02)
    Endpoint: 0x80, Direction: IN
        1... .... = Direction: IN (1)
        .... 0000 = Endpoint number: 0
    Device: 1
    URB bus id: 3
    Device setup request: relevant (0)
    Data: not present ('<')
    URB sec: 1530473783
    URB usec: 590262
    URB status: Operation now in progress (-EINPROGRESS) (-115)
    URB length [bytes]: 4
    Data length [bytes]: 0
    [Response in: 32]
    Interval: 0
    Start frame: 0
    Copy of Transfer Flags: 0x00000200
    Number of ISO descriptors: 0
    [bInterfaceClass: Unknown (0xffff)]
URB setup
    bmRequestType: 0xa3
        1... .... = Direction: Device-to-host
        .01. .... = Type: Class (0x1)
        ...0 0011 = Recipient: Other (0x03)
bRequest: GET_STATUS (0x00)
wValue: 0x0000
    (zero): 0
wIndex: 1
    Port: 1
wLength: 4

0000  00 e6 d2 e8 fb 89 ff ff 53 02 80 01 03 00 00 3c   ........S......<
0010  37 2d 39 5b 00 00 00 00 b6 01 09 00 8d ff ff ff   7-9[............
0020  04 00 00 00 00 00 00 00 a3 00 00 00 01 00 04 00   ................
0030  00 00 00 00 00 00 00 00 00 02 00 00 00 00 00 00   ................

Frame 32: 68 bytes on wire (544 bits), 68 bytes captured (544 bits) on interface 0
    Interface id: 0 (unknown)
        Interface name: unknown
    Encapsulation type: USB packets with Linux header and padding (115)
    Arrival Time: Jul  1, 2018 15:36:23.590301000 EDT
    [Time shift for this packet: 0.000000000 seconds]
    Epoch Time: 1530473783.590301000 seconds
    [Time delta from previous captured frame: 0.000039000 seconds]
    [Time delta from previous displayed frame: 0.000039000 seconds]
    [Time since reference or first frame: 158.728368000 seconds]
    Frame Number: 32
    Frame Length: 68 bytes (544 bits)
    Capture Length: 68 bytes (544 bits)
    [Frame is marked: False]
    [Frame is ignored: False]
    [Protocols in frame: usb:usbhub]
USB URB
    [Source: 3.1.0]
    [Destination: host]
    URB id: 0xffff89fbe8d2e600
    URB type: URB_COMPLETE ('C')
    URB transfer type: URB_CONTROL (0x02)
    Endpoint: 0x80, Direction: IN
        1... .... = Direction: IN (1)
        .... 0000 = Endpoint number: 0
    Device: 1
    URB bus id: 3
    Device setup request: not relevant ('-')
    Data: present (0)
    URB sec: 1530473783
    URB usec: 590301
    URB status: Success (0)
    URB length [bytes]: 4
    Data length [bytes]: 4
    [Request in: 31]
    [Time from request: 0.000039000 seconds]
    Unused Setup Header
    Interval: 0
    Start frame: 0
    Copy of Transfer Flags: 0x00000200
    Number of ISO descriptors: 0
    [bInterfaceClass: Unknown (0xffff)]
Port Status: 0x0103, PORT_CONNECTION, PORT_ENABLE, PORT_POWER
    .... .... .... ...1 = PORT_CONNECTION: True
    .... .... .... ..1. = PORT_ENABLE: True
    .... .... .... .0.. = PORT_SUSPEND: False
    .... .... .... 0... = PORT_OVER_CURRENT: False
    .... .... ...0 .... = PORT_RESET: False
    .... ...1 .... .... = PORT_POWER: True
    .... ..0. .... .... = PORT_LOW_SPEED: False
    .... .0.. .... .... = PORT_HIGH_SPEED: False
    .... 0... .... .... = PORT_TEST: False
    ...0 .... .... .... = PORT_INDICATOR: Default colors
Port Change: 0x0010, C_PORT_RESET
    .... .... .... ...0 = C_PORT_CONNECTION: False
    .... .... .... ..0. = C_PORT_ENABLE: False
    .... .... .... .0.. = C_PORT_SUSPEND: False
    .... .... .... 0... = C_PORT_OVER_CURRENT: False
    .... .... ...1 .... = C_PORT_RESET: True

0000  00 e6 d2 e8 fb 89 ff ff 43 02 80 01 03 00 2d 00   ........C.....-.
0010  37 2d 39 5b 00 00 00 00 dd 01 09 00 00 00 00 00   7-9[............
0020  04 00 00 00 04 00 00 00 00 00 00 00 00 00 00 00   ................
0030  00 00 00 00 00 00 00 00 00 02 00 00 00 00 00 00   ................
0040  03 01 10 00                                       ....

Frame 33: 64 bytes on wire (512 bits), 64 bytes captured (512 bits) on interface 0
    Interface id: 0 (unknown)
        Interface name: unknown
    Encapsulation type: USB packets with Linux header and padding (115)
    Arrival Time: Jul  1, 2018 15:36:23.590315000 EDT
    [Time shift for this packet: 0.000000000 seconds]
    Epoch Time: 1530473783.590315000 seconds
    [Time delta from previous captured frame: 0.000014000 seconds]
    [Time delta from previous displayed frame: 0.000014000 seconds]
    [Time since reference or first frame: 158.728382000 seconds]
    Frame Number: 33
    Frame Length: 64 bytes (512 bits)
    Capture Length: 64 bytes (512 bits)
    [Frame is marked: False]
    [Frame is ignored: False]
    [Protocols in frame: usb:usbhub]
USB URB
    [Source: host]
    [Destination: 3.1.0]
    URB id: 0xffff89fbe8d2e600
    URB type: URB_SUBMIT ('S')
    URB transfer type: URB_CONTROL (0x02)
    Endpoint: 0x00, Direction: OUT
        0... .... = Direction: OUT (0)
        .... 0000 = Endpoint number: 0
    Device: 1
    URB bus id: 3
    Device setup request: relevant (0)
    Data: present (0)
    URB sec: 1530473783
    URB usec: 590315
    URB status: Operation now in progress (-EINPROGRESS) (-115)
    URB length [bytes]: 0
    Data length [bytes]: 0
    [Response in: 34]
    Interval: 0
    Start frame: 0
    Copy of Transfer Flags: 0x00000000
    Number of ISO descriptors: 0
    [bInterfaceClass: Unknown (0xffff)]
URB setup
    bmRequestType: 0x23
        0... .... = Direction: Host-to-device
        .01. .... = Type: Class (0x1)
        ...0 0011 = Recipient: Other (0x03)
bRequest: CLEAR_FEATURE (0x01)
wValue: 0x0014
    PortFeatureSelector: C_PORT_RESET (20)
wIndex: 1
    Port: 1
    PortSelector: 0
wLength: 0
    (zero): 0

0000  00 e6 d2 e8 fb 89 ff ff 53 02 00 01 03 00 00 00   ........S.......
0010  37 2d 39 5b 00 00 00 00 eb 01 09 00 8d ff ff ff   7-9[............
0020  00 00 00 00 00 00 00 00 23 01 14 00 01 00 00 00   ........#.......
0030  00 00 00 00 00 00 00 00 00 00 00 00 00 00 00 00   ................

Frame 34: 64 bytes on wire (512 bits), 64 bytes captured (512 bits) on interface 0
    Interface id: 0 (unknown)
        Interface name: unknown
    Encapsulation type: USB packets with Linux header and padding (115)
    Arrival Time: Jul  1, 2018 15:36:23.590329000 EDT
    [Time shift for this packet: 0.000000000 seconds]
    Epoch Time: 1530473783.590329000 seconds
    [Time delta from previous captured frame: 0.000014000 seconds]
    [Time delta from previous displayed frame: 0.000014000 seconds]
    [Time since reference or first frame: 158.728396000 seconds]
    Frame Number: 34
    Frame Length: 64 bytes (512 bits)
    Capture Length: 64 bytes (512 bits)
    [Frame is marked: False]
    [Frame is ignored: False]
    [Protocols in frame: usb]
USB URB
    [Source: 3.1.0]
    [Destination: host]
    URB id: 0xffff89fbe8d2e600
    URB type: URB_COMPLETE ('C')
    URB transfer type: URB_CONTROL (0x02)
    Endpoint: 0x00, Direction: OUT
        0... .... = Direction: OUT (0)
        .... 0000 = Endpoint number: 0
    Device: 1
    URB bus id: 3
    Device setup request: not relevant ('-')
    Data: not present ('>')
    URB sec: 1530473783
    URB usec: 590329
    URB status: Success (0)
    URB length [bytes]: 0
    Data length [bytes]: 0
    [Request in: 33]
    [Time from request: 0.000014000 seconds]
    Unused Setup Header
    Interval: 0
    Start frame: 0
    Copy of Transfer Flags: 0x00000000
    Number of ISO descriptors: 0
    [bInterfaceClass: Unknown (0xffff)]

0000  00 e6 d2 e8 fb 89 ff ff 43 02 00 01 03 00 2d 3e   ........C.....->
0010  37 2d 39 5b 00 00 00 00 f9 01 09 00 00 00 00 00   7-9[............
0020  00 00 00 00 00 00 00 00 00 00 00 00 00 00 00 00   ................
0030  00 00 00 00 00 00 00 00 00 00 00 00 00 00 00 00   ................

Frame 35: 64 bytes on wire (512 bits), 64 bytes captured (512 bits) on interface 0
    Interface id: 0 (unknown)
        Interface name: unknown
    Encapsulation type: USB packets with Linux header and padding (115)
    Arrival Time: Jul  1, 2018 15:36:23.650500000 EDT
    [Time shift for this packet: 0.000000000 seconds]
    Epoch Time: 1530473783.650500000 seconds
    [Time delta from previous captured frame: 0.060171000 seconds]
    [Time delta from previous displayed frame: 0.060171000 seconds]
    [Time since reference or first frame: 158.788567000 seconds]
    Frame Number: 35
    Frame Length: 64 bytes (512 bits)
    Capture Length: 64 bytes (512 bits)
    [Frame is marked: False]
    [Frame is ignored: False]
    [Protocols in frame: usb]
USB URB
    [Source: host]
    [Destination: 3.0.0]
    URB id: 0xffff89fbe8d2e600
    URB type: URB_SUBMIT ('S')
    URB transfer type: URB_CONTROL (0x02)
    Endpoint: 0x80, Direction: IN
        1... .... = Direction: IN (1)
        .... 0000 = Endpoint number: 0
    Device: 0
    URB bus id: 3
    Device setup request: relevant (0)
    Data: not present ('<')
    URB sec: 1530473783
    URB usec: 650500
    URB status: Operation now in progress (-EINPROGRESS) (-115)
    URB length [bytes]: 64
    Data length [bytes]: 0
    [Response in: 36]
    Interval: 0
    Start frame: 0
    Copy of Transfer Flags: 0x00000200
    Number of ISO descriptors: 0
URB setup
    bmRequestType: 0x80
        1... .... = Direction: Device-to-host
        .00. .... = Type: Standard (0x0)
        ...0 0000 = Recipient: Device (0x00)
    bRequest: GET DESCRIPTOR (6)
    Descriptor Index: 0x00
    bDescriptorType: 0x01
    Language Id: no language specified (0x0000)
    wLength: 64

0000  00 e6 d2 e8 fb 89 ff ff 53 02 80 00 03 00 00 3c   ........S......<
0010  37 2d 39 5b 00 00 00 00 04 ed 09 00 8d ff ff ff   7-9[............
0020  40 00 00 00 00 00 00 00 80 06 00 01 00 00 40 00   @.............@.
0030  00 00 00 00 00 00 00 00 00 02 00 00 00 00 00 00   ................

Frame 36: 82 bytes on wire (656 bits), 82 bytes captured (656 bits) on interface 0
    Interface id: 0 (unknown)
        Interface name: unknown
    Encapsulation type: USB packets with Linux header and padding (115)
    Arrival Time: Jul  1, 2018 15:36:23.652738000 EDT
    [Time shift for this packet: 0.000000000 seconds]
    Epoch Time: 1530473783.652738000 seconds
    [Time delta from previous captured frame: 0.002238000 seconds]
    [Time delta from previous displayed frame: 0.002238000 seconds]
    [Time since reference or first frame: 158.790805000 seconds]
    Frame Number: 36
    Frame Length: 82 bytes (656 bits)
    Capture Length: 82 bytes (656 bits)
    [Frame is marked: False]
    [Frame is ignored: False]
    [Protocols in frame: usb]
USB URB
    [Source: 3.0.0]
    [Destination: host]
    URB id: 0xffff89fbe8d2e600
    URB type: URB_COMPLETE ('C')
    URB transfer type: URB_CONTROL (0x02)
    Endpoint: 0x80, Direction: IN
        1... .... = Direction: IN (1)
        .... 0000 = Endpoint number: 0
    Device: 0
    URB bus id: 3
    Device setup request: not relevant ('-')
    Data: present (0)
    URB sec: 1530473783
    URB usec: 652738
    URB status: Success (0)
    URB length [bytes]: 18
    Data length [bytes]: 18
    [Request in: 35]
    [Time from request: 0.002238000 seconds]
    Unused Setup Header
    Interval: 0
    Start frame: 0
    Copy of Transfer Flags: 0x00000200
    Number of ISO descriptors: 0
DEVICE DESCRIPTOR
    bLength: 18
    bDescriptorType: 0x01 (DEVICE)
    bcdUSB: 0x0200
    bDeviceClass: Device (0x00)
    bDeviceSubClass: 0
    bDeviceProtocol: 0 (Use class code info from Interface Descriptors)
    bMaxPacketSize0: 64
    idVendor: Graphtec America, Inc. (0x0b4d)
    idProduct: Unknown (0x112f)
    bcdDevice: 0x0100
    iManufacturer: 0
    iProduct: 0
    iSerialNumber: 1
    bNumConfigurations: 1

0000  00 e6 d2 e8 fb 89 ff ff 43 02 80 00 03 00 2d 00   ........C.....-.
0010  37 2d 39 5b 00 00 00 00 c2 f5 09 00 00 00 00 00   7-9[............
0020  12 00 00 00 12 00 00 00 00 00 00 00 00 00 00 00   ................
0030  00 00 00 00 00 00 00 00 00 02 00 00 00 00 00 00   ................
0040  12 01 00 02 00 00 00 40 4d 0b 2f 11 00 01 00 00   .......@M./.....
0050  01 01                                             ..

Frame 37: 64 bytes on wire (512 bits), 64 bytes captured (512 bits) on interface 0
    Interface id: 0 (unknown)
        Interface name: unknown
    Encapsulation type: USB packets with Linux header and padding (115)
    Arrival Time: Jul  1, 2018 15:36:23.652778000 EDT
    [Time shift for this packet: 0.000000000 seconds]
    Epoch Time: 1530473783.652778000 seconds
    [Time delta from previous captured frame: 0.000040000 seconds]
    [Time delta from previous displayed frame: 0.000040000 seconds]
    [Time since reference or first frame: 158.790845000 seconds]
    Frame Number: 37
    Frame Length: 64 bytes (512 bits)
    Capture Length: 64 bytes (512 bits)
    [Frame is marked: False]
    [Frame is ignored: False]
    [Protocols in frame: usb:usbhub]
USB URB
    [Source: host]
    [Destination: 3.1.0]
    URB id: 0xffff89fbe8d2e600
    URB type: URB_SUBMIT ('S')
    URB transfer type: URB_CONTROL (0x02)
    Endpoint: 0x00, Direction: OUT
        0... .... = Direction: OUT (0)
        .... 0000 = Endpoint number: 0
    Device: 1
    URB bus id: 3
    Device setup request: relevant (0)
    Data: present (0)
    URB sec: 1530473783
    URB usec: 652778
    URB status: Operation now in progress (-EINPROGRESS) (-115)
    URB length [bytes]: 0
    Data length [bytes]: 0
    [Response in: 38]
    Interval: 0
    Start frame: 0
    Copy of Transfer Flags: 0x00000000
    Number of ISO descriptors: 0
    [bInterfaceClass: Unknown (0xffff)]
URB setup
    bmRequestType: 0x23
        0... .... = Direction: Host-to-device
        .01. .... = Type: Class (0x1)
        ...0 0011 = Recipient: Other (0x03)
bRequest: SET_FEATURE (0x03)
wValue: 0x0004
    PortFeatureSelector: PORT_RESET (4)
wIndex: 1
    Port: 1
    PortSelector: 0
wLength: 0
    (zero): 0

0000  00 e6 d2 e8 fb 89 ff ff 53 02 00 01 03 00 00 00   ........S.......
0010  37 2d 39 5b 00 00 00 00 ea f5 09 00 8d ff ff ff   7-9[............
0020  00 00 00 00 00 00 00 00 23 03 04 00 01 00 00 00   ........#.......
0030  00 00 00 00 00 00 00 00 00 00 00 00 00 00 00 00   ................

Frame 38: 64 bytes on wire (512 bits), 64 bytes captured (512 bits) on interface 0
    Interface id: 0 (unknown)
        Interface name: unknown
    Encapsulation type: USB packets with Linux header and padding (115)
    Arrival Time: Jul  1, 2018 15:36:23.652805000 EDT
    [Time shift for this packet: 0.000000000 seconds]
    Epoch Time: 1530473783.652805000 seconds
    [Time delta from previous captured frame: 0.000027000 seconds]
    [Time delta from previous displayed frame: 0.000027000 seconds]
    [Time since reference or first frame: 158.790872000 seconds]
    Frame Number: 38
    Frame Length: 64 bytes (512 bits)
    Capture Length: 64 bytes (512 bits)
    [Frame is marked: False]
    [Frame is ignored: False]
    [Protocols in frame: usb]
USB URB
    [Source: 3.1.0]
    [Destination: host]
    URB id: 0xffff89fbe8d2e600
    URB type: URB_COMPLETE ('C')
    URB transfer type: URB_CONTROL (0x02)
    Endpoint: 0x00, Direction: OUT
        0... .... = Direction: OUT (0)
        .... 0000 = Endpoint number: 0
    Device: 1
    URB bus id: 3
    Device setup request: not relevant ('-')
    Data: not present ('>')
    URB sec: 1530473783
    URB usec: 652805
    URB status: Success (0)
    URB length [bytes]: 0
    Data length [bytes]: 0
    [Request in: 37]
    [Time from request: 0.000027000 seconds]
    Unused Setup Header
    Interval: 0
    Start frame: 0
    Copy of Transfer Flags: 0x00000000
    Number of ISO descriptors: 0
    [bInterfaceClass: Unknown (0xffff)]

0000  00 e6 d2 e8 fb 89 ff ff 43 02 00 01 03 00 2d 3e   ........C.....->
0010  37 2d 39 5b 00 00 00 00 05 f6 09 00 00 00 00 00   7-9[............
0020  00 00 00 00 00 00 00 00 00 00 00 00 00 00 00 00   ................
0030  00 00 00 00 00 00 00 00 00 00 00 00 00 00 00 00   ................

Frame 39: 64 bytes on wire (512 bits), 64 bytes captured (512 bits) on interface 0
    Interface id: 0 (unknown)
        Interface name: unknown
    Encapsulation type: USB packets with Linux header and padding (115)
    Arrival Time: Jul  1, 2018 15:36:23.718266000 EDT
    [Time shift for this packet: 0.000000000 seconds]
    Epoch Time: 1530473783.718266000 seconds
    [Time delta from previous captured frame: 0.065461000 seconds]
    [Time delta from previous displayed frame: 0.065461000 seconds]
    [Time since reference or first frame: 158.856333000 seconds]
    Frame Number: 39
    Frame Length: 64 bytes (512 bits)
    Capture Length: 64 bytes (512 bits)
    [Frame is marked: False]
    [Frame is ignored: False]
    [Protocols in frame: usb:usbhub]
USB URB
    [Source: host]
    [Destination: 3.1.0]
    URB id: 0xffff89fbe8d2e600
    URB type: URB_SUBMIT ('S')
    URB transfer type: URB_CONTROL (0x02)
    Endpoint: 0x80, Direction: IN
        1... .... = Direction: IN (1)
        .... 0000 = Endpoint number: 0
    Device: 1
    URB bus id: 3
    Device setup request: relevant (0)
    Data: not present ('<')
    URB sec: 1530473783
    URB usec: 718266
    URB status: Operation now in progress (-EINPROGRESS) (-115)
    URB length [bytes]: 4
    Data length [bytes]: 0
    [Response in: 40]
    Interval: 0
    Start frame: 0
    Copy of Transfer Flags: 0x00000200
    Number of ISO descriptors: 0
    [bInterfaceClass: Unknown (0xffff)]
URB setup
    bmRequestType: 0xa3
        1... .... = Direction: Device-to-host
        .01. .... = Type: Class (0x1)
        ...0 0011 = Recipient: Other (0x03)
bRequest: GET_STATUS (0x00)
wValue: 0x0000
    (zero): 0
wIndex: 1
    Port: 1
wLength: 4

0000  00 e6 d2 e8 fb 89 ff ff 53 02 80 01 03 00 00 3c   ........S......<
0010  37 2d 39 5b 00 00 00 00 ba f5 0a 00 8d ff ff ff   7-9[............
0020  04 00 00 00 00 00 00 00 a3 00 00 00 01 00 04 00   ................
0030  00 00 00 00 00 00 00 00 00 02 00 00 00 00 00 00   ................

Frame 40: 68 bytes on wire (544 bits), 68 bytes captured (544 bits) on interface 0
    Interface id: 0 (unknown)
        Interface name: unknown
    Encapsulation type: USB packets with Linux header and padding (115)
    Arrival Time: Jul  1, 2018 15:36:23.718305000 EDT
    [Time shift for this packet: 0.000000000 seconds]
    Epoch Time: 1530473783.718305000 seconds
    [Time delta from previous captured frame: 0.000039000 seconds]
    [Time delta from previous displayed frame: 0.000039000 seconds]
    [Time since reference or first frame: 158.856372000 seconds]
    Frame Number: 40
    Frame Length: 68 bytes (544 bits)
    Capture Length: 68 bytes (544 bits)
    [Frame is marked: False]
    [Frame is ignored: False]
    [Protocols in frame: usb:usbhub]
USB URB
    [Source: 3.1.0]
    [Destination: host]
    URB id: 0xffff89fbe8d2e600
    URB type: URB_COMPLETE ('C')
    URB transfer type: URB_CONTROL (0x02)
    Endpoint: 0x80, Direction: IN
        1... .... = Direction: IN (1)
        .... 0000 = Endpoint number: 0
    Device: 1
    URB bus id: 3
    Device setup request: not relevant ('-')
    Data: present (0)
    URB sec: 1530473783
    URB usec: 718305
    URB status: Success (0)
    URB length [bytes]: 4
    Data length [bytes]: 4
    [Request in: 39]
    [Time from request: 0.000039000 seconds]
    Unused Setup Header
    Interval: 0
    Start frame: 0
    Copy of Transfer Flags: 0x00000200
    Number of ISO descriptors: 0
    [bInterfaceClass: Unknown (0xffff)]
Port Status: 0x0103, PORT_CONNECTION, PORT_ENABLE, PORT_POWER
    .... .... .... ...1 = PORT_CONNECTION: True
    .... .... .... ..1. = PORT_ENABLE: True
    .... .... .... .0.. = PORT_SUSPEND: False
    .... .... .... 0... = PORT_OVER_CURRENT: False
    .... .... ...0 .... = PORT_RESET: False
    .... ...1 .... .... = PORT_POWER: True
    .... ..0. .... .... = PORT_LOW_SPEED: False
    .... .0.. .... .... = PORT_HIGH_SPEED: False
    .... 0... .... .... = PORT_TEST: False
    ...0 .... .... .... = PORT_INDICATOR: Default colors
Port Change: 0x0010, C_PORT_RESET
    .... .... .... ...0 = C_PORT_CONNECTION: False
    .... .... .... ..0. = C_PORT_ENABLE: False
    .... .... .... .0.. = C_PORT_SUSPEND: False
    .... .... .... 0... = C_PORT_OVER_CURRENT: False
    .... .... ...1 .... = C_PORT_RESET: True

0000  00 e6 d2 e8 fb 89 ff ff 43 02 80 01 03 00 2d 00   ........C.....-.
0010  37 2d 39 5b 00 00 00 00 e1 f5 0a 00 00 00 00 00   7-9[............
0020  04 00 00 00 04 00 00 00 00 00 00 00 00 00 00 00   ................
0030  00 00 00 00 00 00 00 00 00 02 00 00 00 00 00 00   ................
0040  03 01 10 00                                       ....

Frame 41: 64 bytes on wire (512 bits), 64 bytes captured (512 bits) on interface 0
    Interface id: 0 (unknown)
        Interface name: unknown
    Encapsulation type: USB packets with Linux header and padding (115)
    Arrival Time: Jul  1, 2018 15:36:23.718319000 EDT
    [Time shift for this packet: 0.000000000 seconds]
    Epoch Time: 1530473783.718319000 seconds
    [Time delta from previous captured frame: 0.000014000 seconds]
    [Time delta from previous displayed frame: 0.000014000 seconds]
    [Time since reference or first frame: 158.856386000 seconds]
    Frame Number: 41
    Frame Length: 64 bytes (512 bits)
    Capture Length: 64 bytes (512 bits)
    [Frame is marked: False]
    [Frame is ignored: False]
    [Protocols in frame: usb:usbhub]
USB URB
    [Source: host]
    [Destination: 3.1.0]
    URB id: 0xffff89fbe8d2e600
    URB type: URB_SUBMIT ('S')
    URB transfer type: URB_CONTROL (0x02)
    Endpoint: 0x00, Direction: OUT
        0... .... = Direction: OUT (0)
        .... 0000 = Endpoint number: 0
    Device: 1
    URB bus id: 3
    Device setup request: relevant (0)
    Data: present (0)
    URB sec: 1530473783
    URB usec: 718319
    URB status: Operation now in progress (-EINPROGRESS) (-115)
    URB length [bytes]: 0
    Data length [bytes]: 0
    [Response in: 42]
    Interval: 0
    Start frame: 0
    Copy of Transfer Flags: 0x00000000
    Number of ISO descriptors: 0
    [bInterfaceClass: Unknown (0xffff)]
URB setup
    bmRequestType: 0x23
        0... .... = Direction: Host-to-device
        .01. .... = Type: Class (0x1)
        ...0 0011 = Recipient: Other (0x03)
bRequest: CLEAR_FEATURE (0x01)
wValue: 0x0014
    PortFeatureSelector: C_PORT_RESET (20)
wIndex: 1
    Port: 1
    PortSelector: 0
wLength: 0
    (zero): 0

0000  00 e6 d2 e8 fb 89 ff ff 53 02 00 01 03 00 00 00   ........S.......
0010  37 2d 39 5b 00 00 00 00 ef f5 0a 00 8d ff ff ff   7-9[............
0020  00 00 00 00 00 00 00 00 23 01 14 00 01 00 00 00   ........#.......
0030  00 00 00 00 00 00 00 00 00 00 00 00 00 00 00 00   ................

Frame 42: 64 bytes on wire (512 bits), 64 bytes captured (512 bits) on interface 0
    Interface id: 0 (unknown)
        Interface name: unknown
    Encapsulation type: USB packets with Linux header and padding (115)
    Arrival Time: Jul  1, 2018 15:36:23.718332000 EDT
    [Time shift for this packet: 0.000000000 seconds]
    Epoch Time: 1530473783.718332000 seconds
    [Time delta from previous captured frame: 0.000013000 seconds]
    [Time delta from previous displayed frame: 0.000013000 seconds]
    [Time since reference or first frame: 158.856399000 seconds]
    Frame Number: 42
    Frame Length: 64 bytes (512 bits)
    Capture Length: 64 bytes (512 bits)
    [Frame is marked: False]
    [Frame is ignored: False]
    [Protocols in frame: usb]
USB URB
    [Source: 3.1.0]
    [Destination: host]
    URB id: 0xffff89fbe8d2e600
    URB type: URB_COMPLETE ('C')
    URB transfer type: URB_CONTROL (0x02)
    Endpoint: 0x00, Direction: OUT
        0... .... = Direction: OUT (0)
        .... 0000 = Endpoint number: 0
    Device: 1
    URB bus id: 3
    Device setup request: not relevant ('-')
    Data: not present ('>')
    URB sec: 1530473783
    URB usec: 718332
    URB status: Success (0)
    URB length [bytes]: 0
    Data length [bytes]: 0
    [Request in: 41]
    [Time from request: 0.000013000 seconds]
    Unused Setup Header
    Interval: 0
    Start frame: 0
    Copy of Transfer Flags: 0x00000000
    Number of ISO descriptors: 0
    [bInterfaceClass: Unknown (0xffff)]

0000  00 e6 d2 e8 fb 89 ff ff 43 02 00 01 03 00 2d 3e   ........C.....->
0010  37 2d 39 5b 00 00 00 00 fc f5 0a 00 00 00 00 00   7-9[............
0020  00 00 00 00 00 00 00 00 00 00 00 00 00 00 00 00   ................
0030  00 00 00 00 00 00 00 00 00 00 00 00 00 00 00 00   ................

Frame 43: 64 bytes on wire (512 bits), 64 bytes captured (512 bits) on interface 0
    Interface id: 0 (unknown)
        Interface name: unknown
    Encapsulation type: USB packets with Linux header and padding (115)
    Arrival Time: Jul  1, 2018 15:36:23.798266000 EDT
    [Time shift for this packet: 0.000000000 seconds]
    Epoch Time: 1530473783.798266000 seconds
    [Time delta from previous captured frame: 0.079934000 seconds]
    [Time delta from previous displayed frame: 0.079934000 seconds]
    [Time since reference or first frame: 158.936333000 seconds]
    Frame Number: 43
    Frame Length: 64 bytes (512 bits)
    Capture Length: 64 bytes (512 bits)
    [Frame is marked: False]
    [Frame is ignored: False]
    [Protocols in frame: usb]
USB URB
    [Source: host]
    [Destination: 3.3.0]
    URB id: 0xffff89fbe8d2e600
    URB type: URB_SUBMIT ('S')
    URB transfer type: URB_CONTROL (0x02)
    Endpoint: 0x80, Direction: IN
        1... .... = Direction: IN (1)
        .... 0000 = Endpoint number: 0
    Device: 3
    URB bus id: 3
    Device setup request: relevant (0)
    Data: not present ('<')
    URB sec: 1530473783
    URB usec: 798266
    URB status: Operation now in progress (-EINPROGRESS) (-115)
    URB length [bytes]: 18
    Data length [bytes]: 0
    [Response in: 44]
    Interval: 0
    Start frame: 0
    Copy of Transfer Flags: 0x00000200
    Number of ISO descriptors: 0
URB setup
    bmRequestType: 0x80
        1... .... = Direction: Device-to-host
        .00. .... = Type: Standard (0x0)
        ...0 0000 = Recipient: Device (0x00)
    bRequest: GET DESCRIPTOR (6)
    Descriptor Index: 0x00
    bDescriptorType: 0x01
    Language Id: no language specified (0x0000)
    wLength: 18

0000  00 e6 d2 e8 fb 89 ff ff 53 02 80 03 03 00 00 3c   ........S......<
0010  37 2d 39 5b 00 00 00 00 3a 2e 0c 00 8d ff ff ff   7-9[....:.......
0020  12 00 00 00 00 00 00 00 80 06 00 01 00 00 12 00   ................
0030  00 00 00 00 00 00 00 00 00 02 00 00 00 00 00 00   ................

Frame 44: 82 bytes on wire (656 bits), 82 bytes captured (656 bits) on interface 0
    Interface id: 0 (unknown)
        Interface name: unknown
    Encapsulation type: USB packets with Linux header and padding (115)
    Arrival Time: Jul  1, 2018 15:36:23.800652000 EDT
    [Time shift for this packet: 0.000000000 seconds]
    Epoch Time: 1530473783.800652000 seconds
    [Time delta from previous captured frame: 0.002386000 seconds]
    [Time delta from previous displayed frame: 0.002386000 seconds]
    [Time since reference or first frame: 158.938719000 seconds]
    Frame Number: 44
    Frame Length: 82 bytes (656 bits)
    Capture Length: 82 bytes (656 bits)
    [Frame is marked: False]
    [Frame is ignored: False]
    [Protocols in frame: usb]
USB URB
    [Source: 3.3.0]
    [Destination: host]
    URB id: 0xffff89fbe8d2e600
    URB type: URB_COMPLETE ('C')
    URB transfer type: URB_CONTROL (0x02)
    Endpoint: 0x80, Direction: IN
        1... .... = Direction: IN (1)
        .... 0000 = Endpoint number: 0
    Device: 3
    URB bus id: 3
    Device setup request: not relevant ('-')
    Data: present (0)
    URB sec: 1530473783
    URB usec: 800652
    URB status: Success (0)
    URB length [bytes]: 18
    Data length [bytes]: 18
    [Request in: 43]
    [Time from request: 0.002386000 seconds]
    Unused Setup Header
    Interval: 0
    Start frame: 0
    Copy of Transfer Flags: 0x00000200
    Number of ISO descriptors: 0
DEVICE DESCRIPTOR
    bLength: 18
    bDescriptorType: 0x01 (DEVICE)
    bcdUSB: 0x0200
    bDeviceClass: Device (0x00)
    bDeviceSubClass: 0
    bDeviceProtocol: 0 (Use class code info from Interface Descriptors)
    bMaxPacketSize0: 64
    idVendor: Graphtec America, Inc. (0x0b4d)
    idProduct: Unknown (0x112f)
    bcdDevice: 0x0100
    iManufacturer: 0
    iProduct: 0
    iSerialNumber: 1
    bNumConfigurations: 1

0000  00 e6 d2 e8 fb 89 ff ff 43 02 80 03 03 00 2d 00   ........C.....-.
0010  37 2d 39 5b 00 00 00 00 8c 37 0c 00 00 00 00 00   7-9[.....7......
0020  12 00 00 00 12 00 00 00 00 00 00 00 00 00 00 00   ................
0030  00 00 00 00 00 00 00 00 00 02 00 00 00 00 00 00   ................
0040  12 01 00 02 00 00 00 40 4d 0b 2f 11 00 01 00 00   .......@M./.....
0050  01 01                                             ..

Frame 45: 64 bytes on wire (512 bits), 64 bytes captured (512 bits) on interface 0
    Interface id: 0 (unknown)
        Interface name: unknown
    Encapsulation type: USB packets with Linux header and padding (115)
    Arrival Time: Jul  1, 2018 15:36:23.800701000 EDT
    [Time shift for this packet: 0.000000000 seconds]
    Epoch Time: 1530473783.800701000 seconds
    [Time delta from previous captured frame: 0.000049000 seconds]
    [Time delta from previous displayed frame: 0.000049000 seconds]
    [Time since reference or first frame: 158.938768000 seconds]
    Frame Number: 45
    Frame Length: 64 bytes (512 bits)
    Capture Length: 64 bytes (512 bits)
    [Frame is marked: False]
    [Frame is ignored: False]
    [Protocols in frame: usb]
USB URB
    [Source: host]
    [Destination: 3.3.0]
    URB id: 0xffff89fbe8d2e600
    URB type: URB_SUBMIT ('S')
    URB transfer type: URB_CONTROL (0x02)
    Endpoint: 0x80, Direction: IN
        1... .... = Direction: IN (1)
        .... 0000 = Endpoint number: 0
    Device: 3
    URB bus id: 3
    Device setup request: relevant (0)
    Data: not present ('<')
    URB sec: 1530473783
    URB usec: 800701
    URB status: Operation now in progress (-EINPROGRESS) (-115)
    URB length [bytes]: 10
    Data length [bytes]: 0
    [Response in: 46]
    Interval: 0
    Start frame: 0
    Copy of Transfer Flags: 0x00000200
    Number of ISO descriptors: 0
URB setup
    bmRequestType: 0x80
        1... .... = Direction: Device-to-host
        .00. .... = Type: Standard (0x0)
        ...0 0000 = Recipient: Device (0x00)
    bRequest: GET DESCRIPTOR (6)
    Descriptor Index: 0x00
    bDescriptorType: 0x06
    Language Id: no language specified (0x0000)
    wLength: 10

0000  00 e6 d2 e8 fb 89 ff ff 53 02 80 03 03 00 00 3c   ........S......<
0010  37 2d 39 5b 00 00 00 00 bd 37 0c 00 8d ff ff ff   7-9[.....7......
0020  0a 00 00 00 00 00 00 00 80 06 00 06 00 00 0a 00   ................
0030  00 00 00 00 00 00 00 00 00 02 00 00 00 00 00 00   ................

Frame 46: 64 bytes on wire (512 bits), 64 bytes captured (512 bits) on interface 0
    Interface id: 0 (unknown)
        Interface name: unknown
    Encapsulation type: USB packets with Linux header and padding (115)
    Arrival Time: Jul  1, 2018 15:36:23.802655000 EDT
    [Time shift for this packet: 0.000000000 seconds]
    Epoch Time: 1530473783.802655000 seconds
    [Time delta from previous captured frame: 0.001954000 seconds]
    [Time delta from previous displayed frame: 0.001954000 seconds]
    [Time since reference or first frame: 158.940722000 seconds]
    Frame Number: 46
    Frame Length: 64 bytes (512 bits)
    Capture Length: 64 bytes (512 bits)
    [Frame is marked: False]
    [Frame is ignored: False]
    [Protocols in frame: usb]
USB URB
    [Source: 3.3.0]
    [Destination: host]
    URB id: 0xffff89fbe8d2e600
    URB type: URB_COMPLETE ('C')
    URB transfer type: URB_CONTROL (0x02)
    Endpoint: 0x80, Direction: IN
        1... .... = Direction: IN (1)
        .... 0000 = Endpoint number: 0
    Device: 3
    URB bus id: 3
    Device setup request: not relevant ('-')
    Data: present (0)
    URB sec: 1530473783
    URB usec: 802655
    URB status: Broken pipe (-EPIPE) (-32)
    URB length [bytes]: 0
    Data length [bytes]: 0
    [Request in: 45]
    [Time from request: 0.001954000 seconds]
    Unused Setup Header
    Interval: 0
    Start frame: 0
    Copy of Transfer Flags: 0x00000200
    Number of ISO descriptors: 0

0000  00 e6 d2 e8 fb 89 ff ff 43 02 80 03 03 00 2d 00   ........C.....-.
0010  37 2d 39 5b 00 00 00 00 5f 3f 0c 00 e0 ff ff ff   7-9[...._?......
0020  00 00 00 00 00 00 00 00 00 00 00 00 00 00 00 00   ................
0030  00 00 00 00 00 00 00 00 00 02 00 00 00 00 00 00   ................

Frame 47: 64 bytes on wire (512 bits), 64 bytes captured (512 bits) on interface 0
    Interface id: 0 (unknown)
        Interface name: unknown
    Encapsulation type: USB packets with Linux header and padding (115)
    Arrival Time: Jul  1, 2018 15:36:23.802695000 EDT
    [Time shift for this packet: 0.000000000 seconds]
    Epoch Time: 1530473783.802695000 seconds
    [Time delta from previous captured frame: 0.000040000 seconds]
    [Time delta from previous displayed frame: 0.000040000 seconds]
    [Time since reference or first frame: 158.940762000 seconds]
    Frame Number: 47
    Frame Length: 64 bytes (512 bits)
    Capture Length: 64 bytes (512 bits)
    [Frame is marked: False]
    [Frame is ignored: False]
    [Protocols in frame: usb]
USB URB
    [Source: host]
    [Destination: 3.3.0]
    URB id: 0xffff89fbe8d2e600
    URB type: URB_SUBMIT ('S')
    URB transfer type: URB_CONTROL (0x02)
    Endpoint: 0x80, Direction: IN
        1... .... = Direction: IN (1)
        .... 0000 = Endpoint number: 0
    Device: 3
    URB bus id: 3
    Device setup request: relevant (0)
    Data: not present ('<')
    URB sec: 1530473783
    URB usec: 802695
    URB status: Operation now in progress (-EINPROGRESS) (-115)
    URB length [bytes]: 10
    Data length [bytes]: 0
    [Response in: 48]
