Frame 1: 82 bytes on wire (656 bits), 82 bytes captured (656 bits) on interface 0
    Interface id: 0 (unknown)
        Interface name: unknown
    Encapsulation type: USB packets with Linux header and padding (115)
    Arrival Time: Jul  6, 2018 23:15:23.194712000 EDT
    [Time shift for this packet: 0.000000000 seconds]
    Epoch Time: 1530933323.194712000 seconds
    [Time delta from previous captured frame: 0.000000000 seconds]
    [Time delta from previous displayed frame: 0.000000000 seconds]
    [Time since reference or first frame: 0.000000000 seconds]
    Frame Number: 1
    Frame Length: 82 bytes (656 bits)
    Capture Length: 82 bytes (656 bits)
    [Frame is marked: False]
    [Frame is ignored: False]
    [Protocols in frame: usb]
USB URB
    [Source: 3.3.0]
    [Destination: host]
    URB id: 0xffff89fc92559900
    URB type: URB_COMPLETE ('C')
    URB transfer type: URB_CONTROL (0x02)
    Endpoint: 0x80, Direction: IN
        1... .... = Direction: IN (1)
        .... 0000 = Endpoint number: 0
    Device: 3
    URB bus id: 3
    Device setup request: not relevant ('-')
    Data: present (0)
    URB sec: 1530933323
    URB usec: 194712
    URB status: Success (0)
    URB length [bytes]: 18
    Data length [bytes]: 18
    Unused Setup Header
    Interval: 0
    Start frame: 0
    Copy of Transfer Flags: 0x00000200
    Number of ISO descriptors: 0
CONTROL response data: 12010002000000404d0b2f11000100000101

0000  00 99 55 92 fc 89 ff ff 43 02 80 03 03 00 2d 00   ..U.....C.....-.
0010  4b 30 40 5b 00 00 00 00 98 f8 02 00 00 00 00 00   K0@[............
0020  12 00 00 00 12 00 00 00 00 00 00 00 00 00 00 00   ................
0030  00 00 00 00 00 00 00 00 00 02 00 00 00 00 00 00   ................
0040  12 01 00 02 00 00 00 40 4d 0b 2f 11 00 01 00 00   .......@M./.....
0050  01 01                                             ..

Frame 2: 66 bytes on wire (528 bits), 66 bytes captured (528 bits) on interface 0
    Interface id: 0 (unknown)
        Interface name: unknown
    Encapsulation type: USB packets with Linux header and padding (115)
    Arrival Time: Jul  6, 2018 23:15:23.537264000 EDT
    [Time shift for this packet: 0.000000000 seconds]
    Epoch Time: 1530933323.537264000 seconds
    [Time delta from previous captured frame: 0.342552000 seconds]
    [Time delta from previous displayed frame: 0.342552000 seconds]
    [Time since reference or first frame: 0.342552000 seconds]
    Frame Number: 2
    Frame Length: 66 bytes (528 bits)
    Capture Length: 66 bytes (528 bits)
    [Frame is marked: False]
    [Frame is ignored: False]
    [Protocols in frame: usb]
USB URB
    [Source: host]
    [Destination: 3.3.1]
    URB id: 0xffff89fccc7b4a80
    URB type: URB_SUBMIT ('S')
    URB transfer type: URB_BULK (0x03)
    Endpoint: 0x01, Direction: OUT
        0... .... = Direction: OUT (0)
        .... 0001 = Endpoint number: 1
    Device: 3
    URB bus id: 3
    Device setup request: not relevant ('-')
    Data: present (0)
    URB sec: 1530933323
    URB usec: 537264
    URB status: Operation now in progress (-EINPROGRESS) (-115)
    URB length [bytes]: 2
    Data length [bytes]: 2
    [bInterfaceClass: Unknown (0xffff)]
    Unused Setup Header
    Interval: 0
    Start frame: 0
    Copy of Transfer Flags: 0x00000000
    Number of ISO descriptors: 0
Leftover Capture Data: 1b05

0000  80 4a 7b cc fc 89 ff ff 53 03 01 03 03 00 2d 00   .J{.....S.....-.
0010  4b 30 40 5b 00 00 00 00 b0 32 08 00 8d ff ff ff   K0@[.....2......
0020  02 00 00 00 02 00 00 00 00 00 00 00 00 00 00 00   ................
0030  00 00 00 00 00 00 00 00 00 00 00 00 00 00 00 00   ................
0040  1b 05                                             ..

Frame 3: 66 bytes on wire (528 bits), 66 bytes captured (528 bits) on interface 0
    Interface id: 0 (unknown)
        Interface name: unknown
    Encapsulation type: USB packets with Linux header and padding (115)
    Arrival Time: Jul  6, 2018 23:15:23.667181000 EDT
    [Time shift for this packet: 0.000000000 seconds]
    Epoch Time: 1530933323.667181000 seconds
    [Time delta from previous captured frame: 0.129917000 seconds]
    [Time delta from previous displayed frame: 0.129917000 seconds]
    [Time since reference or first frame: 0.472469000 seconds]
    Frame Number: 3
    Frame Length: 66 bytes (528 bits)
    Capture Length: 66 bytes (528 bits)
    [Frame is marked: False]
    [Frame is ignored: False]
    [Protocols in frame: usb]
USB URB
    [Source: 3.3.2]
    [Destination: host]
    URB id: 0xffff89fc925590c0
    URB type: URB_COMPLETE ('C')
    URB transfer type: URB_BULK (0x03)
    Endpoint: 0x82, Direction: IN
        1... .... = Direction: IN (1)
        .... 0010 = Endpoint number: 2
    Device: 3
    URB bus id: 3
    Device setup request: not relevant ('-')
    Data: present (0)
    URB sec: 1530933323
    URB usec: 667181
    URB status: Remote I/O error (-EREMOTEIO) (-121)
    URB length [bytes]: 2
    Data length [bytes]: 2
    [bInterfaceClass: Unknown (0xffff)]
    Unused Setup Header
    Interval: 0
    Start frame: 0
    Copy of Transfer Flags: 0x00000201
    Number of ISO descriptors: 0
Leftover Capture Data: 3003

0000  c0 90 55 92 fc 89 ff ff 43 03 82 03 03 00 2d 00   ..U.....C.....-.
0010  4b 30 40 5b 00 00 00 00 2d 2e 0a 00 87 ff ff ff   K0@[....-.......
0020  02 00 00 00 02 00 00 00 00 00 00 00 00 00 00 00   ................
0030  00 00 00 00 00 00 00 00 01 02 00 00 00 00 00 00   ................
0040  30 03                                             0.

Frame 4: 66 bytes on wire (528 bits), 66 bytes captured (528 bits) on interface 0
    Interface id: 0 (unknown)
        Interface name: unknown
    Encapsulation type: USB packets with Linux header and padding (115)
    Arrival Time: Jul  6, 2018 23:15:24.048117000 EDT
    [Time shift for this packet: 0.000000000 seconds]
    Epoch Time: 1530933324.048117000 seconds
    [Time delta from previous captured frame: 0.380936000 seconds]
    [Time delta from previous displayed frame: 0.380936000 seconds]
    [Time since reference or first frame: 0.853405000 seconds]
    Frame Number: 4
    Frame Length: 66 bytes (528 bits)
    Capture Length: 66 bytes (528 bits)
    [Frame is marked: False]
    [Frame is ignored: False]
    [Protocols in frame: usb]
USB URB
    [Source: host]
    [Destination: 3.3.1]
    URB id: 0xffff89fccc7b4a80
    URB type: URB_SUBMIT ('S')
    URB transfer type: URB_BULK (0x03)
    Endpoint: 0x01, Direction: OUT
        0... .... = Direction: OUT (0)
        .... 0001 = Endpoint number: 1
    Device: 3
    URB bus id: 3
    Device setup request: not relevant ('-')
    Data: present (0)
    URB sec: 1530933324
    URB usec: 48117
    URB status: Operation now in progress (-EINPROGRESS) (-115)
    URB length [bytes]: 2
    Data length [bytes]: 2
    [bInterfaceClass: Unknown (0xffff)]
    Unused Setup Header
    Interval: 0
    Start frame: 0
    Copy of Transfer Flags: 0x00000000
    Number of ISO descriptors: 0
Leftover Capture Data: 1b05

0000  80 4a 7b cc fc 89 ff ff 53 03 01 03 03 00 2d 00   .J{.....S.....-.
0010  4c 30 40 5b 00 00 00 00 f5 bb 00 00 8d ff ff ff   L0@[............
0020  02 00 00 00 02 00 00 00 00 00 00 00 00 00 00 00   ................
0030  00 00 00 00 00 00 00 00 00 00 00 00 00 00 00 00   ................
0040  1b 05                                             ..

Frame 5: 66 bytes on wire (528 bits), 66 bytes captured (528 bits) on interface 0
    Interface id: 0 (unknown)
        Interface name: unknown
    Encapsulation type: USB packets with Linux header and padding (115)
    Arrival Time: Jul  6, 2018 23:15:24.159239000 EDT
    [Time shift for this packet: 0.000000000 seconds]
    Epoch Time: 1530933324.159239000 seconds
    [Time delta from previous captured frame: 0.111122000 seconds]
    [Time delta from previous displayed frame: 0.111122000 seconds]
    [Time since reference or first frame: 0.964527000 seconds]
    Frame Number: 5
    Frame Length: 66 bytes (528 bits)
    Capture Length: 66 bytes (528 bits)
    [Frame is marked: False]
    [Frame is ignored: False]
    [Protocols in frame: usb]
USB URB
    [Source: 3.3.2]
    [Destination: host]
    URB id: 0xffff89fbc3025180
    URB type: URB_COMPLETE ('C')
    URB transfer type: URB_BULK (0x03)
    Endpoint: 0x82, Direction: IN
        1... .... = Direction: IN (1)
        .... 0010 = Endpoint number: 2
    Device: 3
    URB bus id: 3
    Device setup request: not relevant ('-')
    Data: present (0)
    URB sec: 1530933324
    URB usec: 159239
    URB status: Remote I/O error (-EREMOTEIO) (-121)
    URB length [bytes]: 2
    Data length [bytes]: 2
    [bInterfaceClass: Unknown (0xffff)]
    Unused Setup Header
    Interval: 0
    Start frame: 0
    Copy of Transfer Flags: 0x00000201
    Number of ISO descriptors: 0
Leftover Capture Data: 3003

0000  80 51 02 c3 fb 89 ff ff 43 03 82 03 03 00 2d 00   .Q......C.....-.
0010  4c 30 40 5b 00 00 00 00 07 6e 02 00 87 ff ff ff   L0@[.....n......
0020  02 00 00 00 02 00 00 00 00 00 00 00 00 00 00 00   ................
0030  00 00 00 00 00 00 00 00 01 02 00 00 00 00 00 00   ................
0040  30 03                                             0.

Frame 6: 66 bytes on wire (528 bits), 66 bytes captured (528 bits) on interface 0
    Interface id: 0 (unknown)
        Interface name: unknown
    Encapsulation type: USB packets with Linux header and padding (115)
    Arrival Time: Jul  6, 2018 23:15:24.559472000 EDT
    [Time shift for this packet: 0.000000000 seconds]
    Epoch Time: 1530933324.559472000 seconds
    [Time delta from previous captured frame: 0.400233000 seconds]
    [Time delta from previous displayed frame: 0.400233000 seconds]
    [Time since reference or first frame: 1.364760000 seconds]
    Frame Number: 6
    Frame Length: 66 bytes (528 bits)
    Capture Length: 66 bytes (528 bits)
    [Frame is marked: False]
    [Frame is ignored: False]
    [Protocols in frame: usb]
USB URB
    [Source: host]
    [Destination: 3.3.1]
    URB id: 0xffff89fc925590c0
    URB type: URB_SUBMIT ('S')
    URB transfer type: URB_BULK (0x03)
    Endpoint: 0x01, Direction: OUT
        0... .... = Direction: OUT (0)
        .... 0001 = Endpoint number: 1
    Device: 3
    URB bus id: 3
    Device setup request: not relevant ('-')
    Data: present (0)
    URB sec: 1530933324
    URB usec: 559472
    URB status: Operation now in progress (-EINPROGRESS) (-115)
    URB length [bytes]: 2
    Data length [bytes]: 2
    [bInterfaceClass: Unknown (0xffff)]
    Unused Setup Header
    Interval: 0
    Start frame: 0
    Copy of Transfer Flags: 0x00000000
    Number of ISO descriptors: 0
Leftover Capture Data: 1b05

0000  c0 90 55 92 fc 89 ff ff 53 03 01 03 03 00 2d 00   ..U.....S.....-.
0010  4c 30 40 5b 00 00 00 00 70 89 08 00 8d ff ff ff   L0@[....p.......
0020  02 00 00 00 02 00 00 00 00 00 00 00 00 00 00 00   ................
0030  00 00 00 00 00 00 00 00 00 00 00 00 00 00 00 00   ................
0040  1b 05                                             ..

Frame 7: 66 bytes on wire (528 bits), 66 bytes captured (528 bits) on interface 0
    Interface id: 0 (unknown)
        Interface name: unknown
    Encapsulation type: USB packets with Linux header and padding (115)
    Arrival Time: Jul  6, 2018 23:15:24.651292000 EDT
    [Time shift for this packet: 0.000000000 seconds]
    Epoch Time: 1530933324.651292000 seconds
    [Time delta from previous captured frame: 0.091820000 seconds]
    [Time delta from previous displayed frame: 0.091820000 seconds]
    [Time since reference or first frame: 1.456580000 seconds]
    Frame Number: 7
    Frame Length: 66 bytes (528 bits)
    Capture Length: 66 bytes (528 bits)
    [Frame is marked: False]
    [Frame is ignored: False]
    [Protocols in frame: usb]
USB URB
    [Source: 3.3.2]
    [Destination: host]
    URB id: 0xffff89fbc3025180
    URB type: URB_COMPLETE ('C')
    URB transfer type: URB_BULK (0x03)
    Endpoint: 0x82, Direction: IN
        1... .... = Direction: IN (1)
        .... 0010 = Endpoint number: 2
    Device: 3
    URB bus id: 3
    Device setup request: not relevant ('-')
    Data: present (0)
    URB sec: 1530933324
    URB usec: 651292
    URB status: Remote I/O error (-EREMOTEIO) (-121)
    URB length [bytes]: 2
    Data length [bytes]: 2
    [bInterfaceClass: Unknown (0xffff)]
    Unused Setup Header
    Interval: 0
    Start frame: 0
    Copy of Transfer Flags: 0x00000201
    Number of ISO descriptors: 0
Leftover Capture Data: 3003

0000  80 51 02 c3 fb 89 ff ff 43 03 82 03 03 00 2d 00   .Q......C.....-.
0010  4c 30 40 5b 00 00 00 00 1c f0 09 00 87 ff ff ff   L0@[............
0020  02 00 00 00 02 00 00 00 00 00 00 00 00 00 00 00   ................
0030  00 00 00 00 00 00 00 00 01 02 00 00 00 00 00 00   ................
0040  30 03                                             0.

Frame 8: 66 bytes on wire (528 bits), 66 bytes captured (528 bits) on interface 0
    Interface id: 0 (unknown)
        Interface name: unknown
    Encapsulation type: USB packets with Linux header and padding (115)
    Arrival Time: Jul  6, 2018 23:15:25.071304000 EDT
    [Time shift for this packet: 0.000000000 seconds]
    Epoch Time: 1530933325.071304000 seconds
    [Time delta from previous captured frame: 0.420012000 seconds]
    [Time delta from previous displayed frame: 0.420012000 seconds]
    [Time since reference or first frame: 1.876592000 seconds]
    Frame Number: 8
    Frame Length: 66 bytes (528 bits)
    Capture Length: 66 bytes (528 bits)
    [Frame is marked: False]
    [Frame is ignored: False]
    [Protocols in frame: usb]
USB URB
    [Source: host]
    [Destination: 3.3.1]
    URB id: 0xffff89fc92559900
    URB type: URB_SUBMIT ('S')
    URB transfer type: URB_BULK (0x03)
    Endpoint: 0x01, Direction: OUT
        0... .... = Direction: OUT (0)
        .... 0001 = Endpoint number: 1
    Device: 3
    URB bus id: 3
    Device setup request: not relevant ('-')
    Data: present (0)
    URB sec: 1530933325
    URB usec: 71304
    URB status: Operation now in progress (-EINPROGRESS) (-115)
    URB length [bytes]: 2
    Data length [bytes]: 2
    [bInterfaceClass: Unknown (0xffff)]
    Unused Setup Header
    Interval: 0
    Start frame: 0
    Copy of Transfer Flags: 0x00000000
    Number of ISO descriptors: 0
Leftover Capture Data: 1b05

0000  00 99 55 92 fc 89 ff ff 53 03 01 03 03 00 2d 00   ..U.....S.....-.
0010  4d 30 40 5b 00 00 00 00 88 16 01 00 8d ff ff ff   M0@[............
0020  02 00 00 00 02 00 00 00 00 00 00 00 00 00 00 00   ................
0030  00 00 00 00 00 00 00 00 00 00 00 00 00 00 00 00   ................
0040  1b 05                                             ..

Frame 9: 66 bytes on wire (528 bits), 66 bytes captured (528 bits) on interface 0
    Interface id: 0 (unknown)
        Interface name: unknown
    Encapsulation type: USB packets with Linux header and padding (115)
    Arrival Time: Jul  6, 2018 23:15:25.225227000 EDT
    [Time shift for this packet: 0.000000000 seconds]
    Epoch Time: 1530933325.225227000 seconds
    [Time delta from previous captured frame: 0.153923000 seconds]
    [Time delta from previous displayed frame: 0.153923000 seconds]
    [Time since reference or first frame: 2.030515000 seconds]
    Frame Number: 9
    Frame Length: 66 bytes (528 bits)
    Capture Length: 66 bytes (528 bits)
    [Frame is marked: False]
    [Frame is ignored: False]
    [Protocols in frame: usb]
USB URB
    [Source: 3.3.2]
    [Destination: host]
    URB id: 0xffff89fc925590c0
    URB type: URB_COMPLETE ('C')
    URB transfer type: URB_BULK (0x03)
    Endpoint: 0x82, Direction: IN
        1... .... = Direction: IN (1)
        .... 0010 = Endpoint number: 2
    Device: 3
    URB bus id: 3
    Device setup request: not relevant ('-')
    Data: present (0)
    URB sec: 1530933325
    URB usec: 225227
    URB status: Remote I/O error (-EREMOTEIO) (-121)
    URB length [bytes]: 2
    Data length [bytes]: 2
    [bInterfaceClass: Unknown (0xffff)]
    Unused Setup Header
    Interval: 0
    Start frame: 0
    Copy of Transfer Flags: 0x00000201
    Number of ISO descriptors: 0
Leftover Capture Data: 3003

0000  c0 90 55 92 fc 89 ff ff 43 03 82 03 03 00 2d 00   ..U.....C.....-.
0010  4d 30 40 5b 00 00 00 00 cb 6f 03 00 87 ff ff ff   M0@[.....o......
0020  02 00 00 00 02 00 00 00 00 00 00 00 00 00 00 00   ................
0030  00 00 00 00 00 00 00 00 01 02 00 00 00 00 00 00   ................
0040  30 03                                             0.

Frame 10: 66 bytes on wire (528 bits), 66 bytes captured (528 bits) on interface 0
    Interface id: 0 (unknown)
        Interface name: unknown
    Encapsulation type: USB packets with Linux header and padding (115)
    Arrival Time: Jul  6, 2018 23:15:25.562703000 EDT
    [Time shift for this packet: 0.000000000 seconds]
    Epoch Time: 1530933325.562703000 seconds
    [Time delta from previous captured frame: 0.337476000 seconds]
    [Time delta from previous displayed frame: 0.337476000 seconds]
    [Time since reference or first frame: 2.367991000 seconds]
    Frame Number: 10
    Frame Length: 66 bytes (528 bits)
    Capture Length: 66 bytes (528 bits)
    [Frame is marked: False]
    [Frame is ignored: False]
    [Protocols in frame: usb]
USB URB
    [Source: host]
    [Destination: 3.3.1]
    URB id: 0xffff89fc925590c0
    URB type: URB_SUBMIT ('S')
    URB transfer type: URB_BULK (0x03)
    Endpoint: 0x01, Direction: OUT
        0... .... = Direction: OUT (0)
        .... 0001 = Endpoint number: 1
    Device: 3
    URB bus id: 3
    Device setup request: not relevant ('-')
    Data: present (0)
    URB sec: 1530933325
    URB usec: 562703
    URB status: Operation now in progress (-EINPROGRESS) (-115)
    URB length [bytes]: 2
    Data length [bytes]: 2
    [bInterfaceClass: Unknown (0xffff)]
    Unused Setup Header
    Interval: 0
    Start frame: 0
    Copy of Transfer Flags: 0x00000000
    Number of ISO descriptors: 0
Leftover Capture Data: 1b05

0000  c0 90 55 92 fc 89 ff ff 53 03 01 03 03 00 2d 00   ..U.....S.....-.
0010  4d 30 40 5b 00 00 00 00 0f 96 08 00 8d ff ff ff   M0@[............
0020  02 00 00 00 02 00 00 00 00 00 00 00 00 00 00 00   ................
0030  00 00 00 00 00 00 00 00 00 00 00 00 00 00 00 00   ................
0040  1b 05                                             ..

Frame 11: 66 bytes on wire (528 bits), 66 bytes captured (528 bits) on interface 0
    Interface id: 0 (unknown)
        Interface name: unknown
    Encapsulation type: USB packets with Linux header and padding (115)
    Arrival Time: Jul  6, 2018 23:15:25.717180000 EDT
    [Time shift for this packet: 0.000000000 seconds]
    Epoch Time: 1530933325.717180000 seconds
    [Time delta from previous captured frame: 0.154477000 seconds]
    [Time delta from previous displayed frame: 0.154477000 seconds]
    [Time since reference or first frame: 2.522468000 seconds]
    Frame Number: 11
    Frame Length: 66 bytes (528 bits)
    Capture Length: 66 bytes (528 bits)
    [Frame is marked: False]
    [Frame is ignored: False]
    [Protocols in frame: usb]
USB URB
    [Source: 3.3.2]
    [Destination: host]
    URB id: 0xffff89fc83700480
    URB type: URB_COMPLETE ('C')
    URB transfer type: URB_BULK (0x03)
    Endpoint: 0x82, Direction: IN
        1... .... = Direction: IN (1)
        .... 0010 = Endpoint number: 2
    Device: 3
    URB bus id: 3
    Device setup request: not relevant ('-')
    Data: present (0)
    URB sec: 1530933325
    URB usec: 717180
    URB status: Remote I/O error (-EREMOTEIO) (-121)
    URB length [bytes]: 2
    Data length [bytes]: 2
    [bInterfaceClass: Unknown (0xffff)]
    Unused Setup Header
    Interval: 0
    Start frame: 0
    Copy of Transfer Flags: 0x00000201
    Number of ISO descriptors: 0
Leftover Capture Data: 3003

0000  80 04 70 83 fc 89 ff ff 43 03 82 03 03 00 2d 00   ..p.....C.....-.
0010  4d 30 40 5b 00 00 00 00 7c f1 0a 00 87 ff ff ff   M0@[....|.......
0020  02 00 00 00 02 00 00 00 00 00 00 00 00 00 00 00   ................
0030  00 00 00 00 00 00 00 00 01 02 00 00 00 00 00 00   ................
0040  30 03                                             0.

Frame 12: 66 bytes on wire (528 bits), 66 bytes captured (528 bits) on interface 0
    Interface id: 0 (unknown)
        Interface name: unknown
    Encapsulation type: USB packets with Linux header and padding (115)
    Arrival Time: Jul  6, 2018 23:15:26.333503000 EDT
    [Time shift for this packet: 0.000000000 seconds]
    Epoch Time: 1530933326.333503000 seconds
    [Time delta from previous captured frame: 0.616323000 seconds]
    [Time delta from previous displayed frame: 0.616323000 seconds]
    [Time since reference or first frame: 3.138791000 seconds]
    Frame Number: 12
    Frame Length: 66 bytes (528 bits)
    Capture Length: 66 bytes (528 bits)
    [Frame is marked: False]
    [Frame is ignored: False]
    [Protocols in frame: usb]
USB URB
    [Source: host]
    [Destination: 3.3.1]
    URB id: 0xffff89fbc3025f00
    URB type: URB_SUBMIT ('S')
    URB transfer type: URB_BULK (0x03)
    Endpoint: 0x01, Direction: OUT
        0... .... = Direction: OUT (0)
        .... 0001 = Endpoint number: 1
    Device: 3
    URB bus id: 3
    Device setup request: not relevant ('-')
    Data: present (0)
    URB sec: 1530933326
    URB usec: 333503
    URB status: Operation now in progress (-EINPROGRESS) (-115)
    URB length [bytes]: 2
    Data length [bytes]: 2
    [bInterfaceClass: Unknown (0xffff)]
    Unused Setup Header
    Interval: 0
    Start frame: 0
    Copy of Transfer Flags: 0x00000000
    Number of ISO descriptors: 0
Leftover Capture Data: 1b05

0000  00 5f 02 c3 fb 89 ff ff 53 03 01 03 03 00 2d 00   ._......S.....-.
0010  4e 30 40 5b 00 00 00 00 bf 16 05 00 8d ff ff ff   N0@[............
0020  02 00 00 00 02 00 00 00 00 00 00 00 00 00 00 00   ................
0030  00 00 00 00 00 00 00 00 00 00 00 00 00 00 00 00   ................
0040  1b 05                                             ..

Frame 13: 66 bytes on wire (528 bits), 66 bytes captured (528 bits) on interface 0
    Interface id: 0 (unknown)
        Interface name: unknown
    Encapsulation type: USB packets with Linux header and padding (115)
    Arrival Time: Jul  6, 2018 23:15:26.455178000 EDT
    [Time shift for this packet: 0.000000000 seconds]
    Epoch Time: 1530933326.455178000 seconds
    [Time delta from previous captured frame: 0.121675000 seconds]
    [Time delta from previous displayed frame: 0.121675000 seconds]
    [Time since reference or first frame: 3.260466000 seconds]
    Frame Number: 13
    Frame Length: 66 bytes (528 bits)
    Capture Length: 66 bytes (528 bits)
    [Frame is marked: False]
    [Frame is ignored: False]
    [Protocols in frame: usb]
USB URB
    [Source: 3.3.2]
    [Destination: host]
    URB id: 0xffff89fc925590c0
    URB type: URB_COMPLETE ('C')
    URB transfer type: URB_BULK (0x03)
    Endpoint: 0x82, Direction: IN
        1... .... = Direction: IN (1)
        .... 0010 = Endpoint number: 2
    Device: 3
    URB bus id: 3
    Device setup request: not relevant ('-')
    Data: present (0)
    URB sec: 1530933326
    URB usec: 455178
    URB status: Remote I/O error (-EREMOTEIO) (-121)
    URB length [bytes]: 2
    Data length [bytes]: 2
    [bInterfaceClass: Unknown (0xffff)]
    Unused Setup Header
    Interval: 0
    Start frame: 0
    Copy of Transfer Flags: 0x00000201
    Number of ISO descriptors: 0
Leftover Capture Data: 3003

0000  c0 90 55 92 fc 89 ff ff 43 03 82 03 03 00 2d 00   ..U.....C.....-.
0010  4e 30 40 5b 00 00 00 00 0a f2 06 00 87 ff ff ff   N0@[............
0020  02 00 00 00 02 00 00 00 00 00 00 00 00 00 00 00   ................
0030  00 00 00 00 00 00 00 00 01 02 00 00 00 00 00 00   ................
0040  30 03                                             0.

Frame 14: 66 bytes on wire (528 bits), 66 bytes captured (528 bits) on interface 0
    Interface id: 0 (unknown)
        Interface name: unknown
    Encapsulation type: USB packets with Linux header and padding (115)
    Arrival Time: Jul  6, 2018 23:15:26.843887000 EDT
    [Time shift for this packet: 0.000000000 seconds]
    Epoch Time: 1530933326.843887000 seconds
    [Time delta from previous captured frame: 0.388709000 seconds]
    [Time delta from previous displayed frame: 0.388709000 seconds]
    [Time since reference or first frame: 3.649175000 seconds]
    Frame Number: 14
    Frame Length: 66 bytes (528 bits)
    Capture Length: 66 bytes (528 bits)
    [Frame is marked: False]
    [Frame is ignored: False]
    [Protocols in frame: usb]
USB URB
    [Source: host]
    [Destination: 3.3.1]
    URB id: 0xffff89fc925590c0
    URB type: URB_SUBMIT ('S')
    URB transfer type: URB_BULK (0x03)
    Endpoint: 0x01, Direction: OUT
        0... .... = Direction: OUT (0)
        .... 0001 = Endpoint number: 1
    Device: 3
    URB bus id: 3
    Device setup request: not relevant ('-')
    Data: present (0)
    URB sec: 1530933326
    URB usec: 843887
    URB status: Operation now in progress (-EINPROGRESS) (-115)
    URB length [bytes]: 2
    Data length [bytes]: 2
    [bInterfaceClass: Unknown (0xffff)]
    Unused Setup Header
    Interval: 0
    Start frame: 0
    Copy of Transfer Flags: 0x00000000
    Number of ISO descriptors: 0
Leftover Capture Data: 1b05

0000  c0 90 55 92 fc 89 ff ff 53 03 01 03 03 00 2d 00   ..U.....S.....-.
0010  4e 30 40 5b 00 00 00 00 6f e0 0c 00 8d ff ff ff   N0@[....o.......
0020  02 00 00 00 02 00 00 00 00 00 00 00 00 00 00 00   ................
0030  00 00 00 00 00 00 00 00 00 00 00 00 00 00 00 00   ................
0040  1b 05                                             ..

Frame 15: 66 bytes on wire (528 bits), 66 bytes captured (528 bits) on interface 0
    Interface id: 0 (unknown)
        Interface name: unknown
    Encapsulation type: USB packets with Linux header and padding (115)
    Arrival Time: Jul  6, 2018 23:15:26.947177000 EDT
    [Time shift for this packet: 0.000000000 seconds]
    Epoch Time: 1530933326.947177000 seconds
    [Time delta from previous captured frame: 0.103290000 seconds]
    [Time delta from previous displayed frame: 0.103290000 seconds]
    [Time since reference or first frame: 3.752465000 seconds]
    Frame Number: 15
    Frame Length: 66 bytes (528 bits)
    Capture Length: 66 bytes (528 bits)
    [Frame is marked: False]
    [Frame is ignored: False]
    [Protocols in frame: usb]
USB URB
    [Source: 3.3.2]
    [Destination: host]
    URB id: 0xffff89fc92559900
    URB type: URB_COMPLETE ('C')
    URB transfer type: URB_BULK (0x03)
    Endpoint: 0x82, Direction: IN
        1... .... = Direction: IN (1)
        .... 0010 = Endpoint number: 2
    Device: 3
    URB bus id: 3
    Device setup request: not relevant ('-')
    Data: present (0)
    URB sec: 1530933326
    URB usec: 947177
    URB status: Remote I/O error (-EREMOTEIO) (-121)
    URB length [bytes]: 2
    Data length [bytes]: 2
    [bInterfaceClass: Unknown (0xffff)]
    Unused Setup Header
    Interval: 0
    Start frame: 0
    Copy of Transfer Flags: 0x00000201
    Number of ISO descriptors: 0
Leftover Capture Data: 3003

0000  00 99 55 92 fc 89 ff ff 43 03 82 03 03 00 2d 00   ..U.....C.....-.
0010  4e 30 40 5b 00 00 00 00 e9 73 0e 00 87 ff ff ff   N0@[.....s......
0020  02 00 00 00 02 00 00 00 00 00 00 00 00 00 00 00   ................
0030  00 00 00 00 00 00 00 00 01 02 00 00 00 00 00 00   ................
0040  30 03                                             0.

Frame 16: 66 bytes on wire (528 bits), 66 bytes captured (528 bits) on interface 0
    Interface id: 0 (unknown)
        Interface name: unknown
    Encapsulation type: USB packets with Linux header and padding (115)
    Arrival Time: Jul  6, 2018 23:15:27.394610000 EDT
    [Time shift for this packet: 0.000000000 seconds]
    Epoch Time: 1530933327.394610000 seconds
    [Time delta from previous captured frame: 0.447433000 seconds]
    [Time delta from previous displayed frame: 0.447433000 seconds]
    [Time since reference or first frame: 4.199898000 seconds]
    Frame Number: 16
    Frame Length: 66 bytes (528 bits)
    Capture Length: 66 bytes (528 bits)
    [Frame is marked: False]
    [Frame is ignored: False]
    [Protocols in frame: usb]
USB URB
    [Source: host]
    [Destination: 3.3.1]
    URB id: 0xffff89fc837006c0
    URB type: URB_SUBMIT ('S')
    URB transfer type: URB_BULK (0x03)
    Endpoint: 0x01, Direction: OUT
        0... .... = Direction: OUT (0)
        .... 0001 = Endpoint number: 1
    Device: 3
    URB bus id: 3
    Device setup request: not relevant ('-')
    Data: present (0)
    URB sec: 1530933327
    URB usec: 394610
    URB status: Operation now in progress (-EINPROGRESS) (-115)
    URB length [bytes]: 2
    Data length [bytes]: 2
    [bInterfaceClass: Unknown (0xffff)]
    Unused Setup Header
    Interval: 0
    Start frame: 0
    Copy of Transfer Flags: 0x00000000
    Number of ISO descriptors: 0
Leftover Capture Data: 1b05

0000  c0 06 70 83 fc 89 ff ff 53 03 01 03 03 00 2d 00   ..p.....S.....-.
0010  4f 30 40 5b 00 00 00 00 72 05 06 00 8d ff ff ff   O0@[....r.......
0020  02 00 00 00 02 00 00 00 00 00 00 00 00 00 00 00   ................
0030  00 00 00 00 00 00 00 00 00 00 00 00 00 00 00 00   ................
0040  1b 05                                             ..

Frame 17: 66 bytes on wire (528 bits), 66 bytes captured (528 bits) on interface 0
    Interface id: 0 (unknown)
        Interface name: unknown
    Encapsulation type: USB packets with Linux header and padding (115)
    Arrival Time: Jul  6, 2018 23:15:27.521183000 EDT
    [Time shift for this packet: 0.000000000 seconds]
    Epoch Time: 1530933327.521183000 seconds
    [Time delta from previous captured frame: 0.126573000 seconds]
    [Time delta from previous displayed frame: 0.126573000 seconds]
    [Time since reference or first frame: 4.326471000 seconds]
    Frame Number: 17
    Frame Length: 66 bytes (528 bits)
    Capture Length: 66 bytes (528 bits)
    [Frame is marked: False]
    [Frame is ignored: False]
    [Protocols in frame: usb]
USB URB
    [Source: 3.3.2]
    [Destination: host]
    URB id: 0xffff89fc83700600
    URB type: URB_COMPLETE ('C')
    URB transfer type: URB_BULK (0x03)
    Endpoint: 0x82, Direction: IN
        1... .... = Direction: IN (1)
        .... 0010 = Endpoint number: 2
    Device: 3
    URB bus id: 3
    Device setup request: not relevant ('-')
    Data: present (0)
    URB sec: 1530933327
    URB usec: 521183
    URB status: Remote I/O error (-EREMOTEIO) (-121)
    URB length [bytes]: 2
    Data length [bytes]: 2
    [bInterfaceClass: Unknown (0xffff)]
    Unused Setup Header
    Interval: 0
    Start frame: 0
    Copy of Transfer Flags: 0x00000201
    Number of ISO descriptors: 0
Leftover Capture Data: 3003

0000  00 06 70 83 fc 89 ff ff 43 03 82 03 03 00 2d 00   ..p.....C.....-.
0010  4f 30 40 5b 00 00 00 00 df f3 07 00 87 ff ff ff   O0@[............
0020  02 00 00 00 02 00 00 00 00 00 00 00 00 00 00 00   ................
0030  00 00 00 00 00 00 00 00 01 02 00 00 00 00 00 00   ................
0040  30 03                                             0.

Frame 18: 66 bytes on wire (528 bits), 66 bytes captured (528 bits) on interface 0
    Interface id: 0 (unknown)
        Interface name: unknown
    Encapsulation type: USB packets with Linux header and padding (115)
    Arrival Time: Jul  6, 2018 23:15:27.726634000 EDT
    [Time shift for this packet: 0.000000000 seconds]
    Epoch Time: 1530933327.726634000 seconds
    [Time delta from previous captured frame: 0.205451000 seconds]
    [Time delta from previous displayed frame: 0.205451000 seconds]
    [Time since reference or first frame: 4.531922000 seconds]
    Frame Number: 18
    Frame Length: 66 bytes (528 bits)
    Capture Length: 66 bytes (528 bits)
    [Frame is marked: False]
    [Frame is ignored: False]
    [Protocols in frame: usb]
USB URB
    [Source: host]
    [Destination: 3.3.1]
    URB id: 0xffff89fbc3025f00
    URB type: URB_SUBMIT ('S')
    URB transfer type: URB_BULK (0x03)
    Endpoint: 0x01, Direction: OUT
        0... .... = Direction: OUT (0)
        .... 0001 = Endpoint number: 1
    Device: 3
    URB bus id: 3
    Device setup request: not relevant ('-')
    Data: present (0)
    URB sec: 1530933327
    URB usec: 726634
    URB status: Operation now in progress (-EINPROGRESS) (-115)
    URB length [bytes]: 2
    Data length [bytes]: 2
    [bInterfaceClass: Unknown (0xffff)]
    Unused Setup Header
    Interval: 0
    Start frame: 0
    Copy of Transfer Flags: 0x00000000
    Number of ISO descriptors: 0
Leftover Capture Data: 1b05

0000  00 5f 02 c3 fb 89 ff ff 53 03 01 03 03 00 2d 00   ._......S.....-.
0010  4f 30 40 5b 00 00 00 00 6a 16 0b 00 8d ff ff ff   O0@[....j.......
0020  02 00 00 00 02 00 00 00 00 00 00 00 00 00 00 00   ................
0030  00 00 00 00 00 00 00 00 00 00 00 00 00 00 00 00   ................
0040  1b 05                                             ..

Frame 19: 66 bytes on wire (528 bits), 66 bytes captured (528 bits) on interface 0
    Interface id: 0 (unknown)
        Interface name: unknown
    Encapsulation type: USB packets with Linux header and padding (115)
    Arrival Time: Jul  6, 2018 23:15:27.849169000 EDT
    [Time shift for this packet: 0.000000000 seconds]
    Epoch Time: 1530933327.849169000 seconds
    [Time delta from previous captured frame: 0.122535000 seconds]
    [Time delta from previous displayed frame: 0.122535000 seconds]
    [Time since reference or first frame: 4.654457000 seconds]
    Frame Number: 19
    Frame Length: 66 bytes (528 bits)
    Capture Length: 66 bytes (528 bits)
    [Frame is marked: False]
    [Frame is ignored: False]
    [Protocols in frame: usb]
USB URB
    [Source: 3.3.2]
    [Destination: host]
    URB id: 0xffff89fc92559900
    URB type: URB_COMPLETE ('C')
    URB transfer type: URB_BULK (0x03)
    Endpoint: 0x82, Direction: IN
        1... .... = Direction: IN (1)
        .... 0010 = Endpoint number: 2
    Device: 3
    URB bus id: 3
    Device setup request: not relevant ('-')
    Data: present (0)
    URB sec: 1530933327
    URB usec: 849169
    URB status: Remote I/O error (-EREMOTEIO) (-121)
    URB length [bytes]: 2
    Data length [bytes]: 2
    [bInterfaceClass: Unknown (0xffff)]
    Unused Setup Header
    Interval: 0
    Start frame: 0
    Copy of Transfer Flags: 0x00000201
    Number of ISO descriptors: 0
Leftover Capture Data: 3003

0000  00 99 55 92 fc 89 ff ff 43 03 82 03 03 00 2d 00   ..U.....C.....-.
0010  4f 30 40 5b 00 00 00 00 11 f5 0c 00 87 ff ff ff   O0@[............
0020  02 00 00 00 02 00 00 00 00 00 00 00 00 00 00 00   ................
0030  00 00 00 00 00 00 00 00 01 02 00 00 00 00 00 00   ................
0040  30 03                                             0.

Frame 20: 66 bytes on wire (528 bits), 66 bytes captured (528 bits) on interface 0
    Interface id: 0 (unknown)
        Interface name: unknown
    Encapsulation type: USB packets with Linux header and padding (115)
    Arrival Time: Jul  6, 2018 23:15:28.236195000 EDT
    [Time shift for this packet: 0.000000000 seconds]
    Epoch Time: 1530933328.236195000 seconds
    [Time delta from previous captured frame: 0.387026000 seconds]
    [Time delta from previous displayed frame: 0.387026000 seconds]
    [Time since reference or first frame: 5.041483000 seconds]
    Frame Number: 20
    Frame Length: 66 bytes (528 bits)
    Capture Length: 66 bytes (528 bits)
    [Frame is marked: False]
    [Frame is ignored: False]
    [Protocols in frame: usb]
USB URB
    [Source: host]
    [Destination: 3.3.1]
    URB id: 0xffff89fc83700600
    URB type: URB_SUBMIT ('S')
    URB transfer type: URB_BULK (0x03)
    Endpoint: 0x01, Direction: OUT
        0... .... = Direction: OUT (0)
        .... 0001 = Endpoint number: 1
    Device: 3
    URB bus id: 3
    Device setup request: not relevant ('-')
    Data: present (0)
    URB sec: 1530933328
    URB usec: 236195
    URB status: Operation now in progress (-EINPROGRESS) (-115)
    URB length [bytes]: 2
    Data length [bytes]: 2
    [bInterfaceClass: Unknown (0xffff)]
    Unused Setup Header
    Interval: 0
    Start frame: 0
    Copy of Transfer Flags: 0x00000000
    Number of ISO descriptors: 0
Leftover Capture Data: 1b05

0000  00 06 70 83 fc 89 ff ff 53 03 01 03 03 00 2d 00   ..p.....S.....-.
0010  50 30 40 5b 00 00 00 00 a3 9a 03 00 8d ff ff ff   P0@[............
0020  02 00 00 00 02 00 00 00 00 00 00 00 00 00 00 00   ................
0030  00 00 00 00 00 00 00 00 00 00 00 00 00 00 00 00   ................
0040  1b 05                                             ..

Frame 21: 66 bytes on wire (528 bits), 66 bytes captured (528 bits) on interface 0
    Interface id: 0 (unknown)
        Interface name: unknown
    Encapsulation type: USB packets with Linux header and padding (115)
    Arrival Time: Jul  6, 2018 23:15:28.341179000 EDT
    [Time shift for this packet: 0.000000000 seconds]
    Epoch Time: 1530933328.341179000 seconds
    [Time delta from previous captured frame: 0.104984000 seconds]
    [Time delta from previous displayed frame: 0.104984000 seconds]
    [Time since reference or first frame: 5.146467000 seconds]
    Frame Number: 21
    Frame Length: 66 bytes (528 bits)
    Capture Length: 66 bytes (528 bits)
    [Frame is marked: False]
    [Frame is ignored: False]
    [Protocols in frame: usb]
USB URB
    [Source: 3.3.2]
    [Destination: host]
    URB id: 0xffff89fccc7b49c0
    URB type: URB_COMPLETE ('C')
    URB transfer type: URB_BULK (0x03)
    Endpoint: 0x82, Direction: IN
        1... .... = Direction: IN (1)
        .... 0010 = Endpoint number: 2
    Device: 3
    URB bus id: 3
    Device setup request: not relevant ('-')
    Data: present (0)
    URB sec: 1530933328
    URB usec: 341179
    URB status: Remote I/O error (-EREMOTEIO) (-121)
    URB length [bytes]: 2
    Data length [bytes]: 2
    [bInterfaceClass: Unknown (0xffff)]
    Unused Setup Header
    Interval: 0
    Start frame: 0
    Copy of Transfer Flags: 0x00000201
    Number of ISO descriptors: 0
Leftover Capture Data: 3003

0000  c0 49 7b cc fc 89 ff ff 43 03 82 03 03 00 2d 00   .I{.....C.....-.
0010  50 30 40 5b 00 00 00 00 bb 34 05 00 87 ff ff ff   P0@[.....4......
0020  02 00 00 00 02 00 00 00 00 00 00 00 00 00 00 00   ................
0030  00 00 00 00 00 00 00 00 01 02 00 00 00 00 00 00   ................
0040  30 03                                             0.

Frame 22: 66 bytes on wire (528 bits), 66 bytes captured (528 bits) on interface 0
    Interface id: 0 (unknown)
        Interface name: unknown
    Encapsulation type: USB packets with Linux header and padding (115)
    Arrival Time: Jul  6, 2018 23:15:28.746556000 EDT
    [Time shift for this packet: 0.000000000 seconds]
    Epoch Time: 1530933328.746556000 seconds
    [Time delta from previous captured frame: 0.405377000 seconds]
    [Time delta from previous displayed frame: 0.405377000 seconds]
    [Time since reference or first frame: 5.551844000 seconds]
    Frame Number: 22
    Frame Length: 66 bytes (528 bits)
    Capture Length: 66 bytes (528 bits)
    [Frame is marked: False]
    [Frame is ignored: False]
    [Protocols in frame: usb]
USB URB
    [Source: host]
    [Destination: 3.3.1]
    URB id: 0xffff89fccc7b4180
    URB type: URB_SUBMIT ('S')
    URB transfer type: URB_BULK (0x03)
    Endpoint: 0x01, Direction: OUT
        0... .... = Direction: OUT (0)
        .... 0001 = Endpoint number: 1
    Device: 3
    URB bus id: 3
    Device setup request: not relevant ('-')
    Data: present (0)
    URB sec: 1530933328
    URB usec: 746556
    URB status: Operation now in progress (-EINPROGRESS) (-115)
    URB length [bytes]: 2
    Data length [bytes]: 2
    [bInterfaceClass: Unknown (0xffff)]
    Unused Setup Header
    Interval: 0
    Start frame: 0
    Copy of Transfer Flags: 0x00000000
    Number of ISO descriptors: 0
Leftover Capture Data: 1b05

0000  80 41 7b cc fc 89 ff ff 53 03 01 03 03 00 2d 00   .A{.....S.....-.
0010  50 30 40 5b 00 00 00 00 3c 64 0b 00 8d ff ff ff   P0@[....<d......
0020  02 00 00 00 02 00 00 00 00 00 00 00 00 00 00 00   ................
0030  00 00 00 00 00 00 00 00 00 00 00 00 00 00 00 00   ................
0040  1b 05                                             ..

Frame 23: 66 bytes on wire (528 bits), 66 bytes captured (528 bits) on interface 0
    Interface id: 0 (unknown)
        Interface name: unknown
    Encapsulation type: USB packets with Linux header and padding (115)
    Arrival Time: Jul  6, 2018 23:15:28.833195000 EDT
    [Time shift for this packet: 0.000000000 seconds]
    Epoch Time: 1530933328.833195000 seconds
    [Time delta from previous captured frame: 0.086639000 seconds]
    [Time delta from previous displayed frame: 0.086639000 seconds]
    [Time since reference or first frame: 5.638483000 seconds]
    Frame Number: 23
    Frame Length: 66 bytes (528 bits)
    Capture Length: 66 bytes (528 bits)
    [Frame is marked: False]
    [Frame is ignored: False]
    [Protocols in frame: usb]
USB URB
    [Source: 3.3.2]
    [Destination: host]
    URB id: 0xffff89fbc3025600
    URB type: URB_COMPLETE ('C')
    URB transfer type: URB_BULK (0x03)
    Endpoint: 0x82, Direction: IN
        1... .... = Direction: IN (1)
        .... 0010 = Endpoint number: 2
    Device: 3
    URB bus id: 3
    Device setup request: not relevant ('-')
    Data: present (0)
    URB sec: 1530933328
    URB usec: 833195
    URB status: Remote I/O error (-EREMOTEIO) (-121)
    URB length [bytes]: 2
    Data length [bytes]: 2
    [bInterfaceClass: Unknown (0xffff)]
    Unused Setup Header
    Interval: 0
    Start frame: 0
    Copy of Transfer Flags: 0x00000201
    Number of ISO descriptors: 0
Leftover Capture Data: 3003

0000  00 56 02 c3 fb 89 ff ff 43 03 82 03 03 00 2d 00   .V......C.....-.
0010  50 30 40 5b 00 00 00 00 ab b6 0c 00 87 ff ff ff   P0@[............
0020  02 00 00 00 02 00 00 00 00 00 00 00 00 00 00 00   ................
0030  00 00 00 00 00 00 00 00 01 02 00 00 00 00 00 00   ................
0040  30 03                                             0.

Frame 24: 66 bytes on wire (528 bits), 66 bytes captured (528 bits) on interface 0
    Interface id: 0 (unknown)
        Interface name: unknown
    Encapsulation type: USB packets with Linux header and padding (115)
    Arrival Time: Jul  6, 2018 23:15:29.238368000 EDT
    [Time shift for this packet: 0.000000000 seconds]
    Epoch Time: 1530933329.238368000 seconds
    [Time delta from previous captured frame: 0.405173000 seconds]
    [Time delta from previous displayed frame: 0.405173000 seconds]
    [Time since reference or first frame: 6.043656000 seconds]
    Frame Number: 24
    Frame Length: 66 bytes (528 bits)
    Capture Length: 66 bytes (528 bits)
    [Frame is marked: False]
    [Frame is ignored: False]
    [Protocols in frame: usb]
USB URB
    [Source: host]
    [Destination: 3.3.1]
    URB id: 0xffff89fc92559900
    URB type: URB_SUBMIT ('S')
    URB transfer type: URB_BULK (0x03)
    Endpoint: 0x01, Direction: OUT
        0... .... = Direction: OUT (0)
        .... 0001 = Endpoint number: 1
    Device: 3
    URB bus id: 3
    Device setup request: not relevant ('-')
    Data: present (0)
    URB sec: 1530933329
    URB usec: 238368
    URB status: Operation now in progress (-EINPROGRESS) (-115)
    URB length [bytes]: 2
    Data length [bytes]: 2
    [bInterfaceClass: Unknown (0xffff)]
    Unused Setup Header
    Interval: 0
    Start frame: 0
    Copy of Transfer Flags: 0x00000000
    Number of ISO descriptors: 0
Leftover Capture Data: 1b05

0000  00 99 55 92 fc 89 ff ff 53 03 01 03 03 00 2d 00   ..U.....S.....-.
0010  51 30 40 5b 00 00 00 00 20 a3 03 00 8d ff ff ff   Q0@[.... .......
0020  02 00 00 00 02 00 00 00 00 00 00 00 00 00 00 00   ................
0030  00 00 00 00 00 00 00 00 00 00 00 00 00 00 00 00   ................
0040  1b 05                                             ..

Frame 25: 66 bytes on wire (528 bits), 66 bytes captured (528 bits) on interface 0
    Interface id: 0 (unknown)
        Interface name: unknown
    Encapsulation type: USB packets with Linux header and padding (115)
    Arrival Time: Jul  6, 2018 23:15:29.325229000 EDT
    [Time shift for this packet: 0.000000000 seconds]
    Epoch Time: 1530933329.325229000 seconds
    [Time delta from previous captured frame: 0.086861000 seconds]
    [Time delta from previous displayed frame: 0.086861000 seconds]
    [Time since reference or first frame: 6.130517000 seconds]
    Frame Number: 25
    Frame Length: 66 bytes (528 bits)
    Capture Length: 66 bytes (528 bits)
    [Frame is marked: False]
    [Frame is ignored: False]
    [Protocols in frame: usb]
USB URB
    [Source: 3.3.2]
    [Destination: host]
    URB id: 0xffff89fc925590c0
    URB type: URB_COMPLETE ('C')
    URB transfer type: URB_BULK (0x03)
    Endpoint: 0x82, Direction: IN
        1... .... = Direction: IN (1)
        .... 0010 = Endpoint number: 2
    Device: 3
    URB bus id: 3
    Device setup request: not relevant ('-')
    Data: present (0)
    URB sec: 1530933329
    URB usec: 325229
    URB status: Remote I/O error (-EREMOTEIO) (-121)
    URB length [bytes]: 2
    Data length [bytes]: 2
    [bInterfaceClass: Unknown (0xffff)]
    Unused Setup Header
    Interval: 0
    Start frame: 0
    Copy of Transfer Flags: 0x00000201
    Number of ISO descriptors: 0
Leftover Capture Data: 3003

0000  c0 90 55 92 fc 89 ff ff 43 03 82 03 03 00 2d 00   ..U.....C.....-.
0010  51 30 40 5b 00 00 00 00 6d f6 04 00 87 ff ff ff   Q0@[....m.......
0020  02 00 00 00 02 00 00 00 00 00 00 00 00 00 00 00   ................
0030  00 00 00 00 00 00 00 00 01 02 00 00 00 00 00 00   ................
0040  30 03                                             0.

Frame 26: 66 bytes on wire (528 bits), 66 bytes captured (528 bits) on interface 0
    Interface id: 0 (unknown)
        Interface name: unknown
    Encapsulation type: USB packets with Linux header and padding (115)
    Arrival Time: Jul  6, 2018 23:15:29.770198000 EDT
    [Time shift for this packet: 0.000000000 seconds]
    Epoch Time: 1530933329.770198000 seconds
    [Time delta from previous captured frame: 0.444969000 seconds]
    [Time delta from previous displayed frame: 0.444969000 seconds]
    [Time since reference or first frame: 6.575486000 seconds]
    Frame Number: 26
    Frame Length: 66 bytes (528 bits)
    Capture Length: 66 bytes (528 bits)
    [Frame is marked: False]
    [Frame is ignored: False]
    [Protocols in frame: usb]
USB URB
    [Source: host]
    [Destination: 3.3.1]
    URB id: 0xffff89fbc3025a80
    URB type: URB_SUBMIT ('S')
    URB transfer type: URB_BULK (0x03)
    Endpoint: 0x01, Direction: OUT
        0... .... = Direction: OUT (0)
        .... 0001 = Endpoint number: 1
    Device: 3
    URB bus id: 3
    Device setup request: not relevant ('-')
    Data: present (0)
    URB sec: 1530933329
    URB usec: 770198
    URB status: Operation now in progress (-EINPROGRESS) (-115)
    URB length [bytes]: 2
    Data length [bytes]: 2
    [bInterfaceClass: Unknown (0xffff)]
    Unused Setup Header
    Interval: 0
    Start frame: 0
    Copy of Transfer Flags: 0x00000000
    Number of ISO descriptors: 0
Leftover Capture Data: 1b05

0000  80 5a 02 c3 fb 89 ff ff 53 03 01 03 03 00 2d 00   .Z......S.....-.
0010  51 30 40 5b 00 00 00 00 96 c0 0b 00 8d ff ff ff   Q0@[............
0020  02 00 00 00 02 00 00 00 00 00 00 00 00 00 00 00   ................
0030  00 00 00 00 00 00 00 00 00 00 00 00 00 00 00 00   ................
0040  1b 05                                             ..

Frame 27: 66 bytes on wire (528 bits), 66 bytes captured (528 bits) on interface 0
    Interface id: 0 (unknown)
        Interface name: unknown
    Encapsulation type: USB packets with Linux header and padding (115)
    Arrival Time: Jul  6, 2018 23:15:29.899227000 EDT
    [Time shift for this packet: 0.000000000 seconds]
    Epoch Time: 1530933329.899227000 seconds
    [Time delta from previous captured frame: 0.129029000 seconds]
    [Time delta from previous displayed frame: 0.129029000 seconds]
    [Time since reference or first frame: 6.704515000 seconds]
    Frame Number: 27
    Frame Length: 66 bytes (528 bits)
    Capture Length: 66 bytes (528 bits)
    [Frame is marked: False]
    [Frame is ignored: False]
    [Protocols in frame: usb]
USB URB
    [Source: 3.3.2]
    [Destination: host]
    URB id: 0xffff89fc92559900
    URB type: URB_COMPLETE ('C')
    URB transfer type: URB_BULK (0x03)
    Endpoint: 0x82, Direction: IN
        1... .... = Direction: IN (1)
        .... 0010 = Endpoint number: 2
    Device: 3
    URB bus id: 3
    Device setup request: not relevant ('-')
    Data: present (0)
    URB sec: 1530933329
    URB usec: 899227
    URB status: Remote I/O error (-EREMOTEIO) (-121)
    URB length [bytes]: 2
    Data length [bytes]: 2
    [bInterfaceClass: Unknown (0xffff)]
    Unused Setup Header
    Interval: 0
    Start frame: 0
    Copy of Transfer Flags: 0x00000201
    Number of ISO descriptors: 0
Leftover Capture Data: 3003

0000  00 99 55 92 fc 89 ff ff 43 03 82 03 03 00 2d 00   ..U.....C.....-.
0010  51 30 40 5b 00 00 00 00 9b b8 0d 00 87 ff ff ff   Q0@[............
0020  02 00 00 00 02 00 00 00 00 00 00 00 00 00 00 00   ................
0030  00 00 00 00 00 00 00 00 01 02 00 00 00 00 00 00   ................
0040  30 03                                             0.

Frame 28: 100 bytes on wire (800 bits), 100 bytes captured (800 bits) on interface 0
    Interface id: 0 (unknown)
        Interface name: unknown
    Encapsulation type: USB packets with Linux header and padding (115)
    Arrival Time: Jul  6, 2018 23:15:30.263256000 EDT
    [Time shift for this packet: 0.000000000 seconds]
    Epoch Time: 1530933330.263256000 seconds
    [Time delta from previous captured frame: 0.364029000 seconds]
    [Time delta from previous displayed frame: 0.364029000 seconds]
    [Time since reference or first frame: 7.068544000 seconds]
    Frame Number: 28
    Frame Length: 100 bytes (800 bits)
    Capture Length: 100 bytes (800 bits)
    [Frame is marked: False]
    [Frame is ignored: False]
    [Protocols in frame: usb]
USB URB
    [Source: host]
    [Destination: 3.3.1]
    URB id: 0xffff89fccc7b4180
    URB type: URB_SUBMIT ('S')
    URB transfer type: URB_BULK (0x03)
    Endpoint: 0x01, Direction: OUT
        0... .... = Direction: OUT (0)
        .... 0001 = Endpoint number: 1
    Device: 3
    URB bus id: 3
    Device setup request: not relevant ('-')
    Data: present (0)
    URB sec: 1530933330
    URB usec: 263256
    URB status: Operation now in progress (-EINPROGRESS) (-115)
    URB length [bytes]: 36
    Data length [bytes]: 36
    [bInterfaceClass: Unknown (0xffff)]
    Unused Setup Header
    Interval: 0
    Start frame: 0
    Copy of Transfer Flags: 0x00000000
    Number of ISO descriptors: 0
Leftover Capture Data: 54473103464e3003544235302c30035c33302c3330035a35...

0000  80 41 7b cc fc 89 ff ff 53 03 01 03 03 00 2d 00   .A{.....S.....-.
0010  52 30 40 5b 00 00 00 00 58 04 04 00 8d ff ff ff   R0@[....X.......
0020  24 00 00 00 24 00 00 00 00 00 00 00 00 00 00 00   $...$...........
0030  00 00 00 00 00 00 00 00 00 00 00 00 00 00 00 00   ................
0040  54 47 31 03 46 4e 30 03 54 42 35 30 2c 30 03 5c   TG1.FN0.TB50,0.\
0050  33 30 2c 33 30 03 5a 35 35 35 38 2c 34 32 38 38   30,30.Z5558,4288
0060  03 4a 31 03                                       .J1.

Frame 29: 66 bytes on wire (528 bits), 66 bytes captured (528 bits) on interface 0
    Interface id: 0 (unknown)
        Interface name: unknown
    Encapsulation type: USB packets with Linux header and padding (115)
    Arrival Time: Jul  6, 2018 23:15:30.899018000 EDT
    [Time shift for this packet: 0.000000000 seconds]
    Epoch Time: 1530933330.899018000 seconds
    [Time delta from previous captured frame: 0.635762000 seconds]
    [Time delta from previous displayed frame: 0.635762000 seconds]
    [Time since reference or first frame: 7.704306000 seconds]
    Frame Number: 29
    Frame Length: 66 bytes (528 bits)
    Capture Length: 66 bytes (528 bits)
    [Frame is marked: False]
    [Frame is ignored: False]
    [Protocols in frame: usb]
USB URB
    [Source: host]
    [Destination: 3.3.1]
    URB id: 0xffff89fc925590c0
    URB type: URB_SUBMIT ('S')
    URB transfer type: URB_BULK (0x03)
    Endpoint: 0x01, Direction: OUT
        0... .... = Direction: OUT (0)
        .... 0001 = Endpoint number: 1
    Device: 3
    URB bus id: 3
    Device setup request: not relevant ('-')
    Data: present (0)
    URB sec: 1530933330
    URB usec: 899018
    URB status: Operation now in progress (-EINPROGRESS) (-115)
    URB length [bytes]: 2
    Data length [bytes]: 2
    [bInterfaceClass: Unknown (0xffff)]
    Unused Setup Header
    Interval: 0
    Start frame: 0
    Copy of Transfer Flags: 0x00000000
    Number of ISO descriptors: 0
Leftover Capture Data: 1b05

0000  c0 90 55 92 fc 89 ff ff 53 03 01 03 03 00 2d 00   ..U.....S.....-.
0010  52 30 40 5b 00 00 00 00 ca b7 0d 00 8d ff ff ff   R0@[............
0020  02 00 00 00 02 00 00 00 00 00 00 00 00 00 00 00   ................
0030  00 00 00 00 00 00 00 00 00 00 00 00 00 00 00 00   ................
0040  1b 05                                             ..

Frame 30: 66 bytes on wire (528 bits), 66 bytes captured (528 bits) on interface 0
    Interface id: 0 (unknown)
        Interface name: unknown
    Encapsulation type: USB packets with Linux header and padding (115)
    Arrival Time: Jul  6, 2018 23:15:31.047186000 EDT
    [Time shift for this packet: 0.000000000 seconds]
    Epoch Time: 1530933331.047186000 seconds
    [Time delta from previous captured frame: 0.148168000 seconds]
    [Time delta from previous displayed frame: 0.148168000 seconds]
    [Time since reference or first frame: 7.852474000 seconds]
    Frame Number: 30
    Frame Length: 66 bytes (528 bits)
    Capture Length: 66 bytes (528 bits)
    [Frame is marked: False]
    [Frame is ignored: False]
    [Protocols in frame: usb]
USB URB
    [Source: 3.3.2]
    [Destination: host]
    URB id: 0xffff89fc92559900
    URB type: URB_COMPLETE ('C')
    URB transfer type: URB_BULK (0x03)
    Endpoint: 0x82, Direction: IN
        1... .... = Direction: IN (1)
        .... 0010 = Endpoint number: 2
    Device: 3
    URB bus id: 3
    Device setup request: not relevant ('-')
    Data: present (0)
    URB sec: 1530933331
    URB usec: 47186
    URB status: Remote I/O error (-EREMOTEIO) (-121)
    URB length [bytes]: 2
    Data length [bytes]: 2
    [bInterfaceClass: Unknown (0xffff)]
    Unused Setup Header
    Interval: 0
    Start frame: 0
    Copy of Transfer Flags: 0x00000201
    Number of ISO descriptors: 0
Leftover Capture Data: 3103

0000  00 99 55 92 fc 89 ff ff 43 03 82 03 03 00 2d 00   ..U.....C.....-.
0010  53 30 40 5b 00 00 00 00 52 b8 00 00 87 ff ff ff   S0@[....R.......
0020  02 00 00 00 02 00 00 00 00 00 00 00 00 00 00 00   ................
0030  00 00 00 00 00 00 00 00 01 02 00 00 00 00 00 00   ................
0040  31 03                                             1.

Frame 31: 90 bytes on wire (720 bits), 90 bytes captured (720 bits) on interface 0
    Interface id: 0 (unknown)
        Interface name: unknown
    Encapsulation type: USB packets with Linux header and padding (115)
    Arrival Time: Jul  6, 2018 23:15:31.534603000 EDT
    [Time shift for this packet: 0.000000000 seconds]
    Epoch Time: 1530933331.534603000 seconds
    [Time delta from previous captured frame: 0.487417000 seconds]
    [Time delta from previous displayed frame: 0.487417000 seconds]
    [Time since reference or first frame: 8.339891000 seconds]
    Frame Number: 31
    Frame Length: 90 bytes (720 bits)
    Capture Length: 90 bytes (720 bits)
    [Frame is marked: False]
    [Frame is ignored: False]
    [Protocols in frame: usb]
USB URB
    [Source: host]
    [Destination: 3.3.1]
    URB id: 0xffff89fccc7b4180
    URB type: URB_SUBMIT ('S')
    URB transfer type: URB_BULK (0x03)
    Endpoint: 0x01, Direction: OUT
        0... .... = Direction: OUT (0)
        .... 0001 = Endpoint number: 1
    Device: 3
    URB bus id: 3
    Device setup request: not relevant ('-')
    Data: present (0)
    URB sec: 1530933331
    URB usec: 534603
    URB status: Operation now in progress (-EINPROGRESS) (-115)
    URB length [bytes]: 26
    Data length [bytes]: 26
    [bInterfaceClass: Unknown (0xffff)]
    Unused Setup Header
    Interval: 0
    Start frame: 0
    Copy of Transfer Flags: 0x00000000
    Number of ISO descriptors: 0
Leftover Capture Data: 465833332c310321352c31034643302c312c31034645302c...

0000  80 41 7b cc fc 89 ff ff 53 03 01 03 03 00 2d 00   .A{.....S.....-.
0010  53 30 40 5b 00 00 00 00 4b 28 08 00 8d ff ff ff   S0@[....K(......
0020  1a 00 00 00 1a 00 00 00 00 00 00 00 00 00 00 00   ................
0030  00 00 00 00 00 00 00 00 00 00 00 00 00 00 00 00   ................
0040  46 58 33 33 2c 31 03 21 35 2c 31 03 46 43 30 2c   FX33,1.!5,1.FC0,
0050  31 2c 31 03 46 45 30 2c 31 03                     1,1.FE0,1.

Frame 32: 99 bytes on wire (792 bits), 99 bytes captured (792 bits) on interface 0
    Interface id: 0 (unknown)
        Interface name: unknown
    Encapsulation type: USB packets with Linux header and padding (115)
    Arrival Time: Jul  6, 2018 23:15:31.708685000 EDT
    [Time shift for this packet: 0.000000000 seconds]
    Epoch Time: 1530933331.708685000 seconds
    [Time delta from previous captured frame: 0.174082000 seconds]
    [Time delta from previous displayed frame: 0.174082000 seconds]
    [Time since reference or first frame: 8.513973000 seconds]
    Frame Number: 32
    Frame Length: 99 bytes (792 bits)
    Capture Length: 99 bytes (792 bits)
    [Frame is marked: False]
    [Frame is ignored: False]
    [Protocols in frame: usb]
USB URB
    [Source: host]
    [Destination: 3.3.1]
    URB id: 0xffff89fccc7b4180
    URB type: URB_SUBMIT ('S')
    URB transfer type: URB_BULK (0x03)
    Endpoint: 0x01, Direction: OUT
        0... .... = Direction: OUT (0)
        .... 0001 = Endpoint number: 1
    Device: 3
    URB bus id: 3
    Device setup request: not relevant ('-')
    Data: present (0)
    URB sec: 1530933331
    URB usec: 708685
    URB status: Operation now in progress (-EINPROGRESS) (-115)
    URB length [bytes]: 35
    Data length [bytes]: 35
    [bInterfaceClass: Unknown (0xffff)]
    Unused Setup Header
    Interval: 0
    Start frame: 0
    Copy of Transfer Flags: 0x00000000
    Number of ISO descriptors: 0
Leftover Capture Data: 4646312c302c31034646312c312c3103464331382c312c31...

0000  80 41 7b cc fc 89 ff ff 53 03 01 03 03 00 2d 00   .A{.....S.....-.
0010  53 30 40 5b 00 00 00 00 4d d0 0a 00 8d ff ff ff   S0@[....M.......
0020  23 00 00 00 23 00 00 00 00 00 00 00 00 00 00 00   #...#...........
0030  00 00 00 00 00 00 00 00 00 00 00 00 00 00 00 00   ................
0040  46 46 31 2c 30 2c 31 03 46 46 31 2c 31 2c 31 03   FF1,0,1.FF1,1,1.
0050  46 43 31 38 2c 31 2c 31 03 46 59 31 03 54 46 31   FC18,1,1.FY1.TF1
0060  2c 31 03                                          ,1.

Frame 33: 66 bytes on wire (528 bits), 66 bytes captured (528 bits) on interface 0
    Interface id: 0 (unknown)
        Interface name: unknown
    Encapsulation type: USB packets with Linux header and padding (115)
    Arrival Time: Jul  6, 2018 23:15:31.822822000 EDT
    [Time shift for this packet: 0.000000000 seconds]
    Epoch Time: 1530933331.822822000 seconds
    [Time delta from previous captured frame: 0.114137000 seconds]
    [Time delta from previous displayed frame: 0.114137000 seconds]
    [Time since reference or first frame: 8.628110000 seconds]
    Frame Number: 33
    Frame Length: 66 bytes (528 bits)
    Capture Length: 66 bytes (528 bits)
    [Frame is marked: False]
    [Frame is ignored: False]
    [Protocols in frame: usb]
USB URB
    [Source: host]
    [Destination: 3.3.1]
    URB id: 0xffff89fc92559900
    URB type: URB_SUBMIT ('S')
    URB transfer type: URB_BULK (0x03)
    Endpoint: 0x01, Direction: OUT
        0... .... = Direction: OUT (0)
        .... 0001 = Endpoint number: 1
    Device: 3
    URB bus id: 3
    Device setup request: not relevant ('-')
    Data: present (0)
    URB sec: 1530933331
    URB usec: 822822
    URB status: Operation now in progress (-EINPROGRESS) (-115)
    URB length [bytes]: 2
    Data length [bytes]: 2
    [bInterfaceClass: Unknown (0xffff)]
    Unused Setup Header
    Interval: 0
    Start frame: 0
    Copy of Transfer Flags: 0x00000000
    Number of ISO descriptors: 0
Leftover Capture Data: 1b05

0000  00 99 55 92 fc 89 ff ff 53 03 01 03 03 00 2d 00   ..U.....S.....-.
0010  53 30 40 5b 00 00 00 00 26 8e 0c 00 8d ff ff ff   S0@[....&.......
0020  02 00 00 00 02 00 00 00 00 00 00 00 00 00 00 00   ................
0030  00 00 00 00 00 00 00 00 00 00 00 00 00 00 00 00   ................
0040  1b 05                                             ..

Frame 34: 66 bytes on wire (528 bits), 66 bytes captured (528 bits) on interface 0
    Interface id: 0 (unknown)
        Interface name: unknown
    Encapsulation type: USB packets with Linux header and padding (115)
    Arrival Time: Jul  6, 2018 23:15:31.949202000 EDT
    [Time shift for this packet: 0.000000000 seconds]
    Epoch Time: 1530933331.949202000 seconds
    [Time delta from previous captured frame: 0.126380000 seconds]
    [Time delta from previous displayed frame: 0.126380000 seconds]
    [Time since reference or first frame: 8.754490000 seconds]
    Frame Number: 34
    Frame Length: 66 bytes (528 bits)
    Capture Length: 66 bytes (528 bits)
    [Frame is marked: False]
    [Frame is ignored: False]
    [Protocols in frame: usb]
USB URB
    [Source: 3.3.2]
    [Destination: host]
    URB id: 0xffff89fccc7b49c0
    URB type: URB_COMPLETE ('C')
    URB transfer type: URB_BULK (0x03)
    Endpoint: 0x82, Direction: IN
        1... .... = Direction: IN (1)
        .... 0010 = Endpoint number: 2
    Device: 3
    URB bus id: 3
    Device setup request: not relevant ('-')
    Data: present (0)
    URB sec: 1530933331
    URB usec: 949202
    URB status: Remote I/O error (-EREMOTEIO) (-121)
    URB length [bytes]: 2
    Data length [bytes]: 2
    [bInterfaceClass: Unknown (0xffff)]
    Unused Setup Header
    Interval: 0
    Start frame: 0
    Copy of Transfer Flags: 0x00000201
    Number of ISO descriptors: 0
Leftover Capture Data: 3103

0000  c0 49 7b cc fc 89 ff ff 43 03 82 03 03 00 2d 00   .I{.....C.....-.
0010  53 30 40 5b 00 00 00 00 d2 7b 0e 00 87 ff ff ff   S0@[.....{......
0020  02 00 00 00 02 00 00 00 00 00 00 00 00 00 00 00   ................
0030  00 00 00 00 00 00 00 00 01 02 00 00 00 00 00 00   ................
0040  31 03                                             1.

Frame 35: 66 bytes on wire (528 bits), 66 bytes captured (528 bits) on interface 0
    Interface id: 0 (unknown)
        Interface name: unknown
    Encapsulation type: USB packets with Linux header and padding (115)
    Arrival Time: Jul  6, 2018 23:15:31.976914000 EDT
    [Time shift for this packet: 0.000000000 seconds]
    Epoch Time: 1530933331.976914000 seconds
    [Time delta from previous captured frame: 0.027712000 seconds]
    [Time delta from previous displayed frame: 0.027712000 seconds]
    [Time since reference or first frame: 8.782202000 seconds]
    Frame Number: 35
    Frame Length: 66 bytes (528 bits)
    Capture Length: 66 bytes (528 bits)
    [Frame is marked: False]
    [Frame is ignored: False]
    [Protocols in frame: usb]
USB URB
    [Source: host]
    [Destination: 3.3.1]
    URB id: 0xffff89fc925590c0
    URB type: URB_SUBMIT ('S')
    URB transfer type: URB_BULK (0x03)
    Endpoint: 0x01, Direction: OUT
        0... .... = Direction: OUT (0)
        .... 0001 = Endpoint number: 1
    Device: 3
    URB bus id: 3
    Device setup request: not relevant ('-')
    Data: present (0)
    URB sec: 1530933331
    URB usec: 976914
    URB status: Operation now in progress (-EINPROGRESS) (-115)
    URB length [bytes]: 2
    Data length [bytes]: 2
    [bInterfaceClass: Unknown (0xffff)]
    Unused Setup Header
    Interval: 0
    Start frame: 0
    Copy of Transfer Flags: 0x00000000
    Number of ISO descriptors: 0
Leftover Capture Data: 1b05

0000  c0 90 55 92 fc 89 ff ff 53 03 01 03 03 00 2d 00   ..U.....S.....-.
0010  53 30 40 5b 00 00 00 00 12 e8 0e 00 8d ff ff ff   S0@[............
0020  02 00 00 00 02 00 00 00 00 00 00 00 00 00 00 00   ................
0030  00 00 00 00 00 00 00 00 00 00 00 00 00 00 00 00   ................
0040  1b 05                                             ..

Frame 36: 66 bytes on wire (528 bits), 66 bytes captured (528 bits) on interface 0
    Interface id: 0 (unknown)
        Interface name: unknown
    Encapsulation type: USB packets with Linux header and padding (115)
    Arrival Time: Jul  6, 2018 23:15:32.191079000 EDT
    [Time shift for this packet: 0.000000000 seconds]
    Epoch Time: 1530933332.191079000 seconds
    [Time delta from previous captured frame: 0.214165000 seconds]
    [Time delta from previous displayed frame: 0.214165000 seconds]
    [Time since reference or first frame: 8.996367000 seconds]
    Frame Number: 36
    Frame Length: 66 bytes (528 bits)
    Capture Length: 66 bytes (528 bits)
    [Frame is marked: False]
    [Frame is ignored: False]
    [Protocols in frame: usb]
USB URB
    [Source: 3.3.2]
    [Destination: host]
    URB id: 0xffff89fc925590c0
    URB type: URB_COMPLETE ('C')
    URB transfer type: URB_BULK (0x03)
    Endpoint: 0x82, Direction: IN
        1... .... = Direction: IN (1)
        .... 0010 = Endpoint number: 2
    Device: 3
    URB bus id: 3
    Device setup request: not relevant ('-')
    Data: present (0)
    URB sec: 1530933332
    URB usec: 191079
    URB status: Remote I/O error (-EREMOTEIO) (-121)
    URB length [bytes]: 2
    Data length [bytes]: 2
    [bInterfaceClass: Unknown (0xffff)]
    Unused Setup Header
    Interval: 0
    Start frame: 0
    Copy of Transfer Flags: 0x00000201
    Number of ISO descriptors: 0
Leftover Capture Data: 3103

0000  c0 90 55 92 fc 89 ff ff 43 03 82 03 03 00 2d 00   ..U.....C.....-.
0010  54 30 40 5b 00 00 00 00 67 ea 02 00 87 ff ff ff   T0@[....g.......
0020  02 00 00 00 02 00 00 00 00 00 00 00 00 00 00 00   ................
0030  00 00 00 00 00 00 00 00 01 02 00 00 00 00 00 00   ................
0040  31 03                                             1.

Frame 37: 66 bytes on wire (528 bits), 66 bytes captured (528 bits) on interface 0
    Interface id: 0 (unknown)
        Interface name: unknown
    Encapsulation type: USB packets with Linux header and padding (115)
    Arrival Time: Jul  6, 2018 23:15:32.385260000 EDT
    [Time shift for this packet: 0.000000000 seconds]
    Epoch Time: 1530933332.385260000 seconds
    [Time delta from previous captured frame: 0.194181000 seconds]
    [Time delta from previous displayed frame: 0.194181000 seconds]
    [Time since reference or first frame: 9.190548000 seconds]
    Frame Number: 37
    Frame Length: 66 bytes (528 bits)
    Capture Length: 66 bytes (528 bits)
    [Frame is marked: False]
    [Frame is ignored: False]
    [Protocols in frame: usb]
USB URB
    [Source: host]
    [Destination: 3.3.1]
    URB id: 0xffff89fc92559900
    URB type: URB_SUBMIT ('S')
    URB transfer type: URB_BULK (0x03)
    Endpoint: 0x01, Direction: OUT
        0... .... = Direction: OUT (0)
        .... 0001 = Endpoint number: 1
    Device: 3
    URB bus id: 3
    Device setup request: not relevant ('-')
    Data: present (0)
    URB sec: 1530933332
    URB usec: 385260
    URB status: Operation now in progress (-EINPROGRESS) (-115)
    URB length [bytes]: 2
    Data length [bytes]: 2
    [bInterfaceClass: Unknown (0xffff)]
    Unused Setup Header
    Interval: 0
    Start frame: 0
    Copy of Transfer Flags: 0x00000000
    Number of ISO descriptors: 0
Leftover Capture Data: 1b05

0000  00 99 55 92 fc 89 ff ff 53 03 01 03 03 00 2d 00   ..U.....S.....-.
0010  54 30 40 5b 00 00 00 00 ec e0 05 00 8d ff ff ff   T0@[............
0020  02 00 00 00 02 00 00 00 00 00 00 00 00 00 00 00   ................
0030  00 00 00 00 00 00 00 00 00 00 00 00 00 00 00 00   ................
0040  1b 05                                             ..

Frame 38: 66 bytes on wire (528 bits), 66 bytes captured (528 bits) on interface 0
    Interface id: 0 (unknown)
        Interface name: unknown
    Encapsulation type: USB packets with Linux header and padding (115)
    Arrival Time: Jul  6, 2018 23:15:32.523241000 EDT
    [Time shift for this packet: 0.000000000 seconds]
    Epoch Time: 1530933332.523241000 seconds
    [Time delta from previous captured frame: 0.137981000 seconds]
    [Time delta from previous displayed frame: 0.137981000 seconds]
    [Time since reference or first frame: 9.328529000 seconds]
    Frame Number: 38
    Frame Length: 66 bytes (528 bits)
    Capture Length: 66 bytes (528 bits)
    [Frame is marked: False]
    [Frame is ignored: False]
    [Protocols in frame: usb]
USB URB
    [Source: 3.3.2]
    [Destination: host]
    URB id: 0xffff89fc925590c0
    URB type: URB_COMPLETE ('C')
    URB transfer type: URB_BULK (0x03)
    Endpoint: 0x82, Direction: IN
        1... .... = Direction: IN (1)
        .... 0010 = Endpoint number: 2
    Device: 3
    URB bus id: 3
    Device setup request: not relevant ('-')
    Data: present (0)
    URB sec: 1530933332
    URB usec: 523241
    URB status: Remote I/O error (-EREMOTEIO) (-121)
    URB length [bytes]: 2
    Data length [bytes]: 2
    [bInterfaceClass: Unknown (0xffff)]
    Unused Setup Header
    Interval: 0
    Start frame: 0
    Copy of Transfer Flags: 0x00000201
    Number of ISO descriptors: 0
Leftover Capture Data: 3103

0000  c0 90 55 92 fc 89 ff ff 43 03 82 03 03 00 2d 00   ..U.....C.....-.
0010  54 30 40 5b 00 00 00 00 e9 fb 07 00 87 ff ff ff   T0@[............
0020  02 00 00 00 02 00 00 00 00 00 00 00 00 00 00 00   ................
0030  00 00 00 00 00 00 00 00 01 02 00 00 00 00 00 00   ................
0040  31 03                                             1.

Frame 39: 66 bytes on wire (528 bits), 66 bytes captured (528 bits) on interface 0
    Interface id: 0 (unknown)
        Interface name: unknown
    Encapsulation type: USB packets with Linux header and padding (115)
    Arrival Time: Jul  6, 2018 23:15:32.833876000 EDT
    [Time shift for this packet: 0.000000000 seconds]
    Epoch Time: 1530933332.833876000 seconds
    [Time delta from previous captured frame: 0.310635000 seconds]
    [Time delta from previous displayed frame: 0.310635000 seconds]
    [Time since reference or first frame: 9.639164000 seconds]
    Frame Number: 39
    Frame Length: 66 bytes (528 bits)
    Capture Length: 66 bytes (528 bits)
    [Frame is marked: False]
    [Frame is ignored: False]
    [Protocols in frame: usb]
USB URB
    [Source: host]
    [Destination: 3.3.1]
    URB id: 0xffff89fbc3025300
    URB type: URB_SUBMIT ('S')
    URB transfer type: URB_BULK (0x03)
    Endpoint: 0x01, Direction: OUT
        0... .... = Direction: OUT (0)
        .... 0001 = Endpoint number: 1
    Device: 3
    URB bus id: 3
    Device setup request: not relevant ('-')
    Data: present (0)
    URB sec: 1530933332
    URB usec: 833876
    URB status: Operation now in progress (-EINPROGRESS) (-115)
    URB length [bytes]: 2
    Data length [bytes]: 2
    [bInterfaceClass: Unknown (0xffff)]
    Unused Setup Header
    Interval: 0
    Start frame: 0
    Copy of Transfer Flags: 0x00000000
    Number of ISO descriptors: 0
Leftover Capture Data: 1b05

0000  00 53 02 c3 fb 89 ff ff 53 03 01 03 03 00 2d 00   .S......S.....-.
0010  54 30 40 5b 00 00 00 00 54 b9 0c 00 8d ff ff ff   T0@[....T.......
0020  02 00 00 00 02 00 00 00 00 00 00 00 00 00 00 00   ................
0030  00 00 00 00 00 00 00 00 00 00 00 00 00 00 00 00   ................
0040  1b 05                                             ..

Frame 40: 66 bytes on wire (528 bits), 66 bytes captured (528 bits) on interface 0
    Interface id: 0 (unknown)
        Interface name: unknown
    Encapsulation type: USB packets with Linux header and padding (115)
    Arrival Time: Jul  6, 2018 23:15:32.933189000 EDT
    [Time shift for this packet: 0.000000000 seconds]
    Epoch Time: 1530933332.933189000 seconds
    [Time delta from previous captured frame: 0.099313000 seconds]
    [Time delta from previous displayed frame: 0.099313000 seconds]
    [Time since reference or first frame: 9.738477000 seconds]
    Frame Number: 40
    Frame Length: 66 bytes (528 bits)
    Capture Length: 66 bytes (528 bits)
    [Frame is marked: False]
    [Frame is ignored: False]
    [Protocols in frame: usb]
USB URB
    [Source: 3.3.2]
    [Destination: host]
    URB id: 0xffff89fc925590c0
    URB type: URB_COMPLETE ('C')
    URB transfer type: URB_BULK (0x03)
    Endpoint: 0x82, Direction: IN
        1... .... = Direction: IN (1)
        .... 0010 = Endpoint number: 2
    Device: 3
    URB bus id: 3
    Device setup request: not relevant ('-')
    Data: present (0)
    URB sec: 1530933332
    URB usec: 933189
    URB status: Remote I/O error (-EREMOTEIO) (-121)
    URB length [bytes]: 2
    Data length [bytes]: 2
    [bInterfaceClass: Unknown (0xffff)]
    Unused Setup Header
    Interval: 0
    Start frame: 0
    Copy of Transfer Flags: 0x00000201
    Number of ISO descriptors: 0
Leftover Capture Data: 3103

0000  c0 90 55 92 fc 89 ff ff 43 03 82 03 03 00 2d 00   ..U.....C.....-.
0010  54 30 40 5b 00 00 00 00 45 3d 0e 00 87 ff ff ff   T0@[....E=......
0020  02 00 00 00 02 00 00 00 00 00 00 00 00 00 00 00   ................
0030  00 00 00 00 00 00 00 00 01 02 00 00 00 00 00 00   ................
0040  31 03                                             1.

Frame 41: 66 bytes on wire (528 bits), 66 bytes captured (528 bits) on interface 0
    Interface id: 0 (unknown)
        Interface name: unknown
    Encapsulation type: USB packets with Linux header and padding (115)
    Arrival Time: Jul  6, 2018 23:15:33.362900000 EDT
    [Time shift for this packet: 0.000000000 seconds]
    Epoch Time: 1530933333.362900000 seconds
    [Time delta from previous captured frame: 0.429711000 seconds]
    [Time delta from previous displayed frame: 0.429711000 seconds]
    [Time since reference or first frame: 10.168188000 seconds]
    Frame Number: 41
    Frame Length: 66 bytes (528 bits)
    Capture Length: 66 bytes (528 bits)
    [Frame is marked: False]
    [Frame is ignored: False]
    [Protocols in frame: usb]
USB URB
    [Source: host]
    [Destination: 3.3.1]
    URB id: 0xffff89fbc3025480
    URB type: URB_SUBMIT ('S')
    URB transfer type: URB_BULK (0x03)
    Endpoint: 0x01, Direction: OUT
        0... .... = Direction: OUT (0)
        .... 0001 = Endpoint number: 1
    Device: 3
    URB bus id: 3
    Device setup request: not relevant ('-')
    Data: present (0)
    URB sec: 1530933333
    URB usec: 362900
    URB status: Operation now in progress (-EINPROGRESS) (-115)
    URB length [bytes]: 2
    Data length [bytes]: 2
    [bInterfaceClass: Unknown (0xffff)]
    Unused Setup Header
    Interval: 0
    Start frame: 0
    Copy of Transfer Flags: 0x00000000
    Number of ISO descriptors: 0
Leftover Capture Data: 1b05

0000  80 54 02 c3 fb 89 ff ff 53 03 01 03 03 00 2d 00   .T......S.....-.
0010  55 30 40 5b 00 00 00 00 94 89 05 00 8d ff ff ff   U0@[............
0020  02 00 00 00 02 00 00 00 00 00 00 00 00 00 00 00   ................
0030  00 00 00 00 00 00 00 00 00 00 00 00 00 00 00 00   ................
0040  1b 05                                             ..

Frame 42: 66 bytes on wire (528 bits), 66 bytes captured (528 bits) on interface 0
    Interface id: 0 (unknown)
        Interface name: unknown
    Encapsulation type: USB packets with Linux header and padding (115)
    Arrival Time: Jul  6, 2018 23:15:33.507245000 EDT
    [Time shift for this packet: 0.000000000 seconds]
    Epoch Time: 1530933333.507245000 seconds
    [Time delta from previous captured frame: 0.144345000 seconds]
    [Time delta from previous displayed frame: 0.144345000 seconds]
    [Time since reference or first frame: 10.312533000 seconds]
    Frame Number: 42
    Frame Length: 66 bytes (528 bits)
    Capture Length: 66 bytes (528 bits)
    [Frame is marked: False]
    [Frame is ignored: False]
    [Protocols in frame: usb]
USB URB
    [Source: 3.3.2]
    [Destination: host]
    URB id: 0xffff89fccc7b49c0
    URB type: URB_COMPLETE ('C')
    URB transfer type: URB_BULK (0x03)
    Endpoint: 0x82, Direction: IN
        1... .... = Direction: IN (1)
        .... 0010 = Endpoint number: 2
    Device: 3
    URB bus id: 3
    Device setup request: not relevant ('-')
    Data: present (0)
    URB sec: 1530933333
    URB usec: 507245
    URB status: Remote I/O error (-EREMOTEIO) (-121)
    URB length [bytes]: 2
    Data length [bytes]: 2
    [bInterfaceClass: Unknown (0xffff)]
    Unused Setup Header
    Interval: 0
    Start frame: 0
    Copy of Transfer Flags: 0x00000201
    Number of ISO descriptors: 0
Leftover Capture Data: 3103

0000  c0 49 7b cc fc 89 ff ff 43 03 82 03 03 00 2d 00   .I{.....C.....-.
0010  55 30 40 5b 00 00 00 00 6d bd 07 00 87 ff ff ff   U0@[....m.......
0020  02 00 00 00 02 00 00 00 00 00 00 00 00 00 00 00   ................
0030  00 00 00 00 00 00 00 00 01 02 00 00 00 00 00 00   ................
0040  31 03                                             1.

Frame 43: 66 bytes on wire (528 bits), 66 bytes captured (528 bits) on interface 0
    Interface id: 0 (unknown)
        Interface name: unknown
    Encapsulation type: USB packets with Linux header and padding (115)
    Arrival Time: Jul  6, 2018 23:15:34.232756000 EDT
    [Time shift for this packet: 0.000000000 seconds]
    Epoch Time: 1530933334.232756000 seconds
    [Time delta from previous captured frame: 0.725511000 seconds]
    [Time delta from previous displayed frame: 0.725511000 seconds]
    [Time since reference or first frame: 11.038044000 seconds]
    Frame Number: 43
    Frame Length: 66 bytes (528 bits)
    Capture Length: 66 bytes (528 bits)
    [Frame is marked: False]
    [Frame is ignored: False]
    [Protocols in frame: usb]
USB URB
    [Source: host]
    [Destination: 3.3.1]
    URB id: 0xffff89fccc7b4180
    URB type: URB_SUBMIT ('S')
    URB transfer type: URB_BULK (0x03)
    Endpoint: 0x01, Direction: OUT
        0... .... = Direction: OUT (0)
        .... 0001 = Endpoint number: 1
    Device: 3
    URB bus id: 3
    Device setup request: not relevant ('-')
    Data: present (0)
    URB sec: 1530933334
    URB usec: 232756
    URB status: Operation now in progress (-EINPROGRESS) (-115)
    URB length [bytes]: 2
    Data length [bytes]: 2
    [bInterfaceClass: Unknown (0xffff)]
    Unused Setup Header
    Interval: 0
    Start frame: 0
    Copy of Transfer Flags: 0x00000000
    Number of ISO descriptors: 0
Leftover Capture Data: 1b05

0000  80 41 7b cc fc 89 ff ff 53 03 01 03 03 00 2d 00   .A{.....S.....-.
0010  56 30 40 5b 00 00 00 00 34 8d 03 00 8d ff ff ff   V0@[....4.......
0020  02 00 00 00 02 00 00 00 00 00 00 00 00 00 00 00   ................
0030  00 00 00 00 00 00 00 00 00 00 00 00 00 00 00 00   ................
0040  1b 05                                             ..

Frame 44: 66 bytes on wire (528 bits), 66 bytes captured (528 bits) on interface 0
    Interface id: 0 (unknown)
        Interface name: unknown
    Encapsulation type: USB packets with Linux header and padding (115)
    Arrival Time: Jul  6, 2018 23:15:34.327213000 EDT
    [Time shift for this packet: 0.000000000 seconds]
    Epoch Time: 1530933334.327213000 seconds
    [Time delta from previous captured frame: 0.094457000 seconds]
    [Time delta from previous displayed frame: 0.094457000 seconds]
    [Time since reference or first frame: 11.132501000 seconds]
    Frame Number: 44
    Frame Length: 66 bytes (528 bits)
    Capture Length: 66 bytes (528 bits)
    [Frame is marked: False]
    [Frame is ignored: False]
    [Protocols in frame: usb]
USB URB
    [Source: 3.3.2]
    [Destination: host]
    URB id: 0xffff89fccc7b49c0
    URB type: URB_COMPLETE ('C')
    URB transfer type: URB_BULK (0x03)
    Endpoint: 0x82, Direction: IN
        1... .... = Direction: IN (1)
        .... 0010 = Endpoint number: 2
    Device: 3
    URB bus id: 3
    Device setup request: not relevant ('-')
    Data: present (0)
    URB sec: 1530933334
    URB usec: 327213
    URB status: Remote I/O error (-EREMOTEIO) (-121)
    URB length [bytes]: 2
    Data length [bytes]: 2
    [bInterfaceClass: Unknown (0xffff)]
    Unused Setup Header
    Interval: 0
    Start frame: 0
    Copy of Transfer Flags: 0x00000201
    Number of ISO descriptors: 0
Leftover Capture Data: 3103

0000  c0 49 7b cc fc 89 ff ff 43 03 82 03 03 00 2d 00   .I{.....C.....-.
0010  56 30 40 5b 00 00 00 00 2d fe 04 00 87 ff ff ff   V0@[....-.......
0020  02 00 00 00 02 00 00 00 00 00 00 00 00 00 00 00   ................
0030  00 00 00 00 00 00 00 00 01 02 00 00 00 00 00 00   ................
0040  31 03                                             1.

Frame 45: 66 bytes on wire (528 bits), 66 bytes captured (528 bits) on interface 0
    Interface id: 0 (unknown)
        Interface name: unknown
    Encapsulation type: USB packets with Linux header and padding (115)
    Arrival Time: Jul  6, 2018 23:15:34.962485000 EDT
    [Time shift for this packet: 0.000000000 seconds]
    Epoch Time: 1530933334.962485000 seconds
    [Time delta from previous captured frame: 0.635272000 seconds]
    [Time delta from previous displayed frame: 0.635272000 seconds]
    [Time since reference or first frame: 11.767773000 seconds]
    Frame Number: 45
    Frame Length: 66 bytes (528 bits)
    Capture Length: 66 bytes (528 bits)
    [Frame is marked: False]
    [Frame is ignored: False]
    [Protocols in frame: usb]
USB URB
    [Source: host]
    [Destination: 3.3.1]
    URB id: 0xffff89fc92559900
    URB type: URB_SUBMIT ('S')
    URB transfer type: URB_BULK (0x03)
    Endpoint: 0x01, Direction: OUT
        0... .... = Direction: OUT (0)
        .... 0001 = Endpoint number: 1
    Device: 3
    URB bus id: 3
    Device setup request: not relevant ('-')
    Data: present (0)
    URB sec: 1530933334
    URB usec: 962485
    URB status: Operation now in progress (-EINPROGRESS) (-115)
    URB length [bytes]: 2
    Data length [bytes]: 2
    [bInterfaceClass: Unknown (0xffff)]
    Unused Setup Header
    Interval: 0
    Start frame: 0
    Copy of Transfer Flags: 0x00000000
    Number of ISO descriptors: 0
Leftover Capture Data: 1b05

0000  00 99 55 92 fc 89 ff ff 53 03 01 03 03 00 2d 00   ..U.....S.....-.
0010  56 30 40 5b 00 00 00 00 b5 af 0e 00 8d ff ff ff   V0@[............
0020  02 00 00 00 02 00 00 00 00 00 00 00 00 00 00 00   ................
0030  00 00 00 00 00 00 00 00 00 00 00 00 00 00 00 00   ................
0040  1b 05                                             ..

Frame 46: 66 bytes on wire (528 bits), 66 bytes captured (528 bits) on interface 0
    Interface id: 0 (unknown)
        Interface name: unknown
    Encapsulation type: USB packets with Linux header and padding (115)
    Arrival Time: Jul  6, 2018 23:15:35.065249000 EDT
    [Time shift for this packet: 0.000000000 seconds]
    Epoch Time: 1530933335.065249000 seconds
    [Time delta from previous captured frame: 0.102764000 seconds]
    [Time delta from previous displayed frame: 0.102764000 seconds]
    [Time since reference or first frame: 11.870537000 seconds]
    Frame Number: 46
    Frame Length: 66 bytes (528 bits)
    Capture Length: 66 bytes (528 bits)
    [Frame is marked: False]
    [Frame is ignored: False]
    [Protocols in frame: usb]
USB URB
    [Source: 3.3.2]
    [Destination: host]
    URB id: 0xffff89fccc7b4a80
    URB type: URB_COMPLETE ('C')
    URB transfer type: URB_BULK (0x03)
    Endpoint: 0x82, Direction: IN
        1... .... = Direction: IN (1)
        .... 0010 = Endpoint number: 2
    Device: 3
    URB bus id: 3
    Device setup request: not relevant ('-')
    Data: present (0)
    URB sec: 1530933335
    URB usec: 65249
    URB status: Remote I/O error (-EREMOTEIO) (-121)
    URB length [bytes]: 2
    Data length [bytes]: 2
    [bInterfaceClass: Unknown (0xffff)]
    Unused Setup Header
    Interval: 0
    Start frame: 0
    Copy of Transfer Flags: 0x00000201
    Number of ISO descriptors: 0
Leftover Capture Data: 3103

0000  80 4a 7b cc fc 89 ff ff 43 03 82 03 03 00 2d 00   .J{.....C.....-.
0010  57 30 40 5b 00 00 00 00 e1 fe 00 00 87 ff ff ff   W0@[............
0020  02 00 00 00 02 00 00 00 00 00 00 00 00 00 00 00   ................
0030  00 00 00 00 00 00 00 00 01 02 00 00 00 00 00 00   ................
0040  31 03                                             1.

Frame 47: 66 bytes on wire (528 bits), 66 bytes captured (528 bits) on interface 0
    Interface id: 0 (unknown)
        Interface name: unknown
    Encapsulation type: USB packets with Linux header and padding (115)
    Arrival Time: Jul  6, 2018 23:15:35.475263000 EDT
    [Time shift for this packet: 0.000000000 seconds]
    Epoch Time: 1530933335.475263000 seconds
    [Time delta from previous captured frame: 0.410014000 seconds]
    [Time delta from previous displayed frame: 0.410014000 seconds]
    [Time since reference or first frame: 12.280551000 seconds]
    Frame Number: 47
    Frame Length: 66 bytes (528 bits)
    Capture Length: 66 bytes (528 bits)
    [Frame is marked: False]
    [Frame is ignored: False]
    [Protocols in frame: usb]
USB URB
    [Source: host]
    [Destination: 3.3.1]
    URB id: 0xffff89fccc7b4180
    URB type: URB_SUBMIT ('S')
    URB transfer type: URB_BULK (0x03)
    Endpoint: 0x01, Direction: OUT
        0... .... = Direction: OUT (0)
        .... 0001 = Endpoint number: 1
    Device: 3
    URB bus id: 3
    Device setup request: not relevant ('-')
    Data: present (0)
    URB sec: 1530933335
    URB usec: 475263
    URB status: Operation now in progress (-EINPROGRESS) (-115)
    URB length [bytes]: 2
    Data length [bytes]: 2
    [bInterfaceClass: Unknown (0xffff)]
    Unused Setup Header
    Interval: 0
    Start frame: 0
    Copy of Transfer Flags: 0x00000000
    Number of ISO descriptors: 0
Leftover Capture Data: 1b05

0000  80 41 7b cc fc 89 ff ff 53 03 01 03 03 00 2d 00   .A{.....S.....-.
0010  57 30 40 5b 00 00 00 00 7f 40 07 00 8d ff ff ff   W0@[.....@......
0020  02 00 00 00 02 00 00 00 00 00 00 00 00 00 00 00   ................
0030  00 00 00 00 00 00 00 00 00 00 00 00 00 00 00 00   ................
0040  1b 05                                             ..

Frame 48: 66 bytes on wire (528 bits), 66 bytes captured (528 bits) on interface 0
    Interface id: 0 (unknown)
        Interface name: unknown
    Encapsulation type: USB packets with Linux header and padding (115)
    Arrival Time: Jul  6, 2018 23:15:35.639207000 EDT
    [Time shift for this packet: 0.000000000 seconds]
    Epoch Time: 1530933335.639207000 seconds
    [Time delta from previous captured frame: 0.163944000 seconds]
    [Time delta from previous displayed frame: 0.163944000 seconds]
    [Time since reference or first frame: 12.444495000 seconds]
    Frame Number: 48
    Frame Length: 66 bytes (528 bits)
    Capture Length: 66 bytes (528 bits)
    [Frame is marked: False]
    [Frame is ignored: False]
    [Protocols in frame: usb]
USB URB
    [Source: 3.3.2]
    [Destination: host]
    URB id: 0xffff89fbc3025d80
    URB type: URB_COMPLETE ('C')
    URB transfer type: URB_BULK (0x03)
    Endpoint: 0x82, Direction: IN
        1... .... = Direction: IN (1)
        .... 0010 = Endpoint number: 2
    Device: 3
    URB bus id: 3
    Device setup request: not relevant ('-')
    Data: present (0)
    URB sec: 1530933335
    URB usec: 639207
    URB status: Remote I/O error (-EREMOTEIO) (-121)
    URB length [bytes]: 2
    Data length [bytes]: 2
    [bInterfaceClass: Unknown (0xffff)]
    Unused Setup Header
    Interval: 0
    Start frame: 0
    Copy of Transfer Flags: 0x00000201
    Number of ISO descriptors: 0
Leftover Capture Data: 3103

0000  80 5d 02 c3 fb 89 ff ff 43 03 82 03 03 00 2d 00   .]......C.....-.
0010  57 30 40 5b 00 00 00 00 e7 c0 09 00 87 ff ff ff   W0@[............
0020  02 00 00 00 02 00 00 00 00 00 00 00 00 00 00 00   ................
0030  00 00 00 00 00 00 00 00 01 02 00 00 00 00 00 00   ................
0040  31 03                                             1.

Frame 49: 66 bytes on wire (528 bits), 66 bytes captured (528 bits) on interface 0
    Interface id: 0 (unknown)
        Interface name: unknown
    Encapsulation type: USB packets with Linux header and padding (115)
    Arrival Time: Jul  6, 2018 23:15:36.024409000 EDT
    [Time shift for this packet: 0.000000000 seconds]
    Epoch Time: 1530933336.024409000 seconds
    [Time delta from previous captured frame: 0.385202000 seconds]
    [Time delta from previous displayed frame: 0.385202000 seconds]
    [Time since reference or first frame: 12.829697000 seconds]
    Frame Number: 49
    Frame Length: 66 bytes (528 bits)
    Capture Length: 66 bytes (528 bits)
    [Frame is marked: False]
    [Frame is ignored: False]
    [Protocols in frame: usb]
USB URB
    [Source: host]
    [Destination: 3.3.1]
    URB id: 0xffff89fbc30250c0
    URB type: URB_SUBMIT ('S')
    URB transfer type: URB_BULK (0x03)
    Endpoint: 0x01, Direction: OUT
        0... .... = Direction: OUT (0)
        .... 0001 = Endpoint number: 1
    Device: 3
    URB bus id: 3
    Device setup request: not relevant ('-')
    Data: present (0)
    URB sec: 1530933336
    URB usec: 24409
    URB status: Operation now in progress (-EINPROGRESS) (-115)
    URB length [bytes]: 2
    Data length [bytes]: 2
    [bInterfaceClass: Unknown (0xffff)]
    Unused Setup Header
    Interval: 0
    Start frame: 0
    Copy of Transfer Flags: 0x00000000
    Number of ISO descriptors: 0
Leftover Capture Data: 1b05

0000  c0 50 02 c3 fb 89 ff ff 53 03 01 03 03 00 2d 00   .P......S.....-.
0010  58 30 40 5b 00 00 00 00 59 5f 00 00 8d ff ff ff   X0@[....Y_......
0020  02 00 00 00 02 00 00 00 00 00 00 00 00 00 00 00   ................
0030  00 00 00 00 00 00 00 00 00 00 00 00 00 00 00 00   ................
0040  1b 05                                             ..

Frame 50: 66 bytes on wire (528 bits), 66 bytes captured (528 bits) on interface 0
    Interface id: 0 (unknown)
        Interface name: unknown
    Encapsulation type: USB packets with Linux header and padding (115)
    Arrival Time: Jul  6, 2018 23:15:36.131181000 EDT
    [Time shift for this packet: 0.000000000 seconds]
    Epoch Time: 1530933336.131181000 seconds
    [Time delta from previous captured frame: 0.106772000 seconds]
    [Time delta from previous displayed frame: 0.106772000 seconds]
    [Time since reference or first frame: 12.936469000 seconds]
    Frame Number: 50
    Frame Length: 66 bytes (528 bits)
    Capture Length: 66 bytes (528 bits)
    [Frame is marked: False]
    [Frame is ignored: False]
    [Protocols in frame: usb]
USB URB
    [Source: 3.3.2]
    [Destination: host]
    URB id: 0xffff89fc92559900
    URB type: URB_COMPLETE ('C')
    URB transfer type: URB_BULK (0x03)
    Endpoint: 0x82, Direction: IN
        1... .... = Direction: IN (1)
        .... 0010 = Endpoint number: 2
    Device: 3
    URB bus id: 3
    Device setup request: not relevant ('-')
    Data: present (0)
    URB sec: 1530933336
    URB usec: 131181
    URB status: Remote I/O error (-EREMOTEIO) (-121)
    URB length [bytes]: 2
    Data length [bytes]: 2
    [bInterfaceClass: Unknown (0xffff)]
    Unused Setup Header
    Interval: 0
    Start frame: 0
    Copy of Transfer Flags: 0x00000201
    Number of ISO descriptors: 0
Leftover Capture Data: 3103

0000  00 99 55 92 fc 89 ff ff 43 03 82 03 03 00 2d 00   ..U.....C.....-.
0010  58 30 40 5b 00 00 00 00 6d 00 02 00 87 ff ff ff   X0@[....m.......
0020  02 00 00 00 02 00 00 00 00 00 00 00 00 00 00 00   ................
0030  00 00 00 00 00 00 00 00 01 02 00 00 00 00 00 00   ................
0040  31 03                                             1.

Frame 51: 66 bytes on wire (528 bits), 66 bytes captured (528 bits) on interface 0
    Interface id: 0 (unknown)
        Interface name: unknown
    Encapsulation type: USB packets with Linux header and padding (115)
    Arrival Time: Jul  6, 2018 23:15:36.553456000 EDT
    [Time shift for this packet: 0.000000000 seconds]
    Epoch Time: 1530933336.553456000 seconds
    [Time delta from previous captured frame: 0.422275000 seconds]
    [Time delta from previous displayed frame: 0.422275000 seconds]
    [Time since reference or first frame: 13.358744000 seconds]
    Frame Number: 51
    Frame Length: 66 bytes (528 bits)
    Capture Length: 66 bytes (528 bits)
    [Frame is marked: False]
    [Frame is ignored: False]
    [Protocols in frame: usb]
USB URB
    [Source: host]
    [Destination: 3.3.1]
    URB id: 0xffff89fbc30259c0
    URB type: URB_SUBMIT ('S')
    URB transfer type: URB_BULK (0x03)
    Endpoint: 0x01, Direction: OUT
        0... .... = Direction: OUT (0)
        .... 0001 = Endpoint number: 1
    Device: 3
    URB bus id: 3
    Device setup request: not relevant ('-')
    Data: present (0)
    URB sec: 1530933336
    URB usec: 553456
    URB status: Operation now in progress (-EINPROGRESS) (-115)
    URB length [bytes]: 2
    Data length [bytes]: 2
    [bInterfaceClass: Unknown (0xffff)]
    Unused Setup Header
    Interval: 0
    Start frame: 0
    Copy of Transfer Flags: 0x00000000
    Number of ISO descriptors: 0
Leftover Capture Data: 1b05

0000  c0 59 02 c3 fb 89 ff ff 53 03 01 03 03 00 2d 00   .Y......S.....-.
0010  58 30 40 5b 00 00 00 00 f0 71 08 00 8d ff ff ff   X0@[.....q......
0020  02 00 00 00 02 00 00 00 00 00 00 00 00 00 00 00   ................
0030  00 00 00 00 00 00 00 00 00 00 00 00 00 00 00 00   ................
0040  1b 05                                             ..

Frame 52: 66 bytes on wire (528 bits), 66 bytes captured (528 bits) on interface 0
    Interface id: 0 (unknown)
        Interface name: unknown
    Encapsulation type: USB packets with Linux header and padding (115)
    Arrival Time: Jul  6, 2018 23:15:36.705182000 EDT
    [Time shift for this packet: 0.000000000 seconds]
    Epoch Time: 1530933336.705182000 seconds
    [Time delta from previous captured frame: 0.151726000 seconds]
    [Time delta from previous displayed frame: 0.151726000 seconds]
    [Time since reference or first frame: 13.510470000 seconds]
    Frame Number: 52
    Frame Length: 66 bytes (528 bits)
    Capture Length: 66 bytes (528 bits)
    [Frame is marked: False]
    [Frame is ignored: False]
    [Protocols in frame: usb]
USB URB
    [Source: 3.3.2]
    [Destination: host]
    URB id: 0xffff89fccc7b4840
    URB type: URB_COMPLETE ('C')
    URB transfer type: URB_BULK (0x03)
    Endpoint: 0x82, Direction: IN
        1... .... = Direction: IN (1)
        .... 0010 = Endpoint number: 2
    Device: 3
    URB bus id: 3
    Device setup request: not relevant ('-')
    Data: present (0)
    URB sec: 1530933336
    URB usec: 705182
    URB status: Remote I/O error (-EREMOTEIO) (-121)
    URB length [bytes]: 2
    Data length [bytes]: 2
    [bInterfaceClass: Unknown (0xffff)]
    Unused Setup Header
    Interval: 0
    Start frame: 0
    Copy of Transfer Flags: 0x00000201
    Number of ISO descriptors: 0
Leftover Capture Data: 3103

0000  40 48 7b cc fc 89 ff ff 43 03 82 03 03 00 2d 00   @H{.....C.....-.
0010  58 30 40 5b 00 00 00 00 9e c2 0a 00 87 ff ff ff   X0@[............
0020  02 00 00 00 02 00 00 00 00 00 00 00 00 00 00 00   ................
0030  00 00 00 00 00 00 00 00 01 02 00 00 00 00 00 00   ................
0040  31 03                                             1.

Frame 53: 66 bytes on wire (528 bits), 66 bytes captured (528 bits) on interface 0
    Interface id: 0 (unknown)
        Interface name: unknown
    Encapsulation type: USB packets with Linux header and padding (115)
    Arrival Time: Jul  6, 2018 23:15:37.102789000 EDT
    [Time shift for this packet: 0.000000000 seconds]
    Epoch Time: 1530933337.102789000 seconds
    [Time delta from previous captured frame: 0.397607000 seconds]
    [Time delta from previous displayed frame: 0.397607000 seconds]
    [Time since reference or first frame: 13.908077000 seconds]
    Frame Number: 53
    Frame Length: 66 bytes (528 bits)
    Capture Length: 66 bytes (528 bits)
    [Frame is marked: False]
    [Frame is ignored: False]
    [Protocols in frame: usb]
USB URB
    [Source: host]
    [Destination: 3.3.1]
    URB id: 0xffff89fbc30253c0
    URB type: URB_SUBMIT ('S')
    URB transfer type: URB_BULK (0x03)
    Endpoint: 0x01, Direction: OUT
        0... .... = Direction: OUT (0)
        .... 0001 = Endpoint number: 1
    Device: 3
    URB bus id: 3
    Device setup request: not relevant ('-')
    Data: present (0)
    URB sec: 1530933337
    URB usec: 102789
    URB status: Operation now in progress (-EINPROGRESS) (-115)
    URB length [bytes]: 2
    Data length [bytes]: 2
    [bInterfaceClass: Unknown (0xffff)]
    Unused Setup Header
    Interval: 0
    Start frame: 0
    Copy of Transfer Flags: 0x00000000
    Number of ISO descriptors: 0
Leftover Capture Data: 1b05

0000  c0 53 02 c3 fb 89 ff ff 53 03 01 03 03 00 2d 00   .S......S.....-.
0010  59 30 40 5b 00 00 00 00 85 91 01 00 8d ff ff ff   Y0@[............
0020  02 00 00 00 02 00 00 00 00 00 00 00 00 00 00 00   ................
0030  00 00 00 00 00 00 00 00 00 00 00 00 00 00 00 00   ................
0040  1b 05                                             ..

Frame 54: 66 bytes on wire (528 bits), 66 bytes captured (528 bits) on interface 0
    Interface id: 0 (unknown)
        Interface name: unknown
    Encapsulation type: USB packets with Linux header and padding (115)
    Arrival Time: Jul  6, 2018 23:15:37.197228000 EDT
    [Time shift for this packet: 0.000000000 seconds]
    Epoch Time: 1530933337.197228000 seconds
    [Time delta from previous captured frame: 0.094439000 seconds]
    [Time delta from previous displayed frame: 0.094439000 seconds]
    [Time since reference or first frame: 14.002516000 seconds]
    Frame Number: 54
    Frame Length: 66 bytes (528 bits)
    Capture Length: 66 bytes (528 bits)
    [Frame is marked: False]
    [Frame is ignored: False]
    [Protocols in frame: usb]
USB URB
    [Source: 3.3.2]
    [Destination: host]
    URB id: 0xffff89fc92559900
    URB type: URB_COMPLETE ('C')
    URB transfer type: URB_BULK (0x03)
    Endpoint: 0x82, Direction: IN
        1... .... = Direction: IN (1)
        .... 0010 = Endpoint number: 2
    Device: 3
    URB bus id: 3
    Device setup request: not relevant ('-')
    Data: present (0)
    URB sec: 1530933337
    URB usec: 197228
    URB status: Remote I/O error (-EREMOTEIO) (-121)
    URB length [bytes]: 2
    Data length [bytes]: 2
    [bInterfaceClass: Unknown (0xffff)]
    Unused Setup Header
    Interval: 0
    Start frame: 0
    Copy of Transfer Flags: 0x00000201
    Number of ISO descriptors: 0
Leftover Capture Data: 3103

0000  00 99 55 92 fc 89 ff ff 43 03 82 03 03 00 2d 00   ..U.....C.....-.
0010  59 30 40 5b 00 00 00 00 6c 02 03 00 87 ff ff ff   Y0@[....l.......
0020  02 00 00 00 02 00 00 00 00 00 00 00 00 00 00 00   ................
0030  00 00 00 00 00 00 00 00 01 02 00 00 00 00 00 00   ................
0040  31 03                                             1.

Frame 55: 66 bytes on wire (528 bits), 66 bytes captured (528 bits) on interface 0
    Interface id: 0 (unknown)
        Interface name: unknown
    Encapsulation type: USB packets with Linux header and padding (115)
    Arrival Time: Jul  6, 2018 23:15:37.632195000 EDT
    [Time shift for this packet: 0.000000000 seconds]
    Epoch Time: 1530933337.632195000 seconds
    [Time delta from previous captured frame: 0.434967000 seconds]
    [Time delta from previous displayed frame: 0.434967000 seconds]
    [Time since reference or first frame: 14.437483000 seconds]
    Frame Number: 55
    Frame Length: 66 bytes (528 bits)
