Frame 1: 82 bytes on wire (656 bits), 82 bytes captured (656 bits) on interface 0
    Interface id: 0 (unknown)
        Interface name: unknown
    Encapsulation type: USB packets with Linux header and padding (115)
    Arrival Time: Jul  1, 2018 21:53:49.522251000 EDT
    [Time shift for this packet: 0.000000000 seconds]
    Epoch Time: 1530496429.522251000 seconds
    [Time delta from previous captured frame: 0.000000000 seconds]
    [Time delta from previous displayed frame: 0.000000000 seconds]
    [Time since reference or first frame: 0.000000000 seconds]
    Frame Number: 1
    Frame Length: 82 bytes (656 bits)
    Capture Length: 82 bytes (656 bits)
    [Frame is marked: False]
    [Frame is ignored: False]
    [Protocols in frame: usb]
USB URB
    [Source: 3.3.0]
    [Destination: host]
    URB id: 0xffff89fc92459300
    URB type: URB_COMPLETE ('C')
    URB transfer type: URB_CONTROL (0x02)
    Endpoint: 0x80, Direction: IN
        1... .... = Direction: IN (1)
        .... 0000 = Endpoint number: 0
    Device: 3
    URB bus id: 3
    Device setup request: not relevant ('-')
    Data: present (0)
    URB sec: 1530496429
    URB usec: 522251
    URB status: Success (0)
    URB length [bytes]: 18
    Data length [bytes]: 18
    Unused Setup Header
    Interval: 0
    Start frame: 0
    Copy of Transfer Flags: 0x00000200
    Number of ISO descriptors: 0
CONTROL response data: 12010002000000404d0b2f11000100000101

0000  00 93 45 92 fc 89 ff ff 43 02 80 03 03 00 2d 00   ..E.....C.....-.
0010  ad 85 39 5b 00 00 00 00 0b f8 07 00 00 00 00 00   ..9[............
0020  12 00 00 00 12 00 00 00 00 00 00 00 00 00 00 00   ................
0030  00 00 00 00 00 00 00 00 00 02 00 00 00 00 00 00   ................
0040  12 01 00 02 00 00 00 40 4d 0b 2f 11 00 01 00 00   .......@M./.....
0050  01 01                                             ..

Frame 2: 82 bytes on wire (656 bits), 82 bytes captured (656 bits) on interface 0
    Interface id: 0 (unknown)
        Interface name: unknown
    Encapsulation type: USB packets with Linux header and padding (115)
    Arrival Time: Jul  1, 2018 21:54:06.651296000 EDT
    [Time shift for this packet: 0.000000000 seconds]
    Epoch Time: 1530496446.651296000 seconds
    [Time delta from previous captured frame: 17.129045000 seconds]
    [Time delta from previous displayed frame: 17.129045000 seconds]
    [Time since reference or first frame: 17.129045000 seconds]
    Frame Number: 2
    Frame Length: 82 bytes (656 bits)
    Capture Length: 82 bytes (656 bits)
    [Frame is marked: False]
    [Frame is ignored: False]
    [Protocols in frame: usb]
USB URB
    [Source: 3.3.0]
    [Destination: host]
    URB id: 0xffff89fc924593c0
    URB type: URB_COMPLETE ('C')
    URB transfer type: URB_CONTROL (0x02)
    Endpoint: 0x80, Direction: IN
        1... .... = Direction: IN (1)
        .... 0000 = Endpoint number: 0
    Device: 3
    URB bus id: 3
    Device setup request: not relevant ('-')
    Data: present (0)
    URB sec: 1530496446
    URB usec: 651296
    URB status: Success (0)
    URB length [bytes]: 18
    Data length [bytes]: 18
    Unused Setup Header
    Interval: 0
    Start frame: 0
    Copy of Transfer Flags: 0x00000200
    Number of ISO descriptors: 0
CONTROL response data: 12010002000000404d0b2f11000100000101

0000  c0 93 45 92 fc 89 ff ff 43 02 80 03 03 00 2d 00   ..E.....C.....-.
0010  be 85 39 5b 00 00 00 00 20 f0 09 00 00 00 00 00   ..9[.... .......
0020  12 00 00 00 12 00 00 00 00 00 00 00 00 00 00 00   ................
0030  00 00 00 00 00 00 00 00 00 02 00 00 00 00 00 00   ................
0040  12 01 00 02 00 00 00 40 4d 0b 2f 11 00 01 00 00   .......@M./.....
0050  01 01                                             ..

Frame 3: 82 bytes on wire (656 bits), 82 bytes captured (656 bits) on interface 0
    Interface id: 0 (unknown)
        Interface name: unknown
    Encapsulation type: USB packets with Linux header and padding (115)
    Arrival Time: Jul  1, 2018 21:54:06.701350000 EDT
    [Time shift for this packet: 0.000000000 seconds]
    Epoch Time: 1530496446.701350000 seconds
    [Time delta from previous captured frame: 0.050054000 seconds]
    [Time delta from previous displayed frame: 0.050054000 seconds]
    [Time since reference or first frame: 17.179099000 seconds]
    Frame Number: 3
    Frame Length: 82 bytes (656 bits)
    Capture Length: 82 bytes (656 bits)
    [Frame is marked: False]
    [Frame is ignored: False]
    [Protocols in frame: usb]
USB URB
    [Source: 3.3.0]
    [Destination: host]
    URB id: 0xffff89fd4f8a4180
    URB type: URB_COMPLETE ('C')
    URB transfer type: URB_CONTROL (0x02)
    Endpoint: 0x80, Direction: IN
        1... .... = Direction: IN (1)
        .... 0000 = Endpoint number: 0
    Device: 3
    URB bus id: 3
    Device setup request: not relevant ('-')
    Data: present (0)
    URB sec: 1530496446
    URB usec: 701350
    URB status: Success (0)
    URB length [bytes]: 18
    Data length [bytes]: 18
    Unused Setup Header
    Interval: 0
    Start frame: 0
    Copy of Transfer Flags: 0x00000200
    Number of ISO descriptors: 0
CONTROL response data: 12010002000000404d0b2f11000100000101

0000  80 41 8a 4f fd 89 ff ff 43 02 80 03 03 00 2d 00   .A.O....C.....-.
0010  be 85 39 5b 00 00 00 00 a6 b3 0a 00 00 00 00 00   ..9[............
0020  12 00 00 00 12 00 00 00 00 00 00 00 00 00 00 00   ................
0030  00 00 00 00 00 00 00 00 00 02 00 00 00 00 00 00   ................
0040  12 01 00 02 00 00 00 40 4d 0b 2f 11 00 01 00 00   .......@M./.....
0050  01 01                                             ..

Frame 4: 96 bytes on wire (768 bits), 96 bytes captured (768 bits) on interface 0
    Interface id: 0 (unknown)
        Interface name: unknown
    Encapsulation type: USB packets with Linux header and padding (115)
    Arrival Time: Jul  1, 2018 21:54:06.707306000 EDT
    [Time shift for this packet: 0.000000000 seconds]
    Epoch Time: 1530496446.707306000 seconds
    [Time delta from previous captured frame: 0.005956000 seconds]
    [Time delta from previous displayed frame: 0.005956000 seconds]
    [Time since reference or first frame: 17.185055000 seconds]
    Frame Number: 4
    Frame Length: 96 bytes (768 bits)
    Capture Length: 96 bytes (768 bits)
    [Frame is marked: False]
    [Frame is ignored: False]
    [Protocols in frame: usb]
USB URB
    [Source: 3.3.0]
    [Destination: host]
    URB id: 0xffff89fd4f8a4180
    URB type: URB_COMPLETE ('C')
    URB transfer type: URB_CONTROL (0x02)
    Endpoint: 0x80, Direction: IN
        1... .... = Direction: IN (1)
        .... 0000 = Endpoint number: 0
    Device: 3
    URB bus id: 3
    Device setup request: not relevant ('-')
    Data: present (0)
    URB sec: 1530496446
    URB usec: 707306
    URB status: Success (0)
    URB length [bytes]: 32
    Data length [bytes]: 32
    Unused Setup Header
    Interval: 0
    Start frame: 0
    Copy of Transfer Flags: 0x00000200
    Number of ISO descriptors: 0
CONTROL response data: 09022000010100c032090400000207010200070501024000...

0000  80 41 8a 4f fd 89 ff ff 43 02 80 03 03 00 2d 00   .A.O....C.....-.
0010  be 85 39 5b 00 00 00 00 ea ca 0a 00 00 00 00 00   ..9[............
0020  20 00 00 00 20 00 00 00 00 00 00 00 00 00 00 00    ... ...........
0030  00 00 00 00 00 00 00 00 00 02 00 00 00 00 00 00   ................
0040  09 02 20 00 01 01 00 c0 32 09 04 00 00 02 07 01   .. .....2.......
0050  02 00 07 05 01 02 40 00 00 07 05 82 02 40 00 00   ......@......@..

Frame 5: 80 bytes on wire (640 bits), 80 bytes captured (640 bits) on interface 0
    Interface id: 0 (unknown)
        Interface name: unknown
    Encapsulation type: USB packets with Linux header and padding (115)
    Arrival Time: Jul  1, 2018 21:54:06.713320000 EDT
    [Time shift for this packet: 0.000000000 seconds]
    Epoch Time: 1530496446.713320000 seconds
    [Time delta from previous captured frame: 0.006014000 seconds]
    [Time delta from previous displayed frame: 0.006014000 seconds]
    [Time since reference or first frame: 17.191069000 seconds]
    Frame Number: 5
    Frame Length: 80 bytes (640 bits)
    Capture Length: 80 bytes (640 bits)
    [Frame is marked: False]
    [Frame is ignored: False]
    [Protocols in frame: usb]
USB URB
    [Source: 3.3.0]
    [Destination: host]
    URB id: 0xffff89fd4f8a4180
    URB type: URB_COMPLETE ('C')
    URB transfer type: URB_CONTROL (0x02)
    Endpoint: 0x80, Direction: IN
        1... .... = Direction: IN (1)
        .... 0000 = Endpoint number: 0
    Device: 3
    URB bus id: 3
    Device setup request: not relevant ('-')
    Data: present (0)
    URB sec: 1530496446
    URB usec: 713320
    URB status: Success (0)
    URB length [bytes]: 16
    Data length [bytes]: 16
    Unused Setup Header
    Interval: 0
    Start frame: 0
    Copy of Transfer Flags: 0x00000200
    Number of ISO descriptors: 0
CONTROL response data: 10033300390033003900300000000000

0000  80 41 8a 4f fd 89 ff ff 43 02 80 03 03 00 2d 00   .A.O....C.....-.
0010  be 85 39 5b 00 00 00 00 68 e2 0a 00 00 00 00 00   ..9[....h.......
0020  10 00 00 00 10 00 00 00 00 00 00 00 00 00 00 00   ................
0030  00 00 00 00 00 00 00 00 00 02 00 00 00 00 00 00   ................
0040  10 03 33 00 39 00 33 00 39 00 30 00 00 00 00 00   ..3.9.3.9.0.....

Frame 6: 64 bytes on wire (512 bits), 64 bytes captured (512 bits) on interface 0
    Interface id: 0 (unknown)
        Interface name: unknown
    Encapsulation type: USB packets with Linux header and padding (115)
    Arrival Time: Jul  1, 2018 21:54:06.717363000 EDT
    [Time shift for this packet: 0.000000000 seconds]
    Epoch Time: 1530496446.717363000 seconds
    [Time delta from previous captured frame: 0.004043000 seconds]
    [Time delta from previous displayed frame: 0.004043000 seconds]
    [Time since reference or first frame: 17.195112000 seconds]
    Frame Number: 6
    Frame Length: 64 bytes (512 bits)
    Capture Length: 64 bytes (512 bits)
    [Frame is marked: False]
    [Frame is ignored: False]
    [Protocols in frame: usb]
USB URB
    [Source: 3.3.0]
    [Destination: host]
    URB id: 0xffff89fd4f8a4180
    URB type: URB_COMPLETE ('C')
    URB transfer type: URB_CONTROL (0x02)
    Endpoint: 0x80, Direction: IN
        1... .... = Direction: IN (1)
        .... 0000 = Endpoint number: 0
    Device: 3
    URB bus id: 3
    Device setup request: not relevant ('-')
    Data: present (0)
    URB sec: 1530496446
    URB usec: 717363
    URB status: Broken pipe (-EPIPE) (-32)
    URB length [bytes]: 0
    Data length [bytes]: 0
    Unused Setup Header
    Interval: 0
    Start frame: 0
    Copy of Transfer Flags: 0x00000200
    Number of ISO descriptors: 0

0000  80 41 8a 4f fd 89 ff ff 43 02 80 03 03 00 2d 00   .A.O....C.....-.
0010  be 85 39 5b 00 00 00 00 33 f2 0a 00 e0 ff ff ff   ..9[....3.......
0020  00 00 00 00 00 00 00 00 00 00 00 00 00 00 00 00   ................
0030  00 00 00 00 00 00 00 00 00 02 00 00 00 00 00 00   ................

Frame 7: 96 bytes on wire (768 bits), 96 bytes captured (768 bits) on interface 0
    Interface id: 0 (unknown)
        Interface name: unknown
    Encapsulation type: USB packets with Linux header and padding (115)
    Arrival Time: Jul  1, 2018 21:54:06.936348000 EDT
    [Time shift for this packet: 0.000000000 seconds]
    Epoch Time: 1530496446.936348000 seconds
    [Time delta from previous captured frame: 0.218985000 seconds]
    [Time delta from previous displayed frame: 0.218985000 seconds]
    [Time since reference or first frame: 17.414097000 seconds]
    Frame Number: 7
    Frame Length: 96 bytes (768 bits)
    Capture Length: 96 bytes (768 bits)
    [Frame is marked: False]
    [Frame is ignored: False]
    [Protocols in frame: usb]
USB URB
    [Source: 3.3.0]
    [Destination: host]
    URB id: 0xffff89fd08dbb0c0
    URB type: URB_COMPLETE ('C')
    URB transfer type: URB_CONTROL (0x02)
    Endpoint: 0x80, Direction: IN
        1... .... = Direction: IN (1)
        .... 0000 = Endpoint number: 0
    Device: 3
    URB bus id: 3
    Device setup request: not relevant ('-')
    Data: present (0)
    URB sec: 1530496446
    URB usec: 936348
    URB status: Success (0)
    URB length [bytes]: 32
    Data length [bytes]: 32
    Unused Setup Header
    Interval: 0
    Start frame: 0
    Copy of Transfer Flags: 0x00000200
    Number of ISO descriptors: 0
CONTROL response data: 09022000010100c032090400000207010200070501024000...

0000  c0 b0 db 08 fd 89 ff ff 43 02 80 03 03 00 2d 00   ........C.....-.
0010  be 85 39 5b 00 00 00 00 9c 49 0e 00 00 00 00 00   ..9[.....I......
0020  20 00 00 00 20 00 00 00 00 00 00 00 00 00 00 00    ... ...........
0030  00 00 00 00 00 00 00 00 00 02 00 00 00 00 00 00   ................
0040  09 02 20 00 01 01 00 c0 32 09 04 00 00 02 07 01   .. .....2.......
0050  02 00 07 05 01 02 40 00 00 07 05 82 02 40 00 00   ......@......@..

Frame 8: 82 bytes on wire (656 bits), 82 bytes captured (656 bits) on interface 0
    Interface id: 0 (unknown)
        Interface name: unknown
    Encapsulation type: USB packets with Linux header and padding (115)
    Arrival Time: Jul  1, 2018 21:54:06.943310000 EDT
    [Time shift for this packet: 0.000000000 seconds]
    Epoch Time: 1530496446.943310000 seconds
    [Time delta from previous captured frame: 0.006962000 seconds]
    [Time delta from previous displayed frame: 0.006962000 seconds]
    [Time since reference or first frame: 17.421059000 seconds]
    Frame Number: 8
    Frame Length: 82 bytes (656 bits)
    Capture Length: 82 bytes (656 bits)
    [Frame is marked: False]
    [Frame is ignored: False]
    [Protocols in frame: usb]
USB URB
    [Source: 3.3.0]
    [Destination: host]
    URB id: 0xffff89fc92459480
    URB type: URB_COMPLETE ('C')
    URB transfer type: URB_CONTROL (0x02)
    Endpoint: 0x80, Direction: IN
        1... .... = Direction: IN (1)
        .... 0000 = Endpoint number: 0
    Device: 3
    URB bus id: 3
    Device setup request: not relevant ('-')
    Data: present (0)
    URB sec: 1530496446
    URB usec: 943310
    URB status: Success (0)
    URB length [bytes]: 18
    Data length [bytes]: 18
    Unused Setup Header
    Interval: 0
    Start frame: 0
    Copy of Transfer Flags: 0x00000200
    Number of ISO descriptors: 0
CONTROL response data: 12010002000000404d0b2f11000100000101

0000  80 94 45 92 fc 89 ff ff 43 02 80 03 03 00 2d 00   ..E.....C.....-.
0010  be 85 39 5b 00 00 00 00 ce 64 0e 00 00 00 00 00   ..9[.....d......
0020  12 00 00 00 12 00 00 00 00 00 00 00 00 00 00 00   ................
0030  00 00 00 00 00 00 00 00 00 02 00 00 00 00 00 00   ................
0040  12 01 00 02 00 00 00 40 4d 0b 2f 11 00 01 00 00   .......@M./.....
0050  01 01                                             ..

Packet comments
    The stuff above here cannot be valid, the device isn't even powered on!
        [Expert Info (Comment/Comment): The stuff above here cannot be valid, the device isn't even powered on!]
            [The stuff above here cannot be valid, the device isn't even powered on!]
            [Severity level: Comment]
            [Group: Comment]
Frame 9: 149 bytes on wire (1192 bits), 149 bytes captured (1192 bits) on interface 0
    Interface id: 0 (unknown)
        Interface name: unknown
    Encapsulation type: USB packets with Linux header and padding (115)
    Arrival Time: Jul  1, 2018 21:54:06.950314000 EDT
    [Time shift for this packet: 0.000000000 seconds]
    Epoch Time: 1530496446.950314000 seconds
    [Time delta from previous captured frame: 0.007004000 seconds]
    [Time delta from previous displayed frame: 0.007004000 seconds]
    [Time since reference or first frame: 17.428063000 seconds]
    Frame Number: 9
    Frame Length: 149 bytes (1192 bits)
    Capture Length: 149 bytes (1192 bits)
    [Frame is marked: False]
    [Frame is ignored: False]
    [Protocols in frame: usb]
USB URB
    [Source: 3.3.0]
    [Destination: host]
    URB id: 0xffff89fd08dbbc00
    URB type: URB_COMPLETE ('C')
    URB transfer type: URB_CONTROL (0x02)
    Endpoint: 0x80, Direction: IN
        1... .... = Direction: IN (1)
        .... 0000 = Endpoint number: 0
    Device: 3
    URB bus id: 3
    Device setup request: not relevant ('-')
    Data: present (0)
    URB sec: 1530496446
    URB usec: 950314
    URB status: Success (0)
    URB length [bytes]: 85
    Data length [bytes]: 85
    Unused Setup Header
    Interval: 0
    Start frame: 0
    Copy of Transfer Flags: 0x00000200
    Number of ISO descriptors: 0
CONTROL response data: 00554d414e5546414354555245523a53696c686f75657474...

0000  00 bc db 08 fd 89 ff ff 43 02 80 03 03 00 2d 00   ........C.....-.
0010  be 85 39 5b 00 00 00 00 2a 80 0e 00 00 00 00 00   ..9[....*.......
0020  55 00 00 00 55 00 00 00 00 00 00 00 00 00 00 00   U...U...........
0030  00 00 00 00 00 00 00 00 00 02 00 00 00 00 00 00   ................
0040  00 55 4d 41 4e 55 46 41 43 54 55 52 45 52 3a 53   .UMANUFACTURER:S
0050  69 6c 68 6f 75 65 74 74 65 3b 4d 4f 44 45 4c 3a   ilhouette;MODEL:
0060  43 41 4d 45 4f 20 33 3b 43 4c 41 53 53 3a 50 52   CAMEO 3;CLASS:PR
0070  49 4e 54 45 52 3b 44 45 53 43 52 49 50 54 49 4f   INTER;DESCRIPTIO
0080  4e 3a 53 69 6c 68 6f 75 65 74 74 65 20 43 41 4d   N:Silhouette CAM
0090  45 4f 20 33 3b                                    EO 3;

Frame 10: 66 bytes on wire (528 bits), 66 bytes captured (528 bits) on interface 0
    Interface id: 0 (unknown)
        Interface name: unknown
    Encapsulation type: USB packets with Linux header and padding (115)
    Arrival Time: Jul  1, 2018 21:55:31.162133000 EDT
    [Time shift for this packet: 0.000000000 seconds]
    Epoch Time: 1530496531.162133000 seconds
    [Time delta from previous captured frame: 84.211819000 seconds]
    [Time delta from previous displayed frame: 84.211819000 seconds]
    [Time since reference or first frame: 101.639882000 seconds]
    Frame Number: 10
    Frame Length: 66 bytes (528 bits)
    Capture Length: 66 bytes (528 bits)
    [Frame is marked: False]
    [Frame is ignored: False]
    [Protocols in frame: usb]
USB URB
    [Source: host]
    [Destination: 3.3.1]
    URB id: 0xffff89fc92459780
    URB type: URB_SUBMIT ('S')
    URB transfer type: URB_BULK (0x03)
    Endpoint: 0x01, Direction: OUT
        0... .... = Direction: OUT (0)
        .... 0001 = Endpoint number: 1
    Device: 3
    URB bus id: 3
    Device setup request: not relevant ('-')
    Data: present (0)
    URB sec: 1530496531
    URB usec: 162133
    URB status: Operation now in progress (-EINPROGRESS) (-115)
    URB length [bytes]: 2
    Data length [bytes]: 2
    [bInterfaceClass: Unknown (0xffff)]
    Unused Setup Header
    Interval: 0
    Start frame: 0
    Copy of Transfer Flags: 0x00000000
    Number of ISO descriptors: 0
Leftover Capture Data: 1b05

0000  80 97 45 92 fc 89 ff ff 53 03 01 03 03 00 2d 00   ..E.....S.....-.
0010  13 86 39 5b 00 00 00 00 55 79 02 00 8d ff ff ff   ..9[....Uy......
0020  02 00 00 00 02 00 00 00 00 00 00 00 00 00 00 00   ................
0030  00 00 00 00 00 00 00 00 00 00 00 00 00 00 00 00   ................
0040  1b 05                                             ..

Frame 11: 66 bytes on wire (528 bits), 66 bytes captured (528 bits) on interface 0
    Interface id: 0 (unknown)
        Interface name: unknown
    Encapsulation type: USB packets with Linux header and padding (115)
    Arrival Time: Jul  1, 2018 21:55:31.313515000 EDT
    [Time shift for this packet: 0.000000000 seconds]
    Epoch Time: 1530496531.313515000 seconds
    [Time delta from previous captured frame: 0.151382000 seconds]
    [Time delta from previous displayed frame: 0.151382000 seconds]
    [Time since reference or first frame: 101.791264000 seconds]
    Frame Number: 11
    Frame Length: 66 bytes (528 bits)
    Capture Length: 66 bytes (528 bits)
    [Frame is marked: False]
    [Frame is ignored: False]
    [Protocols in frame: usb]
USB URB
    [Source: 3.3.2]
    [Destination: host]
    URB id: 0xffff89fc9248cb40
    URB type: URB_COMPLETE ('C')
    URB transfer type: URB_BULK (0x03)
    Endpoint: 0x82, Direction: IN
        1... .... = Direction: IN (1)
        .... 0010 = Endpoint number: 2
    Device: 3
    URB bus id: 3
    Device setup request: not relevant ('-')
    Data: present (0)
    URB sec: 1530496531
    URB usec: 313515
    URB status: Remote I/O error (-EREMOTEIO) (-121)
    URB length [bytes]: 2
    Data length [bytes]: 2
    [bInterfaceClass: Unknown (0xffff)]
    Unused Setup Header
    Interval: 0
    Start frame: 0
    Copy of Transfer Flags: 0x00000201
    Number of ISO descriptors: 0
Leftover Capture Data: 3003

0000  40 cb 48 92 fc 89 ff ff 43 03 82 03 03 00 2d 00   @.H.....C.....-.
0010  13 86 39 5b 00 00 00 00 ab c8 04 00 87 ff ff ff   ..9[............
0020  02 00 00 00 02 00 00 00 00 00 00 00 00 00 00 00   ................
0030  00 00 00 00 00 00 00 00 01 02 00 00 00 00 00 00   ................
0040  30 03                                             0.

Frame 12: 67 bytes on wire (536 bits), 67 bytes captured (536 bits) on interface 0
    Interface id: 0 (unknown)
        Interface name: unknown
    Encapsulation type: USB packets with Linux header and padding (115)
    Arrival Time: Jul  1, 2018 21:55:32.744212000 EDT
    [Time shift for this packet: 0.000000000 seconds]
    Epoch Time: 1530496532.744212000 seconds
    [Time delta from previous captured frame: 1.430697000 seconds]
    [Time delta from previous displayed frame: 1.430697000 seconds]
    [Time since reference or first frame: 103.221961000 seconds]
    Frame Number: 12
    Frame Length: 67 bytes (536 bits)
    Capture Length: 67 bytes (536 bits)
    [Frame is marked: False]
    [Frame is ignored: False]
    [Protocols in frame: usb]
USB URB
    [Source: host]
    [Destination: 3.3.1]
    URB id: 0xffff89fc41ab89c0
    URB type: URB_SUBMIT ('S')
    URB transfer type: URB_BULK (0x03)
    Endpoint: 0x01, Direction: OUT
        0... .... = Direction: OUT (0)
        .... 0001 = Endpoint number: 1
    Device: 3
    URB bus id: 3
    Device setup request: not relevant ('-')
    Data: present (0)
    URB sec: 1530496532
    URB usec: 744212
    URB status: Operation now in progress (-EINPROGRESS) (-115)
    URB length [bytes]: 3
    Data length [bytes]: 3
    [bInterfaceClass: Unknown (0xffff)]
    Unused Setup Header
    Interval: 0
    Start frame: 0
    Copy of Transfer Flags: 0x00000000
    Number of ISO descriptors: 0
Leftover Capture Data: 464703

0000  c0 89 ab 41 fc 89 ff ff 53 03 01 03 03 00 2d 00   ...A....S.....-.
0010  14 86 39 5b 00 00 00 00 14 5b 0b 00 8d ff ff ff   ..9[.....[......
0020  03 00 00 00 03 00 00 00 00 00 00 00 00 00 00 00   ................
0030  00 00 00 00 00 00 00 00 00 00 00 00 00 00 00 00   ................
0040  46 47 03                                          FG.

Frame 13: 82 bytes on wire (656 bits), 82 bytes captured (656 bits) on interface 0
    Interface id: 0 (unknown)
        Interface name: unknown
    Encapsulation type: USB packets with Linux header and padding (115)
    Arrival Time: Jul  1, 2018 21:55:32.871537000 EDT
    [Time shift for this packet: 0.000000000 seconds]
    Epoch Time: 1530496532.871537000 seconds
    [Time delta from previous captured frame: 0.127325000 seconds]
    [Time delta from previous displayed frame: 0.127325000 seconds]
    [Time since reference or first frame: 103.349286000 seconds]
    Frame Number: 13
    Frame Length: 82 bytes (656 bits)
    Capture Length: 82 bytes (656 bits)
    [Frame is marked: False]
    [Frame is ignored: False]
    [Protocols in frame: usb]
USB URB
    [Source: 3.3.2]
    [Destination: host]
    URB id: 0xffff89fc41ab8000
    URB type: URB_COMPLETE ('C')
    URB transfer type: URB_BULK (0x03)
    Endpoint: 0x82, Direction: IN
        1... .... = Direction: IN (1)
        .... 0010 = Endpoint number: 2
    Device: 3
    URB bus id: 3
    Device setup request: not relevant ('-')
    Data: present (0)
    URB sec: 1530496532
    URB usec: 871537
    URB status: Remote I/O error (-EREMOTEIO) (-121)
    URB length [bytes]: 18
    Data length [bytes]: 18
    [bInterfaceClass: Unknown (0xffff)]
    Unused Setup Header
    Interval: 0
    Start frame: 0
    Copy of Transfer Flags: 0x00000201
    Number of ISO descriptors: 0
Leftover Capture Data: 43414d454f20332056312e35302020202003

0000  00 80 ab 41 fc 89 ff ff 43 03 82 03 03 00 2d 00   ...A....C.....-.
0010  14 86 39 5b 00 00 00 00 71 4c 0d 00 87 ff ff ff   ..9[....qL......
0020  12 00 00 00 12 00 00 00 00 00 00 00 00 00 00 00   ................
0030  00 00 00 00 00 00 00 00 01 02 00 00 00 00 00 00   ................
0040  43 41 4d 45 4f 20 33 20 56 31 2e 35 30 20 20 20   CAMEO 3 V1.50   
0050  20 03                                              .

Frame 14: 66 bytes on wire (528 bits), 66 bytes captured (528 bits) on interface 0
    Interface id: 0 (unknown)
        Interface name: unknown
    Encapsulation type: USB packets with Linux header and padding (115)
    Arrival Time: Jul  1, 2018 21:55:33.400268000 EDT
    [Time shift for this packet: 0.000000000 seconds]
    Epoch Time: 1530496533.400268000 seconds
    [Time delta from previous captured frame: 0.528731000 seconds]
    [Time delta from previous displayed frame: 0.528731000 seconds]
    [Time since reference or first frame: 103.878017000 seconds]
    Frame Number: 14
    Frame Length: 66 bytes (528 bits)
    Capture Length: 66 bytes (528 bits)
    [Frame is marked: False]
    [Frame is ignored: False]
    [Protocols in frame: usb]
USB URB
    [Source: host]
    [Destination: 3.3.1]
    URB id: 0xffff89fc41ab83c0
    URB type: URB_SUBMIT ('S')
    URB transfer type: URB_BULK (0x03)
    Endpoint: 0x01, Direction: OUT
        0... .... = Direction: OUT (0)
        .... 0001 = Endpoint number: 1
    Device: 3
    URB bus id: 3
    Device setup request: not relevant ('-')
    Data: present (0)
    URB sec: 1530496533
    URB usec: 400268
    URB status: Operation now in progress (-EINPROGRESS) (-115)
    URB length [bytes]: 2
    Data length [bytes]: 2
    [bInterfaceClass: Unknown (0xffff)]
    Unused Setup Header
    Interval: 0
    Start frame: 0
    Copy of Transfer Flags: 0x00000000
    Number of ISO descriptors: 0
Leftover Capture Data: 1b05

0000  c0 83 ab 41 fc 89 ff ff 53 03 01 03 03 00 2d 00   ...A....S.....-.
0010  15 86 39 5b 00 00 00 00 8c 1b 06 00 8d ff ff ff   ..9[............
0020  02 00 00 00 02 00 00 00 00 00 00 00 00 00 00 00   ................
0030  00 00 00 00 00 00 00 00 00 00 00 00 00 00 00 00   ................
0040  1b 05                                             ..

Frame 15: 66 bytes on wire (528 bits), 66 bytes captured (528 bits) on interface 0
    Interface id: 0 (unknown)
        Interface name: unknown
    Encapsulation type: USB packets with Linux header and padding (115)
    Arrival Time: Jul  1, 2018 21:55:33.654597000 EDT
    [Time shift for this packet: 0.000000000 seconds]
    Epoch Time: 1530496533.654597000 seconds
    [Time delta from previous captured frame: 0.254329000 seconds]
    [Time delta from previous displayed frame: 0.254329000 seconds]
    [Time since reference or first frame: 104.132346000 seconds]
    Frame Number: 15
    Frame Length: 66 bytes (528 bits)
    Capture Length: 66 bytes (528 bits)
    [Frame is marked: False]
    [Frame is ignored: False]
    [Protocols in frame: usb]
USB URB
    [Source: 3.3.2]
    [Destination: host]
    URB id: 0xffff89fc41ab8c00
    URB type: URB_COMPLETE ('C')
    URB transfer type: URB_BULK (0x03)
    Endpoint: 0x82, Direction: IN
        1... .... = Direction: IN (1)
        .... 0010 = Endpoint number: 2
    Device: 3
    URB bus id: 3
    Device setup request: not relevant ('-')
    Data: present (0)
    URB sec: 1530496533
    URB usec: 654597
    URB status: Remote I/O error (-EREMOTEIO) (-121)
    URB length [bytes]: 2
    Data length [bytes]: 2
    [bInterfaceClass: Unknown (0xffff)]
    Unused Setup Header
    Interval: 0
    Start frame: 0
    Copy of Transfer Flags: 0x00000201
    Number of ISO descriptors: 0
Leftover Capture Data: 3003

0000  00 8c ab 41 fc 89 ff ff 43 03 82 03 03 00 2d 00   ...A....C.....-.
0010  15 86 39 5b 00 00 00 00 05 fd 09 00 87 ff ff ff   ..9[............
0020  02 00 00 00 02 00 00 00 00 00 00 00 00 00 00 00   ................
0030  00 00 00 00 00 00 00 00 01 02 00 00 00 00 00 00   ................
0040  30 03                                             0.

Frame 16: 67 bytes on wire (536 bits), 67 bytes captured (536 bits) on interface 0
    Interface id: 0 (unknown)
        Interface name: unknown
    Encapsulation type: USB packets with Linux header and padding (115)
    Arrival Time: Jul  1, 2018 21:55:33.788278000 EDT
    [Time shift for this packet: 0.000000000 seconds]
    Epoch Time: 1530496533.788278000 seconds
    [Time delta from previous captured frame: 0.133681000 seconds]
    [Time delta from previous displayed frame: 0.133681000 seconds]
    [Time since reference or first frame: 104.266027000 seconds]
    Frame Number: 16
    Frame Length: 67 bytes (536 bits)
    Capture Length: 67 bytes (536 bits)
    [Frame is marked: False]
    [Frame is ignored: False]
    [Protocols in frame: usb]
USB URB
    [Source: host]
    [Destination: 3.3.1]
    URB id: 0xffff89fc41ab8a80
    URB type: URB_SUBMIT ('S')
    URB transfer type: URB_BULK (0x03)
    Endpoint: 0x01, Direction: OUT
        0... .... = Direction: OUT (0)
        .... 0001 = Endpoint number: 1
    Device: 3
    URB bus id: 3
    Device setup request: not relevant ('-')
    Data: present (0)
    URB sec: 1530496533
    URB usec: 788278
    URB status: Operation now in progress (-EINPROGRESS) (-115)
    URB length [bytes]: 3
    Data length [bytes]: 3
    [bInterfaceClass: Unknown (0xffff)]
    Unused Setup Header
    Interval: 0
    Start frame: 0
    Copy of Transfer Flags: 0x00000000
    Number of ISO descriptors: 0
Leftover Capture Data: 464703

0000  80 8a ab 41 fc 89 ff ff 53 03 01 03 03 00 2d 00   ...A....S.....-.
0010  15 86 39 5b 00 00 00 00 36 07 0c 00 8d ff ff ff   ..9[....6.......
0020  03 00 00 00 03 00 00 00 00 00 00 00 00 00 00 00   ................
0030  00 00 00 00 00 00 00 00 00 00 00 00 00 00 00 00   ................
0040  46 47 03                                          FG.

Frame 17: 82 bytes on wire (656 bits), 82 bytes captured (656 bits) on interface 0
    Interface id: 0 (unknown)
        Interface name: unknown
    Encapsulation type: USB packets with Linux header and padding (115)
    Arrival Time: Jul  1, 2018 21:55:33.942244000 EDT
    [Time shift for this packet: 0.000000000 seconds]
    Epoch Time: 1530496533.942244000 seconds
    [Time delta from previous captured frame: 0.153966000 seconds]
    [Time delta from previous displayed frame: 0.153966000 seconds]
    [Time since reference or first frame: 104.419993000 seconds]
    Frame Number: 17
    Frame Length: 82 bytes (656 bits)
    Capture Length: 82 bytes (656 bits)
    [Frame is marked: False]
    [Frame is ignored: False]
    [Protocols in frame: usb]
USB URB
    [Source: 3.3.2]
    [Destination: host]
    URB id: 0xffff89fc9248cd80
    URB type: URB_COMPLETE ('C')
    URB transfer type: URB_BULK (0x03)
    Endpoint: 0x82, Direction: IN
        1... .... = Direction: IN (1)
        .... 0010 = Endpoint number: 2
    Device: 3
    URB bus id: 3
    Device setup request: not relevant ('-')
    Data: present (0)
    URB sec: 1530496533
    URB usec: 942244
    URB status: Remote I/O error (-EREMOTEIO) (-121)
    URB length [bytes]: 18
    Data length [bytes]: 18
    [bInterfaceClass: Unknown (0xffff)]
    Unused Setup Header
    Interval: 0
    Start frame: 0
    Copy of Transfer Flags: 0x00000201
    Number of ISO descriptors: 0
Leftover Capture Data: 43414d454f20332056312e35302020202003

0000  80 cd 48 92 fc 89 ff ff 43 03 82 03 03 00 2d 00   ..H.....C.....-.
0010  15 86 39 5b 00 00 00 00 a4 60 0e 00 87 ff ff ff   ..9[.....`......
0020  12 00 00 00 12 00 00 00 00 00 00 00 00 00 00 00   ................
0030  00 00 00 00 00 00 00 00 01 02 00 00 00 00 00 00   ................
0040  43 41 4d 45 4f 20 33 20 56 31 2e 35 30 20 20 20   CAMEO 3 V1.50   
0050  20 03                                              .

Frame 18: 66 bytes on wire (528 bits), 66 bytes captured (528 bits) on interface 0
    Interface id: 0 (unknown)
        Interface name: unknown
    Encapsulation type: USB packets with Linux header and padding (115)
    Arrival Time: Jul  1, 2018 21:55:34.098211000 EDT
    [Time shift for this packet: 0.000000000 seconds]
    Epoch Time: 1530496534.098211000 seconds
    [Time delta from previous captured frame: 0.155967000 seconds]
    [Time delta from previous displayed frame: 0.155967000 seconds]
    [Time since reference or first frame: 104.575960000 seconds]
    Frame Number: 18
    Frame Length: 66 bytes (528 bits)
    Capture Length: 66 bytes (528 bits)
    [Frame is marked: False]
    [Frame is ignored: False]
    [Protocols in frame: usb]
USB URB
    [Source: host]
    [Destination: 3.3.1]
    URB id: 0xffff89fc92459780
    URB type: URB_SUBMIT ('S')
    URB transfer type: URB_BULK (0x03)
    Endpoint: 0x01, Direction: OUT
        0... .... = Direction: OUT (0)
        .... 0001 = Endpoint number: 1
    Device: 3
    URB bus id: 3
    Device setup request: not relevant ('-')
    Data: present (0)
    URB sec: 1530496534
    URB usec: 98211
    URB status: Operation now in progress (-EINPROGRESS) (-115)
    URB length [bytes]: 2
    Data length [bytes]: 2
    [bInterfaceClass: Unknown (0xffff)]
    Unused Setup Header
    Interval: 0
    Start frame: 0
    Copy of Transfer Flags: 0x00000000
    Number of ISO descriptors: 0
Leftover Capture Data: 1b05

0000  80 97 45 92 fc 89 ff ff 53 03 01 03 03 00 2d 00   ..E.....S.....-.
0010  16 86 39 5b 00 00 00 00 a3 7f 01 00 8d ff ff ff   ..9[............
0020  02 00 00 00 02 00 00 00 00 00 00 00 00 00 00 00   ................
0030  00 00 00 00 00 00 00 00 00 00 00 00 00 00 00 00   ................
0040  1b 05                                             ..

Frame 19: 66 bytes on wire (528 bits), 66 bytes captured (528 bits) on interface 0
    Interface id: 0 (unknown)
        Interface name: unknown
    Encapsulation type: USB packets with Linux header and padding (115)
    Arrival Time: Jul  1, 2018 21:55:34.252047000 EDT
    [Time shift for this packet: 0.000000000 seconds]
    Epoch Time: 1530496534.252047000 seconds
    [Time delta from previous captured frame: 0.153836000 seconds]
    [Time delta from previous displayed frame: 0.153836000 seconds]
    [Time since reference or first frame: 104.729796000 seconds]
    Frame Number: 19
    Frame Length: 66 bytes (528 bits)
    Capture Length: 66 bytes (528 bits)
    [Frame is marked: False]
    [Frame is ignored: False]
    [Protocols in frame: usb]
USB URB
    [Source: 3.3.2]
    [Destination: host]
    URB id: 0xffff89fc924596c0
    URB type: URB_COMPLETE ('C')
    URB transfer type: URB_BULK (0x03)
    Endpoint: 0x82, Direction: IN
        1... .... = Direction: IN (1)
        .... 0010 = Endpoint number: 2
    Device: 3
    URB bus id: 3
    Device setup request: not relevant ('-')
    Data: present (0)
    URB sec: 1530496534
    URB usec: 252047
    URB status: Remote I/O error (-EREMOTEIO) (-121)
    URB length [bytes]: 2
    Data length [bytes]: 2
    [bInterfaceClass: Unknown (0xffff)]
    Unused Setup Header
    Interval: 0
    Start frame: 0
    Copy of Transfer Flags: 0x00000201
    Number of ISO descriptors: 0
Leftover Capture Data: 3003

0000  c0 96 45 92 fc 89 ff ff 43 03 82 03 03 00 2d 00   ..E.....C.....-.
0010  16 86 39 5b 00 00 00 00 8f d8 03 00 87 ff ff ff   ..9[............
0020  02 00 00 00 02 00 00 00 00 00 00 00 00 00 00 00   ................
0030  00 00 00 00 00 00 00 00 01 02 00 00 00 00 00 00   ................
0040  30 03                                             0.

Frame 20: 66 bytes on wire (528 bits), 66 bytes captured (528 bits) on interface 0
    Interface id: 0 (unknown)
        Interface name: unknown
    Encapsulation type: USB packets with Linux header and padding (115)
    Arrival Time: Jul  1, 2018 21:55:34.405713000 EDT
    [Time shift for this packet: 0.000000000 seconds]
    Epoch Time: 1530496534.405713000 seconds
    [Time delta from previous captured frame: 0.153666000 seconds]
    [Time delta from previous displayed frame: 0.153666000 seconds]
    [Time since reference or first frame: 104.883462000 seconds]
    Frame Number: 20
    Frame Length: 66 bytes (528 bits)
    Capture Length: 66 bytes (528 bits)
    [Frame is marked: False]
    [Frame is ignored: False]
    [Protocols in frame: usb]
USB URB
    [Source: host]
    [Destination: 3.3.1]
    URB id: 0xffff89fc92459300
    URB type: URB_SUBMIT ('S')
    URB transfer type: URB_BULK (0x03)
    Endpoint: 0x01, Direction: OUT
        0... .... = Direction: OUT (0)
        .... 0001 = Endpoint number: 1
    Device: 3
    URB bus id: 3
    Device setup request: not relevant ('-')
    Data: present (0)
    URB sec: 1530496534
    URB usec: 405713
    URB status: Operation now in progress (-EINPROGRESS) (-115)
    URB length [bytes]: 2
    Data length [bytes]: 2
    [bInterfaceClass: Unknown (0xffff)]
    Unused Setup Header
    Interval: 0
    Start frame: 0
    Copy of Transfer Flags: 0x00000000
    Number of ISO descriptors: 0
Leftover Capture Data: 1b05

0000  00 93 45 92 fc 89 ff ff 53 03 01 03 03 00 2d 00   ..E.....S.....-.
0010  16 86 39 5b 00 00 00 00 d1 30 06 00 8d ff ff ff   ..9[.....0......
0020  02 00 00 00 02 00 00 00 00 00 00 00 00 00 00 00   ................
0030  00 00 00 00 00 00 00 00 00 00 00 00 00 00 00 00   ................
0040  1b 05                                             ..

Frame 21: 66 bytes on wire (528 bits), 66 bytes captured (528 bits) on interface 0
    Interface id: 0 (unknown)
        Interface name: unknown
    Encapsulation type: USB packets with Linux header and padding (115)
    Arrival Time: Jul  1, 2018 21:55:34.511660000 EDT
    [Time shift for this packet: 0.000000000 seconds]
    Epoch Time: 1530496534.511660000 seconds
    [Time delta from previous captured frame: 0.105947000 seconds]
    [Time delta from previous displayed frame: 0.105947000 seconds]
    [Time since reference or first frame: 104.989409000 seconds]
    Frame Number: 21
    Frame Length: 66 bytes (528 bits)
    Capture Length: 66 bytes (528 bits)
    [Frame is marked: False]
    [Frame is ignored: False]
    [Protocols in frame: usb]
USB URB
    [Source: 3.3.2]
    [Destination: host]
    URB id: 0xffff89fc92459b40
    URB type: URB_COMPLETE ('C')
    URB transfer type: URB_BULK (0x03)
    Endpoint: 0x82, Direction: IN
        1... .... = Direction: IN (1)
        .... 0010 = Endpoint number: 2
    Device: 3
    URB bus id: 3
    Device setup request: not relevant ('-')
    Data: present (0)
    URB sec: 1530496534
    URB usec: 511660
    URB status: Remote I/O error (-EREMOTEIO) (-121)
    URB length [bytes]: 2
    Data length [bytes]: 2
    [bInterfaceClass: Unknown (0xffff)]
    Unused Setup Header
    Interval: 0
    Start frame: 0
    Copy of Transfer Flags: 0x00000201
    Number of ISO descriptors: 0
Leftover Capture Data: 3003

0000  40 9b 45 92 fc 89 ff ff 43 03 82 03 03 00 2d 00   @.E.....C.....-.
0010  16 86 39 5b 00 00 00 00 ac ce 07 00 87 ff ff ff   ..9[............
0020  02 00 00 00 02 00 00 00 00 00 00 00 00 00 00 00   ................
0030  00 00 00 00 00 00 00 00 01 02 00 00 00 00 00 00   ................
0040  30 03                                             0.

Frame 22: 66 bytes on wire (528 bits), 66 bytes captured (528 bits) on interface 0
    Interface id: 0 (unknown)
        Interface name: unknown
    Encapsulation type: USB packets with Linux header and padding (115)
    Arrival Time: Jul  1, 2018 21:55:34.921932000 EDT
    [Time shift for this packet: 0.000000000 seconds]
    Epoch Time: 1530496534.921932000 seconds
    [Time delta from previous captured frame: 0.410272000 seconds]
    [Time delta from previous displayed frame: 0.410272000 seconds]
    [Time since reference or first frame: 105.399681000 seconds]
    Frame Number: 22
    Frame Length: 66 bytes (528 bits)
    Capture Length: 66 bytes (528 bits)
    [Frame is marked: False]
    [Frame is ignored: False]
    [Protocols in frame: usb]
USB URB
    [Source: host]
    [Destination: 3.3.1]
    URB id: 0xffff89fc92459c00
    URB type: URB_SUBMIT ('S')
    URB transfer type: URB_BULK (0x03)
    Endpoint: 0x01, Direction: OUT
        0... .... = Direction: OUT (0)
        .... 0001 = Endpoint number: 1
    Device: 3
    URB bus id: 3
    Device setup request: not relevant ('-')
    Data: present (0)
    URB sec: 1530496534
    URB usec: 921932
    URB status: Operation now in progress (-EINPROGRESS) (-115)
    URB length [bytes]: 2
    Data length [bytes]: 2
    [bInterfaceClass: Unknown (0xffff)]
    Unused Setup Header
    Interval: 0
    Start frame: 0
    Copy of Transfer Flags: 0x00000000
    Number of ISO descriptors: 0
Leftover Capture Data: 5b03

0000  00 9c 45 92 fc 89 ff ff 53 03 01 03 03 00 2d 00   ..E.....S.....-.
0010  16 86 39 5b 00 00 00 00 4c 11 0e 00 8d ff ff ff   ..9[....L.......
0020  02 00 00 00 02 00 00 00 00 00 00 00 00 00 00 00   ................
0030  00 00 00 00 00 00 00 00 00 00 00 00 00 00 00 00   ................
0040  5b 03                                             [.

Frame 23: 78 bytes on wire (624 bits), 78 bytes captured (624 bits) on interface 0
    Interface id: 0 (unknown)
        Interface name: unknown
    Encapsulation type: USB packets with Linux header and padding (115)
    Arrival Time: Jul  1, 2018 21:55:35.085531000 EDT
    [Time shift for this packet: 0.000000000 seconds]
    Epoch Time: 1530496535.085531000 seconds
    [Time delta from previous captured frame: 0.163599000 seconds]
    [Time delta from previous displayed frame: 0.163599000 seconds]
    [Time since reference or first frame: 105.563280000 seconds]
    Frame Number: 23
    Frame Length: 78 bytes (624 bits)
    Capture Length: 78 bytes (624 bits)
    [Frame is marked: False]
    [Frame is ignored: False]
    [Protocols in frame: usb]
USB URB
    [Source: 3.3.2]
    [Destination: host]
    URB id: 0xffff89fc92459600
    URB type: URB_COMPLETE ('C')
    URB transfer type: URB_BULK (0x03)
    Endpoint: 0x82, Direction: IN
        1... .... = Direction: IN (1)
        .... 0010 = Endpoint number: 2
    Device: 3
    URB bus id: 3
    Device setup request: not relevant ('-')
    Data: present (0)
    URB sec: 1530496535
    URB usec: 85531
    URB status: Remote I/O error (-EREMOTEIO) (-121)
    URB length [bytes]: 14
    Data length [bytes]: 14
    [bInterfaceClass: Unknown (0xffff)]
    Unused Setup Header
    Interval: 0
    Start frame: 0
    Copy of Transfer Flags: 0x00000201
    Number of ISO descriptors: 0
Leftover Capture Data: 2020202020302c20202020203003

0000  00 96 45 92 fc 89 ff ff 43 03 82 03 03 00 2d 00   ..E.....C.....-.
0010  17 86 39 5b 00 00 00 00 1b 4e 01 00 87 ff ff ff   ..9[.....N......
0020  0e 00 00 00 0e 00 00 00 00 00 00 00 00 00 00 00   ................
0030  00 00 00 00 00 00 00 00 01 02 00 00 00 00 00 00   ................
0040  20 20 20 20 20 30 2c 20 20 20 20 20 30 03              0,     0.

Frame 24: 66 bytes on wire (528 bits), 66 bytes captured (528 bits) on interface 0
    Interface id: 0 (unknown)
        Interface name: unknown
    Encapsulation type: USB packets with Linux header and padding (115)
    Arrival Time: Jul  1, 2018 21:55:35.216138000 EDT
    [Time shift for this packet: 0.000000000 seconds]
    Epoch Time: 1530496535.216138000 seconds
    [Time delta from previous captured frame: 0.130607000 seconds]
    [Time delta from previous displayed frame: 0.130607000 seconds]
    [Time since reference or first frame: 105.693887000 seconds]
    Frame Number: 24
    Frame Length: 66 bytes (528 bits)
    Capture Length: 66 bytes (528 bits)
    [Frame is marked: False]
    [Frame is ignored: False]
    [Protocols in frame: usb]
USB URB
    [Source: host]
    [Destination: 3.3.1]
    URB id: 0xffff89fc41ab8780
    URB type: URB_SUBMIT ('S')
    URB transfer type: URB_BULK (0x03)
    Endpoint: 0x01, Direction: OUT
        0... .... = Direction: OUT (0)
        .... 0001 = Endpoint number: 1
    Device: 3
    URB bus id: 3
    Device setup request: not relevant ('-')
    Data: present (0)
    URB sec: 1530496535
    URB usec: 216138
    URB status: Operation now in progress (-EINPROGRESS) (-115)
    URB length [bytes]: 2
    Data length [bytes]: 2
    [bInterfaceClass: Unknown (0xffff)]
    Unused Setup Header
    Interval: 0
    Start frame: 0
    Copy of Transfer Flags: 0x00000000
    Number of ISO descriptors: 0
Leftover Capture Data: 5503

0000  80 87 ab 41 fc 89 ff ff 53 03 01 03 03 00 2d 00   ...A....S.....-.
0010  17 86 39 5b 00 00 00 00 4a 4c 03 00 8d ff ff ff   ..9[....JL......
0020  02 00 00 00 02 00 00 00 00 00 00 00 00 00 00 00   ................
0030  00 00 00 00 00 00 00 00 00 00 00 00 00 00 00 00   ................
0040  55 03                                             U.

Frame 25: 78 bytes on wire (624 bits), 78 bytes captured (624 bits) on interface 0
    Interface id: 0 (unknown)
        Interface name: unknown
    Encapsulation type: USB packets with Linux header and padding (115)
    Arrival Time: Jul  1, 2018 21:55:35.390261000 EDT
    [Time shift for this packet: 0.000000000 seconds]
    Epoch Time: 1530496535.390261000 seconds
    [Time delta from previous captured frame: 0.174123000 seconds]
    [Time delta from previous displayed frame: 0.174123000 seconds]
    [Time since reference or first frame: 105.868010000 seconds]
    Frame Number: 25
    Frame Length: 78 bytes (624 bits)
    Capture Length: 78 bytes (624 bits)
    [Frame is marked: False]
    [Frame is ignored: False]
    [Protocols in frame: usb]
USB URB
    [Source: 3.3.2]
    [Destination: host]
    URB id: 0xffff89fc924593c0
    URB type: URB_COMPLETE ('C')
    URB transfer type: URB_BULK (0x03)
    Endpoint: 0x82, Direction: IN
        1... .... = Direction: IN (1)
        .... 0010 = Endpoint number: 2
    Device: 3
    URB bus id: 3
    Device setup request: not relevant ('-')
    Data: present (0)
    URB sec: 1530496535
    URB usec: 390261
    URB status: Remote I/O error (-EREMOTEIO) (-121)
    URB length [bytes]: 14
    Data length [bytes]: 14
    [bInterfaceClass: Unknown (0xffff)]
    Unused Setup Header
    Interval: 0
    Start frame: 0
    Copy of Transfer Flags: 0x00000201
    Number of ISO descriptors: 0
Leftover Capture Data: 2020353538382c20203630383003

0000  c0 93 45 92 fc 89 ff ff 43 03 82 03 03 00 2d 00   ..E.....C.....-.
0010  17 86 39 5b 00 00 00 00 75 f4 05 00 87 ff ff ff   ..9[....u.......
0020  0e 00 00 00 0e 00 00 00 00 00 00 00 00 00 00 00   ................
0030  00 00 00 00 00 00 00 00 01 02 00 00 00 00 00 00   ................
0040  20 20 35 35 38 38 2c 20 20 36 30 38 30 03           5588,  6080.

Frame 26: 68 bytes on wire (544 bits), 68 bytes captured (544 bits) on interface 0
    Interface id: 0 (unknown)
        Interface name: unknown
    Encapsulation type: USB packets with Linux header and padding (115)
    Arrival Time: Jul  1, 2018 21:55:35.427484000 EDT
    [Time shift for this packet: 0.000000000 seconds]
    Epoch Time: 1530496535.427484000 seconds
    [Time delta from previous captured frame: 0.037223000 seconds]
    [Time delta from previous displayed frame: 0.037223000 seconds]
    [Time since reference or first frame: 105.905233000 seconds]
    Frame Number: 26
    Frame Length: 68 bytes (544 bits)
    Capture Length: 68 bytes (544 bits)
    [Frame is marked: False]
    [Frame is ignored: False]
    [Protocols in frame: usb]
USB URB
    [Source: host]
    [Destination: 3.3.1]
    URB id: 0xffff89fd08dbb000
    URB type: URB_SUBMIT ('S')
    URB transfer type: URB_BULK (0x03)
    Endpoint: 0x01, Direction: OUT
        0... .... = Direction: OUT (0)
        .... 0001 = Endpoint number: 1
    Device: 3
    URB bus id: 3
    Device setup request: not relevant ('-')
    Data: present (0)
    URB sec: 1530496535
    URB usec: 427484
    URB status: Operation now in progress (-EINPROGRESS) (-115)
    URB length [bytes]: 4
    Data length [bytes]: 4
    [bInterfaceClass: Unknown (0xffff)]
    Unused Setup Header
    Interval: 0
    Start frame: 0
    Copy of Transfer Flags: 0x00000000
    Number of ISO descriptors: 0
Leftover Capture Data: 46513003

0000  00 b0 db 08 fd 89 ff ff 53 03 01 03 03 00 2d 00   ........S.....-.
0010  17 86 39 5b 00 00 00 00 dc 85 06 00 8d ff ff ff   ..9[............
0020  04 00 00 00 04 00 00 00 00 00 00 00 00 00 00 00   ................
0030  00 00 00 00 00 00 00 00 00 00 00 00 00 00 00 00   ................
0040  46 51 30 03                                       FQ0.

Frame 27: 70 bytes on wire (560 bits), 70 bytes captured (560 bits) on interface 0
    Interface id: 0 (unknown)
        Interface name: unknown
    Encapsulation type: USB packets with Linux header and padding (115)
    Arrival Time: Jul  1, 2018 21:55:35.577545000 EDT
    [Time shift for this packet: 0.000000000 seconds]
    Epoch Time: 1530496535.577545000 seconds
    [Time delta from previous captured frame: 0.150061000 seconds]
    [Time delta from previous displayed frame: 0.150061000 seconds]
    [Time since reference or first frame: 106.055294000 seconds]
    Frame Number: 27
    Frame Length: 70 bytes (560 bits)
    Capture Length: 70 bytes (560 bits)
    [Frame is marked: False]
    [Frame is ignored: False]
    [Protocols in frame: usb]
USB URB
    [Source: 3.3.2]
    [Destination: host]
    URB id: 0xffff89fc41ab8540
    URB type: URB_COMPLETE ('C')
    URB transfer type: URB_BULK (0x03)
    Endpoint: 0x82, Direction: IN
        1... .... = Direction: IN (1)
        .... 0010 = Endpoint number: 2
    Device: 3
    URB bus id: 3
    Device setup request: not relevant ('-')
    Data: present (0)
    URB sec: 1530496535
    URB usec: 577545
    URB status: Remote I/O error (-EREMOTEIO) (-121)
    URB length [bytes]: 6
    Data length [bytes]: 6
    [bInterfaceClass: Unknown (0xffff)]
    Unused Setup Header
    Interval: 0
    Start frame: 0
    Copy of Transfer Flags: 0x00000201
    Number of ISO descriptors: 0
Leftover Capture Data: 202020313003

0000  40 85 ab 41 fc 89 ff ff 43 03 82 03 03 00 2d 00   @..A....C.....-.
0010  17 86 39 5b 00 00 00 00 09 d0 08 00 87 ff ff ff   ..9[............
0020  06 00 00 00 06 00 00 00 00 00 00 00 00 00 00 00   ................
0030  00 00 00 00 00 00 00 00 01 02 00 00 00 00 00 00   ................
0040  20 20 20 31 30 03                                    10.

Frame 28: 68 bytes on wire (544 bits), 68 bytes captured (544 bits) on interface 0
    Interface id: 0 (unknown)
        Interface name: unknown
    Encapsulation type: USB packets with Linux header and padding (115)
    Arrival Time: Jul  1, 2018 21:55:35.671452000 EDT
    [Time shift for this packet: 0.000000000 seconds]
    Epoch Time: 1530496535.671452000 seconds
    [Time delta from previous captured frame: 0.093907000 seconds]
    [Time delta from previous displayed frame: 0.093907000 seconds]
    [Time since reference or first frame: 106.149201000 seconds]
    Frame Number: 28
    Frame Length: 68 bytes (544 bits)
    Capture Length: 68 bytes (544 bits)
    [Frame is marked: False]
    [Frame is ignored: False]
    [Protocols in frame: usb]
USB URB
    [Source: host]
    [Destination: 3.3.1]
    URB id: 0xffff89fc41ab8300
    URB type: URB_SUBMIT ('S')
    URB transfer type: URB_BULK (0x03)
    Endpoint: 0x01, Direction: OUT
        0... .... = Direction: OUT (0)
        .... 0001 = Endpoint number: 1
    Device: 3
    URB bus id: 3
    Device setup request: not relevant ('-')
    Data: present (0)
    URB sec: 1530496535
    URB usec: 671452
    URB status: Operation now in progress (-EINPROGRESS) (-115)
    URB length [bytes]: 4
    Data length [bytes]: 4
    [bInterfaceClass: Unknown (0xffff)]
    Unused Setup Header
    Interval: 0
    Start frame: 0
    Copy of Transfer Flags: 0x00000000
    Number of ISO descriptors: 0
Leftover Capture Data: 46513203

0000  00 83 ab 41 fc 89 ff ff 53 03 01 03 03 00 2d 00   ...A....S.....-.
0010  17 86 39 5b 00 00 00 00 dc 3e 0a 00 8d ff ff ff   ..9[.....>......
0020  04 00 00 00 04 00 00 00 00 00 00 00 00 00 00 00   ................
0030  00 00 00 00 00 00 00 00 00 00 00 00 00 00 00 00   ................
0040  46 51 32 03                                       FQ2.

Frame 29: 70 bytes on wire (560 bits), 70 bytes captured (560 bits) on interface 0
    Interface id: 0 (unknown)
        Interface name: unknown
    Encapsulation type: USB packets with Linux header and padding (115)
    Arrival Time: Jul  1, 2018 21:55:35.823529000 EDT
    [Time shift for this packet: 0.000000000 seconds]
    Epoch Time: 1530496535.823529000 seconds
    [Time delta from previous captured frame: 0.152077000 seconds]
    [Time delta from previous displayed frame: 0.152077000 seconds]
    [Time since reference or first frame: 106.301278000 seconds]
    Frame Number: 29
    Frame Length: 70 bytes (560 bits)
    Capture Length: 70 bytes (560 bits)
    [Frame is marked: False]
    [Frame is ignored: False]
    [Protocols in frame: usb]
USB URB
    [Source: 3.3.2]
    [Destination: host]
    URB id: 0xffff89fc924593c0
    URB type: URB_COMPLETE ('C')
    URB transfer type: URB_BULK (0x03)
    Endpoint: 0x82, Direction: IN
        1... .... = Direction: IN (1)
        .... 0010 = Endpoint number: 2
    Device: 3
    URB bus id: 3
    Device setup request: not relevant ('-')
    Data: present (0)
    URB sec: 1530496535
    URB usec: 823529
    URB status: Remote I/O error (-EREMOTEIO) (-121)
    URB length [bytes]: 6
    Data length [bytes]: 6
    [bInterfaceClass: Unknown (0xffff)]
    Unused Setup Header
    Interval: 0
    Start frame: 0
    Copy of Transfer Flags: 0x00000201
    Number of ISO descriptors: 0
Leftover Capture Data: 202020313703

0000  c0 93 45 92 fc 89 ff ff 43 03 82 03 03 00 2d 00   ..E.....C.....-.
0010  17 86 39 5b 00 00 00 00 e9 90 0c 00 87 ff ff ff   ..9[............
0020  06 00 00 00 06 00 00 00 00 00 00 00 00 00 00 00   ................
0030  00 00 00 00 00 00 00 00 01 02 00 00 00 00 00 00   ................
0040  20 20 20 31 37 03                                    17.

Frame 30: 69 bytes on wire (552 bits), 69 bytes captured (552 bits) on interface 0
    Interface id: 0 (unknown)
        Interface name: unknown
    Encapsulation type: USB packets with Linux header and padding (115)
    Arrival Time: Jul  1, 2018 21:55:36.003065000 EDT
    [Time shift for this packet: 0.000000000 seconds]
    Epoch Time: 1530496536.003065000 seconds
    [Time delta from previous captured frame: 0.179536000 seconds]
    [Time delta from previous displayed frame: 0.179536000 seconds]
    [Time since reference or first frame: 106.480814000 seconds]
    Frame Number: 30
    Frame Length: 69 bytes (552 bits)
    Capture Length: 69 bytes (552 bits)
    [Frame is marked: False]
    [Frame is ignored: False]
    [Protocols in frame: usb]
USB URB
    [Source: host]
    [Destination: 3.3.1]
    URB id: 0xffff89fd08dbbf00
    URB type: URB_SUBMIT ('S')
    URB transfer type: URB_BULK (0x03)
    Endpoint: 0x01, Direction: OUT
        0... .... = Direction: OUT (0)
        .... 0001 = Endpoint number: 1
    Device: 3
    URB bus id: 3
    Device setup request: not relevant ('-')
    Data: present (0)
    URB sec: 1530496536
    URB usec: 3065
    URB status: Operation now in progress (-EINPROGRESS) (-115)
    URB length [bytes]: 5
    Data length [bytes]: 5
    [bInterfaceClass: Unknown (0xffff)]
    Unused Setup Header
    Interval: 0
    Start frame: 0
    Copy of Transfer Flags: 0x00000000
    Number of ISO descriptors: 0
Leftover Capture Data: 5442373103

0000  00 bf db 08 fd 89 ff ff 53 03 01 03 03 00 2d 00   ........S.....-.
0010  18 86 39 5b 00 00 00 00 f9 0b 00 00 8d ff ff ff   ..9[............
0020  05 00 00 00 05 00 00 00 00 00 00 00 00 00 00 00   ................
0030  00 00 00 00 00 00 00 00 00 00 00 00 00 00 00 00   ................
0040  54 42 37 31 03                                    TB71.

Frame 31: 76 bytes on wire (608 bits), 76 bytes captured (608 bits) on interface 0
    Interface id: 0 (unknown)
        Interface name: unknown
    Encapsulation type: USB packets with Linux header and padding (115)
    Arrival Time: Jul  1, 2018 21:55:36.161560000 EDT
    [Time shift for this packet: 0.000000000 seconds]
    Epoch Time: 1530496536.161560000 seconds
    [Time delta from previous captured frame: 0.158495000 seconds]
    [Time delta from previous displayed frame: 0.158495000 seconds]
    [Time since reference or first frame: 106.639309000 seconds]
    Frame Number: 31
    Frame Length: 76 bytes (608 bits)
    Capture Length: 76 bytes (608 bits)
    [Frame is marked: False]
    [Frame is ignored: False]
    [Protocols in frame: usb]
USB URB
    [Source: 3.3.2]
    [Destination: host]
    URB id: 0xffff89fc41ab8840
    URB type: URB_COMPLETE ('C')
    URB transfer type: URB_BULK (0x03)
    Endpoint: 0x82, Direction: IN
        1... .... = Direction: IN (1)
        .... 0010 = Endpoint number: 2
    Device: 3
    URB bus id: 3
    Device setup request: not relevant ('-')
    Data: present (0)
    URB sec: 1530496536
    URB usec: 161560
    URB status: Remote I/O error (-EREMOTEIO) (-121)
    URB length [bytes]: 12
    Data length [bytes]: 12
    [bInterfaceClass: Unknown (0xffff)]
    Unused Setup Header
    Interval: 0
    Start frame: 0
    Copy of Transfer Flags: 0x00000201
    Number of ISO descriptors: 0
Leftover Capture Data: 20202020302c202020203003

0000  40 88 ab 41 fc 89 ff ff 43 03 82 03 03 00 2d 00   @..A....C.....-.
0010  18 86 39 5b 00 00 00 00 18 77 02 00 87 ff ff ff   ..9[.....w......
0020  0c 00 00 00 0c 00 00 00 00 00 00 00 00 00 00 00   ................
0030  00 00 00 00 00 00 00 00 01 02 00 00 00 00 00 00   ................
0040  20 20 20 20 30 2c 20 20 20 20 30 03                   0,    0.

Frame 32: 67 bytes on wire (536 bits), 67 bytes captured (536 bits) on interface 0
    Interface id: 0 (unknown)
        Interface name: unknown
    Encapsulation type: USB packets with Linux header and padding (115)
    Arrival Time: Jul  1, 2018 21:55:36.295971000 EDT
    [Time shift for this packet: 0.000000000 seconds]
    Epoch Time: 1530496536.295971000 seconds
    [Time delta from previous captured frame: 0.134411000 seconds]
    [Time delta from previous displayed frame: 0.134411000 seconds]
    [Time since reference or first frame: 106.773720000 seconds]
    Frame Number: 32
    Frame Length: 67 bytes (536 bits)
    Capture Length: 67 bytes (536 bits)
    [Frame is marked: False]
    [Frame is ignored: False]
    [Protocols in frame: usb]
USB URB
    [Source: host]
    [Destination: 3.3.1]
    URB id: 0xffff89fd08dbbcc0
    URB type: URB_SUBMIT ('S')
    URB transfer type: URB_BULK (0x03)
    Endpoint: 0x01, Direction: OUT
        0... .... = Direction: OUT (0)
        .... 0001 = Endpoint number: 1
    Device: 3
    URB bus id: 3
    Device setup request: not relevant ('-')
    Data: present (0)
    URB sec: 1530496536
    URB usec: 295971
    URB status: Operation now in progress (-EINPROGRESS) (-115)
    URB length [bytes]: 3
    Data length [bytes]: 3
    [bInterfaceClass: Unknown (0xffff)]
    Unused Setup Header
    Interval: 0
    Start frame: 0
    Copy of Transfer Flags: 0x00000000
    Number of ISO descriptors: 0
Leftover Capture Data: 464103

0000  c0 bc db 08 fd 89 ff ff 53 03 01 03 03 00 2d 00   ........S.....-.
0010  18 86 39 5b 00 00 00 00 23 84 04 00 8d ff ff ff   ..9[....#.......
0020  03 00 00 00 03 00 00 00 00 00 00 00 00 00 00 00   ................
0030  00 00 00 00 00 00 00 00 00 00 00 00 00 00 00 00   ................
0040  46 41 03                                          FA.

Frame 33: 76 bytes on wire (608 bits), 76 bytes captured (608 bits) on interface 0
    Interface id: 0 (unknown)
        Interface name: unknown
    Encapsulation type: USB packets with Linux header and padding (115)
    Arrival Time: Jul  1, 2018 21:55:36.397629000 EDT
    [Time shift for this packet: 0.000000000 seconds]
    Epoch Time: 1530496536.397629000 seconds
    [Time delta from previous captured frame: 0.101658000 seconds]
    [Time delta from previous displayed frame: 0.101658000 seconds]
    [Time since reference or first frame: 106.875378000 seconds]
    Frame Number: 33
    Frame Length: 76 bytes (608 bits)
    Capture Length: 76 bytes (608 bits)
    [Frame is marked: False]
    [Frame is ignored: False]
    [Protocols in frame: usb]
USB URB
    [Source: 3.3.2]
    [Destination: host]
    URB id: 0xffff89fd08dbb9c0
    URB type: URB_COMPLETE ('C')
    URB transfer type: URB_BULK (0x03)
    Endpoint: 0x82, Direction: IN
        1... .... = Direction: IN (1)
        .... 0010 = Endpoint number: 2
    Device: 3
    URB bus id: 3
    Device setup request: not relevant ('-')
    Data: present (0)
    URB sec: 1530496536
    URB usec: 397629
    URB status: Remote I/O error (-EREMOTEIO) (-121)
    URB length [bytes]: 12
    Data length [bytes]: 12
    [bInterfaceClass: Unknown (0xffff)]
    Unused Setup Header
    Interval: 0
    Start frame: 0
    Copy of Transfer Flags: 0x00000201
    Number of ISO descriptors: 0
Leftover Capture Data: 20202020302c202020203003

0000  c0 b9 db 08 fd 89 ff ff 43 03 82 03 03 00 2d 00   ........C.....-.
0010  18 86 39 5b 00 00 00 00 3d 11 06 00 87 ff ff ff   ..9[....=.......
0020  0c 00 00 00 0c 00 00 00 00 00 00 00 00 00 00 00   ................
0030  00 00 00 00 00 00 00 00 01 02 00 00 00 00 00 00   ................
0040  20 20 20 20 30 2c 20 20 20 20 30 03                   0,    0.

Frame 34: 66 bytes on wire (528 bits), 66 bytes captured (528 bits) on interface 0
    Interface id: 0 (unknown)
        Interface name: unknown
    Encapsulation type: USB packets with Linux header and padding (115)
    Arrival Time: Jul  1, 2018 21:55:36.550703000 EDT
    [Time shift for this packet: 0.000000000 seconds]
    Epoch Time: 1530496536.550703000 seconds
    [Time delta from previous captured frame: 0.153074000 seconds]
    [Time delta from previous displayed frame: 0.153074000 seconds]
    [Time since reference or first frame: 107.028452000 seconds]
    Frame Number: 34
    Frame Length: 66 bytes (528 bits)
    Capture Length: 66 bytes (528 bits)
    [Frame is marked: False]
    [Frame is ignored: False]
    [Protocols in frame: usb]
USB URB
    [Source: host]
    [Destination: 3.3.1]
    URB id: 0xffff89fc41ab8180
    URB type: URB_SUBMIT ('S')
    URB transfer type: URB_BULK (0x03)
    Endpoint: 0x01, Direction: OUT
        0... .... = Direction: OUT (0)
        .... 0001 = Endpoint number: 1
    Device: 3
    URB bus id: 3
    Device setup request: not relevant ('-')
    Data: present (0)
    URB sec: 1530496536
    URB usec: 550703
    URB status: Operation now in progress (-EINPROGRESS) (-115)
    URB length [bytes]: 2
    Data length [bytes]: 2
    [bInterfaceClass: Unknown (0xffff)]
    Unused Setup Header
    Interval: 0
    Start frame: 0
    Copy of Transfer Flags: 0x00000000
    Number of ISO descriptors: 0
Leftover Capture Data: 1b05

0000  80 81 ab 41 fc 89 ff ff 53 03 01 03 03 00 2d 00   ...A....S.....-.
0010  18 86 39 5b 00 00 00 00 2f 67 08 00 8d ff ff ff   ..9[..../g......
0020  02 00 00 00 02 00 00 00 00 00 00 00 00 00 00 00   ................
0030  00 00 00 00 00 00 00 00 00 00 00 00 00 00 00 00   ................
0040  1b 05                                             ..

Frame 35: 66 bytes on wire (528 bits), 66 bytes captured (528 bits) on interface 0
    Interface id: 0 (unknown)
        Interface name: unknown
    Encapsulation type: USB packets with Linux header and padding (115)
    Arrival Time: Jul  1, 2018 21:55:36.643547000 EDT
    [Time shift for this packet: 0.000000000 seconds]
    Epoch Time: 1530496536.643547000 seconds
    [Time delta from previous captured frame: 0.092844000 seconds]
    [Time delta from previous displayed frame: 0.092844000 seconds]
    [Time since reference or first frame: 107.121296000 seconds]
    Frame Number: 35
    Frame Length: 66 bytes (528 bits)
    Capture Length: 66 bytes (528 bits)
    [Frame is marked: False]
    [Frame is ignored: False]
    [Protocols in frame: usb]
USB URB
    [Source: 3.3.2]
    [Destination: host]
    URB id: 0xffff89fc41ab8d80
    URB type: URB_COMPLETE ('C')
    URB transfer type: URB_BULK (0x03)
    Endpoint: 0x82, Direction: IN
        1... .... = Direction: IN (1)
        .... 0010 = Endpoint number: 2
    Device: 3
    URB bus id: 3
    Device setup request: not relevant ('-')
    Data: present (0)
    URB sec: 1530496536
    URB usec: 643547
    URB status: Remote I/O error (-EREMOTEIO) (-121)
    URB length [bytes]: 2
    Data length [bytes]: 2
    [bInterfaceClass: Unknown (0xffff)]
    Unused Setup Header
    Interval: 0
    Start frame: 0
    Copy of Transfer Flags: 0x00000201
    Number of ISO descriptors: 0
Leftover Capture Data: 3003

0000  80 8d ab 41 fc 89 ff ff 43 03 82 03 03 00 2d 00   ...A....C.....-.
0010  18 86 39 5b 00 00 00 00 db d1 09 00 87 ff ff ff   ..9[............
0020  02 00 00 00 02 00 00 00 00 00 00 00 00 00 00 00   ................
0030  00 00 00 00 00 00 00 00 01 02 00 00 00 00 00 00   ................
0040  30 03                                             0.

Frame 36: 66 bytes on wire (528 bits), 66 bytes captured (528 bits) on interface 0
    Interface id: 0 (unknown)
        Interface name: unknown
    Encapsulation type: USB packets with Linux header and padding (115)
    Arrival Time: Jul  1, 2018 21:59:57.047569000 EDT
    [Time shift for this packet: 0.000000000 seconds]
    Epoch Time: 1530496797.047569000 seconds
    [Time delta from previous captured frame: 260.404022000 seconds]
    [Time delta from previous displayed frame: 260.404022000 seconds]
    [Time since reference or first frame: 367.525318000 seconds]
    Frame Number: 36
    Frame Length: 66 bytes (528 bits)
    Capture Length: 66 bytes (528 bits)
    [Frame is marked: False]
    [Frame is ignored: False]
    [Protocols in frame: usb]
USB URB
    [Source: host]
    [Destination: 3.3.1]
    URB id: 0xffff89fd46e3fb40
    URB type: URB_SUBMIT ('S')
    URB transfer type: URB_BULK (0x03)
    Endpoint: 0x01, Direction: OUT
        0... .... = Direction: OUT (0)
        .... 0001 = Endpoint number: 1
    Device: 3
    URB bus id: 3
    Device setup request: not relevant ('-')
    Data: present (0)
    URB sec: 1530496797
    URB usec: 47569
    URB status: Operation now in progress (-EINPROGRESS) (-115)
    URB length [bytes]: 2
    Data length [bytes]: 2
    [bInterfaceClass: Unknown (0xffff)]
    Unused Setup Header
    Interval: 0
    Start frame: 0
    Copy of Transfer Flags: 0x00000000
    Number of ISO descriptors: 0
Leftover Capture Data: 1b05

0000  40 fb e3 46 fd 89 ff ff 53 03 01 03 03 00 2d 00   @..F....S.....-.
0010  1d 87 39 5b 00 00 00 00 d1 b9 00 00 8d ff ff ff   ..9[............
0020  02 00 00 00 02 00 00 00 00 00 00 00 00 00 00 00   ................
0030  00 00 00 00 00 00 00 00 00 00 00 00 00 00 00 00   ................
0040  1b 05                                             ..

Frame 37: 66 bytes on wire (528 bits), 66 bytes captured (528 bits) on interface 0
    Interface id: 0 (unknown)
        Interface name: unknown
    Encapsulation type: USB packets with Linux header and padding (115)
    Arrival Time: Jul  1, 2018 21:59:57.157186000 EDT
    [Time shift for this packet: 0.000000000 seconds]
    Epoch Time: 1530496797.157186000 seconds
    [Time delta from previous captured frame: 0.109617000 seconds]
    [Time delta from previous displayed frame: 0.109617000 seconds]
    [Time since reference or first frame: 367.634935000 seconds]
    Frame Number: 37
    Frame Length: 66 bytes (528 bits)
    Capture Length: 66 bytes (528 bits)
    [Frame is marked: False]
    [Frame is ignored: False]
    [Protocols in frame: usb]
USB URB
    [Source: 3.3.2]
    [Destination: host]
    URB id: 0xffff89fd46e3fd80
    URB type: URB_COMPLETE ('C')
    URB transfer type: URB_BULK (0x03)
    Endpoint: 0x82, Direction: IN
        1... .... = Direction: IN (1)
        .... 0010 = Endpoint number: 2
    Device: 3
    URB bus id: 3
    Device setup request: not relevant ('-')
    Data: present (0)
    URB sec: 1530496797
    URB usec: 157186
    URB status: Remote I/O error (-EREMOTEIO) (-121)
    URB length [bytes]: 2
    Data length [bytes]: 2
    [bInterfaceClass: Unknown (0xffff)]
    Unused Setup Header
    Interval: 0
    Start frame: 0
    Copy of Transfer Flags: 0x00000201
    Number of ISO descriptors: 0
Leftover Capture Data: 3003

0000  80 fd e3 46 fd 89 ff ff 43 03 82 03 03 00 2d 00   ...F....C.....-.
0010  1d 87 39 5b 00 00 00 00 02 66 02 00 87 ff ff ff   ..9[.....f......
0020  02 00 00 00 02 00 00 00 00 00 00 00 00 00 00 00   ................
0030  00 00 00 00 00 00 00 00 01 02 00 00 00 00 00 00   ................
0040  30 03                                             0.

Frame 38: 100 bytes on wire (800 bits), 100 bytes captured (800 bits) on interface 0
    Interface id: 0 (unknown)
        Interface name: unknown
    Encapsulation type: USB packets with Linux header and padding (115)
    Arrival Time: Jul  1, 2018 21:59:57.756965000 EDT
    [Time shift for this packet: 0.000000000 seconds]
    Epoch Time: 1530496797.756965000 seconds
    [Time delta from previous captured frame: 0.599779000 seconds]
    [Time delta from previous displayed frame: 0.599779000 seconds]
    [Time since reference or first frame: 368.234714000 seconds]
    Frame Number: 38
    Frame Length: 100 bytes (800 bits)
    Capture Length: 100 bytes (800 bits)
    [Frame is marked: False]
    [Frame is ignored: False]
    [Protocols in frame: usb]
USB URB
    [Source: host]
    [Destination: 3.3.1]
    URB id: 0xffff89fd46e3fd80
    URB type: URB_SUBMIT ('S')
    URB transfer type: URB_BULK (0x03)
    Endpoint: 0x01, Direction: OUT
        0... .... = Direction: OUT (0)
        .... 0001 = Endpoint number: 1
    Device: 3
    URB bus id: 3
    Device setup request: not relevant ('-')
    Data: present (0)
    URB sec: 1530496797
    URB usec: 756965
    URB status: Operation now in progress (-EINPROGRESS) (-115)
    URB length [bytes]: 36
    Data length [bytes]: 36
    [bInterfaceClass: Unknown (0xffff)]
    Unused Setup Header
    Interval: 0
    Start frame: 0
    Copy of Transfer Flags: 0x00000000
    Number of ISO descriptors: 0
Leftover Capture Data: 54473103464e3003544235302c30035c33302c3330035a35...

0000  80 fd e3 46 fd 89 ff ff 53 03 01 03 03 00 2d 00   ...F....S.....-.
0010  1d 87 39 5b 00 00 00 00 e5 8c 0b 00 8d ff ff ff   ..9[............
0020  24 00 00 00 24 00 00 00 00 00 00 00 00 00 00 00   $...$...........
0030  00 00 00 00 00 00 00 00 00 00 00 00 00 00 00 00   ................
0040  54 47 31 03 46 4e 30 03 54 42 35 30 2c 30 03 5c   TG1.FN0.TB50,0.\
0050  33 30 2c 33 30 03 5a 35 35 35 38 2c 34 32 38 38   30,30.Z5558,4288
0060  03 4a 31 03                                       .J1.

Frame 39: 66 bytes on wire (528 bits), 66 bytes captured (528 bits) on interface 0
    Interface id: 0 (unknown)
        Interface name: unknown
    Encapsulation type: USB packets with Linux header and padding (115)
    Arrival Time: Jul  1, 2018 21:59:58.774145000 EDT
    [Time shift for this packet: 0.000000000 seconds]
    Epoch Time: 1530496798.774145000 seconds
    [Time delta from previous captured frame: 1.017180000 seconds]
    [Time delta from previous displayed frame: 1.017180000 seconds]
    [Time since reference or first frame: 369.251894000 seconds]
    Frame Number: 39
    Frame Length: 66 bytes (528 bits)
    Capture Length: 66 bytes (528 bits)
    [Frame is marked: False]
    [Frame is ignored: False]
    [Protocols in frame: usb]
USB URB
    [Source: host]
    [Destination: 3.3.1]
    URB id: 0xffff89fc41ab8480
    URB type: URB_SUBMIT ('S')
    URB transfer type: URB_BULK (0x03)
    Endpoint: 0x01, Direction: OUT
        0... .... = Direction: OUT (0)
        .... 0001 = Endpoint number: 1
    Device: 3
    URB bus id: 3
    Device setup request: not relevant ('-')
    Data: present (0)
    URB sec: 1530496798
    URB usec: 774145
    URB status: Operation now in progress (-EINPROGRESS) (-115)
    URB length [bytes]: 2
    Data length [bytes]: 2
    [bInterfaceClass: Unknown (0xffff)]
    Unused Setup Header
    Interval: 0
    Start frame: 0
    Copy of Transfer Flags: 0x00000000
    Number of ISO descriptors: 0
Leftover Capture Data: 1b05

0000  80 84 ab 41 fc 89 ff ff 53 03 01 03 03 00 2d 00   ...A....S.....-.
0010  1e 87 39 5b 00 00 00 00 01 d0 0b 00 8d ff ff ff   ..9[............
0020  02 00 00 00 02 00 00 00 00 00 00 00 00 00 00 00   ................
0030  00 00 00 00 00 00 00 00 00 00 00 00 00 00 00 00   ................
0040  1b 05                                             ..

Frame 40: 66 bytes on wire (528 bits), 66 bytes captured (528 bits) on interface 0
    Interface id: 0 (unknown)
        Interface name: unknown
    Encapsulation type: USB packets with Linux header and padding (115)
    Arrival Time: Jul  1, 2018 21:59:58.879224000 EDT
    [Time shift for this packet: 0.000000000 seconds]
    Epoch Time: 1530496798.879224000 seconds
    [Time delta from previous captured frame: 0.105079000 seconds]
    [Time delta from previous displayed frame: 0.105079000 seconds]
    [Time since reference or first frame: 369.356973000 seconds]
    Frame Number: 40
    Frame Length: 66 bytes (528 bits)
    Capture Length: 66 bytes (528 bits)
    [Frame is marked: False]
    [Frame is ignored: False]
    [Protocols in frame: usb]
USB URB
    [Source: 3.3.2]
    [Destination: host]
    URB id: 0xffff89fd4d50dcc0
    URB type: URB_COMPLETE ('C')
    URB transfer type: URB_BULK (0x03)
    Endpoint: 0x82, Direction: IN
        1... .... = Direction: IN (1)
        .... 0010 = Endpoint number: 2
    Device: 3
    URB bus id: 3
    Device setup request: not relevant ('-')
    Data: present (0)
    URB sec: 1530496798
    URB usec: 879224
    URB status: Remote I/O error (-EREMOTEIO) (-121)
    URB length [bytes]: 2
    Data length [bytes]: 2
    [bInterfaceClass: Unknown (0xffff)]
    Unused Setup Header
    Interval: 0
    Start frame: 0
    Copy of Transfer Flags: 0x00000201
    Number of ISO descriptors: 0
Leftover Capture Data: 3003

0000  c0 dc 50 4d fd 89 ff ff 43 03 82 03 03 00 2d 00   ..PM....C.....-.
0010  1e 87 39 5b 00 00 00 00 78 6a 0d 00 87 ff ff ff   ..9[....xj......
0020  02 00 00 00 02 00 00 00 00 00 00 00 00 00 00 00   ................
0030  00 00 00 00 00 00 00 00 01 02 00 00 00 00 00 00   ................
0040  30 03                                             0.

Frame 41: 85 bytes on wire (680 bits), 85 bytes captured (680 bits) on interface 0
    Interface id: 0 (unknown)
        Interface name: unknown
    Encapsulation type: USB packets with Linux header and padding (115)
    Arrival Time: Jul  1, 2018 21:59:59.148979000 EDT
    [Time shift for this packet: 0.000000000 seconds]
    Epoch Time: 1530496799.148979000 seconds
    [Time delta from previous captured frame: 0.269755000 seconds]
    [Time delta from previous displayed frame: 0.269755000 seconds]
    [Time since reference or first frame: 369.626728000 seconds]
    Frame Number: 41
    Frame Length: 85 bytes (680 bits)
    Capture Length: 85 bytes (680 bits)
    [Frame is marked: False]
    [Frame is ignored: False]
    [Protocols in frame: usb]
USB URB
    [Source: host]
    [Destination: 3.3.1]
    URB id: 0xffff89fd46e3fd80
    URB type: URB_SUBMIT ('S')
    URB transfer type: URB_BULK (0x03)
    Endpoint: 0x01, Direction: OUT
        0... .... = Direction: OUT (0)
        .... 0001 = Endpoint number: 1
    Device: 3
    URB bus id: 3
    Device setup request: not relevant ('-')
    Data: present (0)
    URB sec: 1530496799
    URB usec: 148979
    URB status: Operation now in progress (-EINPROGRESS) (-115)
    URB length [bytes]: 21
    Data length [bytes]: 21
    [bInterfaceClass: Unknown (0xffff)]
    Unused Setup Header
    Interval: 0
    Start frame: 0
    Copy of Transfer Flags: 0x00000000
    Number of ISO descriptors: 0
Leftover Capture Data: 2131302c3103465831382c31034643302c312c3103

0000  80 fd e3 46 fd 89 ff ff 53 03 01 03 03 00 2d 00   ...F....S.....-.
0010  1f 87 39 5b 00 00 00 00 f3 45 02 00 8d ff ff ff   ..9[.....E......
0020  15 00 00 00 15 00 00 00 00 00 00 00 00 00 00 00   ................
0030  00 00 00 00 00 00 00 00 00 00 00 00 00 00 00 00   ................
0040  21 31 30 2c 31 03 46 58 31 38 2c 31 03 46 43 30   !10,1.FX18,1.FC0
0050  2c 31 2c 31 03                                    ,1,1.

Frame 42: 78 bytes on wire (624 bits), 78 bytes captured (624 bits) on interface 0
    Interface id: 0 (unknown)
        Interface name: unknown
    Encapsulation type: USB packets with Linux header and padding (115)
    Arrival Time: Jul  1, 2018 21:59:59.262824000 EDT
    [Time shift for this packet: 0.000000000 seconds]
    Epoch Time: 1530496799.262824000 seconds
    [Time delta from previous captured frame: 0.113845000 seconds]
    [Time delta from previous displayed frame: 0.113845000 seconds]
    [Time since reference or first frame: 369.740573000 seconds]
    Frame Number: 42
    Frame Length: 78 bytes (624 bits)
    Capture Length: 78 bytes (624 bits)
    [Frame is marked: False]
    [Frame is ignored: False]
    [Protocols in frame: usb]
USB URB
    [Source: host]
    [Destination: 3.3.1]
    URB id: 0xffff89fc41ab8cc0
    URB type: URB_SUBMIT ('S')
    URB transfer type: URB_BULK (0x03)
    Endpoint: 0x01, Direction: OUT
        0... .... = Direction: OUT (0)
        .... 0001 = Endpoint number: 1
    Device: 3
    URB bus id: 3
    Device setup request: not relevant ('-')
    Data: present (0)
    URB sec: 1530496799
    URB usec: 262824
    URB status: Operation now in progress (-EINPROGRESS) (-115)
    URB length [bytes]: 14
    Data length [bytes]: 14
    [bInterfaceClass: Unknown (0xffff)]
    Unused Setup Header
    Interval: 0
    Start frame: 0
    Copy of Transfer Flags: 0x00000000
    Number of ISO descriptors: 0
Leftover Capture Data: 4645302c31034646302c302c3103

0000  c0 8c ab 41 fc 89 ff ff 53 03 01 03 03 00 2d 00   ...A....S.....-.
0010  1f 87 39 5b 00 00 00 00 a8 02 04 00 8d ff ff ff   ..9[............
0020  0e 00 00 00 0e 00 00 00 00 00 00 00 00 00 00 00   ................
0030  00 00 00 00 00 00 00 00 00 00 00 00 00 00 00 00   ................
0040  46 45 30 2c 31 03 46 46 30 2c 30 2c 31 03         FE0,1.FF0,0,1.

Frame 43: 66 bytes on wire (528 bits), 66 bytes captured (528 bits) on interface 0
    Interface id: 0 (unknown)
        Interface name: unknown
    Encapsulation type: USB packets with Linux header and padding (115)
    Arrival Time: Jul  1, 2018 21:59:59.457292000 EDT
    [Time shift for this packet: 0.000000000 seconds]
    Epoch Time: 1530496799.457292000 seconds
    [Time delta from previous captured frame: 0.194468000 seconds]
    [Time delta from previous displayed frame: 0.194468000 seconds]
    [Time since reference or first frame: 369.935041000 seconds]
    Frame Number: 43
    Frame Length: 66 bytes (528 bits)
    Capture Length: 66 bytes (528 bits)
    [Frame is marked: False]
    [Frame is ignored: False]
    [Protocols in frame: usb]
USB URB
    [Source: host]
    [Destination: 3.3.1]
    URB id: 0xffff89fd4d50de40
    URB type: URB_SUBMIT ('S')
    URB transfer type: URB_BULK (0x03)
    Endpoint: 0x01, Direction: OUT
        0... .... = Direction: OUT (0)
        .... 0001 = Endpoint number: 1
    Device: 3
    URB bus id: 3
    Device setup request: not relevant ('-')
    Data: present (0)
    URB sec: 1530496799
    URB usec: 457292
    URB status: Operation now in progress (-EINPROGRESS) (-115)
    URB length [bytes]: 2
    Data length [bytes]: 2
    [bInterfaceClass: Unknown (0xffff)]
    Unused Setup Header
    Interval: 0
    Start frame: 0
    Copy of Transfer Flags: 0x00000000
    Number of ISO descriptors: 0
Leftover Capture Data: 1b05

0000  40 de 50 4d fd 89 ff ff 53 03 01 03 03 00 2d 00   @.PM....S.....-.
0010  1f 87 39 5b 00 00 00 00 4c fa 06 00 8d ff ff ff   ..9[....L.......
0020  02 00 00 00 02 00 00 00 00 00 00 00 00 00 00 00   ................
0030  00 00 00 00 00 00 00 00 00 00 00 00 00 00 00 00   ................
0040  1b 05                                             ..

Frame 44: 66 bytes on wire (528 bits), 66 bytes captured (528 bits) on interface 0
    Interface id: 0 (unknown)
        Interface name: unknown
    Encapsulation type: USB packets with Linux header and padding (115)
    Arrival Time: Jul  1, 2018 21:59:59.617228000 EDT
    [Time shift for this packet: 0.000000000 seconds]
    Epoch Time: 1530496799.617228000 seconds
    [Time delta from previous captured frame: 0.159936000 seconds]
    [Time delta from previous displayed frame: 0.159936000 seconds]
    [Time since reference or first frame: 370.094977000 seconds]
    Frame Number: 44
    Frame Length: 66 bytes (528 bits)
    Capture Length: 66 bytes (528 bits)
    [Frame is marked: False]
    [Frame is ignored: False]
    [Protocols in frame: usb]
USB URB
    [Source: 3.3.2]
    [Destination: host]
    URB id: 0xffff89fd46e3f600
    URB type: URB_COMPLETE ('C')
    URB transfer type: URB_BULK (0x03)
    Endpoint: 0x82, Direction: IN
        1... .... = Direction: IN (1)
        .... 0010 = Endpoint number: 2
    Device: 3
    URB bus id: 3
    Device setup request: not relevant ('-')
    Data: present (0)
    URB sec: 1530496799
    URB usec: 617228
    URB status: Remote I/O error (-EREMOTEIO) (-121)
    URB length [bytes]: 2
    Data length [bytes]: 2
    [bInterfaceClass: Unknown (0xffff)]
    Unused Setup Header
    Interval: 0
    Start frame: 0
    Copy of Transfer Flags: 0x00000201
    Number of ISO descriptors: 0
Leftover Capture Data: 3003

0000  00 f6 e3 46 fd 89 ff ff 43 03 82 03 03 00 2d 00   ...F....C.....-.
0010  1f 87 39 5b 00 00 00 00 0c 6b 09 00 87 ff ff ff   ..9[.....k......
0020  02 00 00 00 02 00 00 00 00 00 00 00 00 00 00 00   ................
0030  00 00 00 00 00 00 00 00 01 02 00 00 00 00 00 00   ................
0040  30 03                                             0.

Frame 45: 66 bytes on wire (528 bits), 66 bytes captured (528 bits) on interface 0
    Interface id: 0 (unknown)
        Interface name: unknown
    Encapsulation type: USB packets with Linux header and padding (115)
    Arrival Time: Jul  1, 2018 21:59:59.671563000 EDT
    [Time shift for this packet: 0.000000000 seconds]
    Epoch Time: 1530496799.671563000 seconds
    [Time delta from previous captured frame: 0.054335000 seconds]
    [Time delta from previous displayed frame: 0.054335000 seconds]
    [Time since reference or first frame: 370.149312000 seconds]
    Frame Number: 45
    Frame Length: 66 bytes (528 bits)
    Capture Length: 66 bytes (528 bits)
    [Frame is marked: False]
    [Frame is ignored: False]
    [Protocols in frame: usb]
USB URB
    [Source: host]
    [Destination: 3.3.1]
    URB id: 0xffff89fd46e3fd80
    URB type: URB_SUBMIT ('S')
    URB transfer type: URB_BULK (0x03)
    Endpoint: 0x01, Direction: OUT
        0... .... = Direction: OUT (0)
        .... 0001 = Endpoint number: 1
    Device: 3
    URB bus id: 3
    Device setup request: not relevant ('-')
    Data: present (0)
    URB sec: 1530496799
    URB usec: 671563
    URB status: Operation now in progress (-EINPROGRESS) (-115)
    URB length [bytes]: 2
    Data length [bytes]: 2
    [bInterfaceClass: Unknown (0xffff)]
    Unused Setup Header
    Interval: 0
    Start frame: 0
    Copy of Transfer Flags: 0x00000000
    Number of ISO descriptors: 0
Leftover Capture Data: 1b05

0000  80 fd e3 46 fd 89 ff ff 53 03 01 03 03 00 2d 00   ...F....S.....-.
0010  1f 87 39 5b 00 00 00 00 4b 3f 0a 00 8d ff ff ff   ..9[....K?......
0020  02 00 00 00 02 00 00 00 00 00 00 00 00 00 00 00   ................
0030  00 00 00 00 00 00 00 00 00 00 00 00 00 00 00 00   ................
0040  1b 05                                             ..

Frame 46: 66 bytes on wire (528 bits), 66 bytes captured (528 bits) on interface 0
    Interface id: 0 (unknown)
        Interface name: unknown
    Encapsulation type: USB packets with Linux header and padding (115)
    Arrival Time: Jul  1, 2018 21:59:59.986111000 EDT
    [Time shift for this packet: 0.000000000 seconds]
    Epoch Time: 1530496799.986111000 seconds
    [Time delta from previous captured frame: 0.314548000 seconds]
    [Time delta from previous displayed frame: 0.314548000 seconds]
    [Time since reference or first frame: 370.463860000 seconds]
    Frame Number: 46
    Frame Length: 66 bytes (528 bits)
    Capture Length: 66 bytes (528 bits)
    [Frame is marked: False]
    [Frame is ignored: False]
    [Protocols in frame: usb]
USB URB
    [Source: 3.3.2]
    [Destination: host]
    URB id: 0xffff89fd46e3fd80
    URB type: URB_COMPLETE ('C')
    URB transfer type: URB_BULK (0x03)
    Endpoint: 0x82, Direction: IN
        1... .... = Direction: IN (1)
        .... 0010 = Endpoint number: 2
    Device: 3
    URB bus id: 3
    Device setup request: not relevant ('-')
    Data: present (0)
    URB sec: 1530496799
    URB usec: 986111
    URB status: Remote I/O error (-EREMOTEIO) (-121)
    URB length [bytes]: 2
    Data length [bytes]: 2
    [bInterfaceClass: Unknown (0xffff)]
    Unused Setup Header
    Interval: 0
    Start frame: 0
    Copy of Transfer Flags: 0x00000201
    Number of ISO descriptors: 0
Leftover Capture Data: 3003

0000  80 fd e3 46 fd 89 ff ff 43 03 82 03 03 00 2d 00   ...F....C.....-.
0010  1f 87 39 5b 00 00 00 00 ff 0b 0f 00 87 ff ff ff   ..9[............
0020  02 00 00 00 02 00 00 00 00 00 00 00 00 00 00 00   ................
0030  00 00 00 00 00 00 00 00 01 02 00 00 00 00 00 00   ................
0040  30 03                                             0.

Frame 47: 73 bytes on wire (584 bits), 73 bytes captured (584 bits) on interface 0
    Interface id: 0 (unknown)
        Interface name: unknown
    Encapsulation type: USB packets with Linux header and padding (115)
    Arrival Time: Jul  1, 2018 22:00:00.160007000 EDT
    [Time shift for this packet: 0.000000000 seconds]
    Epoch Time: 1530496800.160007000 seconds
    [Time delta from previous captured frame: 0.173896000 seconds]
    [Time delta from previous displayed frame: 0.173896000 seconds]
    [Time since reference or first frame: 370.637756000 seconds]
    Frame Number: 47
    Frame Length: 73 bytes (584 bits)
    Capture Length: 73 bytes (584 bits)
    [Frame is marked: False]
    [Frame is ignored: False]
    [Protocols in frame: usb]
USB URB
    [Source: host]
    [Destination: 3.3.1]
    URB id: 0xffff89fc41ab8000
    URB type: URB_SUBMIT ('S')
    URB transfer type: URB_BULK (0x03)
    Endpoint: 0x01, Direction: OUT
        0... .... = Direction: OUT (0)
        .... 0001 = Endpoint number: 1
    Device: 3
    URB bus id: 3
    Device setup request: not relevant ('-')
    Data: present (0)
    URB sec: 1530496800
    URB usec: 160007
    URB status: Operation now in progress (-EINPROGRESS) (-115)
    URB length [bytes]: 9
    Data length [bytes]: 9
    [bInterfaceClass: Unknown (0xffff)]
    Unused Setup Header
    Interval: 0
    Start frame: 0
    Copy of Transfer Flags: 0x00000000
    Number of ISO descriptors: 0
Leftover Capture Data: 4d3235342c32353403

0000  00 80 ab 41 fc 89 ff ff 53 03 01 03 03 00 2d 00   ...A....S.....-.
0010  20 87 39 5b 00 00 00 00 07 71 02 00 8d ff ff ff    .9[.....q......
0020  09 00 00 00 09 00 00 00 00 00 00 00 00 00 00 00   ................
0030  00 00 00 00 00 00 00 00 00 00 00 00 00 00 00 00   ................
0040  4d 32 35 34 2c 32 35 34 03                        M254,254.

Frame 48: 74 bytes on wire (592 bits), 74 bytes captured (592 bits) on interface 0
    Interface id: 0 (unknown)
        Interface name: unknown
    Encapsulation type: USB packets with Linux header and padding (115)
    Arrival Time: Jul  1, 2018 22:00:00.371471000 EDT
    [Time shift for this packet: 0.000000000 seconds]
    Epoch Time: 1530496800.371471000 seconds
    [Time delta from previous captured frame: 0.211464000 seconds]
    [Time delta from previous displayed frame: 0.211464000 seconds]
    [Time since reference or first frame: 370.849220000 seconds]
    Frame Number: 48
    Frame Length: 74 bytes (592 bits)
    Capture Length: 74 bytes (592 bits)
    [Frame is marked: False]
    [Frame is ignored: False]
    [Protocols in frame: usb]
USB URB
    [Source: host]
    [Destination: 3.3.1]
    URB id: 0xffff89fd4d50dd80
    URB type: URB_SUBMIT ('S')
    URB transfer type: URB_BULK (0x03)
    Endpoint: 0x01, Direction: OUT
        0... .... = Direction: OUT (0)
        .... 0001 = Endpoint number: 1
    Device: 3
    URB bus id: 3
    Device setup request: not relevant ('-')
    Data: present (0)
    URB sec: 1530496800
    URB usec: 371471
    URB status: Operation now in progress (-EINPROGRESS) (-115)
    URB length [bytes]: 10
    Data length [bytes]: 10
    [bInterfaceClass: Unknown (0xffff)]
    Unused Setup Header
    Interval: 0
    Start frame: 0
    Copy of Transfer Flags: 0x00000000
    Number of ISO descriptors: 0
Leftover Capture Data: 424532e821903c3bab03

0000  80 dd 50 4d fd 89 ff ff 53 03 01 03 03 00 2d 00   ..PM....S.....-.
0010  20 87 39 5b 00 00 00 00 0f ab 05 00 8d ff ff ff    .9[............
0020  0a 00 00 00 0a 00 00 00 00 00 00 00 00 00 00 00   ................
0030  00 00 00 00 00 00 00 00 00 00 00 00 00 00 00 00   ................
0040  42 45 32 e8 21 90 3c 3b ab 03                     BE2.!.<;..

Frame 49: 70 bytes on wire (560 bits), 70 bytes captured (560 bits) on interface 0
    Interface id: 0 (unknown)
        Interface name: unknown
    Encapsulation type: USB packets with Linux header and padding (115)
    Arrival Time: Jul  1, 2018 22:00:00.525470000 EDT
    [Time shift for this packet: 0.000000000 seconds]
    Epoch Time: 1530496800.525470000 seconds
    [Time delta from previous captured frame: 0.153999000 seconds]
    [Time delta from previous displayed frame: 0.153999000 seconds]
    [Time since reference or first frame: 371.003219000 seconds]
    Frame Number: 49
    Frame Length: 70 bytes (560 bits)
    Capture Length: 70 bytes (560 bits)
    [Frame is marked: False]
    [Frame is ignored: False]
    [Protocols in frame: usb]
USB URB
    [Source: host]
    [Destination: 3.3.1]
    URB id: 0xffff89fd4d50dd80
    URB type: URB_SUBMIT ('S')
    URB transfer type: URB_BULK (0x03)
    Endpoint: 0x01, Direction: OUT
        0... .... = Direction: OUT (0)
        .... 0001 = Endpoint number: 1
    Device: 3
    URB bus id: 3
    Device setup request: not relevant ('-')
    Data: present (0)
    URB sec: 1530496800
    URB usec: 525470
    URB status: Operation now in progress (-EINPROGRESS) (-115)
    URB length [bytes]: 6
    Data length [bytes]: 6
    [bInterfaceClass: Unknown (0xffff)]
    Unused Setup Header
    Interval: 0
    Start frame: 0
    Copy of Transfer Flags: 0x00000000
    Number of ISO descriptors: 0
Leftover Capture Data: 424531909003

0000  80 dd 50 4d fd 89 ff ff 53 03 01 03 03 00 2d 00   ..PM....S.....-.
0010  20 87 39 5b 00 00 00 00 9e 04 08 00 8d ff ff ff    .9[............
0020  06 00 00 00 06 00 00 00 00 00 00 00 00 00 00 00   ................
0030  00 00 00 00 00 00 00 00 00 00 00 00 00 00 00 00   ................
0040  42 45 31 90 90 03                                 BE1...

Frame 50: 83 bytes on wire (664 bits), 83 bytes captured (664 bits) on interface 0
    Interface id: 0 (unknown)
        Interface name: unknown
    Encapsulation type: USB packets with Linux header and padding (115)
    Arrival Time: Jul  1, 2018 22:00:00.699939000 EDT
    [Time shift for this packet: 0.000000000 seconds]
    Epoch Time: 1530496800.699939000 seconds
    [Time delta from previous captured frame: 0.174469000 seconds]
    [Time delta from previous displayed frame: 0.174469000 seconds]
    [Time since reference or first frame: 371.177688000 seconds]
    Frame Number: 50
    Frame Length: 83 bytes (664 bits)
    Capture Length: 83 bytes (664 bits)
    [Frame is marked: False]
    [Frame is ignored: False]
    [Protocols in frame: usb]
USB URB
    [Source: host]
    [Destination: 3.3.1]
    URB id: 0xffff89fd4d50dd80
    URB type: URB_SUBMIT ('S')
    URB transfer type: URB_BULK (0x03)
    Endpoint: 0x01, Direction: OUT
        0... .... = Direction: OUT (0)
        .... 0001 = Endpoint number: 1
    Device: 3
    URB bus id: 3
    Device setup request: not relevant ('-')
    Data: present (0)
    URB sec: 1530496800
    URB usec: 699939
    URB status: Operation now in progress (-EINPROGRESS) (-115)
    URB length [bytes]: 19
    Data length [bytes]: 19
    [bInterfaceClass: Unknown (0xffff)]
    Unused Setup Header
    Interval: 0
    Start frame: 0
    Copy of Transfer Flags: 0x00000000
    Number of ISO descriptors: 0
Leftover Capture Data: 424532d6247b92dd89a844a19acca0b24a8903

0000  80 dd 50 4d fd 89 ff ff 53 03 01 03 03 00 2d 00   ..PM....S.....-.
0010  20 87 39 5b 00 00 00 00 23 ae 0a 00 8d ff ff ff    .9[....#.......
0020  13 00 00 00 13 00 00 00 00 00 00 00 00 00 00 00   ................
0030  00 00 00 00 00 00 00 00 00 00 00 00 00 00 00 00   ................
0040  42 45 32 d6 24 7b 92 dd 89 a8 44 a1 9a cc a0 b2   BE2.${....D.....
0050  4a 89 03                                          J..

Frame 51: 74 bytes on wire (592 bits), 74 bytes captured (592 bits) on interface 0
    Interface id: 0 (unknown)
        Interface name: unknown
    Encapsulation type: USB packets with Linux header and padding (115)
    Arrival Time: Jul  1, 2018 22:00:00.874056000 EDT
    [Time shift for this packet: 0.000000000 seconds]
    Epoch Time: 1530496800.874056000 seconds
    [Time delta from previous captured frame: 0.174117000 seconds]
    [Time delta from previous displayed frame: 0.174117000 seconds]
    [Time since reference or first frame: 371.351805000 seconds]
    Frame Number: 51
    Frame Length: 74 bytes (592 bits)
    Capture Length: 74 bytes (592 bits)
    [Frame is marked: False]
    [Frame is ignored: False]
    [Protocols in frame: usb]
USB URB
    [Source: host]
    [Destination: 3.3.1]
    URB id: 0xffff89fc41ab83c0
    URB type: URB_SUBMIT ('S')
    URB transfer type: URB_BULK (0x03)
    Endpoint: 0x01, Direction: OUT
        0... .... = Direction: OUT (0)
        .... 0001 = Endpoint number: 1
    Device: 3
    URB bus id: 3
    Device setup request: not relevant ('-')
    Data: present (0)
    URB sec: 1530496800
    URB usec: 874056
    URB status: Operation now in progress (-EINPROGRESS) (-115)
    URB length [bytes]: 10
    Data length [bytes]: 10
    [bInterfaceClass: Unknown (0xffff)]
    Unused Setup Header
    Interval: 0
    Start frame: 0
    Copy of Transfer Flags: 0x00000000
    Number of ISO descriptors: 0
Leftover Capture Data: 4245319090909090f603

0000  c0 83 ab 41 fc 89 ff ff 53 03 01 03 03 00 2d 00   ...A....S.....-.
0010  20 87 39 5b 00 00 00 00 48 56 0d 00 8d ff ff ff    .9[....HV......
0020  0a 00 00 00 0a 00 00 00 00 00 00 00 00 00 00 00   ................
0030  00 00 00 00 00 00 00 00 00 00 00 00 00 00 00 00   ................
0040  42 45 31 90 90 90 90 90 f6 03                     BE1.......

Frame 52: 74 bytes on wire (592 bits), 74 bytes captured (592 bits) on interface 0
    Interface id: 0 (unknown)
        Interface name: unknown
    Encapsulation type: USB packets with Linux header and padding (115)
    Arrival Time: Jul  1, 2018 22:00:01.027966000 EDT
    [Time shift for this packet: 0.000000000 seconds]
    Epoch Time: 1530496801.027966000 seconds
    [Time delta from previous captured frame: 0.153910000 seconds]
    [Time delta from previous displayed frame: 0.153910000 seconds]
    [Time since reference or first frame: 371.505715000 seconds]
    Frame Number: 52
    Frame Length: 74 bytes (592 bits)
    Capture Length: 74 bytes (592 bits)
    [Frame is marked: False]
    [Frame is ignored: False]
    [Protocols in frame: usb]
USB URB
    [Source: host]
    [Destination: 3.3.1]
    URB id: 0xffff89fc41ab8c00
    URB type: URB_SUBMIT ('S')
    URB transfer type: URB_BULK (0x03)
    Endpoint: 0x01, Direction: OUT
        0... .... = Direction: OUT (0)
        .... 0001 = Endpoint number: 1
    Device: 3
    URB bus id: 3
    Device setup request: not relevant ('-')
    Data: present (0)
    URB sec: 1530496801
    URB usec: 27966
    URB status: Operation now in progress (-EINPROGRESS) (-115)
    URB length [bytes]: 10
    Data length [bytes]: 10
    [bInterfaceClass: Unknown (0xffff)]
    Unused Setup Header
    Interval: 0
    Start frame: 0
    Copy of Transfer Flags: 0x00000000
    Number of ISO descriptors: 0
Leftover Capture Data: 42453270fd8f84558303

0000  00 8c ab 41 fc 89 ff ff 53 03 01 03 03 00 2d 00   ...A....S.....-.
0010  21 87 39 5b 00 00 00 00 3e 6d 00 00 8d ff ff ff   !.9[....>m......
0020  0a 00 00 00 0a 00 00 00 00 00 00 00 00 00 00 00   ................
0030  00 00 00 00 00 00 00 00 00 00 00 00 00 00 00 00   ................
0040  42 45 32 70 fd 8f 84 55 83 03                     BE2p...U..

Frame 53: 310 bytes on wire (2480 bits), 310 bytes captured (2480 bits) on interface 0
    Interface id: 0 (unknown)
        Interface name: unknown
    Encapsulation type: USB packets with Linux header and padding (115)
    Arrival Time: Jul  1, 2018 22:00:01.182004000 EDT
    [Time shift for this packet: 0.000000000 seconds]
    Epoch Time: 1530496801.182004000 seconds
    [Time delta from previous captured frame: 0.154038000 seconds]
    [Time delta from previous displayed frame: 0.154038000 seconds]
    [Time since reference or first frame: 371.659753000 seconds]
    Frame Number: 53
    Frame Length: 310 bytes (2480 bits)
    Capture Length: 310 bytes (2480 bits)
    [Frame is marked: False]
    [Frame is ignored: False]
    [Protocols in frame: usb]
USB URB
    [Source: host]
    [Destination: 3.3.1]
    URB id: 0xffff89fc41ab89c0
    URB type: URB_SUBMIT ('S')
    URB transfer type: URB_BULK (0x03)
    Endpoint: 0x01, Direction: OUT
        0... .... = Direction: OUT (0)
        .... 0001 = Endpoint number: 1
    Device: 3
    URB bus id: 3
    Device setup request: not relevant ('-')
    Data: present (0)
    URB sec: 1530496801
    URB usec: 182004
    URB status: Operation now in progress (-EINPROGRESS) (-115)
    URB length [bytes]: 246
    Data length [bytes]: 246
    [bInterfaceClass: Unknown (0xffff)]
    Unused Setup Header
    Interval: 0
    Start frame: 0
    Copy of Transfer Flags: 0x00000000
    Number of ISO descriptors: 0
Leftover Capture Data: 4245319890939c949c959c959b969b969b969a979a989a98...

0000  c0 89 ab 41 fc 89 ff ff 53 03 01 03 03 00 2d 00   ...A....S.....-.
0010  21 87 39 5b 00 00 00 00 f4 c6 02 00 8d ff ff ff   !.9[............
0020  f6 00 00 00 f6 00 00 00 00 00 00 00 00 00 00 00   ................
0030  00 00 00 00 00 00 00 00 00 00 00 00 00 00 00 00   ................
0040  42 45 31 98 90 93 9c 94 9c 95 9c 95 9b 96 9b 96   BE1.............
0050  9b 96 9a 97 9a 98 9a 98 99 98 99 99 98 99 98 9a   ................
0060  98 9a 97 9a 96 9b 96 9b 96 9b 95 9c 95 9c 94 9c   ................
0070  93 9c 93 9c 92 9d 92 9d 91 9d 90 9d 90 9d 8f 9d   ................
0080  8e 9c 8e 9c 8d 9c 8d 9c 8c 9c 8b 9b 8b 9b 8a 9b   ................
0090  8a 9a 8a 9a 89 9a 88 99 88 99 88 98 87 98 87 98   ................
00a0  86 97 86 96 86 96 85 96 85 95 85 95 84 94 84 93   ................
00b0  84 93 84 92 84 92 83 91 83 90 83 90 83 8f 83 8e   ................
00c0  83 8e 84 8d 84 8d 84 8c 84 8b 84 8b 85 8a 85 8a   ................
00d0  85 8a 86 89 86 88 86 88 87 88 87 87 88 87 88 86   ................
00e0  88 86 89 86 8a 85 8a 85 8a 85 8b 84 8b 84 8c 84   ................
00f0  8d 84 8d 84 8e 83 8e 83 8f 83 90 83 90 83 91 83   ................
0100  92 84 92 84 93 84 93 84 94 84 95 85 95 85 96 85   ................
0110  96 86 96 86 97 86 98 87 98 87 98 88 99 88 99 88   ................
