Frame 1: 64 bytes on wire (512 bits), 64 bytes captured (512 bits) on interface 0
    Interface id: 0 (unknown)
        Interface name: unknown
    Encapsulation type: USB packets with Linux header and padding (115)
    Arrival Time: Jun 29, 2018 20:41:09.603223000 EDT
    [Time shift for this packet: 0.000000000 seconds]
    Epoch Time: 1530319269.603223000 seconds
    [Time delta from previous captured frame: 0.000000000 seconds]
    [Time delta from previous displayed frame: 0.000000000 seconds]
    [Time since reference or first frame: 0.000000000 seconds]
    Frame Number: 1
    Frame Length: 64 bytes (512 bits)
    Capture Length: 64 bytes (512 bits)
    [Frame is marked: False]
    [Frame is ignored: False]
    [Protocols in frame: usb:usbhub]
USB URB
    [Source: host]
    [Destination: 3.1.0]
    URB id: 0xffff9753a1709240
    URB type: URB_SUBMIT ('S')
    URB transfer type: URB_CONTROL (0x02)
    Endpoint: 0x80, Direction: IN
        1... .... = Direction: IN (1)
        .... 0000 = Endpoint number: 0
    Device: 1
    URB bus id: 3
    Device setup request: relevant (0)
    Data: not present ('<')
    URB sec: 1530319269
    URB usec: 603223
    URB status: Operation now in progress (-EINPROGRESS) (-115)
    URB length [bytes]: 4
    Data length [bytes]: 0
    [Response in: 2]
    Interval: 0
    Start frame: 0
    Copy of Transfer Flags: 0x00000200
    Number of ISO descriptors: 0
    [bInterfaceClass: Unknown (0xffff)]
URB setup
    bmRequestType: 0xa3
        1... .... = Direction: Device-to-host
        .01. .... = Type: Class (0x1)
        ...0 0011 = Recipient: Other (0x03)
bRequest: GET_STATUS (0x00)
wValue: 0x0000
    (zero): 0
wIndex: 1
    Port: 1
wLength: 4

0000  40 92 70 a1 53 97 ff ff 53 02 80 01 03 00 00 3c   @.p.S...S......<
0010  a5 d1 36 5b 00 00 00 00 57 34 09 00 8d ff ff ff   ..6[....W4......
0020  04 00 00 00 00 00 00 00 a3 00 00 00 01 00 04 00   ................
0030  00 00 00 00 00 00 00 00 00 02 00 00 00 00 00 00   ................

Frame 2: 68 bytes on wire (544 bits), 68 bytes captured (544 bits) on interface 0
    Interface id: 0 (unknown)
        Interface name: unknown
    Encapsulation type: USB packets with Linux header and padding (115)
    Arrival Time: Jun 29, 2018 20:41:09.603238000 EDT
    [Time shift for this packet: 0.000000000 seconds]
    Epoch Time: 1530319269.603238000 seconds
    [Time delta from previous captured frame: 0.000015000 seconds]
    [Time delta from previous displayed frame: 0.000015000 seconds]
    [Time since reference or first frame: 0.000015000 seconds]
    Frame Number: 2
    Frame Length: 68 bytes (544 bits)
    Capture Length: 68 bytes (544 bits)
    [Frame is marked: False]
    [Frame is ignored: False]
    [Protocols in frame: usb:usbhub]
USB URB
    [Source: 3.1.0]
    [Destination: host]
    URB id: 0xffff9753a1709240
    URB type: URB_COMPLETE ('C')
    URB transfer type: URB_CONTROL (0x02)
    Endpoint: 0x80, Direction: IN
        1... .... = Direction: IN (1)
        .... 0000 = Endpoint number: 0
    Device: 1
    URB bus id: 3
    Device setup request: not relevant ('-')
    Data: present (0)
    URB sec: 1530319269
    URB usec: 603238
    URB status: Success (0)
    URB length [bytes]: 4
    Data length [bytes]: 4
    [Request in: 1]
    [Time from request: 0.000015000 seconds]
    Unused Setup Header
    Interval: 0
    Start frame: 0
    Copy of Transfer Flags: 0x00000200
    Number of ISO descriptors: 0
    [bInterfaceClass: Unknown (0xffff)]
Port Status: 0x0101, PORT_CONNECTION, PORT_POWER
    .... .... .... ...1 = PORT_CONNECTION: True
    .... .... .... ..0. = PORT_ENABLE: False
    .... .... .... .0.. = PORT_SUSPEND: False
    .... .... .... 0... = PORT_OVER_CURRENT: False
    .... .... ...0 .... = PORT_RESET: False
    .... ...1 .... .... = PORT_POWER: True
    .... ..0. .... .... = PORT_LOW_SPEED: False
    .... .0.. .... .... = PORT_HIGH_SPEED: False
    .... 0... .... .... = PORT_TEST: False
    ...0 .... .... .... = PORT_INDICATOR: Default colors
Port Change: 0x0001, C_PORT_CONNECTION
    .... .... .... ...1 = C_PORT_CONNECTION: True
    .... .... .... ..0. = C_PORT_ENABLE: False
    .... .... .... .0.. = C_PORT_SUSPEND: False
    .... .... .... 0... = C_PORT_OVER_CURRENT: False
    .... .... ...0 .... = C_PORT_RESET: False

0000  40 92 70 a1 53 97 ff ff 43 02 80 01 03 00 2d 00   @.p.S...C.....-.
0010  a5 d1 36 5b 00 00 00 00 66 34 09 00 00 00 00 00   ..6[....f4......
0020  04 00 00 00 04 00 00 00 00 00 00 00 00 00 00 00   ................
0030  00 00 00 00 00 00 00 00 00 02 00 00 00 00 00 00   ................
0040  01 01 01 00                                       ....

Frame 3: 64 bytes on wire (512 bits), 64 bytes captured (512 bits) on interface 0
    Interface id: 0 (unknown)
        Interface name: unknown
    Encapsulation type: USB packets with Linux header and padding (115)
    Arrival Time: Jun 29, 2018 20:41:09.603243000 EDT
    [Time shift for this packet: 0.000000000 seconds]
    Epoch Time: 1530319269.603243000 seconds
    [Time delta from previous captured frame: 0.000005000 seconds]
    [Time delta from previous displayed frame: 0.000005000 seconds]
    [Time since reference or first frame: 0.000020000 seconds]
    Frame Number: 3
    Frame Length: 64 bytes (512 bits)
    Capture Length: 64 bytes (512 bits)
    [Frame is marked: False]
    [Frame is ignored: False]
    [Protocols in frame: usb:usbhub]
USB URB
    [Source: host]
    [Destination: 3.1.0]
    URB id: 0xffff9753a1709240
    URB type: URB_SUBMIT ('S')
    URB transfer type: URB_CONTROL (0x02)
    Endpoint: 0x00, Direction: OUT
        0... .... = Direction: OUT (0)
        .... 0000 = Endpoint number: 0
    Device: 1
    URB bus id: 3
    Device setup request: relevant (0)
    Data: present (0)
    URB sec: 1530319269
    URB usec: 603243
    URB status: Operation now in progress (-EINPROGRESS) (-115)
    URB length [bytes]: 0
    Data length [bytes]: 0
    [Response in: 4]
    Interval: 0
    Start frame: 0
    Copy of Transfer Flags: 0x00000000
    Number of ISO descriptors: 0
    [bInterfaceClass: Unknown (0xffff)]
URB setup
    bmRequestType: 0x23
        0... .... = Direction: Host-to-device
        .01. .... = Type: Class (0x1)
        ...0 0011 = Recipient: Other (0x03)
bRequest: CLEAR_FEATURE (0x01)
wValue: 0x0010
    PortFeatureSelector: C_PORT_CONNECTION (16)
wIndex: 1
    Port: 1
    PortSelector: 0
wLength: 0
    (zero): 0

0000  40 92 70 a1 53 97 ff ff 53 02 00 01 03 00 00 00   @.p.S...S.......
0010  a5 d1 36 5b 00 00 00 00 6b 34 09 00 8d ff ff ff   ..6[....k4......
0020  00 00 00 00 00 00 00 00 23 01 10 00 01 00 00 00   ........#.......
0030  00 00 00 00 00 00 00 00 00 00 00 00 00 00 00 00   ................

Frame 4: 64 bytes on wire (512 bits), 64 bytes captured (512 bits) on interface 0
    Interface id: 0 (unknown)
        Interface name: unknown
    Encapsulation type: USB packets with Linux header and padding (115)
    Arrival Time: Jun 29, 2018 20:41:09.603250000 EDT
    [Time shift for this packet: 0.000000000 seconds]
    Epoch Time: 1530319269.603250000 seconds
    [Time delta from previous captured frame: 0.000007000 seconds]
    [Time delta from previous displayed frame: 0.000007000 seconds]
    [Time since reference or first frame: 0.000027000 seconds]
    Frame Number: 4
    Frame Length: 64 bytes (512 bits)
    Capture Length: 64 bytes (512 bits)
    [Frame is marked: False]
    [Frame is ignored: False]
    [Protocols in frame: usb]
USB URB
    [Source: 3.1.0]
    [Destination: host]
    URB id: 0xffff9753a1709240
    URB type: URB_COMPLETE ('C')
    URB transfer type: URB_CONTROL (0x02)
    Endpoint: 0x00, Direction: OUT
        0... .... = Direction: OUT (0)
        .... 0000 = Endpoint number: 0
    Device: 1
    URB bus id: 3
    Device setup request: not relevant ('-')
    Data: not present ('>')
    URB sec: 1530319269
    URB usec: 603250
    URB status: Success (0)
    URB length [bytes]: 0
    Data length [bytes]: 0
    [Request in: 3]
    [Time from request: 0.000007000 seconds]
    Unused Setup Header
    Interval: 0
    Start frame: 0
    Copy of Transfer Flags: 0x00000000
    Number of ISO descriptors: 0
    [bInterfaceClass: Unknown (0xffff)]

0000  40 92 70 a1 53 97 ff ff 43 02 00 01 03 00 2d 3e   @.p.S...C.....->
0010  a5 d1 36 5b 00 00 00 00 72 34 09 00 00 00 00 00   ..6[....r4......
0020  00 00 00 00 00 00 00 00 00 00 00 00 00 00 00 00   ................
0030  00 00 00 00 00 00 00 00 00 00 00 00 00 00 00 00   ................

Frame 5: 64 bytes on wire (512 bits), 64 bytes captured (512 bits) on interface 0
    Interface id: 0 (unknown)
        Interface name: unknown
    Encapsulation type: USB packets with Linux header and padding (115)
    Arrival Time: Jun 29, 2018 20:41:09.603253000 EDT
    [Time shift for this packet: 0.000000000 seconds]
    Epoch Time: 1530319269.603253000 seconds
    [Time delta from previous captured frame: 0.000003000 seconds]
    [Time delta from previous displayed frame: 0.000003000 seconds]
    [Time since reference or first frame: 0.000030000 seconds]
    Frame Number: 5
    Frame Length: 64 bytes (512 bits)
    Capture Length: 64 bytes (512 bits)
    [Frame is marked: False]
    [Frame is ignored: False]
    [Protocols in frame: usb:usbhub]
USB URB
    [Source: host]
    [Destination: 3.1.0]
    URB id: 0xffff9753a1709240
    URB type: URB_SUBMIT ('S')
    URB transfer type: URB_CONTROL (0x02)
    Endpoint: 0x80, Direction: IN
        1... .... = Direction: IN (1)
        .... 0000 = Endpoint number: 0
    Device: 1
    URB bus id: 3
    Device setup request: relevant (0)
    Data: not present ('<')
    URB sec: 1530319269
    URB usec: 603253
    URB status: Operation now in progress (-EINPROGRESS) (-115)
    URB length [bytes]: 4
    Data length [bytes]: 0
    [Response in: 6]
    Interval: 0
    Start frame: 0
    Copy of Transfer Flags: 0x00000200
    Number of ISO descriptors: 0
    [bInterfaceClass: Unknown (0xffff)]
URB setup
    bmRequestType: 0xa3
        1... .... = Direction: Device-to-host
        .01. .... = Type: Class (0x1)
        ...0 0011 = Recipient: Other (0x03)
bRequest: GET_STATUS (0x00)
wValue: 0x0000
    (zero): 0
wIndex: 2
    Port: 2
wLength: 4

0000  40 92 70 a1 53 97 ff ff 53 02 80 01 03 00 00 3c   @.p.S...S......<
0010  a5 d1 36 5b 00 00 00 00 75 34 09 00 8d ff ff ff   ..6[....u4......
0020  04 00 00 00 00 00 00 00 a3 00 00 00 02 00 04 00   ................
0030  00 00 00 00 00 00 00 00 00 02 00 00 00 00 00 00   ................

Frame 6: 68 bytes on wire (544 bits), 68 bytes captured (544 bits) on interface 0
    Interface id: 0 (unknown)
        Interface name: unknown
    Encapsulation type: USB packets with Linux header and padding (115)
    Arrival Time: Jun 29, 2018 20:41:09.603257000 EDT
    [Time shift for this packet: 0.000000000 seconds]
    Epoch Time: 1530319269.603257000 seconds
    [Time delta from previous captured frame: 0.000004000 seconds]
    [Time delta from previous displayed frame: 0.000004000 seconds]
    [Time since reference or first frame: 0.000034000 seconds]
    Frame Number: 6
    Frame Length: 68 bytes (544 bits)
    Capture Length: 68 bytes (544 bits)
    [Frame is marked: False]
    [Frame is ignored: False]
    [Protocols in frame: usb:usbhub]
USB URB
    [Source: 3.1.0]
    [Destination: host]
    URB id: 0xffff9753a1709240
    URB type: URB_COMPLETE ('C')
    URB transfer type: URB_CONTROL (0x02)
    Endpoint: 0x80, Direction: IN
        1... .... = Direction: IN (1)
        .... 0000 = Endpoint number: 0
    Device: 1
    URB bus id: 3
    Device setup request: not relevant ('-')
    Data: present (0)
    URB sec: 1530319269
    URB usec: 603257
    URB status: Success (0)
    URB length [bytes]: 4
    Data length [bytes]: 4
    [Request in: 5]
    [Time from request: 0.000004000 seconds]
    Unused Setup Header
    Interval: 0
    Start frame: 0
    Copy of Transfer Flags: 0x00000200
    Number of ISO descriptors: 0
    [bInterfaceClass: Unknown (0xffff)]
Port Status: 0x0100, PORT_POWER
    .... .... .... ...0 = PORT_CONNECTION: False
    .... .... .... ..0. = PORT_ENABLE: False
    .... .... .... .0.. = PORT_SUSPEND: False
    .... .... .... 0... = PORT_OVER_CURRENT: False
    .... .... ...0 .... = PORT_RESET: False
    .... ...1 .... .... = PORT_POWER: True
    .... ..0. .... .... = PORT_LOW_SPEED: False
    .... .0.. .... .... = PORT_HIGH_SPEED: False
    .... 0... .... .... = PORT_TEST: False
    ...0 .... .... .... = PORT_INDICATOR: Default colors
Port Change: 0x0000
    .... .... .... ...0 = C_PORT_CONNECTION: False
    .... .... .... ..0. = C_PORT_ENABLE: False
    .... .... .... .0.. = C_PORT_SUSPEND: False
    .... .... .... 0... = C_PORT_OVER_CURRENT: False
    .... .... ...0 .... = C_PORT_RESET: False

0000  40 92 70 a1 53 97 ff ff 43 02 80 01 03 00 2d 00   @.p.S...C.....-.
0010  a5 d1 36 5b 00 00 00 00 79 34 09 00 00 00 00 00   ..6[....y4......
0020  04 00 00 00 04 00 00 00 00 00 00 00 00 00 00 00   ................
0030  00 00 00 00 00 00 00 00 00 02 00 00 00 00 00 00   ................
0040  00 01 00 00                                       ....

Frame 7: 64 bytes on wire (512 bits), 64 bytes captured (512 bits) on interface 0
    Interface id: 0 (unknown)
        Interface name: unknown
    Encapsulation type: USB packets with Linux header and padding (115)
    Arrival Time: Jun 29, 2018 20:41:09.709812000 EDT
    [Time shift for this packet: 0.000000000 seconds]
    Epoch Time: 1530319269.709812000 seconds
    [Time delta from previous captured frame: 0.106555000 seconds]
    [Time delta from previous displayed frame: 0.106555000 seconds]
    [Time since reference or first frame: 0.106589000 seconds]
    Frame Number: 7
    Frame Length: 64 bytes (512 bits)
    Capture Length: 64 bytes (512 bits)
    [Frame is marked: False]
    [Frame is ignored: False]
    [Protocols in frame: usb]
USB URB
    [Source: host]
    [Destination: 3.1.1]
    URB id: 0xffff97550966a3c0
    URB type: URB_SUBMIT ('S')
    URB transfer type: URB_INTERRUPT (0x01)
    Endpoint: 0x81, Direction: IN
        1... .... = Direction: IN (1)
        .... 0001 = Endpoint number: 1
    Device: 1
    URB bus id: 3
    Device setup request: not relevant ('-')
    Data: not present ('<')
    URB sec: 1530319269
    URB usec: 709812
    URB status: Operation now in progress (-EINPROGRESS) (-115)
    URB length [bytes]: 4
    Data length [bytes]: 0
    [bInterfaceClass: Unknown (0xffff)]
    Unused Setup Header
    Interval: 2048
    Start frame: 0
    Copy of Transfer Flags: 0x00000200
    Number of ISO descriptors: 0

0000  c0 a3 66 09 55 97 ff ff 53 01 81 01 03 00 2d 3c   ..f.U...S.....-<
0010  a5 d1 36 5b 00 00 00 00 b4 d4 0a 00 8d ff ff ff   ..6[............
0020  04 00 00 00 00 00 00 00 00 00 00 00 00 00 00 00   ................
0030  00 08 00 00 00 00 00 00 00 02 00 00 00 00 00 00   ................

Frame 8: 64 bytes on wire (512 bits), 64 bytes captured (512 bits) on interface 0
    Interface id: 0 (unknown)
        Interface name: unknown
    Encapsulation type: USB packets with Linux header and padding (115)
    Arrival Time: Jun 29, 2018 20:41:09.709847000 EDT
    [Time shift for this packet: 0.000000000 seconds]
    Epoch Time: 1530319269.709847000 seconds
    [Time delta from previous captured frame: 0.000035000 seconds]
    [Time delta from previous displayed frame: 0.000035000 seconds]
    [Time since reference or first frame: 0.106624000 seconds]
    Frame Number: 8
    Frame Length: 64 bytes (512 bits)
    Capture Length: 64 bytes (512 bits)
    [Frame is marked: False]
    [Frame is ignored: False]
    [Protocols in frame: usb:usbhub]
USB URB
    [Source: host]
    [Destination: 3.1.0]
    URB id: 0xffff9753a1709240
    URB type: URB_SUBMIT ('S')
    URB transfer type: URB_CONTROL (0x02)
    Endpoint: 0x80, Direction: IN
        1... .... = Direction: IN (1)
        .... 0000 = Endpoint number: 0
    Device: 1
    URB bus id: 3
    Device setup request: relevant (0)
    Data: not present ('<')
    URB sec: 1530319269
    URB usec: 709847
    URB status: Operation now in progress (-EINPROGRESS) (-115)
    URB length [bytes]: 4
    Data length [bytes]: 0
    [Response in: 9]
    Interval: 0
    Start frame: 0
    Copy of Transfer Flags: 0x00000200
    Number of ISO descriptors: 0
    [bInterfaceClass: Unknown (0xffff)]
URB setup
    bmRequestType: 0xa3
        1... .... = Direction: Device-to-host
        .01. .... = Type: Class (0x1)
        ...0 0011 = Recipient: Other (0x03)
bRequest: GET_STATUS (0x00)
wValue: 0x0000
    (zero): 0
wIndex: 1
    Port: 1
wLength: 4

0000  40 92 70 a1 53 97 ff ff 53 02 80 01 03 00 00 3c   @.p.S...S......<
0010  a5 d1 36 5b 00 00 00 00 d7 d4 0a 00 8d ff ff ff   ..6[............
0020  04 00 00 00 00 00 00 00 a3 00 00 00 01 00 04 00   ................
0030  00 00 00 00 00 00 00 00 00 02 00 00 00 00 00 00   ................

Frame 9: 68 bytes on wire (544 bits), 68 bytes captured (544 bits) on interface 0
    Interface id: 0 (unknown)
        Interface name: unknown
    Encapsulation type: USB packets with Linux header and padding (115)
    Arrival Time: Jun 29, 2018 20:41:09.709869000 EDT
    [Time shift for this packet: 0.000000000 seconds]
    Epoch Time: 1530319269.709869000 seconds
    [Time delta from previous captured frame: 0.000022000 seconds]
    [Time delta from previous displayed frame: 0.000022000 seconds]
    [Time since reference or first frame: 0.106646000 seconds]
    Frame Number: 9
    Frame Length: 68 bytes (544 bits)
    Capture Length: 68 bytes (544 bits)
    [Frame is marked: False]
    [Frame is ignored: False]
    [Protocols in frame: usb:usbhub]
USB URB
    [Source: 3.1.0]
    [Destination: host]
    URB id: 0xffff9753a1709240
    URB type: URB_COMPLETE ('C')
    URB transfer type: URB_CONTROL (0x02)
    Endpoint: 0x80, Direction: IN
        1... .... = Direction: IN (1)
        .... 0000 = Endpoint number: 0
    Device: 1
    URB bus id: 3
    Device setup request: not relevant ('-')
    Data: present (0)
    URB sec: 1530319269
    URB usec: 709869
    URB status: Success (0)
    URB length [bytes]: 4
    Data length [bytes]: 4
    [Request in: 8]
    [Time from request: 0.000022000 seconds]
    Unused Setup Header
    Interval: 0
    Start frame: 0
    Copy of Transfer Flags: 0x00000200
    Number of ISO descriptors: 0
    [bInterfaceClass: Unknown (0xffff)]
Port Status: 0x0101, PORT_CONNECTION, PORT_POWER
    .... .... .... ...1 = PORT_CONNECTION: True
    .... .... .... ..0. = PORT_ENABLE: False
    .... .... .... .0.. = PORT_SUSPEND: False
    .... .... .... 0... = PORT_OVER_CURRENT: False
    .... .... ...0 .... = PORT_RESET: False
    .... ...1 .... .... = PORT_POWER: True
    .... ..0. .... .... = PORT_LOW_SPEED: False
    .... .0.. .... .... = PORT_HIGH_SPEED: False
    .... 0... .... .... = PORT_TEST: False
    ...0 .... .... .... = PORT_INDICATOR: Default colors
Port Change: 0x0000
    .... .... .... ...0 = C_PORT_CONNECTION: False
    .... .... .... ..0. = C_PORT_ENABLE: False
    .... .... .... .0.. = C_PORT_SUSPEND: False
    .... .... .... 0... = C_PORT_OVER_CURRENT: False
    .... .... ...0 .... = C_PORT_RESET: False

0000  40 92 70 a1 53 97 ff ff 43 02 80 01 03 00 2d 00   @.p.S...C.....-.
0010  a5 d1 36 5b 00 00 00 00 ed d4 0a 00 00 00 00 00   ..6[............
0020  04 00 00 00 04 00 00 00 00 00 00 00 00 00 00 00   ................
0030  00 00 00 00 00 00 00 00 00 02 00 00 00 00 00 00   ................
0040  01 01 00 00                                       ....

Frame 10: 64 bytes on wire (512 bits), 64 bytes captured (512 bits) on interface 0
    Interface id: 0 (unknown)
        Interface name: unknown
    Encapsulation type: USB packets with Linux header and padding (115)
    Arrival Time: Jun 29, 2018 20:41:09.710049000 EDT
    [Time shift for this packet: 0.000000000 seconds]
    Epoch Time: 1530319269.710049000 seconds
    [Time delta from previous captured frame: 0.000180000 seconds]
    [Time delta from previous displayed frame: 0.000180000 seconds]
    [Time since reference or first frame: 0.106826000 seconds]
    Frame Number: 10
    Frame Length: 64 bytes (512 bits)
    Capture Length: 64 bytes (512 bits)
    [Frame is marked: False]
    [Frame is ignored: False]
    [Protocols in frame: usb:usbhub]
USB URB
    [Source: host]
    [Destination: 3.1.0]
    URB id: 0xffff9753a1709240
    URB type: URB_SUBMIT ('S')
    URB transfer type: URB_CONTROL (0x02)
    Endpoint: 0x00, Direction: OUT
        0... .... = Direction: OUT (0)
        .... 0000 = Endpoint number: 0
    Device: 1
    URB bus id: 3
    Device setup request: relevant (0)
    Data: present (0)
    URB sec: 1530319269
    URB usec: 710049
    URB status: Operation now in progress (-EINPROGRESS) (-115)
    URB length [bytes]: 0
    Data length [bytes]: 0
    [Response in: 11]
    Interval: 0
    Start frame: 0
    Copy of Transfer Flags: 0x00000000
    Number of ISO descriptors: 0
    [bInterfaceClass: Unknown (0xffff)]
URB setup
    bmRequestType: 0x23
        0... .... = Direction: Host-to-device
        .01. .... = Type: Class (0x1)
        ...0 0011 = Recipient: Other (0x03)
bRequest: SET_FEATURE (0x03)
wValue: 0x0004
    PortFeatureSelector: PORT_RESET (4)
wIndex: 1
    Port: 1
    PortSelector: 0
wLength: 0
    (zero): 0

0000  40 92 70 a1 53 97 ff ff 53 02 00 01 03 00 00 00   @.p.S...S.......
0010  a5 d1 36 5b 00 00 00 00 a1 d5 0a 00 8d ff ff ff   ..6[............
0020  00 00 00 00 00 00 00 00 23 03 04 00 01 00 00 00   ........#.......
0030  00 00 00 00 00 00 00 00 00 00 00 00 00 00 00 00   ................

Frame 11: 64 bytes on wire (512 bits), 64 bytes captured (512 bits) on interface 0
    Interface id: 0 (unknown)
        Interface name: unknown
    Encapsulation type: USB packets with Linux header and padding (115)
    Arrival Time: Jun 29, 2018 20:41:09.710072000 EDT
    [Time shift for this packet: 0.000000000 seconds]
    Epoch Time: 1530319269.710072000 seconds
    [Time delta from previous captured frame: 0.000023000 seconds]
    [Time delta from previous displayed frame: 0.000023000 seconds]
    [Time since reference or first frame: 0.106849000 seconds]
    Frame Number: 11
    Frame Length: 64 bytes (512 bits)
    Capture Length: 64 bytes (512 bits)
    [Frame is marked: False]
    [Frame is ignored: False]
    [Protocols in frame: usb]
USB URB
    [Source: 3.1.0]
    [Destination: host]
    URB id: 0xffff9753a1709240
    URB type: URB_COMPLETE ('C')
    URB transfer type: URB_CONTROL (0x02)
    Endpoint: 0x00, Direction: OUT
        0... .... = Direction: OUT (0)
        .... 0000 = Endpoint number: 0
    Device: 1
    URB bus id: 3
    Device setup request: not relevant ('-')
    Data: not present ('>')
    URB sec: 1530319269
    URB usec: 710072
    URB status: Success (0)
    URB length [bytes]: 0
    Data length [bytes]: 0
    [Request in: 10]
    [Time from request: 0.000023000 seconds]
    Unused Setup Header
    Interval: 0
    Start frame: 0
    Copy of Transfer Flags: 0x00000000
    Number of ISO descriptors: 0
    [bInterfaceClass: Unknown (0xffff)]

0000  40 92 70 a1 53 97 ff ff 43 02 00 01 03 00 2d 3e   @.p.S...C.....->
0010  a5 d1 36 5b 00 00 00 00 b8 d5 0a 00 00 00 00 00   ..6[............
0020  00 00 00 00 00 00 00 00 00 00 00 00 00 00 00 00   ................
0030  00 00 00 00 00 00 00 00 00 00 00 00 00 00 00 00   ................

Frame 12: 64 bytes on wire (512 bits), 64 bytes captured (512 bits) on interface 0
    Interface id: 0 (unknown)
        Interface name: unknown
    Encapsulation type: USB packets with Linux header and padding (115)
    Arrival Time: Jun 29, 2018 20:41:09.777877000 EDT
    [Time shift for this packet: 0.000000000 seconds]
    Epoch Time: 1530319269.777877000 seconds
    [Time delta from previous captured frame: 0.067805000 seconds]
    [Time delta from previous displayed frame: 0.067805000 seconds]
    [Time since reference or first frame: 0.174654000 seconds]
    Frame Number: 12
    Frame Length: 64 bytes (512 bits)
    Capture Length: 64 bytes (512 bits)
    [Frame is marked: False]
    [Frame is ignored: False]
    [Protocols in frame: usb:usbhub]
USB URB
    [Source: host]
    [Destination: 3.1.0]
    URB id: 0xffff9753a1709240
    URB type: URB_SUBMIT ('S')
    URB transfer type: URB_CONTROL (0x02)
    Endpoint: 0x80, Direction: IN
        1... .... = Direction: IN (1)
        .... 0000 = Endpoint number: 0
    Device: 1
    URB bus id: 3
    Device setup request: relevant (0)
    Data: not present ('<')
    URB sec: 1530319269
    URB usec: 777877
    URB status: Operation now in progress (-EINPROGRESS) (-115)
    URB length [bytes]: 4
    Data length [bytes]: 0
    [Response in: 13]
    Interval: 0
    Start frame: 0
    Copy of Transfer Flags: 0x00000200
    Number of ISO descriptors: 0
    [bInterfaceClass: Unknown (0xffff)]
URB setup
    bmRequestType: 0xa3
        1... .... = Direction: Device-to-host
        .01. .... = Type: Class (0x1)
        ...0 0011 = Recipient: Other (0x03)
bRequest: GET_STATUS (0x00)
wValue: 0x0000
    (zero): 0
wIndex: 1
    Port: 1
wLength: 4

0000  40 92 70 a1 53 97 ff ff 53 02 80 01 03 00 00 3c   @.p.S...S......<
0010  a5 d1 36 5b 00 00 00 00 95 de 0b 00 8d ff ff ff   ..6[............
0020  04 00 00 00 00 00 00 00 a3 00 00 00 01 00 04 00   ................
0030  00 00 00 00 00 00 00 00 00 02 00 00 00 00 00 00   ................

Frame 13: 68 bytes on wire (544 bits), 68 bytes captured (544 bits) on interface 0
    Interface id: 0 (unknown)
        Interface name: unknown
    Encapsulation type: USB packets with Linux header and padding (115)
    Arrival Time: Jun 29, 2018 20:41:09.777915000 EDT
    [Time shift for this packet: 0.000000000 seconds]
    Epoch Time: 1530319269.777915000 seconds
    [Time delta from previous captured frame: 0.000038000 seconds]
    [Time delta from previous displayed frame: 0.000038000 seconds]
    [Time since reference or first frame: 0.174692000 seconds]
    Frame Number: 13
    Frame Length: 68 bytes (544 bits)
    Capture Length: 68 bytes (544 bits)
    [Frame is marked: False]
    [Frame is ignored: False]
    [Protocols in frame: usb:usbhub]
USB URB
    [Source: 3.1.0]
    [Destination: host]
    URB id: 0xffff9753a1709240
    URB type: URB_COMPLETE ('C')
    URB transfer type: URB_CONTROL (0x02)
    Endpoint: 0x80, Direction: IN
        1... .... = Direction: IN (1)
        .... 0000 = Endpoint number: 0
    Device: 1
    URB bus id: 3
    Device setup request: not relevant ('-')
    Data: present (0)
    URB sec: 1530319269
    URB usec: 777915
    URB status: Success (0)
    URB length [bytes]: 4
    Data length [bytes]: 4
    [Request in: 12]
    [Time from request: 0.000038000 seconds]
    Unused Setup Header
    Interval: 0
    Start frame: 0
    Copy of Transfer Flags: 0x00000200
    Number of ISO descriptors: 0
    [bInterfaceClass: Unknown (0xffff)]
Port Status: 0x0103, PORT_CONNECTION, PORT_ENABLE, PORT_POWER
    .... .... .... ...1 = PORT_CONNECTION: True
    .... .... .... ..1. = PORT_ENABLE: True
    .... .... .... .0.. = PORT_SUSPEND: False
    .... .... .... 0... = PORT_OVER_CURRENT: False
    .... .... ...0 .... = PORT_RESET: False
    .... ...1 .... .... = PORT_POWER: True
    .... ..0. .... .... = PORT_LOW_SPEED: False
    .... .0.. .... .... = PORT_HIGH_SPEED: False
    .... 0... .... .... = PORT_TEST: False
    ...0 .... .... .... = PORT_INDICATOR: Default colors
Port Change: 0x0010, C_PORT_RESET
    .... .... .... ...0 = C_PORT_CONNECTION: False
    .... .... .... ..0. = C_PORT_ENABLE: False
    .... .... .... .0.. = C_PORT_SUSPEND: False
    .... .... .... 0... = C_PORT_OVER_CURRENT: False
    .... .... ...1 .... = C_PORT_RESET: True

0000  40 92 70 a1 53 97 ff ff 43 02 80 01 03 00 2d 00   @.p.S...C.....-.
0010  a5 d1 36 5b 00 00 00 00 bb de 0b 00 00 00 00 00   ..6[............
0020  04 00 00 00 04 00 00 00 00 00 00 00 00 00 00 00   ................
0030  00 00 00 00 00 00 00 00 00 02 00 00 00 00 00 00   ................
0040  03 01 10 00                                       ....

Frame 14: 64 bytes on wire (512 bits), 64 bytes captured (512 bits) on interface 0
    Interface id: 0 (unknown)
        Interface name: unknown
    Encapsulation type: USB packets with Linux header and padding (115)
    Arrival Time: Jun 29, 2018 20:41:09.777929000 EDT
    [Time shift for this packet: 0.000000000 seconds]
    Epoch Time: 1530319269.777929000 seconds
    [Time delta from previous captured frame: 0.000014000 seconds]
    [Time delta from previous displayed frame: 0.000014000 seconds]
    [Time since reference or first frame: 0.174706000 seconds]
    Frame Number: 14
    Frame Length: 64 bytes (512 bits)
    Capture Length: 64 bytes (512 bits)
    [Frame is marked: False]
    [Frame is ignored: False]
    [Protocols in frame: usb:usbhub]
USB URB
    [Source: host]
    [Destination: 3.1.0]
    URB id: 0xffff9753a1709240
    URB type: URB_SUBMIT ('S')
    URB transfer type: URB_CONTROL (0x02)
    Endpoint: 0x00, Direction: OUT
        0... .... = Direction: OUT (0)
        .... 0000 = Endpoint number: 0
    Device: 1
    URB bus id: 3
    Device setup request: relevant (0)
    Data: present (0)
    URB sec: 1530319269
    URB usec: 777929
    URB status: Operation now in progress (-EINPROGRESS) (-115)
    URB length [bytes]: 0
    Data length [bytes]: 0
    [Response in: 15]
    Interval: 0
    Start frame: 0
    Copy of Transfer Flags: 0x00000000
    Number of ISO descriptors: 0
    [bInterfaceClass: Unknown (0xffff)]
URB setup
    bmRequestType: 0x23
        0... .... = Direction: Host-to-device
        .01. .... = Type: Class (0x1)
        ...0 0011 = Recipient: Other (0x03)
bRequest: CLEAR_FEATURE (0x01)
wValue: 0x0014
    PortFeatureSelector: C_PORT_RESET (20)
wIndex: 1
    Port: 1
    PortSelector: 0
wLength: 0
    (zero): 0

0000  40 92 70 a1 53 97 ff ff 53 02 00 01 03 00 00 00   @.p.S...S.......
0010  a5 d1 36 5b 00 00 00 00 c9 de 0b 00 8d ff ff ff   ..6[............
0020  00 00 00 00 00 00 00 00 23 01 14 00 01 00 00 00   ........#.......
0030  00 00 00 00 00 00 00 00 00 00 00 00 00 00 00 00   ................

Frame 15: 64 bytes on wire (512 bits), 64 bytes captured (512 bits) on interface 0
    Interface id: 0 (unknown)
        Interface name: unknown
    Encapsulation type: USB packets with Linux header and padding (115)
    Arrival Time: Jun 29, 2018 20:41:09.777942000 EDT
    [Time shift for this packet: 0.000000000 seconds]
    Epoch Time: 1530319269.777942000 seconds
    [Time delta from previous captured frame: 0.000013000 seconds]
    [Time delta from previous displayed frame: 0.000013000 seconds]
    [Time since reference or first frame: 0.174719000 seconds]
    Frame Number: 15
    Frame Length: 64 bytes (512 bits)
    Capture Length: 64 bytes (512 bits)
    [Frame is marked: False]
    [Frame is ignored: False]
    [Protocols in frame: usb]
USB URB
    [Source: 3.1.0]
    [Destination: host]
    URB id: 0xffff9753a1709240
    URB type: URB_COMPLETE ('C')
    URB transfer type: URB_CONTROL (0x02)
    Endpoint: 0x00, Direction: OUT
        0... .... = Direction: OUT (0)
        .... 0000 = Endpoint number: 0
    Device: 1
    URB bus id: 3
    Device setup request: not relevant ('-')
    Data: not present ('>')
    URB sec: 1530319269
    URB usec: 777942
    URB status: Success (0)
    URB length [bytes]: 0
    Data length [bytes]: 0
    [Request in: 14]
    [Time from request: 0.000013000 seconds]
    Unused Setup Header
    Interval: 0
    Start frame: 0
    Copy of Transfer Flags: 0x00000000
    Number of ISO descriptors: 0
    [bInterfaceClass: Unknown (0xffff)]

0000  40 92 70 a1 53 97 ff ff 43 02 00 01 03 00 2d 3e   @.p.S...C.....->
0010  a5 d1 36 5b 00 00 00 00 d6 de 0b 00 00 00 00 00   ..6[............
0020  00 00 00 00 00 00 00 00 00 00 00 00 00 00 00 00   ................
0030  00 00 00 00 00 00 00 00 00 00 00 00 00 00 00 00   ................

Frame 16: 64 bytes on wire (512 bits), 64 bytes captured (512 bits) on interface 0
    Interface id: 0 (unknown)
        Interface name: unknown
    Encapsulation type: USB packets with Linux header and padding (115)
    Arrival Time: Jun 29, 2018 20:41:09.838056000 EDT
    [Time shift for this packet: 0.000000000 seconds]
    Epoch Time: 1530319269.838056000 seconds
    [Time delta from previous captured frame: 0.060114000 seconds]
    [Time delta from previous displayed frame: 0.060114000 seconds]
    [Time since reference or first frame: 0.234833000 seconds]
    Frame Number: 16
    Frame Length: 64 bytes (512 bits)
    Capture Length: 64 bytes (512 bits)
    [Frame is marked: False]
    [Frame is ignored: False]
    [Protocols in frame: usb]
USB URB
    [Source: host]
    [Destination: 3.0.0]
    URB id: 0xffff9753a1709240
    URB type: URB_SUBMIT ('S')
    URB transfer type: URB_CONTROL (0x02)
    Endpoint: 0x80, Direction: IN
        1... .... = Direction: IN (1)
        .... 0000 = Endpoint number: 0
    Device: 0
    URB bus id: 3
    Device setup request: relevant (0)
    Data: not present ('<')
    URB sec: 1530319269
    URB usec: 838056
    URB status: Operation now in progress (-EINPROGRESS) (-115)
    URB length [bytes]: 64
    Data length [bytes]: 0
    [Response in: 17]
    Interval: 0
    Start frame: 0
    Copy of Transfer Flags: 0x00000200
    Number of ISO descriptors: 0
URB setup
    bmRequestType: 0x80
        1... .... = Direction: Device-to-host
        .00. .... = Type: Standard (0x0)
        ...0 0000 = Recipient: Device (0x00)
    bRequest: GET DESCRIPTOR (6)
    Descriptor Index: 0x00
    bDescriptorType: 0x01
    Language Id: no language specified (0x0000)
    wLength: 64

0000  40 92 70 a1 53 97 ff ff 53 02 80 00 03 00 00 3c   @.p.S...S......<
0010  a5 d1 36 5b 00 00 00 00 a8 c9 0c 00 8d ff ff ff   ..6[............
0020  40 00 00 00 00 00 00 00 80 06 00 01 00 00 40 00   @.............@.
0030  00 00 00 00 00 00 00 00 00 02 00 00 00 00 00 00   ................

Frame 17: 82 bytes on wire (656 bits), 82 bytes captured (656 bits) on interface 0
    Interface id: 0 (unknown)
        Interface name: unknown
    Encapsulation type: USB packets with Linux header and padding (115)
    Arrival Time: Jun 29, 2018 20:41:09.840465000 EDT
    [Time shift for this packet: 0.000000000 seconds]
    Epoch Time: 1530319269.840465000 seconds
    [Time delta from previous captured frame: 0.002409000 seconds]
    [Time delta from previous displayed frame: 0.002409000 seconds]
    [Time since reference or first frame: 0.237242000 seconds]
    Frame Number: 17
    Frame Length: 82 bytes (656 bits)
    Capture Length: 82 bytes (656 bits)
    [Frame is marked: False]
    [Frame is ignored: False]
    [Protocols in frame: usb]
USB URB
    [Source: 3.0.0]
    [Destination: host]
    URB id: 0xffff9753a1709240
    URB type: URB_COMPLETE ('C')
    URB transfer type: URB_CONTROL (0x02)
    Endpoint: 0x80, Direction: IN
        1... .... = Direction: IN (1)
        .... 0000 = Endpoint number: 0
    Device: 0
    URB bus id: 3
    Device setup request: not relevant ('-')
    Data: present (0)
    URB sec: 1530319269
    URB usec: 840465
    URB status: Success (0)
    URB length [bytes]: 18
    Data length [bytes]: 18
    [Request in: 16]
    [Time from request: 0.002409000 seconds]
    Unused Setup Header
    Interval: 0
    Start frame: 0
    Copy of Transfer Flags: 0x00000200
    Number of ISO descriptors: 0
DEVICE DESCRIPTOR
    bLength: 18
    bDescriptorType: 0x01 (DEVICE)
    bcdUSB: 0x0200
    bDeviceClass: Device (0x00)
    bDeviceSubClass: 0
    bDeviceProtocol: 0 (Use class code info from Interface Descriptors)
    bMaxPacketSize0: 64
    idVendor: Graphtec America, Inc. (0x0b4d)
    idProduct: Unknown (0x112f)
    bcdDevice: 0x0100
    iManufacturer: 0
    iProduct: 0
    iSerialNumber: 1
    bNumConfigurations: 1

0000  40 92 70 a1 53 97 ff ff 43 02 80 00 03 00 2d 00   @.p.S...C.....-.
0010  a5 d1 36 5b 00 00 00 00 11 d3 0c 00 00 00 00 00   ..6[............
0020  12 00 00 00 12 00 00 00 00 00 00 00 00 00 00 00   ................
0030  00 00 00 00 00 00 00 00 00 02 00 00 00 00 00 00   ................
0040  12 01 00 02 00 00 00 40 4d 0b 2f 11 00 01 00 00   .......@M./.....
0050  01 01                                             ..

Frame 18: 64 bytes on wire (512 bits), 64 bytes captured (512 bits) on interface 0
    Interface id: 0 (unknown)
        Interface name: unknown
    Encapsulation type: USB packets with Linux header and padding (115)
    Arrival Time: Jun 29, 2018 20:41:09.840509000 EDT
    [Time shift for this packet: 0.000000000 seconds]
    Epoch Time: 1530319269.840509000 seconds
    [Time delta from previous captured frame: 0.000044000 seconds]
    [Time delta from previous displayed frame: 0.000044000 seconds]
    [Time since reference or first frame: 0.237286000 seconds]
    Frame Number: 18
    Frame Length: 64 bytes (512 bits)
    Capture Length: 64 bytes (512 bits)
    [Frame is marked: False]
    [Frame is ignored: False]
    [Protocols in frame: usb:usbhub]
USB URB
    [Source: host]
    [Destination: 3.1.0]
    URB id: 0xffff9753a1709240
    URB type: URB_SUBMIT ('S')
    URB transfer type: URB_CONTROL (0x02)
    Endpoint: 0x00, Direction: OUT
        0... .... = Direction: OUT (0)
        .... 0000 = Endpoint number: 0
    Device: 1
    URB bus id: 3
    Device setup request: relevant (0)
    Data: present (0)
    URB sec: 1530319269
    URB usec: 840509
    URB status: Operation now in progress (-EINPROGRESS) (-115)
    URB length [bytes]: 0
    Data length [bytes]: 0
    [Response in: 19]
    Interval: 0
    Start frame: 0
    Copy of Transfer Flags: 0x00000000
    Number of ISO descriptors: 0
    [bInterfaceClass: Unknown (0xffff)]
URB setup
    bmRequestType: 0x23
        0... .... = Direction: Host-to-device
        .01. .... = Type: Class (0x1)
        ...0 0011 = Recipient: Other (0x03)
bRequest: SET_FEATURE (0x03)
wValue: 0x0004
    PortFeatureSelector: PORT_RESET (4)
wIndex: 1
    Port: 1
    PortSelector: 0
wLength: 0
    (zero): 0

0000  40 92 70 a1 53 97 ff ff 53 02 00 01 03 00 00 00   @.p.S...S.......
0010  a5 d1 36 5b 00 00 00 00 3d d3 0c 00 8d ff ff ff   ..6[....=.......
0020  00 00 00 00 00 00 00 00 23 03 04 00 01 00 00 00   ........#.......
0030  00 00 00 00 00 00 00 00 00 00 00 00 00 00 00 00   ................

Frame 19: 64 bytes on wire (512 bits), 64 bytes captured (512 bits) on interface 0
    Interface id: 0 (unknown)
        Interface name: unknown
    Encapsulation type: USB packets with Linux header and padding (115)
    Arrival Time: Jun 29, 2018 20:41:09.840542000 EDT
    [Time shift for this packet: 0.000000000 seconds]
    Epoch Time: 1530319269.840542000 seconds
    [Time delta from previous captured frame: 0.000033000 seconds]
    [Time delta from previous displayed frame: 0.000033000 seconds]
    [Time since reference or first frame: 0.237319000 seconds]
    Frame Number: 19
    Frame Length: 64 bytes (512 bits)
    Capture Length: 64 bytes (512 bits)
    [Frame is marked: False]
    [Frame is ignored: False]
    [Protocols in frame: usb]
USB URB
    [Source: 3.1.0]
    [Destination: host]
    URB id: 0xffff9753a1709240
    URB type: URB_COMPLETE ('C')
    URB transfer type: URB_CONTROL (0x02)
    Endpoint: 0x00, Direction: OUT
        0... .... = Direction: OUT (0)
        .... 0000 = Endpoint number: 0
    Device: 1
    URB bus id: 3
    Device setup request: not relevant ('-')
    Data: not present ('>')
    URB sec: 1530319269
    URB usec: 840542
    URB status: Success (0)
    URB length [bytes]: 0
    Data length [bytes]: 0
    [Request in: 18]
    [Time from request: 0.000033000 seconds]
    Unused Setup Header
    Interval: 0
    Start frame: 0
    Copy of Transfer Flags: 0x00000000
    Number of ISO descriptors: 0
    [bInterfaceClass: Unknown (0xffff)]

0000  40 92 70 a1 53 97 ff ff 43 02 00 01 03 00 2d 3e   @.p.S...C.....->
0010  a5 d1 36 5b 00 00 00 00 5e d3 0c 00 00 00 00 00   ..6[....^.......
0020  00 00 00 00 00 00 00 00 00 00 00 00 00 00 00 00   ................
0030  00 00 00 00 00 00 00 00 00 00 00 00 00 00 00 00   ................

Frame 20: 64 bytes on wire (512 bits), 64 bytes captured (512 bits) on interface 0
    Interface id: 0 (unknown)
        Interface name: unknown
    Encapsulation type: USB packets with Linux header and padding (115)
    Arrival Time: Jun 29, 2018 20:41:09.905891000 EDT
    [Time shift for this packet: 0.000000000 seconds]
    Epoch Time: 1530319269.905891000 seconds
    [Time delta from previous captured frame: 0.065349000 seconds]
    [Time delta from previous displayed frame: 0.065349000 seconds]
    [Time since reference or first frame: 0.302668000 seconds]
    Frame Number: 20
    Frame Length: 64 bytes (512 bits)
    Capture Length: 64 bytes (512 bits)
    [Frame is marked: False]
    [Frame is ignored: False]
    [Protocols in frame: usb:usbhub]
USB URB
    [Source: host]
    [Destination: 3.1.0]
    URB id: 0xffff9753a1709240
    URB type: URB_SUBMIT ('S')
    URB transfer type: URB_CONTROL (0x02)
    Endpoint: 0x80, Direction: IN
        1... .... = Direction: IN (1)
        .... 0000 = Endpoint number: 0
    Device: 1
    URB bus id: 3
    Device setup request: relevant (0)
    Data: not present ('<')
    URB sec: 1530319269
    URB usec: 905891
    URB status: Operation now in progress (-EINPROGRESS) (-115)
    URB length [bytes]: 4
    Data length [bytes]: 0
    [Response in: 21]
    Interval: 0
    Start frame: 0
    Copy of Transfer Flags: 0x00000200
    Number of ISO descriptors: 0
    [bInterfaceClass: Unknown (0xffff)]
URB setup
    bmRequestType: 0xa3
        1... .... = Direction: Device-to-host
        .01. .... = Type: Class (0x1)
        ...0 0011 = Recipient: Other (0x03)
bRequest: GET_STATUS (0x00)
wValue: 0x0000
    (zero): 0
wIndex: 1
    Port: 1
wLength: 4

0000  40 92 70 a1 53 97 ff ff 53 02 80 01 03 00 00 3c   @.p.S...S......<
0010  a5 d1 36 5b 00 00 00 00 a3 d2 0d 00 8d ff ff ff   ..6[............
0020  04 00 00 00 00 00 00 00 a3 00 00 00 01 00 04 00   ................
0030  00 00 00 00 00 00 00 00 00 02 00 00 00 00 00 00   ................

Frame 21: 68 bytes on wire (544 bits), 68 bytes captured (544 bits) on interface 0
    Interface id: 0 (unknown)
        Interface name: unknown
    Encapsulation type: USB packets with Linux header and padding (115)
    Arrival Time: Jun 29, 2018 20:41:09.905944000 EDT
    [Time shift for this packet: 0.000000000 seconds]
    Epoch Time: 1530319269.905944000 seconds
    [Time delta from previous captured frame: 0.000053000 seconds]
    [Time delta from previous displayed frame: 0.000053000 seconds]
    [Time since reference or first frame: 0.302721000 seconds]
    Frame Number: 21
    Frame Length: 68 bytes (544 bits)
    Capture Length: 68 bytes (544 bits)
    [Frame is marked: False]
    [Frame is ignored: False]
    [Protocols in frame: usb:usbhub]
USB URB
    [Source: 3.1.0]
    [Destination: host]
    URB id: 0xffff9753a1709240
    URB type: URB_COMPLETE ('C')
    URB transfer type: URB_CONTROL (0x02)
    Endpoint: 0x80, Direction: IN
        1... .... = Direction: IN (1)
        .... 0000 = Endpoint number: 0
    Device: 1
    URB bus id: 3
    Device setup request: not relevant ('-')
    Data: present (0)
    URB sec: 1530319269
    URB usec: 905944
    URB status: Success (0)
    URB length [bytes]: 4
    Data length [bytes]: 4
    [Request in: 20]
    [Time from request: 0.000053000 seconds]
    Unused Setup Header
    Interval: 0
    Start frame: 0
    Copy of Transfer Flags: 0x00000200
    Number of ISO descriptors: 0
    [bInterfaceClass: Unknown (0xffff)]
Port Status: 0x0103, PORT_CONNECTION, PORT_ENABLE, PORT_POWER
    .... .... .... ...1 = PORT_CONNECTION: True
    .... .... .... ..1. = PORT_ENABLE: True
    .... .... .... .0.. = PORT_SUSPEND: False
    .... .... .... 0... = PORT_OVER_CURRENT: False
    .... .... ...0 .... = PORT_RESET: False
    .... ...1 .... .... = PORT_POWER: True
    .... ..0. .... .... = PORT_LOW_SPEED: False
    .... .0.. .... .... = PORT_HIGH_SPEED: False
    .... 0... .... .... = PORT_TEST: False
    ...0 .... .... .... = PORT_INDICATOR: Default colors
Port Change: 0x0010, C_PORT_RESET
    .... .... .... ...0 = C_PORT_CONNECTION: False
    .... .... .... ..0. = C_PORT_ENABLE: False
    .... .... .... .0.. = C_PORT_SUSPEND: False
    .... .... .... 0... = C_PORT_OVER_CURRENT: False
    .... .... ...1 .... = C_PORT_RESET: True

0000  40 92 70 a1 53 97 ff ff 43 02 80 01 03 00 2d 00   @.p.S...C.....-.
0010  a5 d1 36 5b 00 00 00 00 d8 d2 0d 00 00 00 00 00   ..6[............
0020  04 00 00 00 04 00 00 00 00 00 00 00 00 00 00 00   ................
0030  00 00 00 00 00 00 00 00 00 02 00 00 00 00 00 00   ................
0040  03 01 10 00                                       ....

Frame 22: 64 bytes on wire (512 bits), 64 bytes captured (512 bits) on interface 0
    Interface id: 0 (unknown)
        Interface name: unknown
    Encapsulation type: USB packets with Linux header and padding (115)
    Arrival Time: Jun 29, 2018 20:41:09.905966000 EDT
    [Time shift for this packet: 0.000000000 seconds]
    Epoch Time: 1530319269.905966000 seconds
    [Time delta from previous captured frame: 0.000022000 seconds]
    [Time delta from previous displayed frame: 0.000022000 seconds]
    [Time since reference or first frame: 0.302743000 seconds]
    Frame Number: 22
    Frame Length: 64 bytes (512 bits)
    Capture Length: 64 bytes (512 bits)
    [Frame is marked: False]
    [Frame is ignored: False]
    [Protocols in frame: usb:usbhub]
USB URB
    [Source: host]
    [Destination: 3.1.0]
    URB id: 0xffff9753a1709240
    URB type: URB_SUBMIT ('S')
    URB transfer type: URB_CONTROL (0x02)
    Endpoint: 0x00, Direction: OUT
        0... .... = Direction: OUT (0)
        .... 0000 = Endpoint number: 0
    Device: 1
    URB bus id: 3
    Device setup request: relevant (0)
    Data: present (0)
    URB sec: 1530319269
    URB usec: 905966
    URB status: Operation now in progress (-EINPROGRESS) (-115)
    URB length [bytes]: 0
    Data length [bytes]: 0
    [Response in: 23]
    Interval: 0
    Start frame: 0
    Copy of Transfer Flags: 0x00000000
    Number of ISO descriptors: 0
    [bInterfaceClass: Unknown (0xffff)]
URB setup
    bmRequestType: 0x23
        0... .... = Direction: Host-to-device
        .01. .... = Type: Class (0x1)
        ...0 0011 = Recipient: Other (0x03)
bRequest: CLEAR_FEATURE (0x01)
wValue: 0x0014
    PortFeatureSelector: C_PORT_RESET (20)
wIndex: 1
    Port: 1
    PortSelector: 0
wLength: 0
    (zero): 0

0000  40 92 70 a1 53 97 ff ff 53 02 00 01 03 00 00 00   @.p.S...S.......
0010  a5 d1 36 5b 00 00 00 00 ee d2 0d 00 8d ff ff ff   ..6[............
0020  00 00 00 00 00 00 00 00 23 01 14 00 01 00 00 00   ........#.......
0030  00 00 00 00 00 00 00 00 00 00 00 00 00 00 00 00   ................

Frame 23: 64 bytes on wire (512 bits), 64 bytes captured (512 bits) on interface 0
    Interface id: 0 (unknown)
        Interface name: unknown
    Encapsulation type: USB packets with Linux header and padding (115)
    Arrival Time: Jun 29, 2018 20:41:09.905985000 EDT
    [Time shift for this packet: 0.000000000 seconds]
    Epoch Time: 1530319269.905985000 seconds
    [Time delta from previous captured frame: 0.000019000 seconds]
    [Time delta from previous displayed frame: 0.000019000 seconds]
    [Time since reference or first frame: 0.302762000 seconds]
    Frame Number: 23
    Frame Length: 64 bytes (512 bits)
    Capture Length: 64 bytes (512 bits)
    [Frame is marked: False]
    [Frame is ignored: False]
    [Protocols in frame: usb]
USB URB
    [Source: 3.1.0]
    [Destination: host]
    URB id: 0xffff9753a1709240
    URB type: URB_COMPLETE ('C')
    URB transfer type: URB_CONTROL (0x02)
    Endpoint: 0x00, Direction: OUT
        0... .... = Direction: OUT (0)
        .... 0000 = Endpoint number: 0
    Device: 1
    URB bus id: 3
    Device setup request: not relevant ('-')
    Data: not present ('>')
    URB sec: 1530319269
    URB usec: 905985
    URB status: Success (0)
    URB length [bytes]: 0
    Data length [bytes]: 0
    [Request in: 22]
    [Time from request: 0.000019000 seconds]
    Unused Setup Header
    Interval: 0
    Start frame: 0
    Copy of Transfer Flags: 0x00000000
    Number of ISO descriptors: 0
    [bInterfaceClass: Unknown (0xffff)]

0000  40 92 70 a1 53 97 ff ff 43 02 00 01 03 00 2d 3e   @.p.S...C.....->
0010  a5 d1 36 5b 00 00 00 00 01 d3 0d 00 00 00 00 00   ..6[............
0020  00 00 00 00 00 00 00 00 00 00 00 00 00 00 00 00   ................
0030  00 00 00 00 00 00 00 00 00 00 00 00 00 00 00 00   ................

Frame 24: 64 bytes on wire (512 bits), 64 bytes captured (512 bits) on interface 0
    Interface id: 0 (unknown)
        Interface name: unknown
    Encapsulation type: USB packets with Linux header and padding (115)
    Arrival Time: Jun 29, 2018 20:41:09.985891000 EDT
    [Time shift for this packet: 0.000000000 seconds]
    Epoch Time: 1530319269.985891000 seconds
    [Time delta from previous captured frame: 0.079906000 seconds]
    [Time delta from previous displayed frame: 0.079906000 seconds]
    [Time since reference or first frame: 0.382668000 seconds]
    Frame Number: 24
    Frame Length: 64 bytes (512 bits)
    Capture Length: 64 bytes (512 bits)
    [Frame is marked: False]
    [Frame is ignored: False]
    [Protocols in frame: usb]
USB URB
    [Source: host]
    [Destination: 3.4.0]
    URB id: 0xffff9753a1709240
    URB type: URB_SUBMIT ('S')
    URB transfer type: URB_CONTROL (0x02)
    Endpoint: 0x80, Direction: IN
        1... .... = Direction: IN (1)
        .... 0000 = Endpoint number: 0
    Device: 4
    URB bus id: 3
    Device setup request: relevant (0)
    Data: not present ('<')
    URB sec: 1530319269
    URB usec: 985891
    URB status: Operation now in progress (-EINPROGRESS) (-115)
    URB length [bytes]: 18
    Data length [bytes]: 0
    [Response in: 25]
    Interval: 0
    Start frame: 0
    Copy of Transfer Flags: 0x00000200
    Number of ISO descriptors: 0
URB setup
    bmRequestType: 0x80
        1... .... = Direction: Device-to-host
        .00. .... = Type: Standard (0x0)
        ...0 0000 = Recipient: Device (0x00)
    bRequest: GET DESCRIPTOR (6)
    Descriptor Index: 0x00
    bDescriptorType: 0x01
    Language Id: no language specified (0x0000)
    wLength: 18

0000  40 92 70 a1 53 97 ff ff 53 02 80 04 03 00 00 3c   @.p.S...S......<
0010  a5 d1 36 5b 00 00 00 00 23 0b 0f 00 8d ff ff ff   ..6[....#.......
0020  12 00 00 00 00 00 00 00 80 06 00 01 00 00 12 00   ................
0030  00 00 00 00 00 00 00 00 00 02 00 00 00 00 00 00   ................

Frame 25: 82 bytes on wire (656 bits), 82 bytes captured (656 bits) on interface 0
    Interface id: 0 (unknown)
        Interface name: unknown
    Encapsulation type: USB packets with Linux header and padding (115)
    Arrival Time: Jun 29, 2018 20:41:09.988411000 EDT
    [Time shift for this packet: 0.000000000 seconds]
    Epoch Time: 1530319269.988411000 seconds
    [Time delta from previous captured frame: 0.002520000 seconds]
    [Time delta from previous displayed frame: 0.002520000 seconds]
    [Time since reference or first frame: 0.385188000 seconds]
    Frame Number: 25
    Frame Length: 82 bytes (656 bits)
    Capture Length: 82 bytes (656 bits)
    [Frame is marked: False]
    [Frame is ignored: False]
    [Protocols in frame: usb]
USB URB
    [Source: 3.4.0]
    [Destination: host]
    URB id: 0xffff9753a1709240
    URB type: URB_COMPLETE ('C')
    URB transfer type: URB_CONTROL (0x02)
    Endpoint: 0x80, Direction: IN
        1... .... = Direction: IN (1)
        .... 0000 = Endpoint number: 0
    Device: 4
    URB bus id: 3
    Device setup request: not relevant ('-')
    Data: present (0)
    URB sec: 1530319269
    URB usec: 988411
    URB status: Success (0)
    URB length [bytes]: 18
    Data length [bytes]: 18
    [Request in: 24]
    [Time from request: 0.002520000 seconds]
    Unused Setup Header
    Interval: 0
    Start frame: 0
    Copy of Transfer Flags: 0x00000200
    Number of ISO descriptors: 0
DEVICE DESCRIPTOR
    bLength: 18
    bDescriptorType: 0x01 (DEVICE)
    bcdUSB: 0x0200
    bDeviceClass: Device (0x00)
    bDeviceSubClass: 0
    bDeviceProtocol: 0 (Use class code info from Interface Descriptors)
    bMaxPacketSize0: 64
    idVendor: Graphtec America, Inc. (0x0b4d)
    idProduct: Unknown (0x112f)
    bcdDevice: 0x0100
    iManufacturer: 0
    iProduct: 0
    iSerialNumber: 1
    bNumConfigurations: 1

0000  40 92 70 a1 53 97 ff ff 43 02 80 04 03 00 2d 00   @.p.S...C.....-.
0010  a5 d1 36 5b 00 00 00 00 fb 14 0f 00 00 00 00 00   ..6[............
0020  12 00 00 00 12 00 00 00 00 00 00 00 00 00 00 00   ................
0030  00 00 00 00 00 00 00 00 00 02 00 00 00 00 00 00   ................
0040  12 01 00 02 00 00 00 40 4d 0b 2f 11 00 01 00 00   .......@M./.....
0050  01 01                                             ..

Frame 26: 64 bytes on wire (512 bits), 64 bytes captured (512 bits) on interface 0
    Interface id: 0 (unknown)
        Interface name: unknown
    Encapsulation type: USB packets with Linux header and padding (115)
    Arrival Time: Jun 29, 2018 20:41:09.988467000 EDT
    [Time shift for this packet: 0.000000000 seconds]
    Epoch Time: 1530319269.988467000 seconds
    [Time delta from previous captured frame: 0.000056000 seconds]
    [Time delta from previous displayed frame: 0.000056000 seconds]
    [Time since reference or first frame: 0.385244000 seconds]
    Frame Number: 26
    Frame Length: 64 bytes (512 bits)
    Capture Length: 64 bytes (512 bits)
    [Frame is marked: False]
    [Frame is ignored: False]
    [Protocols in frame: usb]
USB URB
    [Source: host]
    [Destination: 3.4.0]
    URB id: 0xffff9753a1709240
    URB type: URB_SUBMIT ('S')
    URB transfer type: URB_CONTROL (0x02)
    Endpoint: 0x80, Direction: IN
        1... .... = Direction: IN (1)
        .... 0000 = Endpoint number: 0
    Device: 4
    URB bus id: 3
    Device setup request: relevant (0)
    Data: not present ('<')
    URB sec: 1530319269
    URB usec: 988467
    URB status: Operation now in progress (-EINPROGRESS) (-115)
    URB length [bytes]: 10
    Data length [bytes]: 0
    [Response in: 27]
    Interval: 0
    Start frame: 0
    Copy of Transfer Flags: 0x00000200
    Number of ISO descriptors: 0
URB setup
    bmRequestType: 0x80
        1... .... = Direction: Device-to-host
        .00. .... = Type: Standard (0x0)
        ...0 0000 = Recipient: Device (0x00)
    bRequest: GET DESCRIPTOR (6)
    Descriptor Index: 0x00
    bDescriptorType: 0x06
    Language Id: no language specified (0x0000)
    wLength: 10

0000  40 92 70 a1 53 97 ff ff 53 02 80 04 03 00 00 3c   @.p.S...S......<
0010  a5 d1 36 5b 00 00 00 00 33 15 0f 00 8d ff ff ff   ..6[....3.......
0020  0a 00 00 00 00 00 00 00 80 06 00 06 00 00 0a 00   ................
0030  00 00 00 00 00 00 00 00 00 02 00 00 00 00 00 00   ................

Frame 27: 64 bytes on wire (512 bits), 64 bytes captured (512 bits) on interface 0
    Interface id: 0 (unknown)
        Interface name: unknown
    Encapsulation type: USB packets with Linux header and padding (115)
    Arrival Time: Jun 29, 2018 20:41:09.990411000 EDT
    [Time shift for this packet: 0.000000000 seconds]
    Epoch Time: 1530319269.990411000 seconds
    [Time delta from previous captured frame: 0.001944000 seconds]
    [Time delta from previous displayed frame: 0.001944000 seconds]
    [Time since reference or first frame: 0.387188000 seconds]
    Frame Number: 27
    Frame Length: 64 bytes (512 bits)
    Capture Length: 64 bytes (512 bits)
    [Frame is marked: False]
    [Frame is ignored: False]
    [Protocols in frame: usb]
USB URB
    [Source: 3.4.0]
    [Destination: host]
    URB id: 0xffff9753a1709240
    URB type: URB_COMPLETE ('C')
    URB transfer type: URB_CONTROL (0x02)
    Endpoint: 0x80, Direction: IN
        1... .... = Direction: IN (1)
        .... 0000 = Endpoint number: 0
    Device: 4
    URB bus id: 3
    Device setup request: not relevant ('-')
    Data: present (0)
    URB sec: 1530319269
    URB usec: 990411
    URB status: Broken pipe (-EPIPE) (-32)
    URB length [bytes]: 0
    Data length [bytes]: 0
    [Request in: 26]
    [Time from request: 0.001944000 seconds]
    Unused Setup Header
    Interval: 0
    Start frame: 0
    Copy of Transfer Flags: 0x00000200
    Number of ISO descriptors: 0

0000  40 92 70 a1 53 97 ff ff 43 02 80 04 03 00 2d 00   @.p.S...C.....-.
0010  a5 d1 36 5b 00 00 00 00 cb 1c 0f 00 e0 ff ff ff   ..6[............
0020  00 00 00 00 00 00 00 00 00 00 00 00 00 00 00 00   ................
0030  00 00 00 00 00 00 00 00 00 02 00 00 00 00 00 00   ................

Frame 28: 64 bytes on wire (512 bits), 64 bytes captured (512 bits) on interface 0
    Interface id: 0 (unknown)
        Interface name: unknown
    Encapsulation type: USB packets with Linux header and padding (115)
    Arrival Time: Jun 29, 2018 20:41:09.990449000 EDT
    [Time shift for this packet: 0.000000000 seconds]
    Epoch Time: 1530319269.990449000 seconds
    [Time delta from previous captured frame: 0.000038000 seconds]
    [Time delta from previous displayed frame: 0.000038000 seconds]
    [Time since reference or first frame: 0.387226000 seconds]
    Frame Number: 28
    Frame Length: 64 bytes (512 bits)
    Capture Length: 64 bytes (512 bits)
    [Frame is marked: False]
    [Frame is ignored: False]
    [Protocols in frame: usb]
USB URB
    [Source: host]
    [Destination: 3.4.0]
    URB id: 0xffff9753a1709240
    URB type: URB_SUBMIT ('S')
    URB transfer type: URB_CONTROL (0x02)
    Endpoint: 0x80, Direction: IN
        1... .... = Direction: IN (1)
        .... 0000 = Endpoint number: 0
    Device: 4
    URB bus id: 3
    Device setup request: relevant (0)
    Data: not present ('<')
    URB sec: 1530319269
    URB usec: 990449
    URB status: Operation now in progress (-EINPROGRESS) (-115)
    URB length [bytes]: 10
    Data length [bytes]: 0
    [Response in: 29]
    Interval: 0
    Start frame: 0
    Copy of Transfer Flags: 0x00000200
    Number of ISO descriptors: 0
URB setup
    bmRequestType: 0x80
        1... .... = Direction: Device-to-host
        .00. .... = Type: Standard (0x0)
        ...0 0000 = Recipient: Device (0x00)
    bRequest: GET DESCRIPTOR (6)
    Descriptor Index: 0x00
    bDescriptorType: 0x06
    Language Id: no language specified (0x0000)
    wLength: 10

0000  40 92 70 a1 53 97 ff ff 53 02 80 04 03 00 00 3c   @.p.S...S......<
0010  a5 d1 36 5b 00 00 00 00 f1 1c 0f 00 8d ff ff ff   ..6[............
0020  0a 00 00 00 00 00 00 00 80 06 00 06 00 00 0a 00   ................
0030  00 00 00 00 00 00 00 00 00 02 00 00 00 00 00 00   ................

Frame 29: 64 bytes on wire (512 bits), 64 bytes captured (512 bits) on interface 0
    Interface id: 0 (unknown)
        Interface name: unknown
    Encapsulation type: USB packets with Linux header and padding (115)
    Arrival Time: Jun 29, 2018 20:41:09.992419000 EDT
    [Time shift for this packet: 0.000000000 seconds]
    Epoch Time: 1530319269.992419000 seconds
    [Time delta from previous captured frame: 0.001970000 seconds]
    [Time delta from previous displayed frame: 0.001970000 seconds]
    [Time since reference or first frame: 0.389196000 seconds]
    Frame Number: 29
    Frame Length: 64 bytes (512 bits)
    Capture Length: 64 bytes (512 bits)
    [Frame is marked: False]
    [Frame is ignored: False]
    [Protocols in frame: usb]
USB URB
    [Source: 3.4.0]
    [Destination: host]
    URB id: 0xffff9753a1709240
    URB type: URB_COMPLETE ('C')
    URB transfer type: URB_CONTROL (0x02)
    Endpoint: 0x80, Direction: IN
        1... .... = Direction: IN (1)
        .... 0000 = Endpoint number: 0
    Device: 4
    URB bus id: 3
    Device setup request: not relevant ('-')
    Data: present (0)
    URB sec: 1530319269
    URB usec: 992419
    URB status: Broken pipe (-EPIPE) (-32)
    URB length [bytes]: 0
    Data length [bytes]: 0
    [Request in: 28]
    [Time from request: 0.001970000 seconds]
    Unused Setup Header
    Interval: 0
    Start frame: 0
    Copy of Transfer Flags: 0x00000200
    Number of ISO descriptors: 0

0000  40 92 70 a1 53 97 ff ff 43 02 80 04 03 00 2d 00   @.p.S...C.....-.
0010  a5 d1 36 5b 00 00 00 00 a3 24 0f 00 e0 ff ff ff   ..6[.....$......
0020  00 00 00 00 00 00 00 00 00 00 00 00 00 00 00 00   ................
0030  00 00 00 00 00 00 00 00 00 02 00 00 00 00 00 00   ................

Frame 30: 64 bytes on wire (512 bits), 64 bytes captured (512 bits) on interface 0
    Interface id: 0 (unknown)
        Interface name: unknown
    Encapsulation type: USB packets with Linux header and padding (115)
    Arrival Time: Jun 29, 2018 20:41:09.992462000 EDT
    [Time shift for this packet: 0.000000000 seconds]
    Epoch Time: 1530319269.992462000 seconds
    [Time delta from previous captured frame: 0.000043000 seconds]
    [Time delta from previous displayed frame: 0.000043000 seconds]
    [Time since reference or first frame: 0.389239000 seconds]
    Frame Number: 30
    Frame Length: 64 bytes (512 bits)
    Capture Length: 64 bytes (512 bits)
    [Frame is marked: False]
    [Frame is ignored: False]
    [Protocols in frame: usb]
USB URB
    [Source: host]
    [Destination: 3.4.0]
    URB id: 0xffff9753a1709240
    URB type: URB_SUBMIT ('S')
    URB transfer type: URB_CONTROL (0x02)
    Endpoint: 0x80, Direction: IN
        1... .... = Direction: IN (1)
        .... 0000 = Endpoint number: 0
    Device: 4
    URB bus id: 3
    Device setup request: relevant (0)
    Data: not present ('<')
    URB sec: 1530319269
    URB usec: 992462
    URB status: Operation now in progress (-EINPROGRESS) (-115)
    URB length [bytes]: 10
    Data length [bytes]: 0
    [Response in: 31]
    Interval: 0
    Start frame: 0
    Copy of Transfer Flags: 0x00000200
    Number of ISO descriptors: 0
URB setup
    bmRequestType: 0x80
        1... .... = Direction: Device-to-host
        .00. .... = Type: Standard (0x0)
        ...0 0000 = Recipient: Device (0x00)
    bRequest: GET DESCRIPTOR (6)
    Descriptor Index: 0x00
    bDescriptorType: 0x06
    Language Id: no language specified (0x0000)
    wLength: 10

0000  40 92 70 a1 53 97 ff ff 53 02 80 04 03 00 00 3c   @.p.S...S......<
0010  a5 d1 36 5b 00 00 00 00 ce 24 0f 00 8d ff ff ff   ..6[.....$......
0020  0a 00 00 00 00 00 00 00 80 06 00 06 00 00 0a 00   ................
0030  00 00 00 00 00 00 00 00 00 02 00 00 00 00 00 00   ................

Frame 31: 64 bytes on wire (512 bits), 64 bytes captured (512 bits) on interface 0
    Interface id: 0 (unknown)
        Interface name: unknown
    Encapsulation type: USB packets with Linux header and padding (115)
    Arrival Time: Jun 29, 2018 20:41:09.994414000 EDT
    [Time shift for this packet: 0.000000000 seconds]
    Epoch Time: 1530319269.994414000 seconds
    [Time delta from previous captured frame: 0.001952000 seconds]
    [Time delta from previous displayed frame: 0.001952000 seconds]
    [Time since reference or first frame: 0.391191000 seconds]
    Frame Number: 31
    Frame Length: 64 bytes (512 bits)
    Capture Length: 64 bytes (512 bits)
    [Frame is marked: False]
    [Frame is ignored: False]
    [Protocols in frame: usb]
USB URB
    [Source: 3.4.0]
    [Destination: host]
    URB id: 0xffff9753a1709240
    URB type: URB_COMPLETE ('C')
    URB transfer type: URB_CONTROL (0x02)
    Endpoint: 0x80, Direction: IN
        1... .... = Direction: IN (1)
        .... 0000 = Endpoint number: 0
    Device: 4
    URB bus id: 3
    Device setup request: not relevant ('-')
    Data: present (0)
    URB sec: 1530319269
    URB usec: 994414
    URB status: Broken pipe (-EPIPE) (-32)
    URB length [bytes]: 0
    Data length [bytes]: 0
    [Request in: 30]
    [Time from request: 0.001952000 seconds]
    Unused Setup Header
    Interval: 0
    Start frame: 0
    Copy of Transfer Flags: 0x00000200
    Number of ISO descriptors: 0

0000  40 92 70 a1 53 97 ff ff 43 02 80 04 03 00 2d 00   @.p.S...C.....-.
0010  a5 d1 36 5b 00 00 00 00 6e 2c 0f 00 e0 ff ff ff   ..6[....n,......
0020  00 00 00 00 00 00 00 00 00 00 00 00 00 00 00 00   ................
0030  00 00 00 00 00 00 00 00 00 02 00 00 00 00 00 00   ................

Frame 32: 64 bytes on wire (512 bits), 64 bytes captured (512 bits) on interface 0
    Interface id: 0 (unknown)
        Interface name: unknown
    Encapsulation type: USB packets with Linux header and padding (115)
    Arrival Time: Jun 29, 2018 20:41:09.994462000 EDT
    [Time shift for this packet: 0.000000000 seconds]
    Epoch Time: 1530319269.994462000 seconds
    [Time delta from previous captured frame: 0.000048000 seconds]
    [Time delta from previous displayed frame: 0.000048000 seconds]
    [Time since reference or first frame: 0.391239000 seconds]
    Frame Number: 32
    Frame Length: 64 bytes (512 bits)
    Capture Length: 64 bytes (512 bits)
    [Frame is marked: False]
    [Frame is ignored: False]
    [Protocols in frame: usb]
USB URB
    [Source: host]
    [Destination: 3.4.0]
    URB id: 0xffff9753a1709240
    URB type: URB_SUBMIT ('S')
    URB transfer type: URB_CONTROL (0x02)
    Endpoint: 0x80, Direction: IN
        1... .... = Direction: IN (1)
        .... 0000 = Endpoint number: 0
    Device: 4
    URB bus id: 3
    Device setup request: relevant (0)
    Data: not present ('<')
    URB sec: 1530319269
    URB usec: 994462
    URB status: Operation now in progress (-EINPROGRESS) (-115)
    URB length [bytes]: 9
    Data length [bytes]: 0
    [Response in: 33]
    Interval: 0
    Start frame: 0
    Copy of Transfer Flags: 0x00000200
    Number of ISO descriptors: 0
URB setup
    bmRequestType: 0x80
        1... .... = Direction: Device-to-host
        .00. .... = Type: Standard (0x0)
        ...0 0000 = Recipient: Device (0x00)
    bRequest: GET DESCRIPTOR (6)
    Descriptor Index: 0x00
    bDescriptorType: 0x02
    Language Id: no language specified (0x0000)
    wLength: 9

0000  40 92 70 a1 53 97 ff ff 53 02 80 04 03 00 00 3c   @.p.S...S......<
0010  a5 d1 36 5b 00 00 00 00 9e 2c 0f 00 8d ff ff ff   ..6[.....,......
0020  09 00 00 00 00 00 00 00 80 06 00 02 00 00 09 00   ................
0030  00 00 00 00 00 00 00 00 00 02 00 00 00 00 00 00   ................

Frame 33: 73 bytes on wire (584 bits), 73 bytes captured (584 bits) on interface 0
    Interface id: 0 (unknown)
        Interface name: unknown
    Encapsulation type: USB packets with Linux header and padding (115)
    Arrival Time: Jun 29, 2018 20:41:09.997367000 EDT
    [Time shift for this packet: 0.000000000 seconds]
    Epoch Time: 1530319269.997367000 seconds
    [Time delta from previous captured frame: 0.002905000 seconds]
    [Time delta from previous displayed frame: 0.002905000 seconds]
    [Time since reference or first frame: 0.394144000 seconds]
    Frame Number: 33
    Frame Length: 73 bytes (584 bits)
    Capture Length: 73 bytes (584 bits)
    [Frame is marked: False]
    [Frame is ignored: False]
    [Protocols in frame: usb]
USB URB
    [Source: 3.4.0]
    [Destination: host]
    URB id: 0xffff9753a1709240
    URB type: URB_COMPLETE ('C')
    URB transfer type: URB_CONTROL (0x02)
    Endpoint: 0x80, Direction: IN
        1... .... = Direction: IN (1)
        .... 0000 = Endpoint number: 0
    Device: 4
    URB bus id: 3
    Device setup request: not relevant ('-')
    Data: present (0)
    URB sec: 1530319269
    URB usec: 997367
    URB status: Success (0)
    URB length [bytes]: 9
    Data length [bytes]: 9
    [Request in: 32]
    [Time from request: 0.002905000 seconds]
    Unused Setup Header
    Interval: 0
    Start frame: 0
    Copy of Transfer Flags: 0x00000200
    Number of ISO descriptors: 0
CONFIGURATION DESCRIPTOR
    bLength: 9
    bDescriptorType: 0x02 (CONFIGURATION)
    wTotalLength: 32
    bNumInterfaces: 1
    bConfigurationValue: 1
    iConfiguration: 0
    Configuration bmAttributes: 0xc0  SELF-POWERED  NO REMOTE-WAKEUP
        1... .... = Must be 1: Must be 1 for USB 1.1 and higher
        .1.. .... = Self-Powered: This device is SELF-POWERED
        ..0. .... = Remote Wakeup: This device does NOT support remote wakeup
    bMaxPower: 50  (100mA)

0000  40 92 70 a1 53 97 ff ff 43 02 80 04 03 00 2d 00   @.p.S...C.....-.
0010  a5 d1 36 5b 00 00 00 00 f7 37 0f 00 00 00 00 00   ..6[.....7......
0020  09 00 00 00 09 00 00 00 00 00 00 00 00 00 00 00   ................
0030  00 00 00 00 00 00 00 00 00 02 00 00 00 00 00 00   ................
0040  09 02 20 00 01 01 00 c0 32                        .. .....2

Frame 34: 64 bytes on wire (512 bits), 64 bytes captured (512 bits) on interface 0
    Interface id: 0 (unknown)
        Interface name: unknown
    Encapsulation type: USB packets with Linux header and padding (115)
    Arrival Time: Jun 29, 2018 20:41:09.997407000 EDT
    [Time shift for this packet: 0.000000000 seconds]
    Epoch Time: 1530319269.997407000 seconds
    [Time delta from previous captured frame: 0.000040000 seconds]
    [Time delta from previous displayed frame: 0.000040000 seconds]
    [Time since reference or first frame: 0.394184000 seconds]
    Frame Number: 34
    Frame Length: 64 bytes (512 bits)
    Capture Length: 64 bytes (512 bits)
    [Frame is marked: False]
    [Frame is ignored: False]
    [Protocols in frame: usb]
USB URB
    [Source: host]
    [Destination: 3.4.0]
    URB id: 0xffff9753a1709240
    URB type: URB_SUBMIT ('S')
    URB transfer type: URB_CONTROL (0x02)
    Endpoint: 0x80, Direction: IN
        1... .... = Direction: IN (1)
        .... 0000 = Endpoint number: 0
    Device: 4
    URB bus id: 3
    Device setup request: relevant (0)
    Data: not present ('<')
    URB sec: 1530319269
    URB usec: 997407
    URB status: Operation now in progress (-EINPROGRESS) (-115)
    URB length [bytes]: 32
    Data length [bytes]: 0
    [Response in: 35]
    Interval: 0
    Start frame: 0
    Copy of Transfer Flags: 0x00000200
    Number of ISO descriptors: 0
URB setup
    bmRequestType: 0x80
        1... .... = Direction: Device-to-host
        .00. .... = Type: Standard (0x0)
        ...0 0000 = Recipient: Device (0x00)
    bRequest: GET DESCRIPTOR (6)
    Descriptor Index: 0x00
    bDescriptorType: 0x02
    Language Id: no language specified (0x0000)
    wLength: 32

0000  40 92 70 a1 53 97 ff ff 53 02 80 04 03 00 00 3c   @.p.S...S......<
0010  a5 d1 36 5b 00 00 00 00 1f 38 0f 00 8d ff ff ff   ..6[.....8......
0020  20 00 00 00 00 00 00 00 80 06 00 02 00 00 20 00    ............. .
0030  00 00 00 00 00 00 00 00 00 02 00 00 00 00 00 00   ................

Frame 35: 96 bytes on wire (768 bits), 96 bytes captured (768 bits) on interface 0
    Interface id: 0 (unknown)
        Interface name: unknown
    Encapsulation type: USB packets with Linux header and padding (115)
    Arrival Time: Jun 29, 2018 20:41:10.000426000 EDT
    [Time shift for this packet: 0.000000000 seconds]
    Epoch Time: 1530319270.000426000 seconds
    [Time delta from previous captured frame: 0.003019000 seconds]
    [Time delta from previous displayed frame: 0.003019000 seconds]
    [Time since reference or first frame: 0.397203000 seconds]
    Frame Number: 35
    Frame Length: 96 bytes (768 bits)
    Capture Length: 96 bytes (768 bits)
    [Frame is marked: False]
    [Frame is ignored: False]
    [Protocols in frame: usb]
USB URB
    [Source: 3.4.0]
    [Destination: host]
    URB id: 0xffff9753a1709240
    URB type: URB_COMPLETE ('C')
    URB transfer type: URB_CONTROL (0x02)
    Endpoint: 0x80, Direction: IN
        1... .... = Direction: IN (1)
        .... 0000 = Endpoint number: 0
    Device: 4
    URB bus id: 3
    Device setup request: not relevant ('-')
    Data: present (0)
    URB sec: 1530319270
    URB usec: 426
    URB status: Success (0)
    URB length [bytes]: 32
    Data length [bytes]: 32
    [Request in: 34]
    [Time from request: 0.003019000 seconds]
    Unused Setup Header
    Interval: 0
    Start frame: 0
    Copy of Transfer Flags: 0x00000200
    Number of ISO descriptors: 0
CONFIGURATION DESCRIPTOR
    bLength: 9
    bDescriptorType: 0x02 (CONFIGURATION)
    wTotalLength: 32
    bNumInterfaces: 1
    bConfigurationValue: 1
    iConfiguration: 0
    Configuration bmAttributes: 0xc0  SELF-POWERED  NO REMOTE-WAKEUP
        1... .... = Must be 1: Must be 1 for USB 1.1 and higher
        .1.. .... = Self-Powered: This device is SELF-POWERED
        ..0. .... = Remote Wakeup: This device does NOT support remote wakeup
    bMaxPower: 50  (100mA)
INTERFACE DESCRIPTOR (0.0): class Printer
    bLength: 9
    bDescriptorType: 0x04 (INTERFACE)
    bInterfaceNumber: 0
    bAlternateSetting: 0
    bNumEndpoints: 2
    bInterfaceClass: Printer (0x07)
    bInterfaceSubClass: 0x01
    bInterfaceProtocol: 0x02
    iInterface: 0
ENDPOINT DESCRIPTOR
    bLength: 7
    bDescriptorType: 0x05 (ENDPOINT)
    bEndpointAddress: 0x01  OUT  Endpoint:1
        0... .... = Direction: OUT Endpoint
        .... 0001 = Endpoint Number: 0x1
    bmAttributes: 0x02
        .... ..10 = Transfertype: Bulk-Transfer (0x2)
    wMaxPacketSize: 64
        .... ..00 0100 0000 = Maximum Packet Size: 64
    bInterval: 0
ENDPOINT DESCRIPTOR
    bLength: 7
    bDescriptorType: 0x05 (ENDPOINT)
    bEndpointAddress: 0x82  IN  Endpoint:2
        1... .... = Direction: IN Endpoint
        .... 0010 = Endpoint Number: 0x2
    bmAttributes: 0x02
        .... ..10 = Transfertype: Bulk-Transfer (0x2)
    wMaxPacketSize: 64
        .... ..00 0100 0000 = Maximum Packet Size: 64
    bInterval: 0

0000  40 92 70 a1 53 97 ff ff 43 02 80 04 03 00 2d 00   @.p.S...C.....-.
0010  a6 d1 36 5b 00 00 00 00 aa 01 00 00 00 00 00 00   ..6[............
0020  20 00 00 00 20 00 00 00 00 00 00 00 00 00 00 00    ... ...........
0030  00 00 00 00 00 00 00 00 00 02 00 00 00 00 00 00   ................
0040  09 02 20 00 01 01 00 c0 32 09 04 00 00 02 07 01   .. .....2.......
0050  02 00 07 05 01 02 40 00 00 07 05 82 02 40 00 00   ......@......@..

Frame 36: 64 bytes on wire (512 bits), 64 bytes captured (512 bits) on interface 0
    Interface id: 0 (unknown)
        Interface name: unknown
    Encapsulation type: USB packets with Linux header and padding (115)
    Arrival Time: Jun 29, 2018 20:41:10.000474000 EDT
    [Time shift for this packet: 0.000000000 seconds]
    Epoch Time: 1530319270.000474000 seconds
    [Time delta from previous captured frame: 0.000048000 seconds]
    [Time delta from previous displayed frame: 0.000048000 seconds]
    [Time since reference or first frame: 0.397251000 seconds]
    Frame Number: 36
    Frame Length: 64 bytes (512 bits)
    Capture Length: 64 bytes (512 bits)
    [Frame is marked: False]
    [Frame is ignored: False]
    [Protocols in frame: usb]
USB URB
    [Source: host]
    [Destination: 3.4.0]
    URB id: 0xffff9753a17099c0
    URB type: URB_SUBMIT ('S')
    URB transfer type: URB_CONTROL (0x02)
    Endpoint: 0x80, Direction: IN
        1... .... = Direction: IN (1)
        .... 0000 = Endpoint number: 0
    Device: 4
    URB bus id: 3
    Device setup request: relevant (0)
    Data: not present ('<')
    URB sec: 1530319270
    URB usec: 474
    URB status: Operation now in progress (-EINPROGRESS) (-115)
    URB length [bytes]: 255
    Data length [bytes]: 0
    [Response in: 37]
    Interval: 0
    Start frame: 0
    Copy of Transfer Flags: 0x00000200
    Number of ISO descriptors: 0
URB setup
    bmRequestType: 0x80
        1... .... = Direction: Device-to-host
        .00. .... = Type: Standard (0x0)
        ...0 0000 = Recipient: Device (0x00)
    bRequest: GET DESCRIPTOR (6)
    Descriptor Index: 0x00
    bDescriptorType: 0x03
    Language Id: no language specified (0x0000)
    wLength: 255

0000  c0 99 70 a1 53 97 ff ff 53 02 80 04 03 00 00 3c   ..p.S...S......<
0010  a6 d1 36 5b 00 00 00 00 da 01 00 00 8d ff ff ff   ..6[............
0020  ff 00 00 00 00 00 00 00 80 06 00 03 00 00 ff 00   ................
0030  00 00 00 00 00 00 00 00 00 02 00 00 00 00 00 00   ................

Frame 37: 68 bytes on wire (544 bits), 68 bytes captured (544 bits) on interface 0
    Interface id: 0 (unknown)
        Interface name: unknown
    Encapsulation type: USB packets with Linux header and padding (115)
    Arrival Time: Jun 29, 2018 20:41:10.003462000 EDT
    [Time shift for this packet: 0.000000000 seconds]
    Epoch Time: 1530319270.003462000 seconds
    [Time delta from previous captured frame: 0.002988000 seconds]
    [Time delta from previous displayed frame: 0.002988000 seconds]
    [Time since reference or first frame: 0.400239000 seconds]
    Frame Number: 37
    Frame Length: 68 bytes (544 bits)
    Capture Length: 68 bytes (544 bits)
    [Frame is marked: False]
    [Frame is ignored: False]
    [Protocols in frame: usb]
USB URB
    [Source: 3.4.0]
    [Destination: host]
    URB id: 0xffff9753a17099c0
    URB type: URB_COMPLETE ('C')
    URB transfer type: URB_CONTROL (0x02)
    Endpoint: 0x80, Direction: IN
        1... .... = Direction: IN (1)
        .... 0000 = Endpoint number: 0
    Device: 4
    URB bus id: 3
    Device setup request: not relevant ('-')
    Data: present (0)
    URB sec: 1530319270
    URB usec: 3462
    URB status: Success (0)
    URB length [bytes]: 4
    Data length [bytes]: 4
    [Request in: 36]
    [Time from request: 0.002988000 seconds]
    Unused Setup Header
    Interval: 0
    Start frame: 0
    Copy of Transfer Flags: 0x00000200
    Number of ISO descriptors: 0
STRING DESCRIPTOR
    bLength: 4
    bDescriptorType: 0x03 (STRING)
    wLANGID: English (United States) (0x0409)

0000  c0 99 70 a1 53 97 ff ff 43 02 80 04 03 00 2d 00   ..p.S...C.....-.
0010  a6 d1 36 5b 00 00 00 00 86 0d 00 00 00 00 00 00   ..6[............
0020  04 00 00 00 04 00 00 00 00 00 00 00 00 00 00 00   ................
0030  00 00 00 00 00 00 00 00 00 02 00 00 00 00 00 00   ................
0040  04 03 09 04                                       ....

Frame 38: 64 bytes on wire (512 bits), 64 bytes captured (512 bits) on interface 0
    Interface id: 0 (unknown)
        Interface name: unknown
    Encapsulation type: USB packets with Linux header and padding (115)
    Arrival Time: Jun 29, 2018 20:41:10.003524000 EDT
    [Time shift for this packet: 0.000000000 seconds]
    Epoch Time: 1530319270.003524000 seconds
    [Time delta from previous captured frame: 0.000062000 seconds]
    [Time delta from previous displayed frame: 0.000062000 seconds]
    [Time since reference or first frame: 0.400301000 seconds]
    Frame Number: 38
    Frame Length: 64 bytes (512 bits)
    Capture Length: 64 bytes (512 bits)
    [Frame is marked: False]
    [Frame is ignored: False]
    [Protocols in frame: usb]
USB URB
    [Source: host]
    [Destination: 3.4.0]
    URB id: 0xffff9753a17099c0
    URB type: URB_SUBMIT ('S')
    URB transfer type: URB_CONTROL (0x02)
    Endpoint: 0x80, Direction: IN
        1... .... = Direction: IN (1)
        .... 0000 = Endpoint number: 0
    Device: 4
    URB bus id: 3
    Device setup request: relevant (0)
    Data: not present ('<')
    URB sec: 1530319270
    URB usec: 3524
    URB status: Operation now in progress (-EINPROGRESS) (-115)
    URB length [bytes]: 255
    Data length [bytes]: 0
    [Response in: 39]
    Interval: 0
    Start frame: 0
    Copy of Transfer Flags: 0x00000200
    Number of ISO descriptors: 0
URB setup
    bmRequestType: 0x80
        1... .... = Direction: Device-to-host
        .00. .... = Type: Standard (0x0)
        ...0 0000 = Recipient: Device (0x00)
    bRequest: GET DESCRIPTOR (6)
    Descriptor Index: 0x01
    bDescriptorType: 0x03
    Language Id: English (United States) (0x0409)
    wLength: 255

0000  c0 99 70 a1 53 97 ff ff 53 02 80 04 03 00 00 3c   ..p.S...S......<
0010  a6 d1 36 5b 00 00 00 00 c4 0d 00 00 8d ff ff ff   ..6[............
0020  ff 00 00 00 00 00 00 00 80 06 01 03 09 04 ff 00   ................
0030  00 00 00 00 00 00 00 00 00 02 00 00 00 00 00 00   ................

Frame 39: 80 bytes on wire (640 bits), 80 bytes captured (640 bits) on interface 0
    Interface id: 0 (unknown)
        Interface name: unknown
    Encapsulation type: USB packets with Linux header and padding (115)
    Arrival Time: Jun 29, 2018 20:41:10.006465000 EDT
    [Time shift for this packet: 0.000000000 seconds]
    Epoch Time: 1530319270.006465000 seconds
    [Time delta from previous captured frame: 0.002941000 seconds]
    [Time delta from previous displayed frame: 0.002941000 seconds]
    [Time since reference or first frame: 0.403242000 seconds]
    Frame Number: 39
    Frame Length: 80 bytes (640 bits)
    Capture Length: 80 bytes (640 bits)
    [Frame is marked: False]
    [Frame is ignored: False]
    [Protocols in frame: usb]
USB URB
    [Source: 3.4.0]
    [Destination: host]
    URB id: 0xffff9753a17099c0
    URB type: URB_COMPLETE ('C')
    URB transfer type: URB_CONTROL (0x02)
    Endpoint: 0x80, Direction: IN
        1... .... = Direction: IN (1)
        .... 0000 = Endpoint number: 0
    Device: 4
    URB bus id: 3
    Device setup request: not relevant ('-')
    Data: present (0)
    URB sec: 1530319270
    URB usec: 6465
    URB status: Success (0)
    URB length [bytes]: 16
    Data length [bytes]: 16
    [Request in: 38]
    [Time from request: 0.002941000 seconds]
    Unused Setup Header
    Interval: 0
    Start frame: 0
    Copy of Transfer Flags: 0x00000200
    Number of ISO descriptors: 0
STRING DESCRIPTOR
    bLength: 16
    bDescriptorType: 0x03 (STRING)
    bString: 39390

0000  c0 99 70 a1 53 97 ff ff 43 02 80 04 03 00 2d 00   ..p.S...C.....-.
0010  a6 d1 36 5b 00 00 00 00 41 19 00 00 00 00 00 00   ..6[....A.......
0020  10 00 00 00 10 00 00 00 00 00 00 00 00 00 00 00   ................
0030  00 00 00 00 00 00 00 00 00 02 00 00 00 00 00 00   ................
0040  10 03 33 00 39 00 33 00 39 00 30 00 00 00 00 00   ..3.9.3.9.0.....

Frame 40: 64 bytes on wire (512 bits), 64 bytes captured (512 bits) on interface 0
    Interface id: 0 (unknown)
        Interface name: unknown
    Encapsulation type: USB packets with Linux header and padding (115)
    Arrival Time: Jun 29, 2018 20:41:10.007396000 EDT
    [Time shift for this packet: 0.000000000 seconds]
    Epoch Time: 1530319270.007396000 seconds
    [Time delta from previous captured frame: 0.000931000 seconds]
    [Time delta from previous displayed frame: 0.000931000 seconds]
    [Time since reference or first frame: 0.404173000 seconds]
    Frame Number: 40
    Frame Length: 64 bytes (512 bits)
    Capture Length: 64 bytes (512 bits)
    [Frame is marked: False]
    [Frame is ignored: False]
    [Protocols in frame: usb]
USB URB
    [Source: host]
    [Destination: 3.4.0]
    URB id: 0xffff9753a1709780
    URB type: URB_SUBMIT ('S')
    URB transfer type: URB_CONTROL (0x02)
    Endpoint: 0x00, Direction: OUT
        0... .... = Direction: OUT (0)
        .... 0000 = Endpoint number: 0
    Device: 4
    URB bus id: 3
    Device setup request: relevant (0)
    Data: present (0)
    URB sec: 1530319270
    URB usec: 7396
    URB status: Operation now in progress (-EINPROGRESS) (-115)
    URB length [bytes]: 0
    Data length [bytes]: 0
    [Response in: 41]
    Interval: 0
    Start frame: 0
    Copy of Transfer Flags: 0x00000000
    Number of ISO descriptors: 0
URB setup
    bmRequestType: 0x00
        0... .... = Direction: Host-to-device
        .00. .... = Type: Standard (0x0)
        ...0 0000 = Recipient: Device (0x00)
    bRequest: SET CONFIGURATION (9)
    bConfigurationValue: 1
    wIndex: 0 (0x0000)
    wLength: 0

0000  80 97 70 a1 53 97 ff ff 53 02 00 04 03 00 00 00   ..p.S...S.......
0010  a6 d1 36 5b 00 00 00 00 e4 1c 00 00 8d ff ff ff   ..6[............
0020  00 00 00 00 00 00 00 00 00 09 01 00 00 00 00 00   ................
0030  00 00 00 00 00 00 00 00 00 00 00 00 00 00 00 00   ................

Frame 41: 64 bytes on wire (512 bits), 64 bytes captured (512 bits) on interface 0
    Interface id: 0 (unknown)
        Interface name: unknown
    Encapsulation type: USB packets with Linux header and padding (115)
    Arrival Time: Jun 29, 2018 20:41:10.009397000 EDT
    [Time shift for this packet: 0.000000000 seconds]
    Epoch Time: 1530319270.009397000 seconds
    [Time delta from previous captured frame: 0.002001000 seconds]
    [Time delta from previous displayed frame: 0.002001000 seconds]
    [Time since reference or first frame: 0.406174000 seconds]
    Frame Number: 41
    Frame Length: 64 bytes (512 bits)
    Capture Length: 64 bytes (512 bits)
    [Frame is marked: False]
    [Frame is ignored: False]
    [Protocols in frame: usb]
USB URB
    [Source: 3.4.0]
    [Destination: host]
    URB id: 0xffff9753a1709780
    URB type: URB_COMPLETE ('C')
    URB transfer type: URB_CONTROL (0x02)
    Endpoint: 0x00, Direction: OUT
        0... .... = Direction: OUT (0)
        .... 0000 = Endpoint number: 0
    Device: 4
    URB bus id: 3
    Device setup request: not relevant ('-')
    Data: not present ('>')
    URB sec: 1530319270
    URB usec: 9397
    URB status: Success (0)
    URB length [bytes]: 0
    Data length [bytes]: 0
    [Request in: 40]
    [Time from request: 0.002001000 seconds]
    Unused Setup Header
    Interval: 0
    Start frame: 0
    Copy of Transfer Flags: 0x00000000
    Number of ISO descriptors: 0

0000  80 97 70 a1 53 97 ff ff 43 02 00 04 03 00 2d 3e   ..p.S...C.....->
0010  a6 d1 36 5b 00 00 00 00 b5 24 00 00 00 00 00 00   ..6[.....$......
0020  00 00 00 00 00 00 00 00 00 00 00 00 00 00 00 00   ................
0030  00 00 00 00 00 00 00 00 00 00 00 00 00 00 00 00   ................

Frame 42: 64 bytes on wire (512 bits), 64 bytes captured (512 bits) on interface 0
    Interface id: 0 (unknown)
        Interface name: unknown
    Encapsulation type: USB packets with Linux header and padding (115)
    Arrival Time: Jun 29, 2018 20:41:10.011611000 EDT
    [Time shift for this packet: 0.000000000 seconds]
    Epoch Time: 1530319270.011611000 seconds
    [Time delta from previous captured frame: 0.002214000 seconds]
    [Time delta from previous displayed frame: 0.002214000 seconds]
    [Time since reference or first frame: 0.408388000 seconds]
    Frame Number: 42
    Frame Length: 64 bytes (512 bits)
    Capture Length: 64 bytes (512 bits)
    [Frame is marked: False]
    [Frame is ignored: False]
    [Protocols in frame: usb]
USB URB
    [Source: host]
    [Destination: 3.4.0]
    URB id: 0xffff9753a17096c0
    URB type: URB_SUBMIT ('S')
    URB transfer type: URB_CONTROL (0x02)
    Endpoint: 0x00, Direction: OUT
        0... .... = Direction: OUT (0)
        .... 0000 = Endpoint number: 0
    Device: 4
    URB bus id: 3
    Device setup request: relevant (0)
    Data: present (0)
    URB sec: 1530319270
    URB usec: 11611
    URB status: Operation now in progress (-EINPROGRESS) (-115)
    URB length [bytes]: 0
    Data length [bytes]: 0
    [Response in: 43]
    Interval: 0
    Start frame: 0
    Copy of Transfer Flags: 0x00000000
    Number of ISO descriptors: 0
URB setup
    bmRequestType: 0x01
        0... .... = Direction: Host-to-device
        .00. .... = Type: Standard (0x0)
        ...0 0001 = Recipient: Interface (0x01)
    bRequest: SET INTERFACE (11)
    bAlternateSetting: 0
    wInterface: 0
    wLength: 0

0000  c0 96 70 a1 53 97 ff ff 53 02 00 04 03 00 00 00   ..p.S...S.......
0010  a6 d1 36 5b 00 00 00 00 5b 2d 00 00 8d ff ff ff   ..6[....[-......
0020  00 00 00 00 00 00 00 00 01 0b 00 00 00 00 00 00   ................
0030  00 00 00 00 00 00 00 00 00 00 00 00 00 00 00 00   ................

Frame 43: 64 bytes on wire (512 bits), 64 bytes captured (512 bits) on interface 0
    Interface id: 0 (unknown)
        Interface name: unknown
    Encapsulation type: USB packets with Linux header and padding (115)
    Arrival Time: Jun 29, 2018 20:41:10.013470000 EDT
    [Time shift for this packet: 0.000000000 seconds]
    Epoch Time: 1530319270.013470000 seconds
    [Time delta from previous captured frame: 0.001859000 seconds]
    [Time delta from previous displayed frame: 0.001859000 seconds]
    [Time since reference or first frame: 0.410247000 seconds]
    Frame Number: 43
    Frame Length: 64 bytes (512 bits)
    Capture Length: 64 bytes (512 bits)
    [Frame is marked: False]
    [Frame is ignored: False]
    [Protocols in frame: usb]
USB URB
    [Source: 3.4.0]
    [Destination: host]
    URB id: 0xffff9753a17096c0
    URB type: URB_COMPLETE ('C')
    URB transfer type: URB_CONTROL (0x02)
    Endpoint: 0x00, Direction: OUT
        0... .... = Direction: OUT (0)
        .... 0000 = Endpoint number: 0
    Device: 4
    URB bus id: 3
    Device setup request: not relevant ('-')
    Data: not present ('>')
    URB sec: 1530319270
    URB usec: 13470
    URB status: Success (0)
    URB length [bytes]: 0
    Data length [bytes]: 0
    [Request in: 42]
    [Time from request: 0.001859000 seconds]
    Unused Setup Header
    Interval: 0
    Start frame: 0
    Copy of Transfer Flags: 0x00000000
    Number of ISO descriptors: 0

0000  c0 96 70 a1 53 97 ff ff 43 02 00 04 03 00 2d 3e   ..p.S...C.....->
0010  a6 d1 36 5b 00 00 00 00 9e 34 00 00 00 00 00 00   ..6[.....4......
0020  00 00 00 00 00 00 00 00 00 00 00 00 00 00 00 00   ................
0030  00 00 00 00 00 00 00 00 00 00 00 00 00 00 00 00   ................

Frame 44: 64 bytes on wire (512 bits), 64 bytes captured (512 bits) on interface 0
    Interface id: 0 (unknown)
        Interface name: unknown
    Encapsulation type: USB packets with Linux header and padding (115)
    Arrival Time: Jun 29, 2018 20:41:10.013609000 EDT
    [Time shift for this packet: 0.000000000 seconds]
    Epoch Time: 1530319270.013609000 seconds
    [Time delta from previous captured frame: 0.000139000 seconds]
    [Time delta from previous displayed frame: 0.000139000 seconds]
    [Time since reference or first frame: 0.410386000 seconds]
    Frame Number: 44
    Frame Length: 64 bytes (512 bits)
    Capture Length: 64 bytes (512 bits)
    [Frame is marked: False]
    [Frame is ignored: False]
    [Protocols in frame: usb]
USB URB
    [Source: host]
    [Destination: 3.4.0]
    URB id: 0xffff9753a1709e40
    URB type: URB_SUBMIT ('S')
    URB transfer type: URB_CONTROL (0x02)
    Endpoint: 0x80, Direction: IN
        1... .... = Direction: IN (1)
        .... 0000 = Endpoint number: 0
    Device: 4
    URB bus id: 3
    Device setup request: relevant (0)
    Data: not present ('<')
    URB sec: 1530319270
    URB usec: 13609
    URB status: Operation now in progress (-EINPROGRESS) (-115)
    URB length [bytes]: 1023
    Data length [bytes]: 0
    [Response in: 45]
    Interval: 0
    Start frame: 0
    Copy of Transfer Flags: 0x00000200
    Number of ISO descriptors: 0
    [bInterfaceClass: Printer (0x07)]
URB setup
    bmRequestType: 0xa1
        1... .... = Direction: Device-to-host
        .01. .... = Type: Class (0x1)
        ...0 0001 = Recipient: Interface (0x01)
    bRequest: 0
    wValue: 0x0000
    wIndex: 0 (0x0000)
    wLength: 1023

0000  40 9e 70 a1 53 97 ff ff 53 02 80 04 03 00 00 3c   @.p.S...S......<
0010  a6 d1 36 5b 00 00 00 00 29 35 00 00 8d ff ff ff   ..6[....)5......
0020  ff 03 00 00 00 00 00 00 a1 00 00 00 00 00 ff 03   ................
0030  00 00 00 00 00 00 00 00 00 02 00 00 00 00 00 00   ................

Frame 45: 149 bytes on wire (1192 bits), 149 bytes captured (1192 bits) on interface 0
    Interface id: 0 (unknown)
        Interface name: unknown
    Encapsulation type: USB packets with Linux header and padding (115)
    Arrival Time: Jun 29, 2018 20:41:10.017401000 EDT
    [Time shift for this packet: 0.000000000 seconds]
    Epoch Time: 1530319270.017401000 seconds
    [Time delta from previous captured frame: 0.003792000 seconds]
    [Time delta from previous displayed frame: 0.003792000 seconds]
    [Time since reference or first frame: 0.414178000 seconds]
    Frame Number: 45
    Frame Length: 149 bytes (1192 bits)
    Capture Length: 149 bytes (1192 bits)
    [Frame is marked: False]
    [Frame is ignored: False]
    [Protocols in frame: usb]
USB URB
    [Source: 3.4.0]
    [Destination: host]
    URB id: 0xffff9753a1709e40
    URB type: URB_COMPLETE ('C')
    URB transfer type: URB_CONTROL (0x02)
    Endpoint: 0x80, Direction: IN
        1... .... = Direction: IN (1)
        .... 0000 = Endpoint number: 0
    Device: 4
    URB bus id: 3
    Device setup request: not relevant ('-')
    Data: present (0)
    URB sec: 1530319270
    URB usec: 17401
    URB status: Success (0)
    URB length [bytes]: 85
    Data length [bytes]: 85
    [Request in: 44]
    [Time from request: 0.003792000 seconds]
    Unused Setup Header
    Interval: 0
    Start frame: 0
    Copy of Transfer Flags: 0x00000200
    Number of ISO descriptors: 0
    [bInterfaceClass: Printer (0x07)]
CONTROL response data: 00554d414e5546414354555245523a53696c686f75657474...

0000  40 9e 70 a1 53 97 ff ff 43 02 80 04 03 00 2d 00   @.p.S...C.....-.
0010  a6 d1 36 5b 00 00 00 00 f9 43 00 00 00 00 00 00   ..6[.....C......
0020  55 00 00 00 55 00 00 00 00 00 00 00 00 00 00 00   U...U...........
0030  00 00 00 00 00 00 00 00 00 02 00 00 00 00 00 00   ................
0040  00 55 4d 41 4e 55 46 41 43 54 55 52 45 52 3a 53   .UMANUFACTURER:S
0050  69 6c 68 6f 75 65 74 74 65 3b 4d 4f 44 45 4c 3a   ilhouette;MODEL:
0060  43 41 4d 45 4f 20 33 3b 43 4c 41 53 53 3a 50 52   CAMEO 3;CLASS:PR
0070  49 4e 54 45 52 3b 44 45 53 43 52 49 50 54 49 4f   INTER;DESCRIPTIO
0080  4e 3a 53 69 6c 68 6f 75 65 74 74 65 20 43 41 4d   N:Silhouette CAM
0090  45 4f 20 33 3b                                    EO 3;

Frame 46: 64 bytes on wire (512 bits), 64 bytes captured (512 bits) on interface 0
    Interface id: 0 (unknown)
        Interface name: unknown
    Encapsulation type: USB packets with Linux header and padding (115)
    Arrival Time: Jun 29, 2018 20:41:10.182296000 EDT
    [Time shift for this packet: 0.000000000 seconds]
    Epoch Time: 1530319270.182296000 seconds
    [Time delta from previous captured frame: 0.164895000 seconds]
    [Time delta from previous displayed frame: 0.164895000 seconds]
    [Time since reference or first frame: 0.579073000 seconds]
    Frame Number: 46
    Frame Length: 64 bytes (512 bits)
    Capture Length: 64 bytes (512 bits)
    [Frame is marked: False]
    [Frame is ignored: False]
    [Protocols in frame: usb]
USB URB
    [Source: host]
    [Destination: 3.4.0]
    URB id: 0xffff9753a1709b40
    URB type: URB_SUBMIT ('S')
    URB transfer type: URB_CONTROL (0x02)
    Endpoint: 0x80, Direction: IN
        1... .... = Direction: IN (1)
        .... 0000 = Endpoint number: 0
    Device: 4
    URB bus id: 3
    Device setup request: relevant (0)
    Data: not present ('<')
    URB sec: 1530319270
    URB usec: 182296
    URB status: Operation now in progress (-EINPROGRESS) (-115)
    URB length [bytes]: 18
    Data length [bytes]: 0
    [Response in: 47]
    Interval: 0
    Start frame: 0
    Copy of Transfer Flags: 0x00000200
    Number of ISO descriptors: 0
URB setup
    bmRequestType: 0x80
        1... .... = Direction: Device-to-host
        .00. .... = Type: Standard (0x0)
        ...0 0000 = Recipient: Device (0x00)
    bRequest: GET DESCRIPTOR (6)
    Descriptor Index: 0x00
    bDescriptorType: 0x01
    Language Id: no language specified (0x0000)
    wLength: 18

0000  40 9b 70 a1 53 97 ff ff 53 02 80 04 03 00 00 3c   @.p.S...S......<
0010  a6 d1 36 5b 00 00 00 00 18 c8 02 00 8d ff ff ff   ..6[............
0020  12 00 00 00 00 00 00 00 80 06 00 01 00 00 12 00   ................
0030  00 00 00 00 00 00 00 00 00 02 00 00 00 00 00 00   ................

Frame 47: 82 bytes on wire (656 bits), 82 bytes captured (656 bits) on interface 0
    Interface id: 0 (unknown)
        Interface name: unknown
    Encapsulation type: USB packets with Linux header and padding (115)
    Arrival Time: Jun 29, 2018 20:41:10.184368000 EDT
    [Time shift for this packet: 0.000000000 seconds]
    Epoch Time: 1530319270.184368000 seconds
    [Time delta from previous captured frame: 0.002072000 seconds]
    [Time delta from previous displayed frame: 0.002072000 seconds]
    [Time since reference or first frame: 0.581145000 seconds]
    Frame Number: 47
    Frame Length: 82 bytes (656 bits)
    Capture Length: 82 bytes (656 bits)
    [Frame is marked: False]
    [Frame is ignored: False]
    [Protocols in frame: usb]
USB URB
    [Source: 3.4.0]
    [Destination: host]
    URB id: 0xffff9753a1709b40
    URB type: URB_COMPLETE ('C')
    URB transfer type: URB_CONTROL (0x02)
    Endpoint: 0x80, Direction: IN
        1... .... = Direction: IN (1)
        .... 0000 = Endpoint number: 0
    Device: 4
    URB bus id: 3
    Device setup request: not relevant ('-')
    Data: present (0)
    URB sec: 1530319270
    URB usec: 184368
    URB status: Success (0)
    URB length [bytes]: 18
    Data length [bytes]: 18
    [Request in: 46]
    [Time from request: 0.002072000 seconds]
    Unused Setup Header
    Interval: 0
    Start frame: 0
    Copy of Transfer Flags: 0x00000200
    Number of ISO descriptors: 0
DEVICE DESCRIPTOR
    bLength: 18
    bDescriptorType: 0x01 (DEVICE)
    bcdUSB: 0x0200
    bDeviceClass: Device (0x00)
    bDeviceSubClass: 0
    bDeviceProtocol: 0 (Use class code info from Interface Descriptors)
    bMaxPacketSize0: 64
    idVendor: Graphtec America, Inc. (0x0b4d)
    idProduct: Unknown (0x112f)
    bcdDevice: 0x0100
    iManufacturer: 0
    iProduct: 0
    iSerialNumber: 1
    bNumConfigurations: 1

0000  40 9b 70 a1 53 97 ff ff 43 02 80 04 03 00 2d 00   @.p.S...C.....-.
0010  a6 d1 36 5b 00 00 00 00 30 d0 02 00 00 00 00 00   ..6[....0.......
0020  12 00 00 00 12 00 00 00 00 00 00 00 00 00 00 00   ................
0030  00 00 00 00 00 00 00 00 00 02 00 00 00 00 00 00   ................
0040  12 01 00 02 00 00 00 40 4d 0b 2f 11 00 01 00 00   .......@M./.....
0050  01 01                                             ..

Frame 48: 64 bytes on wire (512 bits), 64 bytes captured (512 bits) on interface 0
    Interface id: 0 (unknown)
        Interface name: unknown
    Encapsulation type: USB packets with Linux header and padding (115)
    Arrival Time: Jun 29, 2018 20:41:10.184433000 EDT
    [Time shift for this packet: 0.000000000 seconds]
    Epoch Time: 1530319270.184433000 seconds
    [Time delta from previous captured frame: 0.000065000 seconds]
    [Time delta from previous displayed frame: 0.000065000 seconds]
    [Time since reference or first frame: 0.581210000 seconds]
    Frame Number: 48
    Frame Length: 64 bytes (512 bits)
    Capture Length: 64 bytes (512 bits)
    [Frame is marked: False]
    [Frame is ignored: False]
    [Protocols in frame: usb]
USB URB
    [Source: host]
    [Destination: 3.4.0]
    URB id: 0xffff9753a1709b40
    URB type: URB_SUBMIT ('S')
    URB transfer type: URB_CONTROL (0x02)
    Endpoint: 0x80, Direction: IN
        1... .... = Direction: IN (1)
        .... 0000 = Endpoint number: 0
    Device: 4
    URB bus id: 3
    Device setup request: relevant (0)
    Data: not present ('<')
    URB sec: 1530319270
    URB usec: 184433
    URB status: Operation now in progress (-EINPROGRESS) (-115)
    URB length [bytes]: 9
    Data length [bytes]: 0
    [Response in: 49]
    Interval: 0
    Start frame: 0
    Copy of Transfer Flags: 0x00000200
    Number of ISO descriptors: 0
URB setup
    bmRequestType: 0x80
        1... .... = Direction: Device-to-host
        .00. .... = Type: Standard (0x0)
        ...0 0000 = Recipient: Device (0x00)
    bRequest: GET DESCRIPTOR (6)
    Descriptor Index: 0x00
    bDescriptorType: 0x02
    Language Id: no language specified (0x0000)
    wLength: 9

0000  40 9b 70 a1 53 97 ff ff 53 02 80 04 03 00 00 3c   @.p.S...S......<
0010  a6 d1 36 5b 00 00 00 00 71 d0 02 00 8d ff ff ff   ..6[....q.......
0020  09 00 00 00 00 00 00 00 80 06 00 02 00 00 09 00   ................
0030  00 00 00 00 00 00 00 00 00 02 00 00 00 00 00 00   ................

Frame 49: 73 bytes on wire (584 bits), 73 bytes captured (584 bits) on interface 0
    Interface id: 0 (unknown)
